{
	"contracts/kipu_bank.sol": {
		"KipuBank": {
			"abi": [
				{
					"inputs": [
						{
							"internalType": "uint256",
							"name": "_bankCap",
							"type": "uint256"
						},
						{
							"internalType": "uint256",
							"name": "_maxWithdrawalPerTx",
							"type": "uint256"
						}
					],
					"stateMutability": "nonpayable",
					"type": "constructor"
				},
				{
					"inputs": [
						{
							"internalType": "uint256",
							"name": "attempted",
							"type": "uint256"
						},
						{
							"internalType": "uint256",
							"name": "bankCap",
							"type": "uint256"
						}
					],
					"name": "ExceedsBankCap",
					"type": "error"
				},
				{
					"inputs": [
						{
							"internalType": "uint256",
							"name": "attempted",
							"type": "uint256"
						},
						{
							"internalType": "uint256",
							"name": "maxAllowed",
							"type": "uint256"
						}
					],
					"name": "ExceedsMaxWithdrawal",
					"type": "error"
				},
				{
					"inputs": [
						{
							"internalType": "uint256",
							"name": "available",
							"type": "uint256"
						},
						{
							"internalType": "uint256",
							"name": "required",
							"type": "uint256"
						}
					],
					"name": "InsufficientBalance",
					"type": "error"
				},
				{
					"inputs": [
						{
							"internalType": "address",
							"name": "caller",
							"type": "address"
						}
					],
					"name": "NotOwner",
					"type": "error"
				},
				{
					"inputs": [],
					"name": "ReentrantCall",
					"type": "error"
				},
				{
					"inputs": [
						{
							"internalType": "address",
							"name": "to",
							"type": "address"
						},
						{
							"internalType": "uint256",
							"name": "amount",
							"type": "uint256"
						}
					],
					"name": "TransferFailed",
					"type": "error"
				},
				{
					"inputs": [],
					"name": "ZeroAddress",
					"type": "error"
				},
				{
					"inputs": [],
					"name": "ZeroAmount",
					"type": "error"
				},
				{
					"anonymous": false,
					"inputs": [
						{
							"indexed": true,
							"internalType": "address",
							"name": "user",
							"type": "address"
						},
						{
							"indexed": false,
							"internalType": "uint256",
							"name": "amount",
							"type": "uint256"
						},
						{
							"indexed": false,
							"internalType": "uint256",
							"name": "newBalance",
							"type": "uint256"
						},
						{
							"indexed": false,
							"internalType": "uint256",
							"name": "depositIndex",
							"type": "uint256"
						}
					],
					"name": "Deposit",
					"type": "event"
				},
				{
					"anonymous": false,
					"inputs": [
						{
							"indexed": true,
							"internalType": "address",
							"name": "user",
							"type": "address"
						},
						{
							"indexed": false,
							"internalType": "uint256",
							"name": "amount",
							"type": "uint256"
						},
						{
							"indexed": false,
							"internalType": "uint256",
							"name": "newBalance",
							"type": "uint256"
						},
						{
							"indexed": false,
							"internalType": "uint256",
							"name": "withdrawalIndex",
							"type": "uint256"
						}
					],
					"name": "Withdrawal",
					"type": "event"
				},
				{
					"stateMutability": "payable",
					"type": "fallback"
				},
				{
					"inputs": [],
					"name": "VERSION",
					"outputs": [
						{
							"internalType": "string",
							"name": "",
							"type": "string"
						}
					],
					"stateMutability": "view",
					"type": "function"
				},
				{
					"inputs": [],
					"name": "bankCap",
					"outputs": [
						{
							"internalType": "uint256",
							"name": "",
							"type": "uint256"
						}
					],
					"stateMutability": "view",
					"type": "function"
				},
				{
					"inputs": [],
					"name": "deposit",
					"outputs": [],
					"stateMutability": "payable",
					"type": "function"
				},
				{
					"inputs": [
						{
							"internalType": "address",
							"name": "user",
							"type": "address"
						}
					],
					"name": "getBalance",
					"outputs": [
						{
							"internalType": "uint256",
							"name": "",
							"type": "uint256"
						}
					],
					"stateMutability": "view",
					"type": "function"
				},
				{
					"inputs": [],
					"name": "maxWithdrawalPerTx",
					"outputs": [
						{
							"internalType": "uint256",
							"name": "",
							"type": "uint256"
						}
					],
					"stateMutability": "view",
					"type": "function"
				},
				{
					"inputs": [],
					"name": "owner",
					"outputs": [
						{
							"internalType": "address",
							"name": "",
							"type": "address"
						}
					],
					"stateMutability": "view",
					"type": "function"
				},
				{
					"inputs": [],
					"name": "summary",
					"outputs": [
						{
							"internalType": "uint256",
							"name": "bankBalance_",
							"type": "uint256"
						},
						{
							"internalType": "uint256",
							"name": "deposits_",
							"type": "uint256"
						},
						{
							"internalType": "uint256",
							"name": "withdrawals_",
							"type": "uint256"
						},
						{
							"internalType": "uint256",
							"name": "cap_",
							"type": "uint256"
						},
						{
							"internalType": "uint256",
							"name": "maxWithdraw_",
							"type": "uint256"
						}
					],
					"stateMutability": "view",
					"type": "function"
				},
				{
					"inputs": [],
					"name": "totalBankBalance",
					"outputs": [
						{
							"internalType": "uint256",
							"name": "",
							"type": "uint256"
						}
					],
					"stateMutability": "view",
					"type": "function"
				},
				{
					"inputs": [],
					"name": "totalDepositsCount",
					"outputs": [
						{
							"internalType": "uint256",
							"name": "",
							"type": "uint256"
						}
					],
					"stateMutability": "view",
					"type": "function"
				},
				{
					"inputs": [],
					"name": "totalWithdrawalsCount",
					"outputs": [
						{
							"internalType": "uint256",
							"name": "",
							"type": "uint256"
						}
					],
					"stateMutability": "view",
					"type": "function"
				},
				{
					"inputs": [
						{
							"internalType": "address",
							"name": "newOwner",
							"type": "address"
						}
					],
					"name": "transferOwnership",
					"outputs": [],
					"stateMutability": "nonpayable",
					"type": "function"
				},
				{
					"inputs": [
						{
							"internalType": "address",
							"name": "",
							"type": "address"
						}
					],
					"name": "userDepositsCount",
					"outputs": [
						{
							"internalType": "uint256",
							"name": "",
							"type": "uint256"
						}
					],
					"stateMutability": "view",
					"type": "function"
				},
				{
					"inputs": [
						{
							"internalType": "address",
							"name": "",
							"type": "address"
						}
					],
					"name": "userWithdrawalsCount",
					"outputs": [
						{
							"internalType": "uint256",
							"name": "",
							"type": "uint256"
						}
					],
					"stateMutability": "view",
					"type": "function"
				},
				{
					"inputs": [
						{
							"internalType": "uint256",
							"name": "amount",
							"type": "uint256"
						}
					],
					"name": "withdraw",
					"outputs": [],
					"stateMutability": "nonpayable",
					"type": "function"
				},
				{
					"stateMutability": "payable",
					"type": "receive"
				}
			],
			"devdoc": {
				"kind": "dev",
				"methods": {
					"constructor": {
						"params": {
							"_bankCap": "Límite máximo de ETH del banco",
							"_maxWithdrawalPerTx": "Máximo retiro por transacción"
						}
					},
					"getBalance(address)": {
						"params": {
							"user": "Dirección a consultar"
						},
						"returns": {
							"_0": "Balance del usuario en wei"
						}
					},
					"summary()": {
						"returns": {
							"bankBalance_": "Balance total",
							"cap_": "Límite del banco",
							"deposits_": "Total de depósitos",
							"maxWithdraw_": "Límite de retiro por operación",
							"withdrawals_": "Total de retiros"
						}
					},
					"transferOwnership(address)": {
						"params": {
							"newOwner": "Nueva dirección de owner"
						}
					},
					"withdraw(uint256)": {
						"params": {
							"amount": "Cantidad a retirar en wei"
						}
					}
				},
				"stateVariables": {
					"_ENTERED": {
						"details": "Valor de entrada para control de reentrancy"
					},
					"_NOT_ENTERED": {
						"details": "Valor por defecto para control de reentrancy"
					},
					"_status": {
						"details": "Estado para control de reentrancy"
					}
				},
				"title": "KipuBank - Banco simple para depósitos y retiros de ETH con límites y seguridad",
				"version": 1
			},
			"evm": {
				"assembly": "    /* \"contracts/kipu_bank.sol\":150:7196  contract KipuBank {... */\n  mstore(0x40, 0xc0)\n    /* \"contracts/kipu_bank.sol\":3370:3574  constructor(uint256 _bankCap, uint256 _maxWithdrawalPerTx) {... */\n  callvalue\n  dup1\n  iszero\n  tag_1\n  jumpi\n  revert(0x00, 0x00)\ntag_1:\n  pop\n  mload(0x40)\n  sub(codesize, bytecodeSize)\n  dup1\n  bytecodeSize\n  dup4\n  codecopy\n  dup2\n  dup2\n  add\n  0x40\n  mstore\n  dup2\n  add\n  swap1\n  tag_2\n  swap2\n  swap1\n  tag_3\n  jump\t// in\ntag_2:\n    /* \"contracts/kipu_bank.sol\":3447:3457  msg.sender */\n  caller\n    /* \"contracts/kipu_bank.sol\":3439:3444  owner */\n  0x00\n  0x00\n    /* \"contracts/kipu_bank.sol\":3439:3457  owner = msg.sender */\n  0x0100\n  exp\n  dup2\n  sload\n  dup2\n  0xffffffffffffffffffffffffffffffffffffffff\n  mul\n  not\n  and\n  swap1\n  dup4\n  0xffffffffffffffffffffffffffffffffffffffff\n  and\n  mul\n  or\n  swap1\n  sstore\n  pop\n    /* \"contracts/kipu_bank.sol\":3477:3485  _bankCap */\n  dup2\n    /* \"contracts/kipu_bank.sol\":3467:3485  bankCap = _bankCap */\n  0x80\n  dup2\n  dup2\n  mstore\n  pop\n  pop\n    /* \"contracts/kipu_bank.sol\":3516:3535  _maxWithdrawalPerTx */\n  dup1\n    /* \"contracts/kipu_bank.sol\":3495:3535  maxWithdrawalPerTx = _maxWithdrawalPerTx */\n  0xa0\n  dup2\n  dup2\n  mstore\n  pop\n  pop\n    /* \"contracts/kipu_bank.sol\":2707:2708  1 */\n  0x01\n    /* \"contracts/kipu_bank.sol\":3545:3552  _status */\n  0x07\n  0x00\n    /* \"contracts/kipu_bank.sol\":3545:3567  _status = _NOT_ENTERED */\n  0x0100\n  exp\n  dup2\n  sload\n  dup2\n  0xff\n  mul\n  not\n  and\n  swap1\n  dup4\n  0xff\n  and\n  mul\n  or\n  swap1\n  sstore\n  pop\n    /* \"contracts/kipu_bank.sol\":3370:3574  constructor(uint256 _bankCap, uint256 _maxWithdrawalPerTx) {... */\n  pop\n  pop\n    /* \"contracts/kipu_bank.sol\":150:7196  contract KipuBank {... */\n  jump(tag_6)\n    /* \"#utility.yul\":88:205   */\ntag_8:\n    /* \"#utility.yul\":197:198   */\n  0x00\n    /* \"#utility.yul\":194:195   */\n  0x00\n    /* \"#utility.yul\":187:199   */\n  revert\n    /* \"#utility.yul\":334:411   */\ntag_10:\n    /* \"#utility.yul\":371:378   */\n  0x00\n    /* \"#utility.yul\":400:405   */\n  dup2\n    /* \"#utility.yul\":389:405   */\n  swap1\n  pop\n    /* \"#utility.yul\":334:411   */\n  swap2\n  swap1\n  pop\n  jump\t// out\n    /* \"#utility.yul\":417:539   */\ntag_11:\n    /* \"#utility.yul\":490:514   */\n  tag_19\n    /* \"#utility.yul\":508:513   */\n  dup2\n    /* \"#utility.yul\":490:514   */\n  tag_10\n  jump\t// in\ntag_19:\n    /* \"#utility.yul\":483:488   */\n  dup2\n    /* \"#utility.yul\":480:515   */\n  eq\n    /* \"#utility.yul\":470:533   */\n  tag_20\n  jumpi\n    /* \"#utility.yul\":529:530   */\n  0x00\n    /* \"#utility.yul\":526:527   */\n  0x00\n    /* \"#utility.yul\":519:531   */\n  revert\n    /* \"#utility.yul\":470:533   */\ntag_20:\n    /* \"#utility.yul\":417:539   */\n  pop\n  jump\t// out\n    /* \"#utility.yul\":545:688   */\ntag_12:\n    /* \"#utility.yul\":602:607   */\n  0x00\n    /* \"#utility.yul\":633:639   */\n  dup2\n    /* \"#utility.yul\":627:640   */\n  mload\n    /* \"#utility.yul\":618:640   */\n  swap1\n  pop\n    /* \"#utility.yul\":649:682   */\n  tag_22\n    /* \"#utility.yul\":676:681   */\n  dup2\n    /* \"#utility.yul\":649:682   */\n  tag_11\n  jump\t// in\ntag_22:\n    /* \"#utility.yul\":545:688   */\n  swap3\n  swap2\n  pop\n  pop\n  jump\t// out\n    /* \"#utility.yul\":694:1201   */\ntag_3:\n    /* \"#utility.yul\":773:779   */\n  0x00\n    /* \"#utility.yul\":781:787   */\n  0x00\n    /* \"#utility.yul\":830:832   */\n  0x40\n    /* \"#utility.yul\":818:827   */\n  dup4\n    /* \"#utility.yul\":809:816   */\n  dup6\n    /* \"#utility.yul\":805:828   */\n  sub\n    /* \"#utility.yul\":801:833   */\n  slt\n    /* \"#utility.yul\":798:917   */\n  iszero\n  tag_24\n  jumpi\n    /* \"#utility.yul\":836:915   */\n  tag_25\n  tag_8\n  jump\t// in\ntag_25:\n    /* \"#utility.yul\":798:917   */\ntag_24:\n    /* \"#utility.yul\":956:957   */\n  0x00\n    /* \"#utility.yul\":981:1045   */\n  tag_26\n    /* \"#utility.yul\":1037:1044   */\n  dup6\n    /* \"#utility.yul\":1028:1034   */\n  dup3\n    /* \"#utility.yul\":1017:1026   */\n  dup7\n    /* \"#utility.yul\":1013:1035   */\n  add\n    /* \"#utility.yul\":981:1045   */\n  tag_12\n  jump\t// in\ntag_26:\n    /* \"#utility.yul\":971:1045   */\n  swap3\n  pop\n    /* \"#utility.yul\":927:1055   */\n  pop\n    /* \"#utility.yul\":1094:1096   */\n  0x20\n    /* \"#utility.yul\":1120:1184   */\n  tag_27\n    /* \"#utility.yul\":1176:1183   */\n  dup6\n    /* \"#utility.yul\":1167:1173   */\n  dup3\n    /* \"#utility.yul\":1156:1165   */\n  dup7\n    /* \"#utility.yul\":1152:1174   */\n  add\n    /* \"#utility.yul\":1120:1184   */\n  tag_12\n  jump\t// in\ntag_27:\n    /* \"#utility.yul\":1110:1184   */\n  swap2\n  pop\n    /* \"#utility.yul\":1065:1194   */\n  pop\n    /* \"#utility.yul\":694:1201   */\n  swap3\n  pop\n  swap3\n  swap1\n  pop\n  jump\t// out\n    /* \"contracts/kipu_bank.sol\":150:7196  contract KipuBank {... */\ntag_6:\n  mload(0x80)\n  mload(0xa0)\n  codecopy(0x00, dataOffset(sub_0), dataSize(sub_0))\n  0x00\n  assignImmutable(\"0x6b3e710f3089a74ecb6b0f5948e5ff07a3db6ba4da475d2be17624ba96b95b\")\n  0x00\n  assignImmutable(\"0xf928ede1c39c5595ff22fe845412ee05a93eeaa584f8ef0c46b5eeb14cb99ec8\")\n  return(0x00, dataSize(sub_0))\nstop\n\nsub_0: assembly {\n        /* \"contracts/kipu_bank.sol\":150:7196  contract KipuBank {... */\n      mstore(0x40, 0x80)\n      jumpi(tag_1, lt(calldatasize, 0x04))\n      shr(0xe0, calldataload(0x00))\n      dup1\n      0xd0e30db0\n      gt\n      tag_17\n      jumpi\n      dup1\n      0xecbea24d\n      gt\n      tag_18\n      jumpi\n      dup1\n      0xecbea24d\n      eq\n      tag_13\n      jumpi\n      dup1\n      0xf2fde38b\n      eq\n      tag_14\n      jumpi\n      dup1\n      0xf8b2cb4f\n      eq\n      tag_15\n      jumpi\n      dup1\n      0xffa1ad74\n      eq\n      tag_16\n      jumpi\n      jump(tag_2)\n    tag_18:\n      dup1\n      0xd0e30db0\n      eq\n      tag_10\n      jumpi\n      dup1\n      0xd369e33c\n      eq\n      tag_11\n      jumpi\n      dup1\n      0xe4813821\n      eq\n      tag_12\n      jumpi\n      jump(tag_2)\n    tag_17:\n      dup1\n      0x4dab4207\n      gt\n      tag_19\n      jumpi\n      dup1\n      0x4dab4207\n      eq\n      tag_6\n      jumpi\n      dup1\n      0x8da5cb5b\n      eq\n      tag_7\n      jumpi\n      dup1\n      0xb16a867c\n      eq\n      tag_8\n      jumpi\n      dup1\n      0xc847119d\n      eq\n      tag_9\n      jumpi\n      jump(tag_2)\n    tag_19:\n      dup1\n      0x0770e571\n      eq\n      tag_3\n      jumpi\n      dup1\n      0x1977e938\n      eq\n      tag_4\n      jumpi\n      dup1\n      0x2e1a7d4d\n      eq\n      tag_5\n      jumpi\n      jump(tag_2)\n    tag_1:\n      jumpi(tag_2, calldatasize)\n        /* \"contracts/kipu_bank.sol\":2805:2806  2 */\n      0x02\n        /* \"contracts/kipu_bank.sol\":2895:2914  _status == _ENTERED */\n      0xff\n      and\n        /* \"contracts/kipu_bank.sol\":2895:2902  _status */\n      0x07\n      0x00\n      swap1\n      sload\n      swap1\n      0x0100\n      exp\n      swap1\n      div\n      0xff\n      and\n        /* \"contracts/kipu_bank.sol\":2895:2914  _status == _ENTERED */\n      0xff\n      and\n      sub\n        /* \"contracts/kipu_bank.sol\":2891:2938  if (_status == _ENTERED) revert ReentrantCall() */\n      tag_22\n      jumpi\n        /* \"contracts/kipu_bank.sol\":2923:2938  ReentrantCall() */\n      mload(0x40)\n      0x37ed32e800000000000000000000000000000000000000000000000000000000\n      dup2\n      mstore\n      0x04\n      add\n      mload(0x40)\n      dup1\n      swap2\n      sub\n      swap1\n      revert\n        /* \"contracts/kipu_bank.sol\":2891:2938  if (_status == _ENTERED) revert ReentrantCall() */\n    tag_22:\n        /* \"contracts/kipu_bank.sol\":2805:2806  2 */\n      0x02\n        /* \"contracts/kipu_bank.sol\":2948:2955  _status */\n      0x07\n      0x00\n        /* \"contracts/kipu_bank.sol\":2948:2966  _status = _ENTERED */\n      0x0100\n      exp\n      dup2\n      sload\n      dup2\n      0xff\n      mul\n      not\n      and\n      swap1\n      dup4\n      0xff\n      and\n      mul\n      or\n      swap1\n      sstore\n      pop\n        /* \"contracts/kipu_bank.sol\":6907:6946  _internalDeposit(msg.sender, msg.value) */\n      tag_24\n        /* \"contracts/kipu_bank.sol\":6924:6934  msg.sender */\n      caller\n        /* \"contracts/kipu_bank.sol\":6936:6945  msg.value */\n      callvalue\n        /* \"contracts/kipu_bank.sol\":6907:6923  _internalDeposit */\n      tag_25\n        /* \"contracts/kipu_bank.sol\":6907:6946  _internalDeposit(msg.sender, msg.value) */\n      jump\t// in\n    tag_24:\n        /* \"contracts/kipu_bank.sol\":2707:2708  1 */\n      0x01\n        /* \"contracts/kipu_bank.sol\":2987:2994  _status */\n      0x07\n      0x00\n        /* \"contracts/kipu_bank.sol\":2987:3009  _status = _NOT_ENTERED */\n      0x0100\n      exp\n      dup2\n      sload\n      dup2\n      0xff\n      mul\n      not\n      and\n      swap1\n      dup4\n      0xff\n      and\n      mul\n      or\n      swap1\n      sstore\n      stop\n        /* \"contracts/kipu_bank.sol\":150:7196  contract KipuBank {... */\n    tag_2:\n        /* \"contracts/kipu_bank.sol\":2805:2806  2 */\n      0x02\n        /* \"contracts/kipu_bank.sol\":2895:2914  _status == _ENTERED */\n      0xff\n      and\n        /* \"contracts/kipu_bank.sol\":2895:2902  _status */\n      0x07\n      0x00\n      swap1\n      sload\n      swap1\n      0x0100\n      exp\n      swap1\n      div\n      0xff\n      and\n        /* \"contracts/kipu_bank.sol\":2895:2914  _status == _ENTERED */\n      0xff\n      and\n      sub\n        /* \"contracts/kipu_bank.sol\":2891:2938  if (_status == _ENTERED) revert ReentrantCall() */\n      tag_28\n      jumpi\n        /* \"contracts/kipu_bank.sol\":2923:2938  ReentrantCall() */\n      mload(0x40)\n      0x37ed32e800000000000000000000000000000000000000000000000000000000\n      dup2\n      mstore\n      0x04\n      add\n      mload(0x40)\n      dup1\n      swap2\n      sub\n      swap1\n      revert\n        /* \"contracts/kipu_bank.sol\":2891:2938  if (_status == _ENTERED) revert ReentrantCall() */\n    tag_28:\n        /* \"contracts/kipu_bank.sol\":2805:2806  2 */\n      0x02\n        /* \"contracts/kipu_bank.sol\":2948:2955  _status */\n      0x07\n      0x00\n        /* \"contracts/kipu_bank.sol\":2948:2966  _status = _ENTERED */\n      0x0100\n      exp\n      dup2\n      sload\n      dup2\n      0xff\n      mul\n      not\n      and\n      swap1\n      dup4\n      0xff\n      and\n      mul\n      or\n      swap1\n      sstore\n      pop\n        /* \"contracts/kipu_bank.sol\":7121:7122  0 */\n      0x00\n        /* \"contracts/kipu_bank.sol\":7109:7118  msg.value */\n      callvalue\n        /* \"contracts/kipu_bank.sol\":7109:7122  msg.value > 0 */\n      gt\n        /* \"contracts/kipu_bank.sol\":7105:7188  if (msg.value > 0) {... */\n      iszero\n      tag_30\n      jumpi\n        /* \"contracts/kipu_bank.sol\":7138:7177  _internalDeposit(msg.sender, msg.value) */\n      tag_31\n        /* \"contracts/kipu_bank.sol\":7155:7165  msg.sender */\n      caller\n        /* \"contracts/kipu_bank.sol\":7167:7176  msg.value */\n      callvalue\n        /* \"contracts/kipu_bank.sol\":7138:7154  _internalDeposit */\n      tag_25\n        /* \"contracts/kipu_bank.sol\":7138:7177  _internalDeposit(msg.sender, msg.value) */\n      jump\t// in\n    tag_31:\n        /* \"contracts/kipu_bank.sol\":7105:7188  if (msg.value > 0) {... */\n    tag_30:\n        /* \"contracts/kipu_bank.sol\":2707:2708  1 */\n      0x01\n        /* \"contracts/kipu_bank.sol\":2987:2994  _status */\n      0x07\n      0x00\n        /* \"contracts/kipu_bank.sol\":2987:3009  _status = _NOT_ENTERED */\n      0x0100\n      exp\n      dup2\n      sload\n      dup2\n      0xff\n      mul\n      not\n      and\n      swap1\n      dup4\n      0xff\n      and\n      mul\n      or\n      swap1\n      sstore\n      stop\n        /* \"contracts/kipu_bank.sol\":1758:1794  uint256 public totalWithdrawalsCount */\n    tag_3:\n      callvalue\n      dup1\n      iszero\n      tag_32\n      jumpi\n      revert(0x00, 0x00)\n    tag_32:\n      pop\n      tag_33\n      tag_34\n      jump\t// in\n    tag_33:\n      mload(0x40)\n      tag_35\n      swap2\n      swap1\n      tag_36\n      jump\t// in\n    tag_35:\n      mload(0x40)\n      dup1\n      swap2\n      sub\n      swap1\n      return\n        /* \"contracts/kipu_bank.sol\":1593:1624  uint256 public totalBankBalance */\n    tag_4:\n      callvalue\n      dup1\n      iszero\n      tag_37\n      jumpi\n      revert(0x00, 0x00)\n    tag_37:\n      pop\n      tag_38\n      tag_39\n      jump\t// in\n    tag_38:\n      mload(0x40)\n      tag_40\n      swap2\n      swap1\n      tag_36\n      jump\t// in\n    tag_40:\n      mload(0x40)\n      dup1\n      swap2\n      sub\n      swap1\n      return\n        /* \"contracts/kipu_bank.sol\":4629:5337  function withdraw(uint256 amount) external nonReentrant {... */\n    tag_5:\n      callvalue\n      dup1\n      iszero\n      tag_41\n      jumpi\n      revert(0x00, 0x00)\n    tag_41:\n      pop\n      tag_42\n      0x04\n      dup1\n      calldatasize\n      sub\n      dup2\n      add\n      swap1\n      tag_43\n      swap2\n      swap1\n      tag_44\n      jump\t// in\n    tag_43:\n      tag_45\n      jump\t// in\n    tag_42:\n      stop\n        /* \"contracts/kipu_bank.sol\":1372:1415  uint256 public immutable maxWithdrawalPerTx */\n    tag_6:\n      callvalue\n      dup1\n      iszero\n      tag_46\n      jumpi\n      revert(0x00, 0x00)\n    tag_46:\n      pop\n      tag_47\n      tag_48\n      jump\t// in\n    tag_47:\n      mload(0x40)\n      tag_49\n      swap2\n      swap1\n      tag_36\n      jump\t// in\n    tag_49:\n      mload(0x40)\n      dup1\n      swap2\n      sub\n      swap1\n      return\n        /* \"contracts/kipu_bank.sol\":1526:1546  address public owner */\n    tag_7:\n      callvalue\n      dup1\n      iszero\n      tag_50\n      jumpi\n      revert(0x00, 0x00)\n    tag_50:\n      pop\n      tag_51\n      tag_52\n      jump\t// in\n    tag_51:\n      mload(0x40)\n      tag_53\n      swap2\n      swap1\n      tag_54\n      jump\t// in\n    tag_53:\n      mload(0x40)\n      dup1\n      swap2\n      sub\n      swap1\n      return\n        /* \"contracts/kipu_bank.sol\":6336:6689  function summary()... */\n    tag_8:\n      callvalue\n      dup1\n      iszero\n      tag_55\n      jumpi\n      revert(0x00, 0x00)\n    tag_55:\n      pop\n      tag_56\n      tag_57\n      jump\t// in\n    tag_56:\n      mload(0x40)\n      tag_58\n      swap6\n      swap5\n      swap4\n      swap3\n      swap2\n      swap1\n      tag_59\n      jump\t// in\n    tag_58:\n      mload(0x40)\n      dup1\n      swap2\n      sub\n      swap1\n      return\n        /* \"contracts/kipu_bank.sol\":1676:1709  uint256 public totalDepositsCount */\n    tag_9:\n      callvalue\n      dup1\n      iszero\n      tag_60\n      jumpi\n      revert(0x00, 0x00)\n    tag_60:\n      pop\n      tag_61\n      tag_62\n      jump\t// in\n    tag_61:\n      mload(0x40)\n      tag_63\n      swap2\n      swap1\n      tag_36\n      jump\t// in\n    tag_63:\n      mload(0x40)\n      dup1\n      swap2\n      sub\n      swap1\n      return\n        /* \"contracts/kipu_bank.sol\":4396:4501  function deposit() external payable nonReentrant {... */\n    tag_10:\n      tag_64\n      tag_65\n      jump\t// in\n    tag_64:\n      stop\n        /* \"contracts/kipu_bank.sol\":1942:1994  mapping(address => uint256) public userDepositsCount */\n    tag_11:\n      callvalue\n      dup1\n      iszero\n      tag_66\n      jumpi\n      revert(0x00, 0x00)\n    tag_66:\n      pop\n      tag_67\n      0x04\n      dup1\n      calldatasize\n      sub\n      dup2\n      add\n      swap1\n      tag_68\n      swap2\n      swap1\n      tag_69\n      jump\t// in\n    tag_68:\n      tag_70\n      jump\t// in\n    tag_67:\n      mload(0x40)\n      tag_71\n      swap2\n      swap1\n      tag_36\n      jump\t// in\n    tag_71:\n      mload(0x40)\n      dup1\n      swap2\n      sub\n      swap1\n      return\n        /* \"contracts/kipu_bank.sol\":2048:2103  mapping(address => uint256) public userWithdrawalsCount */\n    tag_12:\n      callvalue\n      dup1\n      iszero\n      tag_72\n      jumpi\n      revert(0x00, 0x00)\n    tag_72:\n      pop\n      tag_73\n      0x04\n      dup1\n      calldatasize\n      sub\n      dup2\n      add\n      swap1\n      tag_74\n      swap2\n      swap1\n      tag_69\n      jump\t// in\n    tag_74:\n      tag_75\n      jump\t// in\n    tag_73:\n      mload(0x40)\n      tag_76\n      swap2\n      swap1\n      tag_36\n      jump\t// in\n    tag_76:\n      mload(0x40)\n      dup1\n      swap2\n      sub\n      swap1\n      return\n        /* \"contracts/kipu_bank.sol\":1272:1304  uint256 public immutable bankCap */\n    tag_13:\n      callvalue\n      dup1\n      iszero\n      tag_77\n      jumpi\n      revert(0x00, 0x00)\n    tag_77:\n      pop\n      tag_78\n      tag_79\n      jump\t// in\n    tag_78:\n      mload(0x40)\n      tag_80\n      swap2\n      swap1\n      tag_36\n      jump\t// in\n    tag_80:\n      mload(0x40)\n      dup1\n      swap2\n      sub\n      swap1\n      return\n        /* \"contracts/kipu_bank.sol\":5575:5730  function transferOwnership(address newOwner) external onlyOwner {... */\n    tag_14:\n      callvalue\n      dup1\n      iszero\n      tag_81\n      jumpi\n      revert(0x00, 0x00)\n    tag_81:\n      pop\n      tag_82\n      0x04\n      dup1\n      calldatasize\n      sub\n      dup2\n      add\n      swap1\n      tag_83\n      swap2\n      swap1\n      tag_69\n      jump\t// in\n    tag_83:\n      tag_84\n      jump\t// in\n    tag_82:\n      stop\n        /* \"contracts/kipu_bank.sol\":5937:6041  function getBalance(address user) external view returns (uint256) {... */\n    tag_15:\n      callvalue\n      dup1\n      iszero\n      tag_85\n      jumpi\n      revert(0x00, 0x00)\n    tag_85:\n      pop\n      tag_86\n      0x04\n      dup1\n      calldatasize\n      sub\n      dup2\n      add\n      swap1\n      tag_87\n      swap2\n      swap1\n      tag_69\n      jump\t// in\n    tag_87:\n      tag_88\n      jump\t// in\n    tag_86:\n      mload(0x40)\n      tag_89\n      swap2\n      swap1\n      tag_36\n      jump\t// in\n    tag_89:\n      mload(0x40)\n      dup1\n      swap2\n      sub\n      swap1\n      return\n        /* \"contracts/kipu_bank.sol\":1156:1202  string public constant VERSION = \"KipuBank v1\" */\n    tag_16:\n      callvalue\n      dup1\n      iszero\n      tag_90\n      jumpi\n      revert(0x00, 0x00)\n    tag_90:\n      pop\n      tag_91\n      tag_92\n      jump\t// in\n    tag_91:\n      mload(0x40)\n      tag_93\n      swap2\n      swap1\n      tag_94\n      jump\t// in\n    tag_93:\n      mload(0x40)\n      dup1\n      swap2\n      sub\n      swap1\n      return\n        /* \"contracts/kipu_bank.sol\":3822:4277  function _internalDeposit(address user, uint256 amount) private {... */\n    tag_25:\n        /* \"contracts/kipu_bank.sol\":3910:3911  0 */\n      0x00\n        /* \"contracts/kipu_bank.sol\":3900:3906  amount */\n      dup2\n        /* \"contracts/kipu_bank.sol\":3900:3911  amount == 0 */\n      sub\n        /* \"contracts/kipu_bank.sol\":3896:3932  if (amount == 0) revert ZeroAmount() */\n      tag_96\n      jumpi\n        /* \"contracts/kipu_bank.sol\":3920:3932  ZeroAmount() */\n      mload(0x40)\n      0x1f2a200500000000000000000000000000000000000000000000000000000000\n      dup2\n      mstore\n      0x04\n      add\n      mload(0x40)\n      dup1\n      swap2\n      sub\n      swap1\n      revert\n        /* \"contracts/kipu_bank.sol\":3896:3932  if (amount == 0) revert ZeroAmount() */\n    tag_96:\n        /* \"contracts/kipu_bank.sol\":3942:3958  uint256 newTotal */\n      0x00\n        /* \"contracts/kipu_bank.sol\":3980:3986  amount */\n      dup2\n        /* \"contracts/kipu_bank.sol\":3961:3977  totalBankBalance */\n      sload(0x01)\n        /* \"contracts/kipu_bank.sol\":3961:3986  totalBankBalance + amount */\n      tag_97\n      swap2\n      swap1\n      tag_98\n      jump\t// in\n    tag_97:\n        /* \"contracts/kipu_bank.sol\":3942:3986  uint256 newTotal = totalBankBalance + amount */\n      swap1\n      pop\n        /* \"contracts/kipu_bank.sol\":4011:4018  bankCap */\n      immutable(\"0xf928ede1c39c5595ff22fe845412ee05a93eeaa584f8ef0c46b5eeb14cb99ec8\")\n        /* \"contracts/kipu_bank.sol\":4000:4008  newTotal */\n      dup2\n        /* \"contracts/kipu_bank.sol\":4000:4018  newTotal > bankCap */\n      gt\n        /* \"contracts/kipu_bank.sol\":3996:4060  if (newTotal > bankCap) revert ExceedsBankCap(newTotal, bankCap) */\n      iszero\n      tag_99\n      jumpi\n        /* \"contracts/kipu_bank.sol\":4042:4050  newTotal */\n      dup1\n        /* \"contracts/kipu_bank.sol\":4052:4059  bankCap */\n      immutable(\"0xf928ede1c39c5595ff22fe845412ee05a93eeaa584f8ef0c46b5eeb14cb99ec8\")\n        /* \"contracts/kipu_bank.sol\":4027:4060  ExceedsBankCap(newTotal, bankCap) */\n      mload(0x40)\n      0x4274ef7700000000000000000000000000000000000000000000000000000000\n      dup2\n      mstore\n      0x04\n      add\n      tag_100\n      swap3\n      swap2\n      swap1\n      tag_101\n      jump\t// in\n    tag_100:\n      mload(0x40)\n      dup1\n      swap2\n      sub\n      swap1\n      revert\n        /* \"contracts/kipu_bank.sol\":3996:4060  if (newTotal > bankCap) revert ExceedsBankCap(newTotal, bankCap) */\n    tag_99:\n        /* \"contracts/kipu_bank.sol\":4089:4095  amount */\n      dup2\n        /* \"contracts/kipu_bank.sol\":4071:4079  balances */\n      0x04\n        /* \"contracts/kipu_bank.sol\":4071:4085  balances[user] */\n      0x00\n        /* \"contracts/kipu_bank.sol\":4080:4084  user */\n      dup6\n        /* \"contracts/kipu_bank.sol\":4071:4085  balances[user] */\n      0xffffffffffffffffffffffffffffffffffffffff\n      and\n      0xffffffffffffffffffffffffffffffffffffffff\n      and\n      dup2\n      mstore\n      0x20\n      add\n      swap1\n      dup2\n      mstore\n      0x20\n      add\n      0x00\n      keccak256\n      0x00\n        /* \"contracts/kipu_bank.sol\":4071:4095  balances[user] += amount */\n      dup3\n      dup3\n      sload\n      tag_102\n      swap2\n      swap1\n      tag_98\n      jump\t// in\n    tag_102:\n      swap3\n      pop\n      pop\n      dup2\n      swap1\n      sstore\n      pop\n        /* \"contracts/kipu_bank.sol\":4124:4132  newTotal */\n      dup1\n        /* \"contracts/kipu_bank.sol\":4105:4121  totalBankBalance */\n      0x01\n        /* \"contracts/kipu_bank.sol\":4105:4132  totalBankBalance = newTotal */\n      dup2\n      swap1\n      sstore\n      pop\n        /* \"contracts/kipu_bank.sol\":4142:4160  totalDepositsCount */\n      0x02\n      0x00\n        /* \"contracts/kipu_bank.sol\":4142:4162  totalDepositsCount++ */\n      dup2\n      sload\n      dup1\n      swap3\n      swap2\n      swap1\n      tag_103\n      swap1\n      tag_104\n      jump\t// in\n    tag_103:\n      swap2\n      swap1\n      pop\n      sstore\n      pop\n        /* \"contracts/kipu_bank.sol\":4172:4189  userDepositsCount */\n      0x05\n        /* \"contracts/kipu_bank.sol\":4172:4195  userDepositsCount[user] */\n      0x00\n        /* \"contracts/kipu_bank.sol\":4190:4194  user */\n      dup5\n        /* \"contracts/kipu_bank.sol\":4172:4195  userDepositsCount[user] */\n      0xffffffffffffffffffffffffffffffffffffffff\n      and\n      0xffffffffffffffffffffffffffffffffffffffff\n      and\n      dup2\n      mstore\n      0x20\n      add\n      swap1\n      dup2\n      mstore\n      0x20\n      add\n      0x00\n      keccak256\n      0x00\n        /* \"contracts/kipu_bank.sol\":4172:4197  userDepositsCount[user]++ */\n      dup2\n      sload\n      dup1\n      swap3\n      swap2\n      swap1\n      tag_105\n      swap1\n      tag_104\n      jump\t// in\n    tag_105:\n      swap2\n      swap1\n      pop\n      sstore\n      pop\n        /* \"contracts/kipu_bank.sol\":4221:4225  user */\n      dup3\n        /* \"contracts/kipu_bank.sol\":4213:4270  Deposit(user, amount, balances[user], totalDepositsCount) */\n      0xffffffffffffffffffffffffffffffffffffffff\n      and\n      0x36af321ec8d3c75236829c5317affd40ddb308863a1236d2d277a4025cccee1e\n        /* \"contracts/kipu_bank.sol\":4227:4233  amount */\n      dup4\n        /* \"contracts/kipu_bank.sol\":4235:4243  balances */\n      0x04\n        /* \"contracts/kipu_bank.sol\":4235:4249  balances[user] */\n      0x00\n        /* \"contracts/kipu_bank.sol\":4244:4248  user */\n      dup8\n        /* \"contracts/kipu_bank.sol\":4235:4249  balances[user] */\n      0xffffffffffffffffffffffffffffffffffffffff\n      and\n      0xffffffffffffffffffffffffffffffffffffffff\n      and\n      dup2\n      mstore\n      0x20\n      add\n      swap1\n      dup2\n      mstore\n      0x20\n      add\n      0x00\n      keccak256\n      sload\n        /* \"contracts/kipu_bank.sol\":4251:4269  totalDepositsCount */\n      sload(0x02)\n        /* \"contracts/kipu_bank.sol\":4213:4270  Deposit(user, amount, balances[user], totalDepositsCount) */\n      mload(0x40)\n      tag_106\n      swap4\n      swap3\n      swap2\n      swap1\n      tag_107\n      jump\t// in\n    tag_106:\n      mload(0x40)\n      dup1\n      swap2\n      sub\n      swap1\n      log2\n        /* \"contracts/kipu_bank.sol\":3886:4277  {... */\n      pop\n        /* \"contracts/kipu_bank.sol\":3822:4277  function _internalDeposit(address user, uint256 amount) private {... */\n      pop\n      pop\n      jump\t// out\n        /* \"contracts/kipu_bank.sol\":1758:1794  uint256 public totalWithdrawalsCount */\n    tag_34:\n      sload(0x03)\n      dup2\n      jump\t// out\n        /* \"contracts/kipu_bank.sol\":1593:1624  uint256 public totalBankBalance */\n    tag_39:\n      sload(0x01)\n      dup2\n      jump\t// out\n        /* \"contracts/kipu_bank.sol\":4629:5337  function withdraw(uint256 amount) external nonReentrant {... */\n    tag_45:\n        /* \"contracts/kipu_bank.sol\":2805:2806  2 */\n      0x02\n        /* \"contracts/kipu_bank.sol\":2895:2914  _status == _ENTERED */\n      0xff\n      and\n        /* \"contracts/kipu_bank.sol\":2895:2902  _status */\n      0x07\n      0x00\n      swap1\n      sload\n      swap1\n      0x0100\n      exp\n      swap1\n      div\n      0xff\n      and\n        /* \"contracts/kipu_bank.sol\":2895:2914  _status == _ENTERED */\n      0xff\n      and\n      sub\n        /* \"contracts/kipu_bank.sol\":2891:2938  if (_status == _ENTERED) revert ReentrantCall() */\n      tag_109\n      jumpi\n        /* \"contracts/kipu_bank.sol\":2923:2938  ReentrantCall() */\n      mload(0x40)\n      0x37ed32e800000000000000000000000000000000000000000000000000000000\n      dup2\n      mstore\n      0x04\n      add\n      mload(0x40)\n      dup1\n      swap2\n      sub\n      swap1\n      revert\n        /* \"contracts/kipu_bank.sol\":2891:2938  if (_status == _ENTERED) revert ReentrantCall() */\n    tag_109:\n        /* \"contracts/kipu_bank.sol\":2805:2806  2 */\n      0x02\n        /* \"contracts/kipu_bank.sol\":2948:2955  _status */\n      0x07\n      0x00\n        /* \"contracts/kipu_bank.sol\":2948:2966  _status = _ENTERED */\n      0x0100\n      exp\n      dup2\n      sload\n      dup2\n      0xff\n      mul\n      not\n      and\n      swap1\n      dup4\n      0xff\n      and\n      mul\n      or\n      swap1\n      sstore\n      pop\n        /* \"contracts/kipu_bank.sol\":4709:4710  0 */\n      0x00\n        /* \"contracts/kipu_bank.sol\":4699:4705  amount */\n      dup2\n        /* \"contracts/kipu_bank.sol\":4699:4710  amount == 0 */\n      sub\n        /* \"contracts/kipu_bank.sol\":4695:4731  if (amount == 0) revert ZeroAmount() */\n      tag_111\n      jumpi\n        /* \"contracts/kipu_bank.sol\":4719:4731  ZeroAmount() */\n      mload(0x40)\n      0x1f2a200500000000000000000000000000000000000000000000000000000000\n      dup2\n      mstore\n      0x04\n      add\n      mload(0x40)\n      dup1\n      swap2\n      sub\n      swap1\n      revert\n        /* \"contracts/kipu_bank.sol\":4695:4731  if (amount == 0) revert ZeroAmount() */\n    tag_111:\n        /* \"contracts/kipu_bank.sol\":4754:4772  maxWithdrawalPerTx */\n      immutable(\"0x6b3e710f3089a74ecb6b0f5948e5ff07a3db6ba4da475d2be17624ba96b95b\")\n        /* \"contracts/kipu_bank.sol\":4745:4751  amount */\n      dup2\n        /* \"contracts/kipu_bank.sol\":4745:4772  amount > maxWithdrawalPerTx */\n      gt\n        /* \"contracts/kipu_bank.sol\":4741:4829  if (amount > maxWithdrawalPerTx) revert ExceedsMaxWithdrawal(amount, maxWithdrawalPerTx) */\n      iszero\n      tag_112\n      jumpi\n        /* \"contracts/kipu_bank.sol\":4802:4808  amount */\n      dup1\n        /* \"contracts/kipu_bank.sol\":4810:4828  maxWithdrawalPerTx */\n      immutable(\"0x6b3e710f3089a74ecb6b0f5948e5ff07a3db6ba4da475d2be17624ba96b95b\")\n        /* \"contracts/kipu_bank.sol\":4781:4829  ExceedsMaxWithdrawal(amount, maxWithdrawalPerTx) */\n      mload(0x40)\n      0xde0313af00000000000000000000000000000000000000000000000000000000\n      dup2\n      mstore\n      0x04\n      add\n      tag_113\n      swap3\n      swap2\n      swap1\n      tag_101\n      jump\t// in\n    tag_113:\n      mload(0x40)\n      dup1\n      swap2\n      sub\n      swap1\n      revert\n        /* \"contracts/kipu_bank.sol\":4741:4829  if (amount > maxWithdrawalPerTx) revert ExceedsMaxWithdrawal(amount, maxWithdrawalPerTx) */\n    tag_112:\n        /* \"contracts/kipu_bank.sol\":4840:4855  uint256 userBal */\n      0x00\n        /* \"contracts/kipu_bank.sol\":4858:4866  balances */\n      0x04\n        /* \"contracts/kipu_bank.sol\":4858:4878  balances[msg.sender] */\n      0x00\n        /* \"contracts/kipu_bank.sol\":4867:4877  msg.sender */\n      caller\n        /* \"contracts/kipu_bank.sol\":4858:4878  balances[msg.sender] */\n      0xffffffffffffffffffffffffffffffffffffffff\n      and\n      0xffffffffffffffffffffffffffffffffffffffff\n      and\n      dup2\n      mstore\n      0x20\n      add\n      swap1\n      dup2\n      mstore\n      0x20\n      add\n      0x00\n      keccak256\n      sload\n        /* \"contracts/kipu_bank.sol\":4840:4878  uint256 userBal = balances[msg.sender] */\n      swap1\n      pop\n        /* \"contracts/kipu_bank.sol\":4902:4908  amount */\n      dup2\n        /* \"contracts/kipu_bank.sol\":4892:4899  userBal */\n      dup2\n        /* \"contracts/kipu_bank.sol\":4892:4908  userBal < amount */\n      lt\n        /* \"contracts/kipu_bank.sol\":4888:4953  if (userBal < amount) revert InsufficientBalance(userBal, amount) */\n      iszero\n      tag_114\n      jumpi\n        /* \"contracts/kipu_bank.sol\":4937:4944  userBal */\n      dup1\n        /* \"contracts/kipu_bank.sol\":4946:4952  amount */\n      dup3\n        /* \"contracts/kipu_bank.sol\":4917:4953  InsufficientBalance(userBal, amount) */\n      mload(0x40)\n      0xcf47918100000000000000000000000000000000000000000000000000000000\n      dup2\n      mstore\n      0x04\n      add\n      tag_115\n      swap3\n      swap2\n      swap1\n      tag_101\n      jump\t// in\n    tag_115:\n      mload(0x40)\n      dup1\n      swap2\n      sub\n      swap1\n      revert\n        /* \"contracts/kipu_bank.sol\":4888:4953  if (userBal < amount) revert InsufficientBalance(userBal, amount) */\n    tag_114:\n        /* \"contracts/kipu_bank.sol\":4997:5003  amount */\n      dup2\n        /* \"contracts/kipu_bank.sol\":4987:4994  userBal */\n      dup2\n        /* \"contracts/kipu_bank.sol\":4987:5003  userBal - amount */\n      tag_116\n      swap2\n      swap1\n      tag_117\n      jump\t// in\n    tag_116:\n        /* \"contracts/kipu_bank.sol\":4964:4972  balances */\n      0x04\n        /* \"contracts/kipu_bank.sol\":4964:4984  balances[msg.sender] */\n      0x00\n        /* \"contracts/kipu_bank.sol\":4973:4983  msg.sender */\n      caller\n        /* \"contracts/kipu_bank.sol\":4964:4984  balances[msg.sender] */\n      0xffffffffffffffffffffffffffffffffffffffff\n      and\n      0xffffffffffffffffffffffffffffffffffffffff\n      and\n      dup2\n      mstore\n      0x20\n      add\n      swap1\n      dup2\n      mstore\n      0x20\n      add\n      0x00\n      keccak256\n        /* \"contracts/kipu_bank.sol\":4964:5003  balances[msg.sender] = userBal - amount */\n      dup2\n      swap1\n      sstore\n      pop\n        /* \"contracts/kipu_bank.sol\":5033:5039  amount */\n      dup2\n        /* \"contracts/kipu_bank.sol\":5013:5029  totalBankBalance */\n      0x01\n      0x00\n        /* \"contracts/kipu_bank.sol\":5013:5039  totalBankBalance -= amount */\n      dup3\n      dup3\n      sload\n      tag_118\n      swap2\n      swap1\n      tag_117\n      jump\t// in\n    tag_118:\n      swap3\n      pop\n      pop\n      dup2\n      swap1\n      sstore\n      pop\n        /* \"contracts/kipu_bank.sol\":5049:5070  totalWithdrawalsCount */\n      0x03\n      0x00\n        /* \"contracts/kipu_bank.sol\":5049:5072  totalWithdrawalsCount++ */\n      dup2\n      sload\n      dup1\n      swap3\n      swap2\n      swap1\n      tag_119\n      swap1\n      tag_104\n      jump\t// in\n    tag_119:\n      swap2\n      swap1\n      pop\n      sstore\n      pop\n        /* \"contracts/kipu_bank.sol\":5082:5102  userWithdrawalsCount */\n      0x06\n        /* \"contracts/kipu_bank.sol\":5082:5114  userWithdrawalsCount[msg.sender] */\n      0x00\n        /* \"contracts/kipu_bank.sol\":5103:5113  msg.sender */\n      caller\n        /* \"contracts/kipu_bank.sol\":5082:5114  userWithdrawalsCount[msg.sender] */\n      0xffffffffffffffffffffffffffffffffffffffff\n      and\n      0xffffffffffffffffffffffffffffffffffffffff\n      and\n      dup2\n      mstore\n      0x20\n      add\n      swap1\n      dup2\n      mstore\n      0x20\n      add\n      0x00\n      keccak256\n      0x00\n        /* \"contracts/kipu_bank.sol\":5082:5116  userWithdrawalsCount[msg.sender]++ */\n      dup2\n      sload\n      dup1\n      swap3\n      swap2\n      swap1\n      tag_120\n      swap1\n      tag_104\n      jump\t// in\n    tag_120:\n      swap2\n      swap1\n      pop\n      sstore\n      pop\n        /* \"contracts/kipu_bank.sol\":5128:5137  bool sent */\n      0x00\n        /* \"contracts/kipu_bank.sol\":5143:5153  msg.sender */\n      caller\n        /* \"contracts/kipu_bank.sol\":5143:5158  msg.sender.call */\n      0xffffffffffffffffffffffffffffffffffffffff\n      and\n        /* \"contracts/kipu_bank.sol\":5166:5172  amount */\n      dup4\n        /* \"contracts/kipu_bank.sol\":5143:5177  msg.sender.call{value: amount}(\"\") */\n      mload(0x40)\n      tag_121\n      swap1\n      tag_122\n      jump\t// in\n    tag_121:\n      0x00\n      mload(0x40)\n      dup1\n      dup4\n      sub\n      dup2\n      dup6\n      dup8\n      gas\n      call\n      swap3\n      pop\n      pop\n      pop\n      returndatasize\n      dup1\n      0x00\n      dup2\n      eq\n      tag_125\n      jumpi\n      mload(0x40)\n      swap2\n      pop\n      and(add(returndatasize, 0x3f), not(0x1f))\n      dup3\n      add\n      0x40\n      mstore\n      returndatasize\n      dup3\n      mstore\n      returndatasize\n      0x00\n      0x20\n      dup5\n      add\n      returndatacopy\n      jump(tag_124)\n    tag_125:\n      0x60\n      swap2\n      pop\n    tag_124:\n      pop\n        /* \"contracts/kipu_bank.sol\":5127:5177  (bool sent, ) = msg.sender.call{value: amount}(\"\") */\n      pop\n      swap1\n      pop\n        /* \"contracts/kipu_bank.sol\":5192:5196  sent */\n      dup1\n        /* \"contracts/kipu_bank.sol\":5187:5239  if (!sent) revert TransferFailed(msg.sender, amount) */\n      tag_126\n      jumpi\n        /* \"contracts/kipu_bank.sol\":5220:5230  msg.sender */\n      caller\n        /* \"contracts/kipu_bank.sol\":5232:5238  amount */\n      dup4\n        /* \"contracts/kipu_bank.sol\":5205:5239  TransferFailed(msg.sender, amount) */\n      mload(0x40)\n      0x1c43b97600000000000000000000000000000000000000000000000000000000\n      dup2\n      mstore\n      0x04\n      add\n      tag_127\n      swap3\n      swap2\n      swap1\n      tag_128\n      jump\t// in\n    tag_127:\n      mload(0x40)\n      dup1\n      swap2\n      sub\n      swap1\n      revert\n        /* \"contracts/kipu_bank.sol\":5187:5239  if (!sent) revert TransferFailed(msg.sender, amount) */\n    tag_126:\n        /* \"contracts/kipu_bank.sol\":5266:5276  msg.sender */\n      caller\n        /* \"contracts/kipu_bank.sol\":5255:5330  Withdrawal(msg.sender, amount, balances[msg.sender], totalWithdrawalsCount) */\n      0xffffffffffffffffffffffffffffffffffffffff\n      and\n      0x650fdf669e93aa6c8ff3defe2da9c12b64f1548e5e1e54e803f4c1beb6466c8e\n        /* \"contracts/kipu_bank.sol\":5278:5284  amount */\n      dup5\n        /* \"contracts/kipu_bank.sol\":5286:5294  balances */\n      0x04\n        /* \"contracts/kipu_bank.sol\":5286:5306  balances[msg.sender] */\n      0x00\n        /* \"contracts/kipu_bank.sol\":5295:5305  msg.sender */\n      caller\n        /* \"contracts/kipu_bank.sol\":5286:5306  balances[msg.sender] */\n      0xffffffffffffffffffffffffffffffffffffffff\n      and\n      0xffffffffffffffffffffffffffffffffffffffff\n      and\n      dup2\n      mstore\n      0x20\n      add\n      swap1\n      dup2\n      mstore\n      0x20\n      add\n      0x00\n      keccak256\n      sload\n        /* \"contracts/kipu_bank.sol\":5308:5329  totalWithdrawalsCount */\n      sload(0x03)\n        /* \"contracts/kipu_bank.sol\":5255:5330  Withdrawal(msg.sender, amount, balances[msg.sender], totalWithdrawalsCount) */\n      mload(0x40)\n      tag_129\n      swap4\n      swap3\n      swap2\n      swap1\n      tag_107\n      jump\t// in\n    tag_129:\n      mload(0x40)\n      dup1\n      swap2\n      sub\n      swap1\n      log2\n        /* \"contracts/kipu_bank.sol\":4685:5337  {... */\n      pop\n      pop\n        /* \"contracts/kipu_bank.sol\":2707:2708  1 */\n      0x01\n        /* \"contracts/kipu_bank.sol\":2987:2994  _status */\n      0x07\n      0x00\n        /* \"contracts/kipu_bank.sol\":2987:3009  _status = _NOT_ENTERED */\n      0x0100\n      exp\n      dup2\n      sload\n      dup2\n      0xff\n      mul\n      not\n      and\n      swap1\n      dup4\n      0xff\n      and\n      mul\n      or\n      swap1\n      sstore\n      pop\n        /* \"contracts/kipu_bank.sol\":4629:5337  function withdraw(uint256 amount) external nonReentrant {... */\n      pop\n      jump\t// out\n        /* \"contracts/kipu_bank.sol\":1372:1415  uint256 public immutable maxWithdrawalPerTx */\n    tag_48:\n      immutable(\"0x6b3e710f3089a74ecb6b0f5948e5ff07a3db6ba4da475d2be17624ba96b95b\")\n      dup2\n      jump\t// out\n        /* \"contracts/kipu_bank.sol\":1526:1546  address public owner */\n    tag_52:\n      0x00\n      0x00\n      swap1\n      sload\n      swap1\n      0x0100\n      exp\n      swap1\n      div\n      0xffffffffffffffffffffffffffffffffffffffff\n      and\n      dup2\n      jump\t// out\n        /* \"contracts/kipu_bank.sol\":6336:6689  function summary()... */\n    tag_57:\n        /* \"contracts/kipu_bank.sol\":6415:6435  uint256 bankBalance_ */\n      0x00\n        /* \"contracts/kipu_bank.sol\":6449:6466  uint256 deposits_ */\n      0x00\n        /* \"contracts/kipu_bank.sol\":6480:6500  uint256 withdrawals_ */\n      0x00\n        /* \"contracts/kipu_bank.sol\":6514:6526  uint256 cap_ */\n      0x00\n        /* \"contracts/kipu_bank.sol\":6540:6560  uint256 maxWithdraw_ */\n      0x00\n        /* \"contracts/kipu_bank.sol\":6593:6609  totalBankBalance */\n      sload(0x01)\n        /* \"contracts/kipu_bank.sol\":6611:6629  totalDepositsCount */\n      sload(0x02)\n        /* \"contracts/kipu_bank.sol\":6631:6652  totalWithdrawalsCount */\n      sload(0x03)\n        /* \"contracts/kipu_bank.sol\":6654:6661  bankCap */\n      immutable(\"0xf928ede1c39c5595ff22fe845412ee05a93eeaa584f8ef0c46b5eeb14cb99ec8\")\n        /* \"contracts/kipu_bank.sol\":6663:6681  maxWithdrawalPerTx */\n      immutable(\"0x6b3e710f3089a74ecb6b0f5948e5ff07a3db6ba4da475d2be17624ba96b95b\")\n        /* \"contracts/kipu_bank.sol\":6585:6682  return (totalBankBalance, totalDepositsCount, totalWithdrawalsCount, bankCap, maxWithdrawalPerTx) */\n      swap5\n      pop\n      swap5\n      pop\n      swap5\n      pop\n      swap5\n      pop\n      swap5\n      pop\n        /* \"contracts/kipu_bank.sol\":6336:6689  function summary()... */\n      swap1\n      swap2\n      swap3\n      swap4\n      swap5\n      jump\t// out\n        /* \"contracts/kipu_bank.sol\":1676:1709  uint256 public totalDepositsCount */\n    tag_62:\n      sload(0x02)\n      dup2\n      jump\t// out\n        /* \"contracts/kipu_bank.sol\":4396:4501  function deposit() external payable nonReentrant {... */\n    tag_65:\n        /* \"contracts/kipu_bank.sol\":2805:2806  2 */\n      0x02\n        /* \"contracts/kipu_bank.sol\":2895:2914  _status == _ENTERED */\n      0xff\n      and\n        /* \"contracts/kipu_bank.sol\":2895:2902  _status */\n      0x07\n      0x00\n      swap1\n      sload\n      swap1\n      0x0100\n      exp\n      swap1\n      div\n      0xff\n      and\n        /* \"contracts/kipu_bank.sol\":2895:2914  _status == _ENTERED */\n      0xff\n      and\n      sub\n        /* \"contracts/kipu_bank.sol\":2891:2938  if (_status == _ENTERED) revert ReentrantCall() */\n      tag_132\n      jumpi\n        /* \"contracts/kipu_bank.sol\":2923:2938  ReentrantCall() */\n      mload(0x40)\n      0x37ed32e800000000000000000000000000000000000000000000000000000000\n      dup2\n      mstore\n      0x04\n      add\n      mload(0x40)\n      dup1\n      swap2\n      sub\n      swap1\n      revert\n        /* \"contracts/kipu_bank.sol\":2891:2938  if (_status == _ENTERED) revert ReentrantCall() */\n    tag_132:\n        /* \"contracts/kipu_bank.sol\":2805:2806  2 */\n      0x02\n        /* \"contracts/kipu_bank.sol\":2948:2955  _status */\n      0x07\n      0x00\n        /* \"contracts/kipu_bank.sol\":2948:2966  _status = _ENTERED */\n      0x0100\n      exp\n      dup2\n      sload\n      dup2\n      0xff\n      mul\n      not\n      and\n      swap1\n      dup4\n      0xff\n      and\n      mul\n      or\n      swap1\n      sstore\n      pop\n        /* \"contracts/kipu_bank.sol\":4455:4494  _internalDeposit(msg.sender, msg.value) */\n      tag_134\n        /* \"contracts/kipu_bank.sol\":4472:4482  msg.sender */\n      caller\n        /* \"contracts/kipu_bank.sol\":4484:4493  msg.value */\n      callvalue\n        /* \"contracts/kipu_bank.sol\":4455:4471  _internalDeposit */\n      tag_25\n        /* \"contracts/kipu_bank.sol\":4455:4494  _internalDeposit(msg.sender, msg.value) */\n      jump\t// in\n    tag_134:\n        /* \"contracts/kipu_bank.sol\":2707:2708  1 */\n      0x01\n        /* \"contracts/kipu_bank.sol\":2987:2994  _status */\n      0x07\n      0x00\n        /* \"contracts/kipu_bank.sol\":2987:3009  _status = _NOT_ENTERED */\n      0x0100\n      exp\n      dup2\n      sload\n      dup2\n      0xff\n      mul\n      not\n      and\n      swap1\n      dup4\n      0xff\n      and\n      mul\n      or\n      swap1\n      sstore\n      pop\n        /* \"contracts/kipu_bank.sol\":4396:4501  function deposit() external payable nonReentrant {... */\n      jump\t// out\n        /* \"contracts/kipu_bank.sol\":1942:1994  mapping(address => uint256) public userDepositsCount */\n    tag_70:\n      mstore(0x20, 0x05)\n      dup1\n      0x00\n      mstore\n      keccak256(0x00, 0x40)\n      0x00\n      swap2\n      pop\n      swap1\n      pop\n      sload\n      dup2\n      jump\t// out\n        /* \"contracts/kipu_bank.sol\":2048:2103  mapping(address => uint256) public userWithdrawalsCount */\n    tag_75:\n      mstore(0x20, 0x06)\n      dup1\n      0x00\n      mstore\n      keccak256(0x00, 0x40)\n      0x00\n      swap2\n      pop\n      swap1\n      pop\n      sload\n      dup2\n      jump\t// out\n        /* \"contracts/kipu_bank.sol\":1272:1304  uint256 public immutable bankCap */\n    tag_79:\n      immutable(\"0xf928ede1c39c5595ff22fe845412ee05a93eeaa584f8ef0c46b5eeb14cb99ec8\")\n      dup2\n      jump\t// out\n        /* \"contracts/kipu_bank.sol\":5575:5730  function transferOwnership(address newOwner) external onlyOwner {... */\n    tag_84:\n        /* \"contracts/kipu_bank.sol\":3122:3127  owner */\n      0x00\n      0x00\n      swap1\n      sload\n      swap1\n      0x0100\n      exp\n      swap1\n      div\n      0xffffffffffffffffffffffffffffffffffffffff\n      and\n        /* \"contracts/kipu_bank.sol\":3108:3127  msg.sender != owner */\n      0xffffffffffffffffffffffffffffffffffffffff\n      and\n        /* \"contracts/kipu_bank.sol\":3108:3118  msg.sender */\n      caller\n        /* \"contracts/kipu_bank.sol\":3108:3127  msg.sender != owner */\n      0xffffffffffffffffffffffffffffffffffffffff\n      and\n      eq\n        /* \"contracts/kipu_bank.sol\":3104:3156  if (msg.sender != owner) revert NotOwner(msg.sender) */\n      tag_136\n      jumpi\n        /* \"contracts/kipu_bank.sol\":3145:3155  msg.sender */\n      caller\n        /* \"contracts/kipu_bank.sol\":3136:3156  NotOwner(msg.sender) */\n      mload(0x40)\n      0x245aecd300000000000000000000000000000000000000000000000000000000\n      dup2\n      mstore\n      0x04\n      add\n      tag_137\n      swap2\n      swap1\n      tag_54\n      jump\t// in\n    tag_137:\n      mload(0x40)\n      dup1\n      swap2\n      sub\n      swap1\n      revert\n        /* \"contracts/kipu_bank.sol\":3104:3156  if (msg.sender != owner) revert NotOwner(msg.sender) */\n    tag_136:\n        /* \"contracts/kipu_bank.sol\":5673:5674  0 */\n      0x00\n        /* \"contracts/kipu_bank.sol\":5653:5675  newOwner == address(0) */\n      0xffffffffffffffffffffffffffffffffffffffff\n      and\n        /* \"contracts/kipu_bank.sol\":5653:5661  newOwner */\n      dup2\n        /* \"contracts/kipu_bank.sol\":5653:5675  newOwner == address(0) */\n      0xffffffffffffffffffffffffffffffffffffffff\n      and\n      sub\n        /* \"contracts/kipu_bank.sol\":5649:5697  if (newOwner == address(0)) revert ZeroAddress() */\n      tag_139\n      jumpi\n        /* \"contracts/kipu_bank.sol\":5684:5697  ZeroAddress() */\n      mload(0x40)\n      0xd92e233d00000000000000000000000000000000000000000000000000000000\n      dup2\n      mstore\n      0x04\n      add\n      mload(0x40)\n      dup1\n      swap2\n      sub\n      swap1\n      revert\n        /* \"contracts/kipu_bank.sol\":5649:5697  if (newOwner == address(0)) revert ZeroAddress() */\n    tag_139:\n        /* \"contracts/kipu_bank.sol\":5715:5723  newOwner */\n      dup1\n        /* \"contracts/kipu_bank.sol\":5707:5712  owner */\n      0x00\n      0x00\n        /* \"contracts/kipu_bank.sol\":5707:5723  owner = newOwner */\n      0x0100\n      exp\n      dup2\n      sload\n      dup2\n      0xffffffffffffffffffffffffffffffffffffffff\n      mul\n      not\n      and\n      swap1\n      dup4\n      0xffffffffffffffffffffffffffffffffffffffff\n      and\n      mul\n      or\n      swap1\n      sstore\n      pop\n        /* \"contracts/kipu_bank.sol\":5575:5730  function transferOwnership(address newOwner) external onlyOwner {... */\n      pop\n      jump\t// out\n        /* \"contracts/kipu_bank.sol\":5937:6041  function getBalance(address user) external view returns (uint256) {... */\n    tag_88:\n        /* \"contracts/kipu_bank.sol\":5994:6001  uint256 */\n      0x00\n        /* \"contracts/kipu_bank.sol\":6020:6028  balances */\n      0x04\n        /* \"contracts/kipu_bank.sol\":6020:6034  balances[user] */\n      0x00\n        /* \"contracts/kipu_bank.sol\":6029:6033  user */\n      dup4\n        /* \"contracts/kipu_bank.sol\":6020:6034  balances[user] */\n      0xffffffffffffffffffffffffffffffffffffffff\n      and\n      0xffffffffffffffffffffffffffffffffffffffff\n      and\n      dup2\n      mstore\n      0x20\n      add\n      swap1\n      dup2\n      mstore\n      0x20\n      add\n      0x00\n      keccak256\n      sload\n        /* \"contracts/kipu_bank.sol\":6013:6034  return balances[user] */\n      swap1\n      pop\n        /* \"contracts/kipu_bank.sol\":5937:6041  function getBalance(address user) external view returns (uint256) {... */\n      swap2\n      swap1\n      pop\n      jump\t// out\n        /* \"contracts/kipu_bank.sol\":1156:1202  string public constant VERSION = \"KipuBank v1\" */\n    tag_92:\n      mload(0x40)\n      dup1\n      0x40\n      add\n      0x40\n      mstore\n      dup1\n      0x0b\n      dup2\n      mstore\n      0x20\n      add\n      0x4b69707542616e6b207631000000000000000000000000000000000000000000\n      dup2\n      mstore\n      pop\n      dup2\n      jump\t// out\n        /* \"#utility.yul\":7:84   */\n    tag_141:\n        /* \"#utility.yul\":44:51   */\n      0x00\n        /* \"#utility.yul\":73:78   */\n      dup2\n        /* \"#utility.yul\":62:78   */\n      swap1\n      pop\n        /* \"#utility.yul\":7:84   */\n      swap2\n      swap1\n      pop\n      jump\t// out\n        /* \"#utility.yul\":90:208   */\n    tag_142:\n        /* \"#utility.yul\":177:201   */\n      tag_165\n        /* \"#utility.yul\":195:200   */\n      dup2\n        /* \"#utility.yul\":177:201   */\n      tag_141\n      jump\t// in\n    tag_165:\n        /* \"#utility.yul\":172:175   */\n      dup3\n        /* \"#utility.yul\":165:202   */\n      mstore\n        /* \"#utility.yul\":90:208   */\n      pop\n      pop\n      jump\t// out\n        /* \"#utility.yul\":214:436   */\n    tag_36:\n        /* \"#utility.yul\":307:311   */\n      0x00\n        /* \"#utility.yul\":345:347   */\n      0x20\n        /* \"#utility.yul\":334:343   */\n      dup3\n        /* \"#utility.yul\":330:348   */\n      add\n        /* \"#utility.yul\":322:348   */\n      swap1\n      pop\n        /* \"#utility.yul\":358:429   */\n      tag_167\n        /* \"#utility.yul\":426:427   */\n      0x00\n        /* \"#utility.yul\":415:424   */\n      dup4\n        /* \"#utility.yul\":411:428   */\n      add\n        /* \"#utility.yul\":402:408   */\n      dup5\n        /* \"#utility.yul\":358:429   */\n      tag_142\n      jump\t// in\n    tag_167:\n        /* \"#utility.yul\":214:436   */\n      swap3\n      swap2\n      pop\n      pop\n      jump\t// out\n        /* \"#utility.yul\":523:640   */\n    tag_144:\n        /* \"#utility.yul\":632:633   */\n      0x00\n        /* \"#utility.yul\":629:630   */\n      0x00\n        /* \"#utility.yul\":622:634   */\n      revert\n        /* \"#utility.yul\":769:891   */\n    tag_146:\n        /* \"#utility.yul\":842:866   */\n      tag_172\n        /* \"#utility.yul\":860:865   */\n      dup2\n        /* \"#utility.yul\":842:866   */\n      tag_141\n      jump\t// in\n    tag_172:\n        /* \"#utility.yul\":835:840   */\n      dup2\n        /* \"#utility.yul\":832:867   */\n      eq\n        /* \"#utility.yul\":822:885   */\n      tag_173\n      jumpi\n        /* \"#utility.yul\":881:882   */\n      0x00\n        /* \"#utility.yul\":878:879   */\n      0x00\n        /* \"#utility.yul\":871:883   */\n      revert\n        /* \"#utility.yul\":822:885   */\n    tag_173:\n        /* \"#utility.yul\":769:891   */\n      pop\n      jump\t// out\n        /* \"#utility.yul\":897:1036   */\n    tag_147:\n        /* \"#utility.yul\":943:948   */\n      0x00\n        /* \"#utility.yul\":981:987   */\n      dup2\n        /* \"#utility.yul\":968:988   */\n      calldataload\n        /* \"#utility.yul\":959:988   */\n      swap1\n      pop\n        /* \"#utility.yul\":997:1030   */\n      tag_175\n        /* \"#utility.yul\":1024:1029   */\n      dup2\n        /* \"#utility.yul\":997:1030   */\n      tag_146\n      jump\t// in\n    tag_175:\n        /* \"#utility.yul\":897:1036   */\n      swap3\n      swap2\n      pop\n      pop\n      jump\t// out\n        /* \"#utility.yul\":1042:1371   */\n    tag_44:\n        /* \"#utility.yul\":1101:1107   */\n      0x00\n        /* \"#utility.yul\":1150:1152   */\n      0x20\n        /* \"#utility.yul\":1138:1147   */\n      dup3\n        /* \"#utility.yul\":1129:1136   */\n      dup5\n        /* \"#utility.yul\":1125:1148   */\n      sub\n        /* \"#utility.yul\":1121:1153   */\n      slt\n        /* \"#utility.yul\":1118:1237   */\n      iszero\n      tag_177\n      jumpi\n        /* \"#utility.yul\":1156:1235   */\n      tag_178\n      tag_144\n      jump\t// in\n    tag_178:\n        /* \"#utility.yul\":1118:1237   */\n    tag_177:\n        /* \"#utility.yul\":1276:1277   */\n      0x00\n        /* \"#utility.yul\":1301:1354   */\n      tag_179\n        /* \"#utility.yul\":1346:1353   */\n      dup5\n        /* \"#utility.yul\":1337:1343   */\n      dup3\n        /* \"#utility.yul\":1326:1335   */\n      dup6\n        /* \"#utility.yul\":1322:1344   */\n      add\n        /* \"#utility.yul\":1301:1354   */\n      tag_147\n      jump\t// in\n    tag_179:\n        /* \"#utility.yul\":1291:1354   */\n      swap2\n      pop\n        /* \"#utility.yul\":1247:1364   */\n      pop\n        /* \"#utility.yul\":1042:1371   */\n      swap3\n      swap2\n      pop\n      pop\n      jump\t// out\n        /* \"#utility.yul\":1377:1503   */\n    tag_148:\n        /* \"#utility.yul\":1414:1421   */\n      0x00\n        /* \"#utility.yul\":1454:1496   */\n      0xffffffffffffffffffffffffffffffffffffffff\n        /* \"#utility.yul\":1447:1452   */\n      dup3\n        /* \"#utility.yul\":1443:1497   */\n      and\n        /* \"#utility.yul\":1432:1497   */\n      swap1\n      pop\n        /* \"#utility.yul\":1377:1503   */\n      swap2\n      swap1\n      pop\n      jump\t// out\n        /* \"#utility.yul\":1509:1605   */\n    tag_149:\n        /* \"#utility.yul\":1546:1553   */\n      0x00\n        /* \"#utility.yul\":1575:1599   */\n      tag_182\n        /* \"#utility.yul\":1593:1598   */\n      dup3\n        /* \"#utility.yul\":1575:1599   */\n      tag_148\n      jump\t// in\n    tag_182:\n        /* \"#utility.yul\":1564:1599   */\n      swap1\n      pop\n        /* \"#utility.yul\":1509:1605   */\n      swap2\n      swap1\n      pop\n      jump\t// out\n        /* \"#utility.yul\":1611:1729   */\n    tag_150:\n        /* \"#utility.yul\":1698:1722   */\n      tag_184\n        /* \"#utility.yul\":1716:1721   */\n      dup2\n        /* \"#utility.yul\":1698:1722   */\n      tag_149\n      jump\t// in\n    tag_184:\n        /* \"#utility.yul\":1693:1696   */\n      dup3\n        /* \"#utility.yul\":1686:1723   */\n      mstore\n        /* \"#utility.yul\":1611:1729   */\n      pop\n      pop\n      jump\t// out\n        /* \"#utility.yul\":1735:1957   */\n    tag_54:\n        /* \"#utility.yul\":1828:1832   */\n      0x00\n        /* \"#utility.yul\":1866:1868   */\n      0x20\n        /* \"#utility.yul\":1855:1864   */\n      dup3\n        /* \"#utility.yul\":1851:1869   */\n      add\n        /* \"#utility.yul\":1843:1869   */\n      swap1\n      pop\n        /* \"#utility.yul\":1879:1950   */\n      tag_186\n        /* \"#utility.yul\":1947:1948   */\n      0x00\n        /* \"#utility.yul\":1936:1945   */\n      dup4\n        /* \"#utility.yul\":1932:1949   */\n      add\n        /* \"#utility.yul\":1923:1929   */\n      dup5\n        /* \"#utility.yul\":1879:1950   */\n      tag_150\n      jump\t// in\n    tag_186:\n        /* \"#utility.yul\":1735:1957   */\n      swap3\n      swap2\n      pop\n      pop\n      jump\t// out\n        /* \"#utility.yul\":1963:2627   */\n    tag_59:\n        /* \"#utility.yul\":2168:2172   */\n      0x00\n        /* \"#utility.yul\":2206:2209   */\n      0xa0\n        /* \"#utility.yul\":2195:2204   */\n      dup3\n        /* \"#utility.yul\":2191:2210   */\n      add\n        /* \"#utility.yul\":2183:2210   */\n      swap1\n      pop\n        /* \"#utility.yul\":2220:2291   */\n      tag_188\n        /* \"#utility.yul\":2288:2289   */\n      0x00\n        /* \"#utility.yul\":2277:2286   */\n      dup4\n        /* \"#utility.yul\":2273:2290   */\n      add\n        /* \"#utility.yul\":2264:2270   */\n      dup9\n        /* \"#utility.yul\":2220:2291   */\n      tag_142\n      jump\t// in\n    tag_188:\n        /* \"#utility.yul\":2301:2373   */\n      tag_189\n        /* \"#utility.yul\":2369:2371   */\n      0x20\n        /* \"#utility.yul\":2358:2367   */\n      dup4\n        /* \"#utility.yul\":2354:2372   */\n      add\n        /* \"#utility.yul\":2345:2351   */\n      dup8\n        /* \"#utility.yul\":2301:2373   */\n      tag_142\n      jump\t// in\n    tag_189:\n        /* \"#utility.yul\":2383:2455   */\n      tag_190\n        /* \"#utility.yul\":2451:2453   */\n      0x40\n        /* \"#utility.yul\":2440:2449   */\n      dup4\n        /* \"#utility.yul\":2436:2454   */\n      add\n        /* \"#utility.yul\":2427:2433   */\n      dup7\n        /* \"#utility.yul\":2383:2455   */\n      tag_142\n      jump\t// in\n    tag_190:\n        /* \"#utility.yul\":2465:2537   */\n      tag_191\n        /* \"#utility.yul\":2533:2535   */\n      0x60\n        /* \"#utility.yul\":2522:2531   */\n      dup4\n        /* \"#utility.yul\":2518:2536   */\n      add\n        /* \"#utility.yul\":2509:2515   */\n      dup6\n        /* \"#utility.yul\":2465:2537   */\n      tag_142\n      jump\t// in\n    tag_191:\n        /* \"#utility.yul\":2547:2620   */\n      tag_192\n        /* \"#utility.yul\":2615:2618   */\n      0x80\n        /* \"#utility.yul\":2604:2613   */\n      dup4\n        /* \"#utility.yul\":2600:2619   */\n      add\n        /* \"#utility.yul\":2591:2597   */\n      dup5\n        /* \"#utility.yul\":2547:2620   */\n      tag_142\n      jump\t// in\n    tag_192:\n        /* \"#utility.yul\":1963:2627   */\n      swap7\n      swap6\n      pop\n      pop\n      pop\n      pop\n      pop\n      pop\n      jump\t// out\n        /* \"#utility.yul\":2633:2755   */\n    tag_151:\n        /* \"#utility.yul\":2706:2730   */\n      tag_194\n        /* \"#utility.yul\":2724:2729   */\n      dup2\n        /* \"#utility.yul\":2706:2730   */\n      tag_149\n      jump\t// in\n    tag_194:\n        /* \"#utility.yul\":2699:2704   */\n      dup2\n        /* \"#utility.yul\":2696:2731   */\n      eq\n        /* \"#utility.yul\":2686:2749   */\n      tag_195\n      jumpi\n        /* \"#utility.yul\":2745:2746   */\n      0x00\n        /* \"#utility.yul\":2742:2743   */\n      0x00\n        /* \"#utility.yul\":2735:2747   */\n      revert\n        /* \"#utility.yul\":2686:2749   */\n    tag_195:\n        /* \"#utility.yul\":2633:2755   */\n      pop\n      jump\t// out\n        /* \"#utility.yul\":2761:2900   */\n    tag_152:\n        /* \"#utility.yul\":2807:2812   */\n      0x00\n        /* \"#utility.yul\":2845:2851   */\n      dup2\n        /* \"#utility.yul\":2832:2852   */\n      calldataload\n        /* \"#utility.yul\":2823:2852   */\n      swap1\n      pop\n        /* \"#utility.yul\":2861:2894   */\n      tag_197\n        /* \"#utility.yul\":2888:2893   */\n      dup2\n        /* \"#utility.yul\":2861:2894   */\n      tag_151\n      jump\t// in\n    tag_197:\n        /* \"#utility.yul\":2761:2900   */\n      swap3\n      swap2\n      pop\n      pop\n      jump\t// out\n        /* \"#utility.yul\":2906:3235   */\n    tag_69:\n        /* \"#utility.yul\":2965:2971   */\n      0x00\n        /* \"#utility.yul\":3014:3016   */\n      0x20\n        /* \"#utility.yul\":3002:3011   */\n      dup3\n        /* \"#utility.yul\":2993:3000   */\n      dup5\n        /* \"#utility.yul\":2989:3012   */\n      sub\n        /* \"#utility.yul\":2985:3017   */\n      slt\n        /* \"#utility.yul\":2982:3101   */\n      iszero\n      tag_199\n      jumpi\n        /* \"#utility.yul\":3020:3099   */\n      tag_200\n      tag_144\n      jump\t// in\n    tag_200:\n        /* \"#utility.yul\":2982:3101   */\n    tag_199:\n        /* \"#utility.yul\":3140:3141   */\n      0x00\n        /* \"#utility.yul\":3165:3218   */\n      tag_201\n        /* \"#utility.yul\":3210:3217   */\n      dup5\n        /* \"#utility.yul\":3201:3207   */\n      dup3\n        /* \"#utility.yul\":3190:3199   */\n      dup6\n        /* \"#utility.yul\":3186:3208   */\n      add\n        /* \"#utility.yul\":3165:3218   */\n      tag_152\n      jump\t// in\n    tag_201:\n        /* \"#utility.yul\":3155:3218   */\n      swap2\n      pop\n        /* \"#utility.yul\":3111:3228   */\n      pop\n        /* \"#utility.yul\":2906:3235   */\n      swap3\n      swap2\n      pop\n      pop\n      jump\t// out\n        /* \"#utility.yul\":3241:3340   */\n    tag_153:\n        /* \"#utility.yul\":3293:3299   */\n      0x00\n        /* \"#utility.yul\":3327:3332   */\n      dup2\n        /* \"#utility.yul\":3321:3333   */\n      mload\n        /* \"#utility.yul\":3311:3333   */\n      swap1\n      pop\n        /* \"#utility.yul\":3241:3340   */\n      swap2\n      swap1\n      pop\n      jump\t// out\n        /* \"#utility.yul\":3346:3515   */\n    tag_154:\n        /* \"#utility.yul\":3430:3441   */\n      0x00\n        /* \"#utility.yul\":3464:3470   */\n      dup3\n        /* \"#utility.yul\":3459:3462   */\n      dup3\n        /* \"#utility.yul\":3452:3471   */\n      mstore\n        /* \"#utility.yul\":3504:3508   */\n      0x20\n        /* \"#utility.yul\":3499:3502   */\n      dup3\n        /* \"#utility.yul\":3495:3509   */\n      add\n        /* \"#utility.yul\":3480:3509   */\n      swap1\n      pop\n        /* \"#utility.yul\":3346:3515   */\n      swap3\n      swap2\n      pop\n      pop\n      jump\t// out\n        /* \"#utility.yul\":3521:3660   */\n    tag_155:\n        /* \"#utility.yul\":3610:3616   */\n      dup3\n        /* \"#utility.yul\":3605:3608   */\n      dup2\n        /* \"#utility.yul\":3600:3603   */\n      dup4\n        /* \"#utility.yul\":3594:3617   */\n      mcopy\n        /* \"#utility.yul\":3651:3652   */\n      0x00\n        /* \"#utility.yul\":3642:3648   */\n      dup4\n        /* \"#utility.yul\":3637:3640   */\n      dup4\n        /* \"#utility.yul\":3633:3649   */\n      add\n        /* \"#utility.yul\":3626:3653   */\n      mstore\n        /* \"#utility.yul\":3521:3660   */\n      pop\n      pop\n      pop\n      jump\t// out\n        /* \"#utility.yul\":3666:3768   */\n    tag_156:\n        /* \"#utility.yul\":3707:3713   */\n      0x00\n        /* \"#utility.yul\":3758:3760   */\n      0x1f\n        /* \"#utility.yul\":3754:3761   */\n      not\n        /* \"#utility.yul\":3749:3751   */\n      0x1f\n        /* \"#utility.yul\":3742:3747   */\n      dup4\n        /* \"#utility.yul\":3738:3752   */\n      add\n        /* \"#utility.yul\":3734:3762   */\n      and\n        /* \"#utility.yul\":3724:3762   */\n      swap1\n      pop\n        /* \"#utility.yul\":3666:3768   */\n      swap2\n      swap1\n      pop\n      jump\t// out\n        /* \"#utility.yul\":3774:4151   */\n    tag_157:\n        /* \"#utility.yul\":3862:3865   */\n      0x00\n        /* \"#utility.yul\":3890:3929   */\n      tag_207\n        /* \"#utility.yul\":3923:3928   */\n      dup3\n        /* \"#utility.yul\":3890:3929   */\n      tag_153\n      jump\t// in\n    tag_207:\n        /* \"#utility.yul\":3945:4016   */\n      tag_208\n        /* \"#utility.yul\":4009:4015   */\n      dup2\n        /* \"#utility.yul\":4004:4007   */\n      dup6\n        /* \"#utility.yul\":3945:4016   */\n      tag_154\n      jump\t// in\n    tag_208:\n        /* \"#utility.yul\":3938:4016   */\n      swap4\n      pop\n        /* \"#utility.yul\":4025:4090   */\n      tag_209\n        /* \"#utility.yul\":4083:4089   */\n      dup2\n        /* \"#utility.yul\":4078:4081   */\n      dup6\n        /* \"#utility.yul\":4071:4075   */\n      0x20\n        /* \"#utility.yul\":4064:4069   */\n      dup7\n        /* \"#utility.yul\":4060:4076   */\n      add\n        /* \"#utility.yul\":4025:4090   */\n      tag_155\n      jump\t// in\n    tag_209:\n        /* \"#utility.yul\":4115:4144   */\n      tag_210\n        /* \"#utility.yul\":4137:4143   */\n      dup2\n        /* \"#utility.yul\":4115:4144   */\n      tag_156\n      jump\t// in\n    tag_210:\n        /* \"#utility.yul\":4110:4113   */\n      dup5\n        /* \"#utility.yul\":4106:4145   */\n      add\n        /* \"#utility.yul\":4099:4145   */\n      swap2\n      pop\n        /* \"#utility.yul\":3866:4151   */\n      pop\n        /* \"#utility.yul\":3774:4151   */\n      swap3\n      swap2\n      pop\n      pop\n      jump\t// out\n        /* \"#utility.yul\":4157:4470   */\n    tag_94:\n        /* \"#utility.yul\":4270:4274   */\n      0x00\n        /* \"#utility.yul\":4308:4310   */\n      0x20\n        /* \"#utility.yul\":4297:4306   */\n      dup3\n        /* \"#utility.yul\":4293:4311   */\n      add\n        /* \"#utility.yul\":4285:4311   */\n      swap1\n      pop\n        /* \"#utility.yul\":4357:4366   */\n      dup2\n        /* \"#utility.yul\":4351:4355   */\n      dup2\n        /* \"#utility.yul\":4347:4367   */\n      sub\n        /* \"#utility.yul\":4343:4344   */\n      0x00\n        /* \"#utility.yul\":4332:4341   */\n      dup4\n        /* \"#utility.yul\":4328:4345   */\n      add\n        /* \"#utility.yul\":4321:4368   */\n      mstore\n        /* \"#utility.yul\":4385:4463   */\n      tag_212\n        /* \"#utility.yul\":4458:4462   */\n      dup2\n        /* \"#utility.yul\":4449:4455   */\n      dup5\n        /* \"#utility.yul\":4385:4463   */\n      tag_157\n      jump\t// in\n    tag_212:\n        /* \"#utility.yul\":4377:4463   */\n      swap1\n      pop\n        /* \"#utility.yul\":4157:4470   */\n      swap3\n      swap2\n      pop\n      pop\n      jump\t// out\n        /* \"#utility.yul\":4476:4656   */\n    tag_158:\n        /* \"#utility.yul\":4524:4601   */\n      0x4e487b7100000000000000000000000000000000000000000000000000000000\n        /* \"#utility.yul\":4521:4522   */\n      0x00\n        /* \"#utility.yul\":4514:4602   */\n      mstore\n        /* \"#utility.yul\":4621:4625   */\n      0x11\n        /* \"#utility.yul\":4618:4619   */\n      0x04\n        /* \"#utility.yul\":4611:4626   */\n      mstore\n        /* \"#utility.yul\":4645:4649   */\n      0x24\n        /* \"#utility.yul\":4642:4643   */\n      0x00\n        /* \"#utility.yul\":4635:4650   */\n      revert\n        /* \"#utility.yul\":4662:4853   */\n    tag_98:\n        /* \"#utility.yul\":4702:4705   */\n      0x00\n        /* \"#utility.yul\":4721:4741   */\n      tag_215\n        /* \"#utility.yul\":4739:4740   */\n      dup3\n        /* \"#utility.yul\":4721:4741   */\n      tag_141\n      jump\t// in\n    tag_215:\n        /* \"#utility.yul\":4716:4741   */\n      swap2\n      pop\n        /* \"#utility.yul\":4755:4775   */\n      tag_216\n        /* \"#utility.yul\":4773:4774   */\n      dup4\n        /* \"#utility.yul\":4755:4775   */\n      tag_141\n      jump\t// in\n    tag_216:\n        /* \"#utility.yul\":4750:4775   */\n      swap3\n      pop\n        /* \"#utility.yul\":4798:4799   */\n      dup3\n        /* \"#utility.yul\":4795:4796   */\n      dup3\n        /* \"#utility.yul\":4791:4800   */\n      add\n        /* \"#utility.yul\":4784:4800   */\n      swap1\n      pop\n        /* \"#utility.yul\":4819:4822   */\n      dup1\n        /* \"#utility.yul\":4816:4817   */\n      dup3\n        /* \"#utility.yul\":4813:4823   */\n      gt\n        /* \"#utility.yul\":4810:4846   */\n      iszero\n      tag_217\n      jumpi\n        /* \"#utility.yul\":4826:4844   */\n      tag_218\n      tag_158\n      jump\t// in\n    tag_218:\n        /* \"#utility.yul\":4810:4846   */\n    tag_217:\n        /* \"#utility.yul\":4662:4853   */\n      swap3\n      swap2\n      pop\n      pop\n      jump\t// out\n        /* \"#utility.yul\":4859:5191   */\n    tag_101:\n        /* \"#utility.yul\":4980:4984   */\n      0x00\n        /* \"#utility.yul\":5018:5020   */\n      0x40\n        /* \"#utility.yul\":5007:5016   */\n      dup3\n        /* \"#utility.yul\":5003:5021   */\n      add\n        /* \"#utility.yul\":4995:5021   */\n      swap1\n      pop\n        /* \"#utility.yul\":5031:5102   */\n      tag_220\n        /* \"#utility.yul\":5099:5100   */\n      0x00\n        /* \"#utility.yul\":5088:5097   */\n      dup4\n        /* \"#utility.yul\":5084:5101   */\n      add\n        /* \"#utility.yul\":5075:5081   */\n      dup6\n        /* \"#utility.yul\":5031:5102   */\n      tag_142\n      jump\t// in\n    tag_220:\n        /* \"#utility.yul\":5112:5184   */\n      tag_221\n        /* \"#utility.yul\":5180:5182   */\n      0x20\n        /* \"#utility.yul\":5169:5178   */\n      dup4\n        /* \"#utility.yul\":5165:5183   */\n      add\n        /* \"#utility.yul\":5156:5162   */\n      dup5\n        /* \"#utility.yul\":5112:5184   */\n      tag_142\n      jump\t// in\n    tag_221:\n        /* \"#utility.yul\":4859:5191   */\n      swap4\n      swap3\n      pop\n      pop\n      pop\n      jump\t// out\n        /* \"#utility.yul\":5197:5430   */\n    tag_104:\n        /* \"#utility.yul\":5236:5239   */\n      0x00\n        /* \"#utility.yul\":5259:5283   */\n      tag_223\n        /* \"#utility.yul\":5277:5282   */\n      dup3\n        /* \"#utility.yul\":5259:5283   */\n      tag_141\n      jump\t// in\n    tag_223:\n        /* \"#utility.yul\":5250:5283   */\n      swap2\n      pop\n        /* \"#utility.yul\":5305:5371   */\n      0xffffffffffffffffffffffffffffffffffffffffffffffffffffffffffffffff\n        /* \"#utility.yul\":5298:5303   */\n      dup3\n        /* \"#utility.yul\":5295:5372   */\n      sub\n        /* \"#utility.yul\":5292:5395   */\n      tag_224\n      jumpi\n        /* \"#utility.yul\":5375:5393   */\n      tag_225\n      tag_158\n      jump\t// in\n    tag_225:\n        /* \"#utility.yul\":5292:5395   */\n    tag_224:\n        /* \"#utility.yul\":5422:5423   */\n      0x01\n        /* \"#utility.yul\":5415:5420   */\n      dup3\n        /* \"#utility.yul\":5411:5424   */\n      add\n        /* \"#utility.yul\":5404:5424   */\n      swap1\n      pop\n        /* \"#utility.yul\":5197:5430   */\n      swap2\n      swap1\n      pop\n      jump\t// out\n        /* \"#utility.yul\":5436:5878   */\n    tag_107:\n        /* \"#utility.yul\":5585:5589   */\n      0x00\n        /* \"#utility.yul\":5623:5625   */\n      0x60\n        /* \"#utility.yul\":5612:5621   */\n      dup3\n        /* \"#utility.yul\":5608:5626   */\n      add\n        /* \"#utility.yul\":5600:5626   */\n      swap1\n      pop\n        /* \"#utility.yul\":5636:5707   */\n      tag_227\n        /* \"#utility.yul\":5704:5705   */\n      0x00\n        /* \"#utility.yul\":5693:5702   */\n      dup4\n        /* \"#utility.yul\":5689:5706   */\n      add\n        /* \"#utility.yul\":5680:5686   */\n      dup7\n        /* \"#utility.yul\":5636:5707   */\n      tag_142\n      jump\t// in\n    tag_227:\n        /* \"#utility.yul\":5717:5789   */\n      tag_228\n        /* \"#utility.yul\":5785:5787   */\n      0x20\n        /* \"#utility.yul\":5774:5783   */\n      dup4\n        /* \"#utility.yul\":5770:5788   */\n      add\n        /* \"#utility.yul\":5761:5767   */\n      dup6\n        /* \"#utility.yul\":5717:5789   */\n      tag_142\n      jump\t// in\n    tag_228:\n        /* \"#utility.yul\":5799:5871   */\n      tag_229\n        /* \"#utility.yul\":5867:5869   */\n      0x40\n        /* \"#utility.yul\":5856:5865   */\n      dup4\n        /* \"#utility.yul\":5852:5870   */\n      add\n        /* \"#utility.yul\":5843:5849   */\n      dup5\n        /* \"#utility.yul\":5799:5871   */\n      tag_142\n      jump\t// in\n    tag_229:\n        /* \"#utility.yul\":5436:5878   */\n      swap5\n      swap4\n      pop\n      pop\n      pop\n      pop\n      jump\t// out\n        /* \"#utility.yul\":5884:6078   */\n    tag_117:\n        /* \"#utility.yul\":5924:5928   */\n      0x00\n        /* \"#utility.yul\":5944:5964   */\n      tag_231\n        /* \"#utility.yul\":5962:5963   */\n      dup3\n        /* \"#utility.yul\":5944:5964   */\n      tag_141\n      jump\t// in\n    tag_231:\n        /* \"#utility.yul\":5939:5964   */\n      swap2\n      pop\n        /* \"#utility.yul\":5978:5998   */\n      tag_232\n        /* \"#utility.yul\":5996:5997   */\n      dup4\n        /* \"#utility.yul\":5978:5998   */\n      tag_141\n      jump\t// in\n    tag_232:\n        /* \"#utility.yul\":5973:5998   */\n      swap3\n      pop\n        /* \"#utility.yul\":6022:6023   */\n      dup3\n        /* \"#utility.yul\":6019:6020   */\n      dup3\n        /* \"#utility.yul\":6015:6024   */\n      sub\n        /* \"#utility.yul\":6007:6024   */\n      swap1\n      pop\n        /* \"#utility.yul\":6046:6047   */\n      dup2\n        /* \"#utility.yul\":6040:6044   */\n      dup2\n        /* \"#utility.yul\":6037:6048   */\n      gt\n        /* \"#utility.yul\":6034:6071   */\n      iszero\n      tag_233\n      jumpi\n        /* \"#utility.yul\":6051:6069   */\n      tag_234\n      tag_158\n      jump\t// in\n    tag_234:\n        /* \"#utility.yul\":6034:6071   */\n    tag_233:\n        /* \"#utility.yul\":5884:6078   */\n      swap3\n      swap2\n      pop\n      pop\n      jump\t// out\n        /* \"#utility.yul\":6084:6231   */\n    tag_159:\n        /* \"#utility.yul\":6185:6196   */\n      0x00\n        /* \"#utility.yul\":6222:6225   */\n      dup2\n        /* \"#utility.yul\":6207:6225   */\n      swap1\n      pop\n        /* \"#utility.yul\":6084:6231   */\n      swap3\n      swap2\n      pop\n      pop\n      jump\t// out\n        /* \"#utility.yul\":6237:6351   */\n    tag_160:\n      pop\n      jump\t// out\n        /* \"#utility.yul\":6357:6755   */\n    tag_161:\n        /* \"#utility.yul\":6516:6519   */\n      0x00\n        /* \"#utility.yul\":6537:6620   */\n      tag_238\n        /* \"#utility.yul\":6618:6619   */\n      0x00\n        /* \"#utility.yul\":6613:6616   */\n      dup4\n        /* \"#utility.yul\":6537:6620   */\n      tag_159\n      jump\t// in\n    tag_238:\n        /* \"#utility.yul\":6530:6620   */\n      swap2\n      pop\n        /* \"#utility.yul\":6629:6722   */\n      tag_239\n        /* \"#utility.yul\":6718:6721   */\n      dup3\n        /* \"#utility.yul\":6629:6722   */\n      tag_160\n      jump\t// in\n    tag_239:\n        /* \"#utility.yul\":6747:6748   */\n      0x00\n        /* \"#utility.yul\":6742:6745   */\n      dup3\n        /* \"#utility.yul\":6738:6749   */\n      add\n        /* \"#utility.yul\":6731:6749   */\n      swap1\n      pop\n        /* \"#utility.yul\":6357:6755   */\n      swap2\n      swap1\n      pop\n      jump\t// out\n        /* \"#utility.yul\":6761:7140   */\n    tag_122:\n        /* \"#utility.yul\":6945:6948   */\n      0x00\n        /* \"#utility.yul\":6967:7114   */\n      tag_241\n        /* \"#utility.yul\":7110:7113   */\n      dup3\n        /* \"#utility.yul\":6967:7114   */\n      tag_161\n      jump\t// in\n    tag_241:\n        /* \"#utility.yul\":6960:7114   */\n      swap2\n      pop\n        /* \"#utility.yul\":7131:7134   */\n      dup2\n        /* \"#utility.yul\":7124:7134   */\n      swap1\n      pop\n        /* \"#utility.yul\":6761:7140   */\n      swap2\n      swap1\n      pop\n      jump\t// out\n        /* \"#utility.yul\":7146:7478   */\n    tag_128:\n        /* \"#utility.yul\":7267:7271   */\n      0x00\n        /* \"#utility.yul\":7305:7307   */\n      0x40\n        /* \"#utility.yul\":7294:7303   */\n      dup3\n        /* \"#utility.yul\":7290:7308   */\n      add\n        /* \"#utility.yul\":7282:7308   */\n      swap1\n      pop\n        /* \"#utility.yul\":7318:7389   */\n      tag_243\n        /* \"#utility.yul\":7386:7387   */\n      0x00\n        /* \"#utility.yul\":7375:7384   */\n      dup4\n        /* \"#utility.yul\":7371:7388   */\n      add\n        /* \"#utility.yul\":7362:7368   */\n      dup6\n        /* \"#utility.yul\":7318:7389   */\n      tag_150\n      jump\t// in\n    tag_243:\n        /* \"#utility.yul\":7399:7471   */\n      tag_244\n        /* \"#utility.yul\":7467:7469   */\n      0x20\n        /* \"#utility.yul\":7456:7465   */\n      dup4\n        /* \"#utility.yul\":7452:7470   */\n      add\n        /* \"#utility.yul\":7443:7449   */\n      dup5\n        /* \"#utility.yul\":7399:7471   */\n      tag_142\n      jump\t// in\n    tag_244:\n        /* \"#utility.yul\":7146:7478   */\n      swap4\n      swap3\n      pop\n      pop\n      pop\n      jump\t// out\n\n    auxdata: 0xa2646970667358221220e18a297a766a10d8e65330f2f762b6a2afa92d1e0dc0949555fc793c158c4a7864736f6c634300081e0033\n}\n",
				"bytecode": {
					"linkReferences": {},
					"object": "60c060405234801561000f575f5ffd5b50604051611311380380611311833981810160405281019061003191906100d9565b335f5f6101000a81548173ffffffffffffffffffffffffffffffffffffffff021916908373ffffffffffffffffffffffffffffffffffffffff16021790555081608081815250508060a08181525050600160075f6101000a81548160ff021916908360ff1602179055505050610117565b5f5ffd5b5f819050919050565b6100b8816100a6565b81146100c2575f5ffd5b50565b5f815190506100d3816100af565b92915050565b5f5f604083850312156100ef576100ee6100a2565b5b5f6100fc858286016100c5565b925050602061010d858286016100c5565b9150509250929050565b60805160a0516111af6101625f395f81816107480152818161077101528181610a820152610af901525f81816104ba015281816104e301528181610ad80152610beb01526111af5ff3fe6080604052600436106100e0575f3560e01c8063d0e30db01161007e578063ecbea24d11610058578063ecbea24d146103b6578063f2fde38b146103e0578063f8b2cb4f14610408578063ffa1ad741461044457610174565b8063d0e30db014610334578063d369e33c1461033e578063e48138211461037a57610174565b80634dab4207116100ba5780634dab4207146102885780638da5cb5b146102b2578063b16a867c146102dc578063c847119d1461030a57610174565b80630770e5711461020c5780631977e938146102365780632e1a7d4d1461026057610174565b3661017457600260ff1660075f9054906101000a900460ff1660ff1603610133576040517f37ed32e800000000000000000000000000000000000000000000000000000000815260040160405180910390fd5b600260075f6101000a81548160ff021916908360ff160217905550610158333461046e565b600160075f6101000a81548160ff021916908360ff1602179055005b600260ff1660075f9054906101000a900460ff1660ff16036101c2576040517f37ed32e800000000000000000000000000000000000000000000000000000000815260040160405180910390fd5b600260075f6101000a81548160ff021916908360ff1602179055505f3411156101f0576101ef333461046e565b5b600160075f6101000a81548160ff021916908360ff1602179055005b348015610217575f5ffd5b50610220610698565b60405161022d9190610ddb565b60405180910390f35b348015610241575f5ffd5b5061024a61069e565b6040516102579190610ddb565b60405180910390f35b34801561026b575f5ffd5b5061028660048036038101906102819190610e22565b6106a4565b005b348015610293575f5ffd5b5061029c610a80565b6040516102a99190610ddb565b60405180910390f35b3480156102bd575f5ffd5b506102c6610aa4565b6040516102d39190610e8c565b60405180910390f35b3480156102e7575f5ffd5b506102f0610ac8565b604051610301959493929190610ea5565b60405180910390f35b348015610315575f5ffd5b5061031e610b29565b60405161032b9190610ddb565b60405180910390f35b61033c610b2f565b005b348015610349575f5ffd5b50610364600480360381019061035f9190610f20565b610bbf565b6040516103719190610ddb565b60405180910390f35b348015610385575f5ffd5b506103a0600480360381019061039b9190610f20565b610bd4565b6040516103ad9190610ddb565b60405180910390f35b3480156103c1575f5ffd5b506103ca610be9565b6040516103d79190610ddb565b60405180910390f35b3480156103eb575f5ffd5b5061040660048036038101906104019190610f20565b610c0d565b005b348015610413575f5ffd5b5061042e60048036038101906104299190610f20565b610d44565b60405161043b9190610ddb565b60405180910390f35b34801561044f575f5ffd5b50610458610d8a565b6040516104659190610fbb565b60405180910390f35b5f81036104a7576040517f1f2a200500000000000000000000000000000000000000000000000000000000815260040160405180910390fd5b5f816001546104b69190611008565b90507f000000000000000000000000000000000000000000000000000000000000000081111561053f57807f00000000000000000000000000000000000000000000000000000000000000006040517f4274ef7700000000000000000000000000000000000000000000000000000000815260040161053692919061103b565b60405180910390fd5b8160045f8573ffffffffffffffffffffffffffffffffffffffff1673ffffffffffffffffffffffffffffffffffffffff1681526020019081526020015f205f82825461058b9190611008565b925050819055508060018190555060025f8154809291906105ab90611062565b919050555060055f8473ffffffffffffffffffffffffffffffffffffffff1673ffffffffffffffffffffffffffffffffffffffff1681526020019081526020015f205f8154809291906105fd90611062565b91905055508273ffffffffffffffffffffffffffffffffffffffff167f36af321ec8d3c75236829c5317affd40ddb308863a1236d2d277a4025cccee1e8360045f8773ffffffffffffffffffffffffffffffffffffffff1673ffffffffffffffffffffffffffffffffffffffff1681526020019081526020015f205460025460405161068b939291906110a9565b60405180910390a2505050565b60035481565b60015481565b600260ff1660075f9054906101000a900460ff1660ff16036106f2576040517f37ed32e800000000000000000000000000000000000000000000000000000000815260040160405180910390fd5b600260075f6101000a81548160ff021916908360ff1602179055505f8103610746576040517f1f2a200500000000000000000000000000000000000000000000000000000000815260040160405180910390fd5b7f00000000000000000000000000000000000000000000000000000000000000008111156107cd57807f00000000000000000000000000000000000000000000000000000000000000006040517fde0313af0000000000000000000000000000000000000000000000000000000081526004016107c492919061103b565b60405180910390fd5b5f60045f3373ffffffffffffffffffffffffffffffffffffffff1673ffffffffffffffffffffffffffffffffffffffff1681526020019081526020015f20549050818110156108555780826040517fcf47918100000000000000000000000000000000000000000000000000000000815260040161084c92919061103b565b60405180910390fd5b818161086191906110de565b60045f3373ffffffffffffffffffffffffffffffffffffffff1673ffffffffffffffffffffffffffffffffffffffff1681526020019081526020015f20819055508160015f8282546108b391906110de565b9250508190555060035f8154809291906108cc90611062565b919050555060065f3373ffffffffffffffffffffffffffffffffffffffff1673ffffffffffffffffffffffffffffffffffffffff1681526020019081526020015f205f81548092919061091e90611062565b91905055505f3373ffffffffffffffffffffffffffffffffffffffff16836040516109489061113e565b5f6040518083038185875af1925050503d805f8114610982576040519150601f19603f3d011682016040523d82523d5f602084013e610987565b606091505b50509050806109cf5733836040517f1c43b9760000000000000000000000000000000000000000000000000000000081526004016109c6929190611152565b60405180910390fd5b3373ffffffffffffffffffffffffffffffffffffffff167f650fdf669e93aa6c8ff3defe2da9c12b64f1548e5e1e54e803f4c1beb6466c8e8460045f3373ffffffffffffffffffffffffffffffffffffffff1673ffffffffffffffffffffffffffffffffffffffff1681526020019081526020015f2054600354604051610a58939291906110a9565b60405180910390a25050600160075f6101000a81548160ff021916908360ff16021790555050565b7f000000000000000000000000000000000000000000000000000000000000000081565b5f5f9054906101000a900473ffffffffffffffffffffffffffffffffffffffff1681565b5f5f5f5f5f6001546002546003547f00000000000000000000000000000000000000000000000000000000000000007f0000000000000000000000000000000000000000000000000000000000000000945094509450945094509091929394565b60025481565b600260ff1660075f9054906101000a900460ff1660ff1603610b7d576040517f37ed32e800000000000000000000000000000000000000000000000000000000815260040160405180910390fd5b600260075f6101000a81548160ff021916908360ff160217905550610ba2333461046e565b600160075f6101000a81548160ff021916908360ff160217905550565b6005602052805f5260405f205f915090505481565b6006602052805f5260405f205f915090505481565b7f000000000000000000000000000000000000000000000000000000000000000081565b5f5f9054906101000a900473ffffffffffffffffffffffffffffffffffffffff1673ffffffffffffffffffffffffffffffffffffffff163373ffffffffffffffffffffffffffffffffffffffff1614610c9d57336040517f245aecd3000000000000000000000000000000000000000000000000000000008152600401610c949190610e8c565b60405180910390fd5b5f73ffffffffffffffffffffffffffffffffffffffff168173ffffffffffffffffffffffffffffffffffffffff1603610d02576040517fd92e233d00000000000000000000000000000000000000000000000000000000815260040160405180910390fd5b805f5f6101000a81548173ffffffffffffffffffffffffffffffffffffffff021916908373ffffffffffffffffffffffffffffffffffffffff16021790555050565b5f60045f8373ffffffffffffffffffffffffffffffffffffffff1673ffffffffffffffffffffffffffffffffffffffff1681526020019081526020015f20549050919050565b6040518060400160405280600b81526020017f4b69707542616e6b20763100000000000000000000000000000000000000000081525081565b5f819050919050565b610dd581610dc3565b82525050565b5f602082019050610dee5f830184610dcc565b92915050565b5f5ffd5b610e0181610dc3565b8114610e0b575f5ffd5b50565b5f81359050610e1c81610df8565b92915050565b5f60208284031215610e3757610e36610df4565b5b5f610e4484828501610e0e565b91505092915050565b5f73ffffffffffffffffffffffffffffffffffffffff82169050919050565b5f610e7682610e4d565b9050919050565b610e8681610e6c565b82525050565b5f602082019050610e9f5f830184610e7d565b92915050565b5f60a082019050610eb85f830188610dcc565b610ec56020830187610dcc565b610ed26040830186610dcc565b610edf6060830185610dcc565b610eec6080830184610dcc565b9695505050505050565b610eff81610e6c565b8114610f09575f5ffd5b50565b5f81359050610f1a81610ef6565b92915050565b5f60208284031215610f3557610f34610df4565b5b5f610f4284828501610f0c565b91505092915050565b5f81519050919050565b5f82825260208201905092915050565b8281835e5f83830152505050565b5f601f19601f8301169050919050565b5f610f8d82610f4b565b610f978185610f55565b9350610fa7818560208601610f65565b610fb081610f73565b840191505092915050565b5f6020820190508181035f830152610fd38184610f83565b905092915050565b7f4e487b71000000000000000000000000000000000000000000000000000000005f52601160045260245ffd5b5f61101282610dc3565b915061101d83610dc3565b925082820190508082111561103557611034610fdb565b5b92915050565b5f60408201905061104e5f830185610dcc565b61105b6020830184610dcc565b9392505050565b5f61106c82610dc3565b91507fffffffffffffffffffffffffffffffffffffffffffffffffffffffffffffffff820361109e5761109d610fdb565b5b600182019050919050565b5f6060820190506110bc5f830186610dcc565b6110c96020830185610dcc565b6110d66040830184610dcc565b949350505050565b5f6110e882610dc3565b91506110f383610dc3565b925082820390508181111561110b5761110a610fdb565b5b92915050565b5f81905092915050565b50565b5f6111295f83611111565b91506111348261111b565b5f82019050919050565b5f6111488261111e565b9150819050919050565b5f6040820190506111655f830185610e7d565b6111726020830184610dcc565b939250505056fea2646970667358221220e18a297a766a10d8e65330f2f762b6a2afa92d1e0dc0949555fc793c158c4a7864736f6c634300081e0033",
					"opcodes": "PUSH1 0xC0 PUSH1 0x40 MSTORE CALLVALUE DUP1 ISZERO PUSH2 0xF JUMPI PUSH0 PUSH0 REVERT JUMPDEST POP PUSH1 0x40 MLOAD PUSH2 0x1311 CODESIZE SUB DUP1 PUSH2 0x1311 DUP4 CODECOPY DUP2 DUP2 ADD PUSH1 0x40 MSTORE DUP2 ADD SWAP1 PUSH2 0x31 SWAP2 SWAP1 PUSH2 0xD9 JUMP JUMPDEST CALLER PUSH0 PUSH0 PUSH2 0x100 EXP DUP2 SLOAD DUP2 PUSH20 0xFFFFFFFFFFFFFFFFFFFFFFFFFFFFFFFFFFFFFFFF MUL NOT AND SWAP1 DUP4 PUSH20 0xFFFFFFFFFFFFFFFFFFFFFFFFFFFFFFFFFFFFFFFF AND MUL OR SWAP1 SSTORE POP DUP2 PUSH1 0x80 DUP2 DUP2 MSTORE POP POP DUP1 PUSH1 0xA0 DUP2 DUP2 MSTORE POP POP PUSH1 0x1 PUSH1 0x7 PUSH0 PUSH2 0x100 EXP DUP2 SLOAD DUP2 PUSH1 0xFF MUL NOT AND SWAP1 DUP4 PUSH1 0xFF AND MUL OR SWAP1 SSTORE POP POP POP PUSH2 0x117 JUMP JUMPDEST PUSH0 PUSH0 REVERT JUMPDEST PUSH0 DUP2 SWAP1 POP SWAP2 SWAP1 POP JUMP JUMPDEST PUSH2 0xB8 DUP2 PUSH2 0xA6 JUMP JUMPDEST DUP2 EQ PUSH2 0xC2 JUMPI PUSH0 PUSH0 REVERT JUMPDEST POP JUMP JUMPDEST PUSH0 DUP2 MLOAD SWAP1 POP PUSH2 0xD3 DUP2 PUSH2 0xAF JUMP JUMPDEST SWAP3 SWAP2 POP POP JUMP JUMPDEST PUSH0 PUSH0 PUSH1 0x40 DUP4 DUP6 SUB SLT ISZERO PUSH2 0xEF JUMPI PUSH2 0xEE PUSH2 0xA2 JUMP JUMPDEST JUMPDEST PUSH0 PUSH2 0xFC DUP6 DUP3 DUP7 ADD PUSH2 0xC5 JUMP JUMPDEST SWAP3 POP POP PUSH1 0x20 PUSH2 0x10D DUP6 DUP3 DUP7 ADD PUSH2 0xC5 JUMP JUMPDEST SWAP2 POP POP SWAP3 POP SWAP3 SWAP1 POP JUMP JUMPDEST PUSH1 0x80 MLOAD PUSH1 0xA0 MLOAD PUSH2 0x11AF PUSH2 0x162 PUSH0 CODECOPY PUSH0 DUP2 DUP2 PUSH2 0x748 ADD MSTORE DUP2 DUP2 PUSH2 0x771 ADD MSTORE DUP2 DUP2 PUSH2 0xA82 ADD MSTORE PUSH2 0xAF9 ADD MSTORE PUSH0 DUP2 DUP2 PUSH2 0x4BA ADD MSTORE DUP2 DUP2 PUSH2 0x4E3 ADD MSTORE DUP2 DUP2 PUSH2 0xAD8 ADD MSTORE PUSH2 0xBEB ADD MSTORE PUSH2 0x11AF PUSH0 RETURN INVALID PUSH1 0x80 PUSH1 0x40 MSTORE PUSH1 0x4 CALLDATASIZE LT PUSH2 0xE0 JUMPI PUSH0 CALLDATALOAD PUSH1 0xE0 SHR DUP1 PUSH4 0xD0E30DB0 GT PUSH2 0x7E JUMPI DUP1 PUSH4 0xECBEA24D GT PUSH2 0x58 JUMPI DUP1 PUSH4 0xECBEA24D EQ PUSH2 0x3B6 JUMPI DUP1 PUSH4 0xF2FDE38B EQ PUSH2 0x3E0 JUMPI DUP1 PUSH4 0xF8B2CB4F EQ PUSH2 0x408 JUMPI DUP1 PUSH4 0xFFA1AD74 EQ PUSH2 0x444 JUMPI PUSH2 0x174 JUMP JUMPDEST DUP1 PUSH4 0xD0E30DB0 EQ PUSH2 0x334 JUMPI DUP1 PUSH4 0xD369E33C EQ PUSH2 0x33E JUMPI DUP1 PUSH4 0xE4813821 EQ PUSH2 0x37A JUMPI PUSH2 0x174 JUMP JUMPDEST DUP1 PUSH4 0x4DAB4207 GT PUSH2 0xBA JUMPI DUP1 PUSH4 0x4DAB4207 EQ PUSH2 0x288 JUMPI DUP1 PUSH4 0x8DA5CB5B EQ PUSH2 0x2B2 JUMPI DUP1 PUSH4 0xB16A867C EQ PUSH2 0x2DC JUMPI DUP1 PUSH4 0xC847119D EQ PUSH2 0x30A JUMPI PUSH2 0x174 JUMP JUMPDEST DUP1 PUSH4 0x770E571 EQ PUSH2 0x20C JUMPI DUP1 PUSH4 0x1977E938 EQ PUSH2 0x236 JUMPI DUP1 PUSH4 0x2E1A7D4D EQ PUSH2 0x260 JUMPI PUSH2 0x174 JUMP JUMPDEST CALLDATASIZE PUSH2 0x174 JUMPI PUSH1 0x2 PUSH1 0xFF AND PUSH1 0x7 PUSH0 SWAP1 SLOAD SWAP1 PUSH2 0x100 EXP SWAP1 DIV PUSH1 0xFF AND PUSH1 0xFF AND SUB PUSH2 0x133 JUMPI PUSH1 0x40 MLOAD PUSH32 0x37ED32E800000000000000000000000000000000000000000000000000000000 DUP2 MSTORE PUSH1 0x4 ADD PUSH1 0x40 MLOAD DUP1 SWAP2 SUB SWAP1 REVERT JUMPDEST PUSH1 0x2 PUSH1 0x7 PUSH0 PUSH2 0x100 EXP DUP2 SLOAD DUP2 PUSH1 0xFF MUL NOT AND SWAP1 DUP4 PUSH1 0xFF AND MUL OR SWAP1 SSTORE POP PUSH2 0x158 CALLER CALLVALUE PUSH2 0x46E JUMP JUMPDEST PUSH1 0x1 PUSH1 0x7 PUSH0 PUSH2 0x100 EXP DUP2 SLOAD DUP2 PUSH1 0xFF MUL NOT AND SWAP1 DUP4 PUSH1 0xFF AND MUL OR SWAP1 SSTORE STOP JUMPDEST PUSH1 0x2 PUSH1 0xFF AND PUSH1 0x7 PUSH0 SWAP1 SLOAD SWAP1 PUSH2 0x100 EXP SWAP1 DIV PUSH1 0xFF AND PUSH1 0xFF AND SUB PUSH2 0x1C2 JUMPI PUSH1 0x40 MLOAD PUSH32 0x37ED32E800000000000000000000000000000000000000000000000000000000 DUP2 MSTORE PUSH1 0x4 ADD PUSH1 0x40 MLOAD DUP1 SWAP2 SUB SWAP1 REVERT JUMPDEST PUSH1 0x2 PUSH1 0x7 PUSH0 PUSH2 0x100 EXP DUP2 SLOAD DUP2 PUSH1 0xFF MUL NOT AND SWAP1 DUP4 PUSH1 0xFF AND MUL OR SWAP1 SSTORE POP PUSH0 CALLVALUE GT ISZERO PUSH2 0x1F0 JUMPI PUSH2 0x1EF CALLER CALLVALUE PUSH2 0x46E JUMP JUMPDEST JUMPDEST PUSH1 0x1 PUSH1 0x7 PUSH0 PUSH2 0x100 EXP DUP2 SLOAD DUP2 PUSH1 0xFF MUL NOT AND SWAP1 DUP4 PUSH1 0xFF AND MUL OR SWAP1 SSTORE STOP JUMPDEST CALLVALUE DUP1 ISZERO PUSH2 0x217 JUMPI PUSH0 PUSH0 REVERT JUMPDEST POP PUSH2 0x220 PUSH2 0x698 JUMP JUMPDEST PUSH1 0x40 MLOAD PUSH2 0x22D SWAP2 SWAP1 PUSH2 0xDDB JUMP JUMPDEST PUSH1 0x40 MLOAD DUP1 SWAP2 SUB SWAP1 RETURN JUMPDEST CALLVALUE DUP1 ISZERO PUSH2 0x241 JUMPI PUSH0 PUSH0 REVERT JUMPDEST POP PUSH2 0x24A PUSH2 0x69E JUMP JUMPDEST PUSH1 0x40 MLOAD PUSH2 0x257 SWAP2 SWAP1 PUSH2 0xDDB JUMP JUMPDEST PUSH1 0x40 MLOAD DUP1 SWAP2 SUB SWAP1 RETURN JUMPDEST CALLVALUE DUP1 ISZERO PUSH2 0x26B JUMPI PUSH0 PUSH0 REVERT JUMPDEST POP PUSH2 0x286 PUSH1 0x4 DUP1 CALLDATASIZE SUB DUP2 ADD SWAP1 PUSH2 0x281 SWAP2 SWAP1 PUSH2 0xE22 JUMP JUMPDEST PUSH2 0x6A4 JUMP JUMPDEST STOP JUMPDEST CALLVALUE DUP1 ISZERO PUSH2 0x293 JUMPI PUSH0 PUSH0 REVERT JUMPDEST POP PUSH2 0x29C PUSH2 0xA80 JUMP JUMPDEST PUSH1 0x40 MLOAD PUSH2 0x2A9 SWAP2 SWAP1 PUSH2 0xDDB JUMP JUMPDEST PUSH1 0x40 MLOAD DUP1 SWAP2 SUB SWAP1 RETURN JUMPDEST CALLVALUE DUP1 ISZERO PUSH2 0x2BD JUMPI PUSH0 PUSH0 REVERT JUMPDEST POP PUSH2 0x2C6 PUSH2 0xAA4 JUMP JUMPDEST PUSH1 0x40 MLOAD PUSH2 0x2D3 SWAP2 SWAP1 PUSH2 0xE8C JUMP JUMPDEST PUSH1 0x40 MLOAD DUP1 SWAP2 SUB SWAP1 RETURN JUMPDEST CALLVALUE DUP1 ISZERO PUSH2 0x2E7 JUMPI PUSH0 PUSH0 REVERT JUMPDEST POP PUSH2 0x2F0 PUSH2 0xAC8 JUMP JUMPDEST PUSH1 0x40 MLOAD PUSH2 0x301 SWAP6 SWAP5 SWAP4 SWAP3 SWAP2 SWAP1 PUSH2 0xEA5 JUMP JUMPDEST PUSH1 0x40 MLOAD DUP1 SWAP2 SUB SWAP1 RETURN JUMPDEST CALLVALUE DUP1 ISZERO PUSH2 0x315 JUMPI PUSH0 PUSH0 REVERT JUMPDEST POP PUSH2 0x31E PUSH2 0xB29 JUMP JUMPDEST PUSH1 0x40 MLOAD PUSH2 0x32B SWAP2 SWAP1 PUSH2 0xDDB JUMP JUMPDEST PUSH1 0x40 MLOAD DUP1 SWAP2 SUB SWAP1 RETURN JUMPDEST PUSH2 0x33C PUSH2 0xB2F JUMP JUMPDEST STOP JUMPDEST CALLVALUE DUP1 ISZERO PUSH2 0x349 JUMPI PUSH0 PUSH0 REVERT JUMPDEST POP PUSH2 0x364 PUSH1 0x4 DUP1 CALLDATASIZE SUB DUP2 ADD SWAP1 PUSH2 0x35F SWAP2 SWAP1 PUSH2 0xF20 JUMP JUMPDEST PUSH2 0xBBF JUMP JUMPDEST PUSH1 0x40 MLOAD PUSH2 0x371 SWAP2 SWAP1 PUSH2 0xDDB JUMP JUMPDEST PUSH1 0x40 MLOAD DUP1 SWAP2 SUB SWAP1 RETURN JUMPDEST CALLVALUE DUP1 ISZERO PUSH2 0x385 JUMPI PUSH0 PUSH0 REVERT JUMPDEST POP PUSH2 0x3A0 PUSH1 0x4 DUP1 CALLDATASIZE SUB DUP2 ADD SWAP1 PUSH2 0x39B SWAP2 SWAP1 PUSH2 0xF20 JUMP JUMPDEST PUSH2 0xBD4 JUMP JUMPDEST PUSH1 0x40 MLOAD PUSH2 0x3AD SWAP2 SWAP1 PUSH2 0xDDB JUMP JUMPDEST PUSH1 0x40 MLOAD DUP1 SWAP2 SUB SWAP1 RETURN JUMPDEST CALLVALUE DUP1 ISZERO PUSH2 0x3C1 JUMPI PUSH0 PUSH0 REVERT JUMPDEST POP PUSH2 0x3CA PUSH2 0xBE9 JUMP JUMPDEST PUSH1 0x40 MLOAD PUSH2 0x3D7 SWAP2 SWAP1 PUSH2 0xDDB JUMP JUMPDEST PUSH1 0x40 MLOAD DUP1 SWAP2 SUB SWAP1 RETURN JUMPDEST CALLVALUE DUP1 ISZERO PUSH2 0x3EB JUMPI PUSH0 PUSH0 REVERT JUMPDEST POP PUSH2 0x406 PUSH1 0x4 DUP1 CALLDATASIZE SUB DUP2 ADD SWAP1 PUSH2 0x401 SWAP2 SWAP1 PUSH2 0xF20 JUMP JUMPDEST PUSH2 0xC0D JUMP JUMPDEST STOP JUMPDEST CALLVALUE DUP1 ISZERO PUSH2 0x413 JUMPI PUSH0 PUSH0 REVERT JUMPDEST POP PUSH2 0x42E PUSH1 0x4 DUP1 CALLDATASIZE SUB DUP2 ADD SWAP1 PUSH2 0x429 SWAP2 SWAP1 PUSH2 0xF20 JUMP JUMPDEST PUSH2 0xD44 JUMP JUMPDEST PUSH1 0x40 MLOAD PUSH2 0x43B SWAP2 SWAP1 PUSH2 0xDDB JUMP JUMPDEST PUSH1 0x40 MLOAD DUP1 SWAP2 SUB SWAP1 RETURN JUMPDEST CALLVALUE DUP1 ISZERO PUSH2 0x44F JUMPI PUSH0 PUSH0 REVERT JUMPDEST POP PUSH2 0x458 PUSH2 0xD8A JUMP JUMPDEST PUSH1 0x40 MLOAD PUSH2 0x465 SWAP2 SWAP1 PUSH2 0xFBB JUMP JUMPDEST PUSH1 0x40 MLOAD DUP1 SWAP2 SUB SWAP1 RETURN JUMPDEST PUSH0 DUP2 SUB PUSH2 0x4A7 JUMPI PUSH1 0x40 MLOAD PUSH32 0x1F2A200500000000000000000000000000000000000000000000000000000000 DUP2 MSTORE PUSH1 0x4 ADD PUSH1 0x40 MLOAD DUP1 SWAP2 SUB SWAP1 REVERT JUMPDEST PUSH0 DUP2 PUSH1 0x1 SLOAD PUSH2 0x4B6 SWAP2 SWAP1 PUSH2 0x1008 JUMP JUMPDEST SWAP1 POP PUSH32 0x0 DUP2 GT ISZERO PUSH2 0x53F JUMPI DUP1 PUSH32 0x0 PUSH1 0x40 MLOAD PUSH32 0x4274EF7700000000000000000000000000000000000000000000000000000000 DUP2 MSTORE PUSH1 0x4 ADD PUSH2 0x536 SWAP3 SWAP2 SWAP1 PUSH2 0x103B JUMP JUMPDEST PUSH1 0x40 MLOAD DUP1 SWAP2 SUB SWAP1 REVERT JUMPDEST DUP2 PUSH1 0x4 PUSH0 DUP6 PUSH20 0xFFFFFFFFFFFFFFFFFFFFFFFFFFFFFFFFFFFFFFFF AND PUSH20 0xFFFFFFFFFFFFFFFFFFFFFFFFFFFFFFFFFFFFFFFF AND DUP2 MSTORE PUSH1 0x20 ADD SWAP1 DUP2 MSTORE PUSH1 0x20 ADD PUSH0 KECCAK256 PUSH0 DUP3 DUP3 SLOAD PUSH2 0x58B SWAP2 SWAP1 PUSH2 0x1008 JUMP JUMPDEST SWAP3 POP POP DUP2 SWAP1 SSTORE POP DUP1 PUSH1 0x1 DUP2 SWAP1 SSTORE POP PUSH1 0x2 PUSH0 DUP2 SLOAD DUP1 SWAP3 SWAP2 SWAP1 PUSH2 0x5AB SWAP1 PUSH2 0x1062 JUMP JUMPDEST SWAP2 SWAP1 POP SSTORE POP PUSH1 0x5 PUSH0 DUP5 PUSH20 0xFFFFFFFFFFFFFFFFFFFFFFFFFFFFFFFFFFFFFFFF AND PUSH20 0xFFFFFFFFFFFFFFFFFFFFFFFFFFFFFFFFFFFFFFFF AND DUP2 MSTORE PUSH1 0x20 ADD SWAP1 DUP2 MSTORE PUSH1 0x20 ADD PUSH0 KECCAK256 PUSH0 DUP2 SLOAD DUP1 SWAP3 SWAP2 SWAP1 PUSH2 0x5FD SWAP1 PUSH2 0x1062 JUMP JUMPDEST SWAP2 SWAP1 POP SSTORE POP DUP3 PUSH20 0xFFFFFFFFFFFFFFFFFFFFFFFFFFFFFFFFFFFFFFFF AND PUSH32 0x36AF321EC8D3C75236829C5317AFFD40DDB308863A1236D2D277A4025CCCEE1E DUP4 PUSH1 0x4 PUSH0 DUP8 PUSH20 0xFFFFFFFFFFFFFFFFFFFFFFFFFFFFFFFFFFFFFFFF AND PUSH20 0xFFFFFFFFFFFFFFFFFFFFFFFFFFFFFFFFFFFFFFFF AND DUP2 MSTORE PUSH1 0x20 ADD SWAP1 DUP2 MSTORE PUSH1 0x20 ADD PUSH0 KECCAK256 SLOAD PUSH1 0x2 SLOAD PUSH1 0x40 MLOAD PUSH2 0x68B SWAP4 SWAP3 SWAP2 SWAP1 PUSH2 0x10A9 JUMP JUMPDEST PUSH1 0x40 MLOAD DUP1 SWAP2 SUB SWAP1 LOG2 POP POP POP JUMP JUMPDEST PUSH1 0x3 SLOAD DUP2 JUMP JUMPDEST PUSH1 0x1 SLOAD DUP2 JUMP JUMPDEST PUSH1 0x2 PUSH1 0xFF AND PUSH1 0x7 PUSH0 SWAP1 SLOAD SWAP1 PUSH2 0x100 EXP SWAP1 DIV PUSH1 0xFF AND PUSH1 0xFF AND SUB PUSH2 0x6F2 JUMPI PUSH1 0x40 MLOAD PUSH32 0x37ED32E800000000000000000000000000000000000000000000000000000000 DUP2 MSTORE PUSH1 0x4 ADD PUSH1 0x40 MLOAD DUP1 SWAP2 SUB SWAP1 REVERT JUMPDEST PUSH1 0x2 PUSH1 0x7 PUSH0 PUSH2 0x100 EXP DUP2 SLOAD DUP2 PUSH1 0xFF MUL NOT AND SWAP1 DUP4 PUSH1 0xFF AND MUL OR SWAP1 SSTORE POP PUSH0 DUP2 SUB PUSH2 0x746 JUMPI PUSH1 0x40 MLOAD PUSH32 0x1F2A200500000000000000000000000000000000000000000000000000000000 DUP2 MSTORE PUSH1 0x4 ADD PUSH1 0x40 MLOAD DUP1 SWAP2 SUB SWAP1 REVERT JUMPDEST PUSH32 0x0 DUP2 GT ISZERO PUSH2 0x7CD JUMPI DUP1 PUSH32 0x0 PUSH1 0x40 MLOAD PUSH32 0xDE0313AF00000000000000000000000000000000000000000000000000000000 DUP2 MSTORE PUSH1 0x4 ADD PUSH2 0x7C4 SWAP3 SWAP2 SWAP1 PUSH2 0x103B JUMP JUMPDEST PUSH1 0x40 MLOAD DUP1 SWAP2 SUB SWAP1 REVERT JUMPDEST PUSH0 PUSH1 0x4 PUSH0 CALLER PUSH20 0xFFFFFFFFFFFFFFFFFFFFFFFFFFFFFFFFFFFFFFFF AND PUSH20 0xFFFFFFFFFFFFFFFFFFFFFFFFFFFFFFFFFFFFFFFF AND DUP2 MSTORE PUSH1 0x20 ADD SWAP1 DUP2 MSTORE PUSH1 0x20 ADD PUSH0 KECCAK256 SLOAD SWAP1 POP DUP2 DUP2 LT ISZERO PUSH2 0x855 JUMPI DUP1 DUP3 PUSH1 0x40 MLOAD PUSH32 0xCF47918100000000000000000000000000000000000000000000000000000000 DUP2 MSTORE PUSH1 0x4 ADD PUSH2 0x84C SWAP3 SWAP2 SWAP1 PUSH2 0x103B JUMP JUMPDEST PUSH1 0x40 MLOAD DUP1 SWAP2 SUB SWAP1 REVERT JUMPDEST DUP2 DUP2 PUSH2 0x861 SWAP2 SWAP1 PUSH2 0x10DE JUMP JUMPDEST PUSH1 0x4 PUSH0 CALLER PUSH20 0xFFFFFFFFFFFFFFFFFFFFFFFFFFFFFFFFFFFFFFFF AND PUSH20 0xFFFFFFFFFFFFFFFFFFFFFFFFFFFFFFFFFFFFFFFF AND DUP2 MSTORE PUSH1 0x20 ADD SWAP1 DUP2 MSTORE PUSH1 0x20 ADD PUSH0 KECCAK256 DUP2 SWAP1 SSTORE POP DUP2 PUSH1 0x1 PUSH0 DUP3 DUP3 SLOAD PUSH2 0x8B3 SWAP2 SWAP1 PUSH2 0x10DE JUMP JUMPDEST SWAP3 POP POP DUP2 SWAP1 SSTORE POP PUSH1 0x3 PUSH0 DUP2 SLOAD DUP1 SWAP3 SWAP2 SWAP1 PUSH2 0x8CC SWAP1 PUSH2 0x1062 JUMP JUMPDEST SWAP2 SWAP1 POP SSTORE POP PUSH1 0x6 PUSH0 CALLER PUSH20 0xFFFFFFFFFFFFFFFFFFFFFFFFFFFFFFFFFFFFFFFF AND PUSH20 0xFFFFFFFFFFFFFFFFFFFFFFFFFFFFFFFFFFFFFFFF AND DUP2 MSTORE PUSH1 0x20 ADD SWAP1 DUP2 MSTORE PUSH1 0x20 ADD PUSH0 KECCAK256 PUSH0 DUP2 SLOAD DUP1 SWAP3 SWAP2 SWAP1 PUSH2 0x91E SWAP1 PUSH2 0x1062 JUMP JUMPDEST SWAP2 SWAP1 POP SSTORE POP PUSH0 CALLER PUSH20 0xFFFFFFFFFFFFFFFFFFFFFFFFFFFFFFFFFFFFFFFF AND DUP4 PUSH1 0x40 MLOAD PUSH2 0x948 SWAP1 PUSH2 0x113E JUMP JUMPDEST PUSH0 PUSH1 0x40 MLOAD DUP1 DUP4 SUB DUP2 DUP6 DUP8 GAS CALL SWAP3 POP POP POP RETURNDATASIZE DUP1 PUSH0 DUP2 EQ PUSH2 0x982 JUMPI PUSH1 0x40 MLOAD SWAP2 POP PUSH1 0x1F NOT PUSH1 0x3F RETURNDATASIZE ADD AND DUP3 ADD PUSH1 0x40 MSTORE RETURNDATASIZE DUP3 MSTORE RETURNDATASIZE PUSH0 PUSH1 0x20 DUP5 ADD RETURNDATACOPY PUSH2 0x987 JUMP JUMPDEST PUSH1 0x60 SWAP2 POP JUMPDEST POP POP SWAP1 POP DUP1 PUSH2 0x9CF JUMPI CALLER DUP4 PUSH1 0x40 MLOAD PUSH32 0x1C43B97600000000000000000000000000000000000000000000000000000000 DUP2 MSTORE PUSH1 0x4 ADD PUSH2 0x9C6 SWAP3 SWAP2 SWAP1 PUSH2 0x1152 JUMP JUMPDEST PUSH1 0x40 MLOAD DUP1 SWAP2 SUB SWAP1 REVERT JUMPDEST CALLER PUSH20 0xFFFFFFFFFFFFFFFFFFFFFFFFFFFFFFFFFFFFFFFF AND PUSH32 0x650FDF669E93AA6C8FF3DEFE2DA9C12B64F1548E5E1E54E803F4C1BEB6466C8E DUP5 PUSH1 0x4 PUSH0 CALLER PUSH20 0xFFFFFFFFFFFFFFFFFFFFFFFFFFFFFFFFFFFFFFFF AND PUSH20 0xFFFFFFFFFFFFFFFFFFFFFFFFFFFFFFFFFFFFFFFF AND DUP2 MSTORE PUSH1 0x20 ADD SWAP1 DUP2 MSTORE PUSH1 0x20 ADD PUSH0 KECCAK256 SLOAD PUSH1 0x3 SLOAD PUSH1 0x40 MLOAD PUSH2 0xA58 SWAP4 SWAP3 SWAP2 SWAP1 PUSH2 0x10A9 JUMP JUMPDEST PUSH1 0x40 MLOAD DUP1 SWAP2 SUB SWAP1 LOG2 POP POP PUSH1 0x1 PUSH1 0x7 PUSH0 PUSH2 0x100 EXP DUP2 SLOAD DUP2 PUSH1 0xFF MUL NOT AND SWAP1 DUP4 PUSH1 0xFF AND MUL OR SWAP1 SSTORE POP POP JUMP JUMPDEST PUSH32 0x0 DUP2 JUMP JUMPDEST PUSH0 PUSH0 SWAP1 SLOAD SWAP1 PUSH2 0x100 EXP SWAP1 DIV PUSH20 0xFFFFFFFFFFFFFFFFFFFFFFFFFFFFFFFFFFFFFFFF AND DUP2 JUMP JUMPDEST PUSH0 PUSH0 PUSH0 PUSH0 PUSH0 PUSH1 0x1 SLOAD PUSH1 0x2 SLOAD PUSH1 0x3 SLOAD PUSH32 0x0 PUSH32 0x0 SWAP5 POP SWAP5 POP SWAP5 POP SWAP5 POP SWAP5 POP SWAP1 SWAP2 SWAP3 SWAP4 SWAP5 JUMP JUMPDEST PUSH1 0x2 SLOAD DUP2 JUMP JUMPDEST PUSH1 0x2 PUSH1 0xFF AND PUSH1 0x7 PUSH0 SWAP1 SLOAD SWAP1 PUSH2 0x100 EXP SWAP1 DIV PUSH1 0xFF AND PUSH1 0xFF AND SUB PUSH2 0xB7D JUMPI PUSH1 0x40 MLOAD PUSH32 0x37ED32E800000000000000000000000000000000000000000000000000000000 DUP2 MSTORE PUSH1 0x4 ADD PUSH1 0x40 MLOAD DUP1 SWAP2 SUB SWAP1 REVERT JUMPDEST PUSH1 0x2 PUSH1 0x7 PUSH0 PUSH2 0x100 EXP DUP2 SLOAD DUP2 PUSH1 0xFF MUL NOT AND SWAP1 DUP4 PUSH1 0xFF AND MUL OR SWAP1 SSTORE POP PUSH2 0xBA2 CALLER CALLVALUE PUSH2 0x46E JUMP JUMPDEST PUSH1 0x1 PUSH1 0x7 PUSH0 PUSH2 0x100 EXP DUP2 SLOAD DUP2 PUSH1 0xFF MUL NOT AND SWAP1 DUP4 PUSH1 0xFF AND MUL OR SWAP1 SSTORE POP JUMP JUMPDEST PUSH1 0x5 PUSH1 0x20 MSTORE DUP1 PUSH0 MSTORE PUSH1 0x40 PUSH0 KECCAK256 PUSH0 SWAP2 POP SWAP1 POP SLOAD DUP2 JUMP JUMPDEST PUSH1 0x6 PUSH1 0x20 MSTORE DUP1 PUSH0 MSTORE PUSH1 0x40 PUSH0 KECCAK256 PUSH0 SWAP2 POP SWAP1 POP SLOAD DUP2 JUMP JUMPDEST PUSH32 0x0 DUP2 JUMP JUMPDEST PUSH0 PUSH0 SWAP1 SLOAD SWAP1 PUSH2 0x100 EXP SWAP1 DIV PUSH20 0xFFFFFFFFFFFFFFFFFFFFFFFFFFFFFFFFFFFFFFFF AND PUSH20 0xFFFFFFFFFFFFFFFFFFFFFFFFFFFFFFFFFFFFFFFF AND CALLER PUSH20 0xFFFFFFFFFFFFFFFFFFFFFFFFFFFFFFFFFFFFFFFF AND EQ PUSH2 0xC9D JUMPI CALLER PUSH1 0x40 MLOAD PUSH32 0x245AECD300000000000000000000000000000000000000000000000000000000 DUP2 MSTORE PUSH1 0x4 ADD PUSH2 0xC94 SWAP2 SWAP1 PUSH2 0xE8C JUMP JUMPDEST PUSH1 0x40 MLOAD DUP1 SWAP2 SUB SWAP1 REVERT JUMPDEST PUSH0 PUSH20 0xFFFFFFFFFFFFFFFFFFFFFFFFFFFFFFFFFFFFFFFF AND DUP2 PUSH20 0xFFFFFFFFFFFFFFFFFFFFFFFFFFFFFFFFFFFFFFFF AND SUB PUSH2 0xD02 JUMPI PUSH1 0x40 MLOAD PUSH32 0xD92E233D00000000000000000000000000000000000000000000000000000000 DUP2 MSTORE PUSH1 0x4 ADD PUSH1 0x40 MLOAD DUP1 SWAP2 SUB SWAP1 REVERT JUMPDEST DUP1 PUSH0 PUSH0 PUSH2 0x100 EXP DUP2 SLOAD DUP2 PUSH20 0xFFFFFFFFFFFFFFFFFFFFFFFFFFFFFFFFFFFFFFFF MUL NOT AND SWAP1 DUP4 PUSH20 0xFFFFFFFFFFFFFFFFFFFFFFFFFFFFFFFFFFFFFFFF AND MUL OR SWAP1 SSTORE POP POP JUMP JUMPDEST PUSH0 PUSH1 0x4 PUSH0 DUP4 PUSH20 0xFFFFFFFFFFFFFFFFFFFFFFFFFFFFFFFFFFFFFFFF AND PUSH20 0xFFFFFFFFFFFFFFFFFFFFFFFFFFFFFFFFFFFFFFFF AND DUP2 MSTORE PUSH1 0x20 ADD SWAP1 DUP2 MSTORE PUSH1 0x20 ADD PUSH0 KECCAK256 SLOAD SWAP1 POP SWAP2 SWAP1 POP JUMP JUMPDEST PUSH1 0x40 MLOAD DUP1 PUSH1 0x40 ADD PUSH1 0x40 MSTORE DUP1 PUSH1 0xB DUP2 MSTORE PUSH1 0x20 ADD PUSH32 0x4B69707542616E6B207631000000000000000000000000000000000000000000 DUP2 MSTORE POP DUP2 JUMP JUMPDEST PUSH0 DUP2 SWAP1 POP SWAP2 SWAP1 POP JUMP JUMPDEST PUSH2 0xDD5 DUP2 PUSH2 0xDC3 JUMP JUMPDEST DUP3 MSTORE POP POP JUMP JUMPDEST PUSH0 PUSH1 0x20 DUP3 ADD SWAP1 POP PUSH2 0xDEE PUSH0 DUP4 ADD DUP5 PUSH2 0xDCC JUMP JUMPDEST SWAP3 SWAP2 POP POP JUMP JUMPDEST PUSH0 PUSH0 REVERT JUMPDEST PUSH2 0xE01 DUP2 PUSH2 0xDC3 JUMP JUMPDEST DUP2 EQ PUSH2 0xE0B JUMPI PUSH0 PUSH0 REVERT JUMPDEST POP JUMP JUMPDEST PUSH0 DUP2 CALLDATALOAD SWAP1 POP PUSH2 0xE1C DUP2 PUSH2 0xDF8 JUMP JUMPDEST SWAP3 SWAP2 POP POP JUMP JUMPDEST PUSH0 PUSH1 0x20 DUP3 DUP5 SUB SLT ISZERO PUSH2 0xE37 JUMPI PUSH2 0xE36 PUSH2 0xDF4 JUMP JUMPDEST JUMPDEST PUSH0 PUSH2 0xE44 DUP5 DUP3 DUP6 ADD PUSH2 0xE0E JUMP JUMPDEST SWAP2 POP POP SWAP3 SWAP2 POP POP JUMP JUMPDEST PUSH0 PUSH20 0xFFFFFFFFFFFFFFFFFFFFFFFFFFFFFFFFFFFFFFFF DUP3 AND SWAP1 POP SWAP2 SWAP1 POP JUMP JUMPDEST PUSH0 PUSH2 0xE76 DUP3 PUSH2 0xE4D JUMP JUMPDEST SWAP1 POP SWAP2 SWAP1 POP JUMP JUMPDEST PUSH2 0xE86 DUP2 PUSH2 0xE6C JUMP JUMPDEST DUP3 MSTORE POP POP JUMP JUMPDEST PUSH0 PUSH1 0x20 DUP3 ADD SWAP1 POP PUSH2 0xE9F PUSH0 DUP4 ADD DUP5 PUSH2 0xE7D JUMP JUMPDEST SWAP3 SWAP2 POP POP JUMP JUMPDEST PUSH0 PUSH1 0xA0 DUP3 ADD SWAP1 POP PUSH2 0xEB8 PUSH0 DUP4 ADD DUP9 PUSH2 0xDCC JUMP JUMPDEST PUSH2 0xEC5 PUSH1 0x20 DUP4 ADD DUP8 PUSH2 0xDCC JUMP JUMPDEST PUSH2 0xED2 PUSH1 0x40 DUP4 ADD DUP7 PUSH2 0xDCC JUMP JUMPDEST PUSH2 0xEDF PUSH1 0x60 DUP4 ADD DUP6 PUSH2 0xDCC JUMP JUMPDEST PUSH2 0xEEC PUSH1 0x80 DUP4 ADD DUP5 PUSH2 0xDCC JUMP JUMPDEST SWAP7 SWAP6 POP POP POP POP POP POP JUMP JUMPDEST PUSH2 0xEFF DUP2 PUSH2 0xE6C JUMP JUMPDEST DUP2 EQ PUSH2 0xF09 JUMPI PUSH0 PUSH0 REVERT JUMPDEST POP JUMP JUMPDEST PUSH0 DUP2 CALLDATALOAD SWAP1 POP PUSH2 0xF1A DUP2 PUSH2 0xEF6 JUMP JUMPDEST SWAP3 SWAP2 POP POP JUMP JUMPDEST PUSH0 PUSH1 0x20 DUP3 DUP5 SUB SLT ISZERO PUSH2 0xF35 JUMPI PUSH2 0xF34 PUSH2 0xDF4 JUMP JUMPDEST JUMPDEST PUSH0 PUSH2 0xF42 DUP5 DUP3 DUP6 ADD PUSH2 0xF0C JUMP JUMPDEST SWAP2 POP POP SWAP3 SWAP2 POP POP JUMP JUMPDEST PUSH0 DUP2 MLOAD SWAP1 POP SWAP2 SWAP1 POP JUMP JUMPDEST PUSH0 DUP3 DUP3 MSTORE PUSH1 0x20 DUP3 ADD SWAP1 POP SWAP3 SWAP2 POP POP JUMP JUMPDEST DUP3 DUP2 DUP4 MCOPY PUSH0 DUP4 DUP4 ADD MSTORE POP POP POP JUMP JUMPDEST PUSH0 PUSH1 0x1F NOT PUSH1 0x1F DUP4 ADD AND SWAP1 POP SWAP2 SWAP1 POP JUMP JUMPDEST PUSH0 PUSH2 0xF8D DUP3 PUSH2 0xF4B JUMP JUMPDEST PUSH2 0xF97 DUP2 DUP6 PUSH2 0xF55 JUMP JUMPDEST SWAP4 POP PUSH2 0xFA7 DUP2 DUP6 PUSH1 0x20 DUP7 ADD PUSH2 0xF65 JUMP JUMPDEST PUSH2 0xFB0 DUP2 PUSH2 0xF73 JUMP JUMPDEST DUP5 ADD SWAP2 POP POP SWAP3 SWAP2 POP POP JUMP JUMPDEST PUSH0 PUSH1 0x20 DUP3 ADD SWAP1 POP DUP2 DUP2 SUB PUSH0 DUP4 ADD MSTORE PUSH2 0xFD3 DUP2 DUP5 PUSH2 0xF83 JUMP JUMPDEST SWAP1 POP SWAP3 SWAP2 POP POP JUMP JUMPDEST PUSH32 0x4E487B7100000000000000000000000000000000000000000000000000000000 PUSH0 MSTORE PUSH1 0x11 PUSH1 0x4 MSTORE PUSH1 0x24 PUSH0 REVERT JUMPDEST PUSH0 PUSH2 0x1012 DUP3 PUSH2 0xDC3 JUMP JUMPDEST SWAP2 POP PUSH2 0x101D DUP4 PUSH2 0xDC3 JUMP JUMPDEST SWAP3 POP DUP3 DUP3 ADD SWAP1 POP DUP1 DUP3 GT ISZERO PUSH2 0x1035 JUMPI PUSH2 0x1034 PUSH2 0xFDB JUMP JUMPDEST JUMPDEST SWAP3 SWAP2 POP POP JUMP JUMPDEST PUSH0 PUSH1 0x40 DUP3 ADD SWAP1 POP PUSH2 0x104E PUSH0 DUP4 ADD DUP6 PUSH2 0xDCC JUMP JUMPDEST PUSH2 0x105B PUSH1 0x20 DUP4 ADD DUP5 PUSH2 0xDCC JUMP JUMPDEST SWAP4 SWAP3 POP POP POP JUMP JUMPDEST PUSH0 PUSH2 0x106C DUP3 PUSH2 0xDC3 JUMP JUMPDEST SWAP2 POP PUSH32 0xFFFFFFFFFFFFFFFFFFFFFFFFFFFFFFFFFFFFFFFFFFFFFFFFFFFFFFFFFFFFFFFF DUP3 SUB PUSH2 0x109E JUMPI PUSH2 0x109D PUSH2 0xFDB JUMP JUMPDEST JUMPDEST PUSH1 0x1 DUP3 ADD SWAP1 POP SWAP2 SWAP1 POP JUMP JUMPDEST PUSH0 PUSH1 0x60 DUP3 ADD SWAP1 POP PUSH2 0x10BC PUSH0 DUP4 ADD DUP7 PUSH2 0xDCC JUMP JUMPDEST PUSH2 0x10C9 PUSH1 0x20 DUP4 ADD DUP6 PUSH2 0xDCC JUMP JUMPDEST PUSH2 0x10D6 PUSH1 0x40 DUP4 ADD DUP5 PUSH2 0xDCC JUMP JUMPDEST SWAP5 SWAP4 POP POP POP POP JUMP JUMPDEST PUSH0 PUSH2 0x10E8 DUP3 PUSH2 0xDC3 JUMP JUMPDEST SWAP2 POP PUSH2 0x10F3 DUP4 PUSH2 0xDC3 JUMP JUMPDEST SWAP3 POP DUP3 DUP3 SUB SWAP1 POP DUP2 DUP2 GT ISZERO PUSH2 0x110B JUMPI PUSH2 0x110A PUSH2 0xFDB JUMP JUMPDEST JUMPDEST SWAP3 SWAP2 POP POP JUMP JUMPDEST PUSH0 DUP2 SWAP1 POP SWAP3 SWAP2 POP POP JUMP JUMPDEST POP JUMP JUMPDEST PUSH0 PUSH2 0x1129 PUSH0 DUP4 PUSH2 0x1111 JUMP JUMPDEST SWAP2 POP PUSH2 0x1134 DUP3 PUSH2 0x111B JUMP JUMPDEST PUSH0 DUP3 ADD SWAP1 POP SWAP2 SWAP1 POP JUMP JUMPDEST PUSH0 PUSH2 0x1148 DUP3 PUSH2 0x111E JUMP JUMPDEST SWAP2 POP DUP2 SWAP1 POP SWAP2 SWAP1 POP JUMP JUMPDEST PUSH0 PUSH1 0x40 DUP3 ADD SWAP1 POP PUSH2 0x1165 PUSH0 DUP4 ADD DUP6 PUSH2 0xE7D JUMP JUMPDEST PUSH2 0x1172 PUSH1 0x20 DUP4 ADD DUP5 PUSH2 0xDCC JUMP JUMPDEST SWAP4 SWAP3 POP POP POP JUMP INVALID LOG2 PUSH5 0x6970667358 0x22 SLT KECCAK256 RJUMPI 0x8A29 PUSH27 0x766A10D8E65330F2F762B6A2AFA92D1E0DC0949555FC793C158C4A PUSH25 0x64736F6C634300081E00330000000000000000000000000000 "
				},
				"gasEstimates": {
					"creation": {
						"codeDepositCost": "905400",
						"executionCost": "infinite",
						"totalCost": "infinite"
					},
					"external": {
						"": "infinite",
						"VERSION()": "infinite",
						"bankCap()": "infinite",
						"deposit()": "infinite",
						"getBalance(address)": "2895",
						"maxWithdrawalPerTx()": "infinite",
						"owner()": "2552",
						"summary()": "infinite",
						"totalBankBalance()": "2471",
						"totalDepositsCount()": "2514",
						"totalWithdrawalsCount()": "2449",
						"transferOwnership(address)": "infinite",
						"userDepositsCount(address)": "2847",
						"userWithdrawalsCount(address)": "2869",
						"withdraw(uint256)": "infinite"
					},
					"internal": {
						"_internalDeposit(address,uint256)": "infinite"
					}
				},
				"methodIdentifiers": {
					"VERSION()": "ffa1ad74",
					"bankCap()": "ecbea24d",
					"deposit()": "d0e30db0",
					"getBalance(address)": "f8b2cb4f",
					"maxWithdrawalPerTx()": "4dab4207",
					"owner()": "8da5cb5b",
					"summary()": "b16a867c",
					"totalBankBalance()": "1977e938",
					"totalDepositsCount()": "c847119d",
					"totalWithdrawalsCount()": "0770e571",
					"transferOwnership(address)": "f2fde38b",
					"userDepositsCount(address)": "d369e33c",
					"userWithdrawalsCount(address)": "e4813821",
					"withdraw(uint256)": "2e1a7d4d"
				}
			},
			"storageLayout": {
				"storage": [
					{
						"astId": 57,
						"contract": "contracts/kipu_bank.sol:KipuBank",
						"label": "owner",
						"offset": 0,
						"slot": "0",
						"type": "t_address"
					},
					{
						"astId": 60,
						"contract": "contracts/kipu_bank.sol:KipuBank",
						"label": "totalBankBalance",
						"offset": 0,
						"slot": "1",
						"type": "t_uint256"
					},
					{
						"astId": 63,
						"contract": "contracts/kipu_bank.sol:KipuBank",
						"label": "totalDepositsCount",
						"offset": 0,
						"slot": "2",
						"type": "t_uint256"
					},
					{
						"astId": 66,
						"contract": "contracts/kipu_bank.sol:KipuBank",
						"label": "totalWithdrawalsCount",
						"offset": 0,
						"slot": "3",
						"type": "t_uint256"
					},
					{
						"astId": 71,
						"contract": "contracts/kipu_bank.sol:KipuBank",
						"label": "balances",
						"offset": 0,
						"slot": "4",
						"type": "t_mapping(t_address,t_uint256)"
					},
					{
						"astId": 76,
						"contract": "contracts/kipu_bank.sol:KipuBank",
						"label": "userDepositsCount",
						"offset": 0,
						"slot": "5",
						"type": "t_mapping(t_address,t_uint256)"
					},
					{
						"astId": 81,
						"contract": "contracts/kipu_bank.sol:KipuBank",
						"label": "userWithdrawalsCount",
						"offset": 0,
						"slot": "6",
						"type": "t_mapping(t_address,t_uint256)"
					},
					{
						"astId": 106,
						"contract": "contracts/kipu_bank.sol:KipuBank",
						"label": "_status",
						"offset": 0,
						"slot": "7",
						"type": "t_uint8"
					}
				],
				"types": {
					"t_address": {
						"encoding": "inplace",
						"label": "address",
						"numberOfBytes": "20"
					},
					"t_mapping(t_address,t_uint256)": {
						"encoding": "mapping",
						"key": "t_address",
						"label": "mapping(address => uint256)",
						"numberOfBytes": "32",
						"value": "t_uint256"
					},
					"t_uint256": {
						"encoding": "inplace",
						"label": "uint256",
						"numberOfBytes": "32"
					},
					"t_uint8": {
						"encoding": "inplace",
						"label": "uint8",
						"numberOfBytes": "1"
					}
				}
			},
			"userdoc": {
				"errors": {
					"ExceedsBankCap(uint256,uint256)": [
						{
							"notice": "El depósito supera el límite global del banco"
						}
					],
					"ExceedsMaxWithdrawal(uint256,uint256)": [
						{
							"notice": "El monto excede el retiro máximo por transacción"
						}
					],
					"InsufficientBalance(uint256,uint256)": [
						{
							"notice": "El usuario no tiene suficiente saldo para esta acción"
						}
					],
					"NotOwner(address)": [
						{
							"notice": "Solo el owner puede ejecutar esta función"
						}
					],
					"ReentrantCall()": [
						{
							"notice": "Se detectó un intento de reentrancia"
						}
					],
					"TransferFailed(address,uint256)": [
						{
							"notice": "Falló la transferencia de ETH"
						}
					],
					"ZeroAddress()": [
						{
							"notice": "No se permite la dirección 0 como owner"
						}
					],
					"ZeroAmount()": [
						{
							"notice": "No se puede enviar ni retirar 0 ETH"
						}
					]
				},
				"events": {
					"Deposit(address,uint256,uint256,uint256)": {
						"notice": "Se emite al depositar ETH"
					},
					"Withdrawal(address,uint256,uint256,uint256)": {
						"notice": "Se emite al retirar ETH"
					}
				},
				"kind": "user",
				"methods": {
					"VERSION()": {
						"notice": "Versión del contrato"
					},
					"bankCap()": {
						"notice": "Límite máximo de ETH que puede tener el banco"
					},
					"constructor": {
						"notice": "Constructor, setea límites e inicializa el owner"
					},
					"deposit()": {
						"notice": "Deposita ETH en la bóveda personal"
					},
					"getBalance(address)": {
						"notice": "Devuelve el balance de un usuario"
					},
					"maxWithdrawalPerTx()": {
						"notice": "Máximo que se puede retirar por transacción"
					},
					"owner()": {
						"notice": "Dirección del dueño del contrato"
					},
					"summary()": {
						"notice": "Devuelve el resumen global del banco"
					},
					"totalBankBalance()": {
						"notice": "Balance global del banco"
					},
					"totalDepositsCount()": {
						"notice": "Contador global de depósitos"
					},
					"totalWithdrawalsCount()": {
						"notice": "Contador global de retiros"
					},
					"transferOwnership(address)": {
						"notice": "Cambia el owner del contrato, no se permite address(0)"
					},
					"userDepositsCount(address)": {
						"notice": "Cantidad de depósitos por usuario"
					},
					"userWithdrawalsCount(address)": {
						"notice": "Cantidad de retiros por usuario"
					},
					"withdraw(uint256)": {
						"notice": "Retira ETH de la bóveda personal respetando los límites"
					}
				},
				"version": 1
			}
		}
	}
}