{
	"modulo2/muro.sol": {
		"Wall": {
			"abi": [
				{
					"anonymous": false,
					"inputs": [
						{
							"indexed": true,
							"internalType": "address",
							"name": "user",
							"type": "address"
						},
						{
							"indexed": false,
							"internalType": "string",
							"name": "name",
							"type": "string"
						}
					],
					"name": "NameAdded",
					"type": "event"
				},
				{
					"inputs": [
						{
							"internalType": "string",
							"name": "name",
							"type": "string"
						}
					],
					"name": "addName",
					"outputs": [],
					"stateMutability": "nonpayable",
					"type": "function"
				},
				{
					"inputs": [],
					"name": "count",
					"outputs": [
						{
							"internalType": "uint256",
							"name": "",
							"type": "uint256"
						}
					],
					"stateMutability": "view",
					"type": "function"
				},
				{
					"inputs": [],
					"name": "getNames",
					"outputs": [
						{
							"internalType": "string[]",
							"name": "",
							"type": "string[]"
						}
					],
					"stateMutability": "view",
					"type": "function"
				},
				{
					"inputs": [
						{
							"internalType": "address",
							"name": "",
							"type": "address"
						}
					],
					"name": "hasAdded",
					"outputs": [
						{
							"internalType": "bool",
							"name": "",
							"type": "bool"
						}
					],
					"stateMutability": "view",
					"type": "function"
				},
				{
					"inputs": [
						{
							"internalType": "uint256",
							"name": "",
							"type": "uint256"
						}
					],
					"name": "names",
					"outputs": [
						{
							"internalType": "string",
							"name": "",
							"type": "string"
						}
					],
					"stateMutability": "view",
					"type": "function"
				}
			],
			"devdoc": {
				"author": "dmbruno y comunidad ETH-KIPU",
				"kind": "dev",
				"methods": {
					"addName(string)": {
						"params": {
							"name": "El nombre a agregar"
						}
					},
					"getNames()": {
						"returns": {
							"_0": "Un array de strings con los nombres"
						}
					}
				},
				"title": "ETH-KIPU Wall - Un muro colaborativo de nombres en la blockchain.",
				"version": 1
			},
			"evm": {
				"assembly": "    /* \"modulo2/muro.sol\":175:1148  contract Wall {... */\n  mstore(0x40, 0x80)\n  callvalue\n  dup1\n  iszero\n  tag_1\n  jumpi\n  revert(0x00, 0x00)\ntag_1:\n  pop\n  dataSize(sub_0)\n  dup1\n  dataOffset(sub_0)\n  0x00\n  codecopy\n  0x00\n  return\nstop\n\nsub_0: assembly {\n        /* \"modulo2/muro.sol\":175:1148  contract Wall {... */\n      mstore(0x40, 0x80)\n      callvalue\n      dup1\n      iszero\n      tag_1\n      jumpi\n      revert(0x00, 0x00)\n    tag_1:\n      pop\n      jumpi(tag_2, lt(calldatasize, 0x04))\n      shr(0xe0, calldataload(0x00))\n      dup1\n      0x06661abd\n      eq\n      tag_3\n      jumpi\n      dup1\n      0x11456b47\n      eq\n      tag_4\n      jumpi\n      dup1\n      0x4622ab03\n      eq\n      tag_5\n      jumpi\n      dup1\n      0xcd838f0f\n      eq\n      tag_6\n      jumpi\n      dup1\n      0xe3874b29\n      eq\n      tag_7\n      jumpi\n    tag_2:\n      revert(0x00, 0x00)\n        /* \"modulo2/muro.sol\":1066:1146  function count() public view returns (uint) {... */\n    tag_3:\n      tag_8\n      tag_9\n      jump\t// in\n    tag_8:\n      mload(0x40)\n      tag_10\n      swap2\n      swap1\n      tag_11\n      jump\t// in\n    tag_10:\n      mload(0x40)\n      dup1\n      swap2\n      sub\n      swap1\n      return\n        /* \"modulo2/muro.sol\":583:805  function addName(string memory name) public {... */\n    tag_4:\n      tag_12\n      0x04\n      dup1\n      calldatasize\n      sub\n      dup2\n      add\n      swap1\n      tag_13\n      swap2\n      swap1\n      tag_14\n      jump\t// in\n    tag_13:\n      tag_15\n      jump\t// in\n    tag_12:\n      stop\n        /* \"modulo2/muro.sol\":228:249  string[] public names */\n    tag_5:\n      tag_16\n      0x04\n      dup1\n      calldatasize\n      sub\n      dup2\n      add\n      swap1\n      tag_17\n      swap2\n      swap1\n      tag_18\n      jump\t// in\n    tag_17:\n      tag_19\n      jump\t// in\n    tag_16:\n      mload(0x40)\n      tag_20\n      swap2\n      swap1\n      tag_21\n      jump\t// in\n    tag_20:\n      mload(0x40)\n      dup1\n      swap2\n      sub\n      swap1\n      return\n        /* \"modulo2/muro.sol\":916:1003  function getNames() public view returns (string[] memory) {... */\n    tag_6:\n      tag_22\n      tag_23\n      jump\t// in\n    tag_22:\n      mload(0x40)\n      tag_24\n      swap2\n      swap1\n      tag_25\n      jump\t// in\n    tag_24:\n      mload(0x40)\n      dup1\n      swap2\n      sub\n      swap1\n      return\n        /* \"modulo2/muro.sol\":319:359  mapping(address => bool) public hasAdded */\n    tag_7:\n      tag_26\n      0x04\n      dup1\n      calldatasize\n      sub\n      dup2\n      add\n      swap1\n      tag_27\n      swap2\n      swap1\n      tag_28\n      jump\t// in\n    tag_27:\n      tag_29\n      jump\t// in\n    tag_26:\n      mload(0x40)\n      tag_30\n      swap2\n      swap1\n      tag_31\n      jump\t// in\n    tag_30:\n      mload(0x40)\n      dup1\n      swap2\n      sub\n      swap1\n      return\n        /* \"modulo2/muro.sol\":1066:1146  function count() public view returns (uint) {... */\n    tag_9:\n        /* \"modulo2/muro.sol\":1104:1108  uint */\n      0x00\n        /* \"modulo2/muro.sol\":1127:1132  names */\n      0x00\n        /* \"modulo2/muro.sol\":1127:1139  names.length */\n      dup1\n      sload\n      swap1\n      pop\n        /* \"modulo2/muro.sol\":1120:1139  return names.length */\n      swap1\n      pop\n        /* \"modulo2/muro.sol\":1066:1146  function count() public view returns (uint) {... */\n      swap1\n      jump\t// out\n        /* \"modulo2/muro.sol\":583:805  function addName(string memory name) public {... */\n    tag_15:\n        /* \"modulo2/muro.sol\":646:654  hasAdded */\n      0x01\n        /* \"modulo2/muro.sol\":646:666  hasAdded[msg.sender] */\n      0x00\n        /* \"modulo2/muro.sol\":655:665  msg.sender */\n      caller\n        /* \"modulo2/muro.sol\":646:666  hasAdded[msg.sender] */\n      0xffffffffffffffffffffffffffffffffffffffff\n      and\n      0xffffffffffffffffffffffffffffffffffffffff\n      and\n      dup2\n      mstore\n      0x20\n      add\n      swap1\n      dup2\n      mstore\n      0x20\n      add\n      0x00\n      keccak256\n      0x00\n      swap1\n      sload\n      swap1\n      0x0100\n      exp\n      swap1\n      div\n      0xff\n      and\n        /* \"modulo2/muro.sol\":645:666  !hasAdded[msg.sender] */\n      iszero\n        /* \"modulo2/muro.sol\":637:693  require(!hasAdded[msg.sender], \"Ya agregaste tu nombre\") */\n      tag_34\n      jumpi\n      mload(0x40)\n      0x08c379a000000000000000000000000000000000000000000000000000000000\n      dup2\n      mstore\n      0x04\n      add\n      tag_35\n      swap1\n      tag_36\n      jump\t// in\n    tag_35:\n      mload(0x40)\n      dup1\n      swap2\n      sub\n      swap1\n      revert\n    tag_34:\n        /* \"modulo2/muro.sol\":703:708  names */\n      0x00\n        /* \"modulo2/muro.sol\":714:718  name */\n      dup2\n        /* \"modulo2/muro.sol\":703:719  names.push(name) */\n      swap1\n      dup1\n      0x01\n      dup2\n      sload\n      add\n      dup1\n      dup3\n      sstore\n      dup1\n      swap2\n      pop\n      pop\n      0x01\n      swap1\n      sub\n      swap1\n      0x00\n      mstore\n      keccak256(0x00, 0x20)\n      add\n      0x00\n      swap1\n      swap2\n      swap1\n      swap2\n      swap1\n      swap2\n      pop\n      swap1\n      dup2\n      tag_38\n      swap2\n      swap1\n      tag_39\n      jump\t// in\n    tag_38:\n      pop\n        /* \"modulo2/muro.sol\":752:756  true */\n      0x01\n        /* \"modulo2/muro.sol\":729:737  hasAdded */\n      dup1\n        /* \"modulo2/muro.sol\":729:749  hasAdded[msg.sender] */\n      0x00\n        /* \"modulo2/muro.sol\":738:748  msg.sender */\n      caller\n        /* \"modulo2/muro.sol\":729:749  hasAdded[msg.sender] */\n      0xffffffffffffffffffffffffffffffffffffffff\n      and\n      0xffffffffffffffffffffffffffffffffffffffff\n      and\n      dup2\n      mstore\n      0x20\n      add\n      swap1\n      dup2\n      mstore\n      0x20\n      add\n      0x00\n      keccak256\n      0x00\n        /* \"modulo2/muro.sol\":729:756  hasAdded[msg.sender] = true */\n      0x0100\n      exp\n      dup2\n      sload\n      dup2\n      0xff\n      mul\n      not\n      and\n      swap1\n      dup4\n      iszero\n      iszero\n      mul\n      or\n      swap1\n      sstore\n      pop\n        /* \"modulo2/muro.sol\":781:791  msg.sender */\n      caller\n        /* \"modulo2/muro.sol\":771:798  NameAdded(msg.sender, name) */\n      0xffffffffffffffffffffffffffffffffffffffff\n      and\n      0x31f8d01138a1ab23e3f48cd17611b8e263b29e2c77855e1f3171da6cc7a71ce7\n        /* \"modulo2/muro.sol\":793:797  name */\n      dup3\n        /* \"modulo2/muro.sol\":771:798  NameAdded(msg.sender, name) */\n      mload(0x40)\n      tag_40\n      swap2\n      swap1\n      tag_21\n      jump\t// in\n    tag_40:\n      mload(0x40)\n      dup1\n      swap2\n      sub\n      swap1\n      log2\n        /* \"modulo2/muro.sol\":583:805  function addName(string memory name) public {... */\n      pop\n      jump\t// out\n        /* \"modulo2/muro.sol\":228:249  string[] public names */\n    tag_19:\n      0x00\n      dup2\n      dup2\n      sload\n      dup2\n      lt\n      tag_41\n      jumpi\n      0x00\n      dup1\n      revert\n    tag_41:\n      swap1\n      0x00\n      mstore\n      keccak256(0x00, 0x20)\n      add\n      0x00\n      swap2\n      pop\n      swap1\n      pop\n      dup1\n      sload\n      tag_43\n      swap1\n      tag_44\n      jump\t// in\n    tag_43:\n      dup1\n      0x1f\n      add\n      0x20\n      dup1\n      swap2\n      div\n      mul\n      0x20\n      add\n      mload(0x40)\n      swap1\n      dup2\n      add\n      0x40\n      mstore\n      dup1\n      swap3\n      swap2\n      swap1\n      dup2\n      dup2\n      mstore\n      0x20\n      add\n      dup3\n      dup1\n      sload\n      tag_45\n      swap1\n      tag_44\n      jump\t// in\n    tag_45:\n      dup1\n      iszero\n      tag_46\n      jumpi\n      dup1\n      0x1f\n      lt\n      tag_47\n      jumpi\n      0x0100\n      dup1\n      dup4\n      sload\n      div\n      mul\n      dup4\n      mstore\n      swap2\n      0x20\n      add\n      swap2\n      jump(tag_46)\n    tag_47:\n      dup3\n      add\n      swap2\n      swap1\n      0x00\n      mstore\n      keccak256(0x00, 0x20)\n      swap1\n    tag_48:\n      dup2\n      sload\n      dup2\n      mstore\n      swap1\n      0x01\n      add\n      swap1\n      0x20\n      add\n      dup1\n      dup4\n      gt\n      tag_48\n      jumpi\n      dup3\n      swap1\n      sub\n      0x1f\n      and\n      dup3\n      add\n      swap2\n    tag_46:\n      pop\n      pop\n      pop\n      pop\n      pop\n      dup2\n      jump\t// out\n        /* \"modulo2/muro.sol\":916:1003  function getNames() public view returns (string[] memory) {... */\n    tag_23:\n        /* \"modulo2/muro.sol\":957:972  string[] memory */\n      0x60\n        /* \"modulo2/muro.sol\":991:996  names */\n      0x00\n        /* \"modulo2/muro.sol\":984:996  return names */\n      dup1\n      sload\n      dup1\n      0x20\n      mul\n      0x20\n      add\n      mload(0x40)\n      swap1\n      dup2\n      add\n      0x40\n      mstore\n      dup1\n      swap3\n      swap2\n      swap1\n      dup2\n      dup2\n      mstore\n      0x20\n      add\n      0x00\n      swap1\n    tag_50:\n      dup3\n      dup3\n      lt\n      iszero\n      tag_51\n      jumpi\n      dup4\n      dup3\n      swap1\n      0x00\n      mstore\n      keccak256(0x00, 0x20)\n      add\n      dup1\n      sload\n      tag_53\n      swap1\n      tag_44\n      jump\t// in\n    tag_53:\n      dup1\n      0x1f\n      add\n      0x20\n      dup1\n      swap2\n      div\n      mul\n      0x20\n      add\n      mload(0x40)\n      swap1\n      dup2\n      add\n      0x40\n      mstore\n      dup1\n      swap3\n      swap2\n      swap1\n      dup2\n      dup2\n      mstore\n      0x20\n      add\n      dup3\n      dup1\n      sload\n      tag_54\n      swap1\n      tag_44\n      jump\t// in\n    tag_54:\n      dup1\n      iszero\n      tag_55\n      jumpi\n      dup1\n      0x1f\n      lt\n      tag_56\n      jumpi\n      0x0100\n      dup1\n      dup4\n      sload\n      div\n      mul\n      dup4\n      mstore\n      swap2\n      0x20\n      add\n      swap2\n      jump(tag_55)\n    tag_56:\n      dup3\n      add\n      swap2\n      swap1\n      0x00\n      mstore\n      keccak256(0x00, 0x20)\n      swap1\n    tag_57:\n      dup2\n      sload\n      dup2\n      mstore\n      swap1\n      0x01\n      add\n      swap1\n      0x20\n      add\n      dup1\n      dup4\n      gt\n      tag_57\n      jumpi\n      dup3\n      swap1\n      sub\n      0x1f\n      and\n      dup3\n      add\n      swap2\n    tag_55:\n      pop\n      pop\n      pop\n      pop\n      pop\n      dup2\n      mstore\n      0x20\n      add\n      swap1\n      0x01\n      add\n      swap1\n      jump(tag_50)\n    tag_51:\n      pop\n      pop\n      pop\n      pop\n      swap1\n      pop\n        /* \"modulo2/muro.sol\":916:1003  function getNames() public view returns (string[] memory) {... */\n      swap1\n      jump\t// out\n        /* \"modulo2/muro.sol\":319:359  mapping(address => bool) public hasAdded */\n    tag_29:\n      mstore(0x20, 0x01)\n      dup1\n      0x00\n      mstore\n      keccak256(0x00, 0x40)\n      0x00\n      swap2\n      pop\n      sload\n      swap1\n      0x0100\n      exp\n      swap1\n      div\n      0xff\n      and\n      dup2\n      jump\t// out\n        /* \"#utility.yul\":7:84   */\n    tag_58:\n        /* \"#utility.yul\":44:51   */\n      0x00\n        /* \"#utility.yul\":73:78   */\n      dup2\n        /* \"#utility.yul\":62:78   */\n      swap1\n      pop\n        /* \"#utility.yul\":7:84   */\n      swap2\n      swap1\n      pop\n      jump\t// out\n        /* \"#utility.yul\":90:208   */\n    tag_59:\n        /* \"#utility.yul\":177:201   */\n      tag_114\n        /* \"#utility.yul\":195:200   */\n      dup2\n        /* \"#utility.yul\":177:201   */\n      tag_58\n      jump\t// in\n    tag_114:\n        /* \"#utility.yul\":172:175   */\n      dup3\n        /* \"#utility.yul\":165:202   */\n      mstore\n        /* \"#utility.yul\":90:208   */\n      pop\n      pop\n      jump\t// out\n        /* \"#utility.yul\":214:436   */\n    tag_11:\n        /* \"#utility.yul\":307:311   */\n      0x00\n        /* \"#utility.yul\":345:347   */\n      0x20\n        /* \"#utility.yul\":334:343   */\n      dup3\n        /* \"#utility.yul\":330:348   */\n      add\n        /* \"#utility.yul\":322:348   */\n      swap1\n      pop\n        /* \"#utility.yul\":358:429   */\n      tag_116\n        /* \"#utility.yul\":426:427   */\n      0x00\n        /* \"#utility.yul\":415:424   */\n      dup4\n        /* \"#utility.yul\":411:428   */\n      add\n        /* \"#utility.yul\":402:408   */\n      dup5\n        /* \"#utility.yul\":358:429   */\n      tag_59\n      jump\t// in\n    tag_116:\n        /* \"#utility.yul\":214:436   */\n      swap3\n      swap2\n      pop\n      pop\n      jump\t// out\n        /* \"#utility.yul\":442:517   */\n    tag_60:\n        /* \"#utility.yul\":475:481   */\n      0x00\n        /* \"#utility.yul\":508:510   */\n      0x40\n        /* \"#utility.yul\":502:511   */\n      mload\n        /* \"#utility.yul\":492:511   */\n      swap1\n      pop\n        /* \"#utility.yul\":442:517   */\n      swap1\n      jump\t// out\n        /* \"#utility.yul\":523:640   */\n    tag_61:\n        /* \"#utility.yul\":632:633   */\n      0x00\n        /* \"#utility.yul\":629:630   */\n      0x00\n        /* \"#utility.yul\":622:634   */\n      revert\n        /* \"#utility.yul\":646:763   */\n    tag_62:\n        /* \"#utility.yul\":755:756   */\n      0x00\n        /* \"#utility.yul\":752:753   */\n      0x00\n        /* \"#utility.yul\":745:757   */\n      revert\n        /* \"#utility.yul\":769:886   */\n    tag_63:\n        /* \"#utility.yul\":878:879   */\n      0x00\n        /* \"#utility.yul\":875:876   */\n      0x00\n        /* \"#utility.yul\":868:880   */\n      revert\n        /* \"#utility.yul\":892:1009   */\n    tag_64:\n        /* \"#utility.yul\":1001:1002   */\n      0x00\n        /* \"#utility.yul\":998:999   */\n      0x00\n        /* \"#utility.yul\":991:1003   */\n      revert\n        /* \"#utility.yul\":1015:1117   */\n    tag_65:\n        /* \"#utility.yul\":1056:1062   */\n      0x00\n        /* \"#utility.yul\":1107:1109   */\n      0x1f\n        /* \"#utility.yul\":1103:1110   */\n      not\n        /* \"#utility.yul\":1098:1100   */\n      0x1f\n        /* \"#utility.yul\":1091:1096   */\n      dup4\n        /* \"#utility.yul\":1087:1101   */\n      add\n        /* \"#utility.yul\":1083:1111   */\n      and\n        /* \"#utility.yul\":1073:1111   */\n      swap1\n      pop\n        /* \"#utility.yul\":1015:1117   */\n      swap2\n      swap1\n      pop\n      jump\t// out\n        /* \"#utility.yul\":1123:1303   */\n    tag_66:\n        /* \"#utility.yul\":1171:1248   */\n      0x4e487b7100000000000000000000000000000000000000000000000000000000\n        /* \"#utility.yul\":1168:1169   */\n      0x00\n        /* \"#utility.yul\":1161:1249   */\n      mstore\n        /* \"#utility.yul\":1268:1272   */\n      0x41\n        /* \"#utility.yul\":1265:1266   */\n      0x04\n        /* \"#utility.yul\":1258:1273   */\n      mstore\n        /* \"#utility.yul\":1292:1296   */\n      0x24\n        /* \"#utility.yul\":1289:1290   */\n      0x00\n        /* \"#utility.yul\":1282:1297   */\n      revert\n        /* \"#utility.yul\":1309:1590   */\n    tag_67:\n        /* \"#utility.yul\":1392:1419   */\n      tag_125\n        /* \"#utility.yul\":1414:1418   */\n      dup3\n        /* \"#utility.yul\":1392:1419   */\n      tag_65\n      jump\t// in\n    tag_125:\n        /* \"#utility.yul\":1384:1390   */\n      dup2\n        /* \"#utility.yul\":1380:1420   */\n      add\n        /* \"#utility.yul\":1522:1528   */\n      dup2\n        /* \"#utility.yul\":1510:1520   */\n      dup2\n        /* \"#utility.yul\":1507:1529   */\n      lt\n        /* \"#utility.yul\":1486:1504   */\n      0xffffffffffffffff\n        /* \"#utility.yul\":1474:1484   */\n      dup3\n        /* \"#utility.yul\":1471:1505   */\n      gt\n        /* \"#utility.yul\":1468:1530   */\n      or\n        /* \"#utility.yul\":1465:1553   */\n      iszero\n      tag_126\n      jumpi\n        /* \"#utility.yul\":1533:1551   */\n      tag_127\n      tag_66\n      jump\t// in\n    tag_127:\n        /* \"#utility.yul\":1465:1553   */\n    tag_126:\n        /* \"#utility.yul\":1573:1583   */\n      dup1\n        /* \"#utility.yul\":1569:1571   */\n      0x40\n        /* \"#utility.yul\":1562:1584   */\n      mstore\n        /* \"#utility.yul\":1352:1590   */\n      pop\n        /* \"#utility.yul\":1309:1590   */\n      pop\n      pop\n      jump\t// out\n        /* \"#utility.yul\":1596:1725   */\n    tag_68:\n        /* \"#utility.yul\":1630:1636   */\n      0x00\n        /* \"#utility.yul\":1657:1677   */\n      tag_129\n      tag_60\n      jump\t// in\n    tag_129:\n        /* \"#utility.yul\":1647:1677   */\n      swap1\n      pop\n        /* \"#utility.yul\":1686:1719   */\n      tag_130\n        /* \"#utility.yul\":1714:1718   */\n      dup3\n        /* \"#utility.yul\":1706:1712   */\n      dup3\n        /* \"#utility.yul\":1686:1719   */\n      tag_67\n      jump\t// in\n    tag_130:\n        /* \"#utility.yul\":1596:1725   */\n      swap2\n      swap1\n      pop\n      jump\t// out\n        /* \"#utility.yul\":1731:2039   */\n    tag_69:\n        /* \"#utility.yul\":1793:1797   */\n      0x00\n        /* \"#utility.yul\":1883:1901   */\n      0xffffffffffffffff\n        /* \"#utility.yul\":1875:1881   */\n      dup3\n        /* \"#utility.yul\":1872:1902   */\n      gt\n        /* \"#utility.yul\":1869:1925   */\n      iszero\n      tag_132\n      jumpi\n        /* \"#utility.yul\":1905:1923   */\n      tag_133\n      tag_66\n      jump\t// in\n    tag_133:\n        /* \"#utility.yul\":1869:1925   */\n    tag_132:\n        /* \"#utility.yul\":1943:1972   */\n      tag_134\n        /* \"#utility.yul\":1965:1971   */\n      dup3\n        /* \"#utility.yul\":1943:1972   */\n      tag_65\n      jump\t// in\n    tag_134:\n        /* \"#utility.yul\":1935:1972   */\n      swap1\n      pop\n        /* \"#utility.yul\":2027:2031   */\n      0x20\n        /* \"#utility.yul\":2021:2025   */\n      dup2\n        /* \"#utility.yul\":2017:2032   */\n      add\n        /* \"#utility.yul\":2009:2032   */\n      swap1\n      pop\n        /* \"#utility.yul\":1731:2039   */\n      swap2\n      swap1\n      pop\n      jump\t// out\n        /* \"#utility.yul\":2045:2193   */\n    tag_70:\n        /* \"#utility.yul\":2143:2149   */\n      dup3\n        /* \"#utility.yul\":2138:2141   */\n      dup2\n        /* \"#utility.yul\":2133:2136   */\n      dup4\n        /* \"#utility.yul\":2120:2150   */\n      calldatacopy\n        /* \"#utility.yul\":2184:2185   */\n      0x00\n        /* \"#utility.yul\":2175:2181   */\n      dup4\n        /* \"#utility.yul\":2170:2173   */\n      dup4\n        /* \"#utility.yul\":2166:2182   */\n      add\n        /* \"#utility.yul\":2159:2186   */\n      mstore\n        /* \"#utility.yul\":2045:2193   */\n      pop\n      pop\n      pop\n      jump\t// out\n        /* \"#utility.yul\":2199:2624   */\n    tag_71:\n        /* \"#utility.yul\":2277:2282   */\n      0x00\n        /* \"#utility.yul\":2302:2368   */\n      tag_137\n        /* \"#utility.yul\":2318:2367   */\n      tag_138\n        /* \"#utility.yul\":2360:2366   */\n      dup5\n        /* \"#utility.yul\":2318:2367   */\n      tag_69\n      jump\t// in\n    tag_138:\n        /* \"#utility.yul\":2302:2368   */\n      tag_68\n      jump\t// in\n    tag_137:\n        /* \"#utility.yul\":2293:2368   */\n      swap1\n      pop\n        /* \"#utility.yul\":2391:2397   */\n      dup3\n        /* \"#utility.yul\":2384:2389   */\n      dup2\n        /* \"#utility.yul\":2377:2398   */\n      mstore\n        /* \"#utility.yul\":2429:2433   */\n      0x20\n        /* \"#utility.yul\":2422:2427   */\n      dup2\n        /* \"#utility.yul\":2418:2434   */\n      add\n        /* \"#utility.yul\":2467:2470   */\n      dup5\n        /* \"#utility.yul\":2458:2464   */\n      dup5\n        /* \"#utility.yul\":2453:2456   */\n      dup5\n        /* \"#utility.yul\":2449:2465   */\n      add\n        /* \"#utility.yul\":2446:2471   */\n      gt\n        /* \"#utility.yul\":2443:2555   */\n      iszero\n      tag_139\n      jumpi\n        /* \"#utility.yul\":2474:2553   */\n      tag_140\n      tag_64\n      jump\t// in\n    tag_140:\n        /* \"#utility.yul\":2443:2555   */\n    tag_139:\n        /* \"#utility.yul\":2564:2618   */\n      tag_141\n        /* \"#utility.yul\":2611:2617   */\n      dup5\n        /* \"#utility.yul\":2606:2609   */\n      dup3\n        /* \"#utility.yul\":2601:2604   */\n      dup6\n        /* \"#utility.yul\":2564:2618   */\n      tag_70\n      jump\t// in\n    tag_141:\n        /* \"#utility.yul\":2283:2624   */\n      pop\n        /* \"#utility.yul\":2199:2624   */\n      swap4\n      swap3\n      pop\n      pop\n      pop\n      jump\t// out\n        /* \"#utility.yul\":2644:2984   */\n    tag_72:\n        /* \"#utility.yul\":2700:2705   */\n      0x00\n        /* \"#utility.yul\":2749:2752   */\n      dup3\n        /* \"#utility.yul\":2742:2746   */\n      0x1f\n        /* \"#utility.yul\":2734:2740   */\n      dup4\n        /* \"#utility.yul\":2730:2747   */\n      add\n        /* \"#utility.yul\":2726:2753   */\n      slt\n        /* \"#utility.yul\":2716:2838   */\n      tag_143\n      jumpi\n        /* \"#utility.yul\":2757:2836   */\n      tag_144\n      tag_63\n      jump\t// in\n    tag_144:\n        /* \"#utility.yul\":2716:2838   */\n    tag_143:\n        /* \"#utility.yul\":2874:2880   */\n      dup2\n        /* \"#utility.yul\":2861:2881   */\n      calldataload\n        /* \"#utility.yul\":2899:2978   */\n      tag_145\n        /* \"#utility.yul\":2974:2977   */\n      dup5\n        /* \"#utility.yul\":2966:2972   */\n      dup3\n        /* \"#utility.yul\":2959:2963   */\n      0x20\n        /* \"#utility.yul\":2951:2957   */\n      dup7\n        /* \"#utility.yul\":2947:2964   */\n      add\n        /* \"#utility.yul\":2899:2978   */\n      tag_71\n      jump\t// in\n    tag_145:\n        /* \"#utility.yul\":2890:2978   */\n      swap2\n      pop\n        /* \"#utility.yul\":2706:2984   */\n      pop\n        /* \"#utility.yul\":2644:2984   */\n      swap3\n      swap2\n      pop\n      pop\n      jump\t// out\n        /* \"#utility.yul\":2990:3499   */\n    tag_14:\n        /* \"#utility.yul\":3059:3065   */\n      0x00\n        /* \"#utility.yul\":3108:3110   */\n      0x20\n        /* \"#utility.yul\":3096:3105   */\n      dup3\n        /* \"#utility.yul\":3087:3094   */\n      dup5\n        /* \"#utility.yul\":3083:3106   */\n      sub\n        /* \"#utility.yul\":3079:3111   */\n      slt\n        /* \"#utility.yul\":3076:3195   */\n      iszero\n      tag_147\n      jumpi\n        /* \"#utility.yul\":3114:3193   */\n      tag_148\n      tag_61\n      jump\t// in\n    tag_148:\n        /* \"#utility.yul\":3076:3195   */\n    tag_147:\n        /* \"#utility.yul\":3262:3263   */\n      0x00\n        /* \"#utility.yul\":3251:3260   */\n      dup3\n        /* \"#utility.yul\":3247:3264   */\n      add\n        /* \"#utility.yul\":3234:3265   */\n      calldataload\n        /* \"#utility.yul\":3292:3310   */\n      0xffffffffffffffff\n        /* \"#utility.yul\":3284:3290   */\n      dup2\n        /* \"#utility.yul\":3281:3311   */\n      gt\n        /* \"#utility.yul\":3278:3395   */\n      iszero\n      tag_149\n      jumpi\n        /* \"#utility.yul\":3314:3393   */\n      tag_150\n      tag_62\n      jump\t// in\n    tag_150:\n        /* \"#utility.yul\":3278:3395   */\n    tag_149:\n        /* \"#utility.yul\":3419:3482   */\n      tag_151\n        /* \"#utility.yul\":3474:3481   */\n      dup5\n        /* \"#utility.yul\":3465:3471   */\n      dup3\n        /* \"#utility.yul\":3454:3463   */\n      dup6\n        /* \"#utility.yul\":3450:3472   */\n      add\n        /* \"#utility.yul\":3419:3482   */\n      tag_72\n      jump\t// in\n    tag_151:\n        /* \"#utility.yul\":3409:3482   */\n      swap2\n      pop\n        /* \"#utility.yul\":3205:3492   */\n      pop\n        /* \"#utility.yul\":2990:3499   */\n      swap3\n      swap2\n      pop\n      pop\n      jump\t// out\n        /* \"#utility.yul\":3505:3627   */\n    tag_73:\n        /* \"#utility.yul\":3578:3602   */\n      tag_153\n        /* \"#utility.yul\":3596:3601   */\n      dup2\n        /* \"#utility.yul\":3578:3602   */\n      tag_58\n      jump\t// in\n    tag_153:\n        /* \"#utility.yul\":3571:3576   */\n      dup2\n        /* \"#utility.yul\":3568:3603   */\n      eq\n        /* \"#utility.yul\":3558:3621   */\n      tag_154\n      jumpi\n        /* \"#utility.yul\":3617:3618   */\n      0x00\n        /* \"#utility.yul\":3614:3615   */\n      0x00\n        /* \"#utility.yul\":3607:3619   */\n      revert\n        /* \"#utility.yul\":3558:3621   */\n    tag_154:\n        /* \"#utility.yul\":3505:3627   */\n      pop\n      jump\t// out\n        /* \"#utility.yul\":3633:3772   */\n    tag_74:\n        /* \"#utility.yul\":3679:3684   */\n      0x00\n        /* \"#utility.yul\":3717:3723   */\n      dup2\n        /* \"#utility.yul\":3704:3724   */\n      calldataload\n        /* \"#utility.yul\":3695:3724   */\n      swap1\n      pop\n        /* \"#utility.yul\":3733:3766   */\n      tag_156\n        /* \"#utility.yul\":3760:3765   */\n      dup2\n        /* \"#utility.yul\":3733:3766   */\n      tag_73\n      jump\t// in\n    tag_156:\n        /* \"#utility.yul\":3633:3772   */\n      swap3\n      swap2\n      pop\n      pop\n      jump\t// out\n        /* \"#utility.yul\":3778:4107   */\n    tag_18:\n        /* \"#utility.yul\":3837:3843   */\n      0x00\n        /* \"#utility.yul\":3886:3888   */\n      0x20\n        /* \"#utility.yul\":3874:3883   */\n      dup3\n        /* \"#utility.yul\":3865:3872   */\n      dup5\n        /* \"#utility.yul\":3861:3884   */\n      sub\n        /* \"#utility.yul\":3857:3889   */\n      slt\n        /* \"#utility.yul\":3854:3973   */\n      iszero\n      tag_158\n      jumpi\n        /* \"#utility.yul\":3892:3971   */\n      tag_159\n      tag_61\n      jump\t// in\n    tag_159:\n        /* \"#utility.yul\":3854:3973   */\n    tag_158:\n        /* \"#utility.yul\":4012:4013   */\n      0x00\n        /* \"#utility.yul\":4037:4090   */\n      tag_160\n        /* \"#utility.yul\":4082:4089   */\n      dup5\n        /* \"#utility.yul\":4073:4079   */\n      dup3\n        /* \"#utility.yul\":4062:4071   */\n      dup6\n        /* \"#utility.yul\":4058:4080   */\n      add\n        /* \"#utility.yul\":4037:4090   */\n      tag_74\n      jump\t// in\n    tag_160:\n        /* \"#utility.yul\":4027:4090   */\n      swap2\n      pop\n        /* \"#utility.yul\":3983:4100   */\n      pop\n        /* \"#utility.yul\":3778:4107   */\n      swap3\n      swap2\n      pop\n      pop\n      jump\t// out\n        /* \"#utility.yul\":4113:4212   */\n    tag_75:\n        /* \"#utility.yul\":4165:4171   */\n      0x00\n        /* \"#utility.yul\":4199:4204   */\n      dup2\n        /* \"#utility.yul\":4193:4205   */\n      mload\n        /* \"#utility.yul\":4183:4205   */\n      swap1\n      pop\n        /* \"#utility.yul\":4113:4212   */\n      swap2\n      swap1\n      pop\n      jump\t// out\n        /* \"#utility.yul\":4218:4387   */\n    tag_76:\n        /* \"#utility.yul\":4302:4313   */\n      0x00\n        /* \"#utility.yul\":4336:4342   */\n      dup3\n        /* \"#utility.yul\":4331:4334   */\n      dup3\n        /* \"#utility.yul\":4324:4343   */\n      mstore\n        /* \"#utility.yul\":4376:4380   */\n      0x20\n        /* \"#utility.yul\":4371:4374   */\n      dup3\n        /* \"#utility.yul\":4367:4381   */\n      add\n        /* \"#utility.yul\":4352:4381   */\n      swap1\n      pop\n        /* \"#utility.yul\":4218:4387   */\n      swap3\n      swap2\n      pop\n      pop\n      jump\t// out\n        /* \"#utility.yul\":4393:4532   */\n    tag_77:\n        /* \"#utility.yul\":4482:4488   */\n      dup3\n        /* \"#utility.yul\":4477:4480   */\n      dup2\n        /* \"#utility.yul\":4472:4475   */\n      dup4\n        /* \"#utility.yul\":4466:4489   */\n      mcopy\n        /* \"#utility.yul\":4523:4524   */\n      0x00\n        /* \"#utility.yul\":4514:4520   */\n      dup4\n        /* \"#utility.yul\":4509:4512   */\n      dup4\n        /* \"#utility.yul\":4505:4521   */\n      add\n        /* \"#utility.yul\":4498:4525   */\n      mstore\n        /* \"#utility.yul\":4393:4532   */\n      pop\n      pop\n      pop\n      jump\t// out\n        /* \"#utility.yul\":4538:4915   */\n    tag_78:\n        /* \"#utility.yul\":4626:4629   */\n      0x00\n        /* \"#utility.yul\":4654:4693   */\n      tag_165\n        /* \"#utility.yul\":4687:4692   */\n      dup3\n        /* \"#utility.yul\":4654:4693   */\n      tag_75\n      jump\t// in\n    tag_165:\n        /* \"#utility.yul\":4709:4780   */\n      tag_166\n        /* \"#utility.yul\":4773:4779   */\n      dup2\n        /* \"#utility.yul\":4768:4771   */\n      dup6\n        /* \"#utility.yul\":4709:4780   */\n      tag_76\n      jump\t// in\n    tag_166:\n        /* \"#utility.yul\":4702:4780   */\n      swap4\n      pop\n        /* \"#utility.yul\":4789:4854   */\n      tag_167\n        /* \"#utility.yul\":4847:4853   */\n      dup2\n        /* \"#utility.yul\":4842:4845   */\n      dup6\n        /* \"#utility.yul\":4835:4839   */\n      0x20\n        /* \"#utility.yul\":4828:4833   */\n      dup7\n        /* \"#utility.yul\":4824:4840   */\n      add\n        /* \"#utility.yul\":4789:4854   */\n      tag_77\n      jump\t// in\n    tag_167:\n        /* \"#utility.yul\":4879:4908   */\n      tag_168\n        /* \"#utility.yul\":4901:4907   */\n      dup2\n        /* \"#utility.yul\":4879:4908   */\n      tag_65\n      jump\t// in\n    tag_168:\n        /* \"#utility.yul\":4874:4877   */\n      dup5\n        /* \"#utility.yul\":4870:4909   */\n      add\n        /* \"#utility.yul\":4863:4909   */\n      swap2\n      pop\n        /* \"#utility.yul\":4630:4915   */\n      pop\n        /* \"#utility.yul\":4538:4915   */\n      swap3\n      swap2\n      pop\n      pop\n      jump\t// out\n        /* \"#utility.yul\":4921:5234   */\n    tag_21:\n        /* \"#utility.yul\":5034:5038   */\n      0x00\n        /* \"#utility.yul\":5072:5074   */\n      0x20\n        /* \"#utility.yul\":5061:5070   */\n      dup3\n        /* \"#utility.yul\":5057:5075   */\n      add\n        /* \"#utility.yul\":5049:5075   */\n      swap1\n      pop\n        /* \"#utility.yul\":5121:5130   */\n      dup2\n        /* \"#utility.yul\":5115:5119   */\n      dup2\n        /* \"#utility.yul\":5111:5131   */\n      sub\n        /* \"#utility.yul\":5107:5108   */\n      0x00\n        /* \"#utility.yul\":5096:5105   */\n      dup4\n        /* \"#utility.yul\":5092:5109   */\n      add\n        /* \"#utility.yul\":5085:5132   */\n      mstore\n        /* \"#utility.yul\":5149:5227   */\n      tag_170\n        /* \"#utility.yul\":5222:5226   */\n      dup2\n        /* \"#utility.yul\":5213:5219   */\n      dup5\n        /* \"#utility.yul\":5149:5227   */\n      tag_78\n      jump\t// in\n    tag_170:\n        /* \"#utility.yul\":5141:5227   */\n      swap1\n      pop\n        /* \"#utility.yul\":4921:5234   */\n      swap3\n      swap2\n      pop\n      pop\n      jump\t// out\n        /* \"#utility.yul\":5240:5364   */\n    tag_79:\n        /* \"#utility.yul\":5317:5323   */\n      0x00\n        /* \"#utility.yul\":5351:5356   */\n      dup2\n        /* \"#utility.yul\":5345:5357   */\n      mload\n        /* \"#utility.yul\":5335:5357   */\n      swap1\n      pop\n        /* \"#utility.yul\":5240:5364   */\n      swap2\n      swap1\n      pop\n      jump\t// out\n        /* \"#utility.yul\":5370:5564   */\n    tag_80:\n        /* \"#utility.yul\":5479:5490   */\n      0x00\n        /* \"#utility.yul\":5513:5519   */\n      dup3\n        /* \"#utility.yul\":5508:5511   */\n      dup3\n        /* \"#utility.yul\":5501:5520   */\n      mstore\n        /* \"#utility.yul\":5553:5557   */\n      0x20\n        /* \"#utility.yul\":5548:5551   */\n      dup3\n        /* \"#utility.yul\":5544:5558   */\n      add\n        /* \"#utility.yul\":5529:5558   */\n      swap1\n      pop\n        /* \"#utility.yul\":5370:5564   */\n      swap3\n      swap2\n      pop\n      pop\n      jump\t// out\n        /* \"#utility.yul\":5570:5712   */\n    tag_81:\n        /* \"#utility.yul\":5647:5651   */\n      0x00\n        /* \"#utility.yul\":5670:5673   */\n      dup2\n        /* \"#utility.yul\":5662:5673   */\n      swap1\n      pop\n        /* \"#utility.yul\":5700:5704   */\n      0x20\n        /* \"#utility.yul\":5695:5698   */\n      dup3\n        /* \"#utility.yul\":5691:5705   */\n      add\n        /* \"#utility.yul\":5683:5705   */\n      swap1\n      pop\n        /* \"#utility.yul\":5570:5712   */\n      swap2\n      swap1\n      pop\n      jump\t// out\n        /* \"#utility.yul\":5718:5877   */\n    tag_82:\n        /* \"#utility.yul\":5792:5803   */\n      0x00\n        /* \"#utility.yul\":5826:5832   */\n      dup3\n        /* \"#utility.yul\":5821:5824   */\n      dup3\n        /* \"#utility.yul\":5814:5833   */\n      mstore\n        /* \"#utility.yul\":5866:5870   */\n      0x20\n        /* \"#utility.yul\":5861:5864   */\n      dup3\n        /* \"#utility.yul\":5857:5871   */\n      add\n        /* \"#utility.yul\":5842:5871   */\n      swap1\n      pop\n        /* \"#utility.yul\":5718:5877   */\n      swap3\n      swap2\n      pop\n      pop\n      jump\t// out\n        /* \"#utility.yul\":5883:6240   */\n    tag_83:\n        /* \"#utility.yul\":5961:5964   */\n      0x00\n        /* \"#utility.yul\":5989:6028   */\n      tag_176\n        /* \"#utility.yul\":6022:6027   */\n      dup3\n        /* \"#utility.yul\":5989:6028   */\n      tag_75\n      jump\t// in\n    tag_176:\n        /* \"#utility.yul\":6044:6105   */\n      tag_177\n        /* \"#utility.yul\":6098:6104   */\n      dup2\n        /* \"#utility.yul\":6093:6096   */\n      dup6\n        /* \"#utility.yul\":6044:6105   */\n      tag_82\n      jump\t// in\n    tag_177:\n        /* \"#utility.yul\":6037:6105   */\n      swap4\n      pop\n        /* \"#utility.yul\":6114:6179   */\n      tag_178\n        /* \"#utility.yul\":6172:6178   */\n      dup2\n        /* \"#utility.yul\":6167:6170   */\n      dup6\n        /* \"#utility.yul\":6160:6164   */\n      0x20\n        /* \"#utility.yul\":6153:6158   */\n      dup7\n        /* \"#utility.yul\":6149:6165   */\n      add\n        /* \"#utility.yul\":6114:6179   */\n      tag_77\n      jump\t// in\n    tag_178:\n        /* \"#utility.yul\":6204:6233   */\n      tag_179\n        /* \"#utility.yul\":6226:6232   */\n      dup2\n        /* \"#utility.yul\":6204:6233   */\n      tag_65\n      jump\t// in\n    tag_179:\n        /* \"#utility.yul\":6199:6202   */\n      dup5\n        /* \"#utility.yul\":6195:6234   */\n      add\n        /* \"#utility.yul\":6188:6234   */\n      swap2\n      pop\n        /* \"#utility.yul\":5965:6240   */\n      pop\n        /* \"#utility.yul\":5883:6240   */\n      swap3\n      swap2\n      pop\n      pop\n      jump\t// out\n        /* \"#utility.yul\":6246:6442   */\n    tag_84:\n        /* \"#utility.yul\":6335:6345   */\n      0x00\n        /* \"#utility.yul\":6370:6436   */\n      tag_181\n        /* \"#utility.yul\":6432:6435   */\n      dup4\n        /* \"#utility.yul\":6424:6430   */\n      dup4\n        /* \"#utility.yul\":6370:6436   */\n      tag_83\n      jump\t// in\n    tag_181:\n        /* \"#utility.yul\":6356:6436   */\n      swap1\n      pop\n        /* \"#utility.yul\":6246:6442   */\n      swap3\n      swap2\n      pop\n      pop\n      jump\t// out\n        /* \"#utility.yul\":6448:6571   */\n    tag_85:\n        /* \"#utility.yul\":6528:6532   */\n      0x00\n        /* \"#utility.yul\":6560:6564   */\n      0x20\n        /* \"#utility.yul\":6555:6558   */\n      dup3\n        /* \"#utility.yul\":6551:6565   */\n      add\n        /* \"#utility.yul\":6543:6565   */\n      swap1\n      pop\n        /* \"#utility.yul\":6448:6571   */\n      swap2\n      swap1\n      pop\n      jump\t// out\n        /* \"#utility.yul\":6605:7596   */\n    tag_86:\n        /* \"#utility.yul\":6744:6747   */\n      0x00\n        /* \"#utility.yul\":6773:6837   */\n      tag_184\n        /* \"#utility.yul\":6831:6836   */\n      dup3\n        /* \"#utility.yul\":6773:6837   */\n      tag_79\n      jump\t// in\n    tag_184:\n        /* \"#utility.yul\":6853:6949   */\n      tag_185\n        /* \"#utility.yul\":6942:6948   */\n      dup2\n        /* \"#utility.yul\":6937:6940   */\n      dup6\n        /* \"#utility.yul\":6853:6949   */\n      tag_80\n      jump\t// in\n    tag_185:\n        /* \"#utility.yul\":6846:6949   */\n      swap4\n      pop\n        /* \"#utility.yul\":6975:6978   */\n      dup4\n        /* \"#utility.yul\":7020:7024   */\n      0x20\n        /* \"#utility.yul\":7012:7018   */\n      dup3\n        /* \"#utility.yul\":7008:7025   */\n      mul\n        /* \"#utility.yul\":7003:7006   */\n      dup6\n        /* \"#utility.yul\":6999:7026   */\n      add\n        /* \"#utility.yul\":7050:7116   */\n      tag_186\n        /* \"#utility.yul\":7110:7115   */\n      dup6\n        /* \"#utility.yul\":7050:7116   */\n      tag_81\n      jump\t// in\n    tag_186:\n        /* \"#utility.yul\":7139:7146   */\n      dup1\n        /* \"#utility.yul\":7170:7171   */\n      0x00\n        /* \"#utility.yul\":7155:7551   */\n    tag_187:\n        /* \"#utility.yul\":7180:7186   */\n      dup6\n        /* \"#utility.yul\":7177:7178   */\n      dup2\n        /* \"#utility.yul\":7174:7187   */\n      lt\n        /* \"#utility.yul\":7155:7551   */\n      iszero\n      tag_189\n      jumpi\n        /* \"#utility.yul\":7251:7260   */\n      dup5\n        /* \"#utility.yul\":7245:7249   */\n      dup5\n        /* \"#utility.yul\":7241:7261   */\n      sub\n        /* \"#utility.yul\":7236:7239   */\n      dup10\n        /* \"#utility.yul\":7229:7262   */\n      mstore\n        /* \"#utility.yul\":7302:7308   */\n      dup2\n        /* \"#utility.yul\":7296:7309   */\n      mload\n        /* \"#utility.yul\":7330:7414   */\n      tag_190\n        /* \"#utility.yul\":7409:7413   */\n      dup6\n        /* \"#utility.yul\":7394:7407   */\n      dup3\n        /* \"#utility.yul\":7330:7414   */\n      tag_84\n      jump\t// in\n    tag_190:\n        /* \"#utility.yul\":7322:7414   */\n      swap5\n      pop\n        /* \"#utility.yul\":7437:7507   */\n      tag_191\n        /* \"#utility.yul\":7500:7506   */\n      dup4\n        /* \"#utility.yul\":7437:7507   */\n      tag_85\n      jump\t// in\n    tag_191:\n        /* \"#utility.yul\":7427:7507   */\n      swap3\n      pop\n        /* \"#utility.yul\":7536:7540   */\n      0x20\n        /* \"#utility.yul\":7531:7534   */\n      dup11\n        /* \"#utility.yul\":7527:7541   */\n      add\n        /* \"#utility.yul\":7520:7541   */\n      swap10\n      pop\n        /* \"#utility.yul\":7215:7551   */\n      pop\n        /* \"#utility.yul\":7202:7203   */\n      0x01\n        /* \"#utility.yul\":7199:7200   */\n      dup2\n        /* \"#utility.yul\":7195:7204   */\n      add\n        /* \"#utility.yul\":7190:7204   */\n      swap1\n      pop\n        /* \"#utility.yul\":7155:7551   */\n      jump(tag_187)\n    tag_189:\n        /* \"#utility.yul\":7159:7173   */\n      pop\n        /* \"#utility.yul\":7567:7571   */\n      dup3\n        /* \"#utility.yul\":7560:7571   */\n      swap8\n      pop\n        /* \"#utility.yul\":7587:7590   */\n      dup8\n        /* \"#utility.yul\":7580:7590   */\n      swap6\n      pop\n        /* \"#utility.yul\":6749:7596   */\n      pop\n      pop\n      pop\n      pop\n      pop\n        /* \"#utility.yul\":6605:7596   */\n      swap3\n      swap2\n      pop\n      pop\n      jump\t// out\n        /* \"#utility.yul\":7602:8015   */\n    tag_25:\n        /* \"#utility.yul\":7765:7769   */\n      0x00\n        /* \"#utility.yul\":7803:7805   */\n      0x20\n        /* \"#utility.yul\":7792:7801   */\n      dup3\n        /* \"#utility.yul\":7788:7806   */\n      add\n        /* \"#utility.yul\":7780:7806   */\n      swap1\n      pop\n        /* \"#utility.yul\":7852:7861   */\n      dup2\n        /* \"#utility.yul\":7846:7850   */\n      dup2\n        /* \"#utility.yul\":7842:7862   */\n      sub\n        /* \"#utility.yul\":7838:7839   */\n      0x00\n        /* \"#utility.yul\":7827:7836   */\n      dup4\n        /* \"#utility.yul\":7823:7840   */\n      add\n        /* \"#utility.yul\":7816:7863   */\n      mstore\n        /* \"#utility.yul\":7880:8008   */\n      tag_193\n        /* \"#utility.yul\":8003:8007   */\n      dup2\n        /* \"#utility.yul\":7994:8000   */\n      dup5\n        /* \"#utility.yul\":7880:8008   */\n      tag_86\n      jump\t// in\n    tag_193:\n        /* \"#utility.yul\":7872:8008   */\n      swap1\n      pop\n        /* \"#utility.yul\":7602:8015   */\n      swap3\n      swap2\n      pop\n      pop\n      jump\t// out\n        /* \"#utility.yul\":8021:8147   */\n    tag_87:\n        /* \"#utility.yul\":8058:8065   */\n      0x00\n        /* \"#utility.yul\":8098:8140   */\n      0xffffffffffffffffffffffffffffffffffffffff\n        /* \"#utility.yul\":8091:8096   */\n      dup3\n        /* \"#utility.yul\":8087:8141   */\n      and\n        /* \"#utility.yul\":8076:8141   */\n      swap1\n      pop\n        /* \"#utility.yul\":8021:8147   */\n      swap2\n      swap1\n      pop\n      jump\t// out\n        /* \"#utility.yul\":8153:8249   */\n    tag_88:\n        /* \"#utility.yul\":8190:8197   */\n      0x00\n        /* \"#utility.yul\":8219:8243   */\n      tag_196\n        /* \"#utility.yul\":8237:8242   */\n      dup3\n        /* \"#utility.yul\":8219:8243   */\n      tag_87\n      jump\t// in\n    tag_196:\n        /* \"#utility.yul\":8208:8243   */\n      swap1\n      pop\n        /* \"#utility.yul\":8153:8249   */\n      swap2\n      swap1\n      pop\n      jump\t// out\n        /* \"#utility.yul\":8255:8377   */\n    tag_89:\n        /* \"#utility.yul\":8328:8352   */\n      tag_198\n        /* \"#utility.yul\":8346:8351   */\n      dup2\n        /* \"#utility.yul\":8328:8352   */\n      tag_88\n      jump\t// in\n    tag_198:\n        /* \"#utility.yul\":8321:8326   */\n      dup2\n        /* \"#utility.yul\":8318:8353   */\n      eq\n        /* \"#utility.yul\":8308:8371   */\n      tag_199\n      jumpi\n        /* \"#utility.yul\":8367:8368   */\n      0x00\n        /* \"#utility.yul\":8364:8365   */\n      0x00\n        /* \"#utility.yul\":8357:8369   */\n      revert\n        /* \"#utility.yul\":8308:8371   */\n    tag_199:\n        /* \"#utility.yul\":8255:8377   */\n      pop\n      jump\t// out\n        /* \"#utility.yul\":8383:8522   */\n    tag_90:\n        /* \"#utility.yul\":8429:8434   */\n      0x00\n        /* \"#utility.yul\":8467:8473   */\n      dup2\n        /* \"#utility.yul\":8454:8474   */\n      calldataload\n        /* \"#utility.yul\":8445:8474   */\n      swap1\n      pop\n        /* \"#utility.yul\":8483:8516   */\n      tag_201\n        /* \"#utility.yul\":8510:8515   */\n      dup2\n        /* \"#utility.yul\":8483:8516   */\n      tag_89\n      jump\t// in\n    tag_201:\n        /* \"#utility.yul\":8383:8522   */\n      swap3\n      swap2\n      pop\n      pop\n      jump\t// out\n        /* \"#utility.yul\":8528:8857   */\n    tag_28:\n        /* \"#utility.yul\":8587:8593   */\n      0x00\n        /* \"#utility.yul\":8636:8638   */\n      0x20\n        /* \"#utility.yul\":8624:8633   */\n      dup3\n        /* \"#utility.yul\":8615:8622   */\n      dup5\n        /* \"#utility.yul\":8611:8634   */\n      sub\n        /* \"#utility.yul\":8607:8639   */\n      slt\n        /* \"#utility.yul\":8604:8723   */\n      iszero\n      tag_203\n      jumpi\n        /* \"#utility.yul\":8642:8721   */\n      tag_204\n      tag_61\n      jump\t// in\n    tag_204:\n        /* \"#utility.yul\":8604:8723   */\n    tag_203:\n        /* \"#utility.yul\":8762:8763   */\n      0x00\n        /* \"#utility.yul\":8787:8840   */\n      tag_205\n        /* \"#utility.yul\":8832:8839   */\n      dup5\n        /* \"#utility.yul\":8823:8829   */\n      dup3\n        /* \"#utility.yul\":8812:8821   */\n      dup6\n        /* \"#utility.yul\":8808:8830   */\n      add\n        /* \"#utility.yul\":8787:8840   */\n      tag_90\n      jump\t// in\n    tag_205:\n        /* \"#utility.yul\":8777:8840   */\n      swap2\n      pop\n        /* \"#utility.yul\":8733:8850   */\n      pop\n        /* \"#utility.yul\":8528:8857   */\n      swap3\n      swap2\n      pop\n      pop\n      jump\t// out\n        /* \"#utility.yul\":8863:8953   */\n    tag_91:\n        /* \"#utility.yul\":8897:8904   */\n      0x00\n        /* \"#utility.yul\":8940:8945   */\n      dup2\n        /* \"#utility.yul\":8933:8946   */\n      iszero\n        /* \"#utility.yul\":8926:8947   */\n      iszero\n        /* \"#utility.yul\":8915:8947   */\n      swap1\n      pop\n        /* \"#utility.yul\":8863:8953   */\n      swap2\n      swap1\n      pop\n      jump\t// out\n        /* \"#utility.yul\":8959:9068   */\n    tag_92:\n        /* \"#utility.yul\":9040:9061   */\n      tag_208\n        /* \"#utility.yul\":9055:9060   */\n      dup2\n        /* \"#utility.yul\":9040:9061   */\n      tag_91\n      jump\t// in\n    tag_208:\n        /* \"#utility.yul\":9035:9038   */\n      dup3\n        /* \"#utility.yul\":9028:9062   */\n      mstore\n        /* \"#utility.yul\":8959:9068   */\n      pop\n      pop\n      jump\t// out\n        /* \"#utility.yul\":9074:9284   */\n    tag_31:\n        /* \"#utility.yul\":9161:9165   */\n      0x00\n        /* \"#utility.yul\":9199:9201   */\n      0x20\n        /* \"#utility.yul\":9188:9197   */\n      dup3\n        /* \"#utility.yul\":9184:9202   */\n      add\n        /* \"#utility.yul\":9176:9202   */\n      swap1\n      pop\n        /* \"#utility.yul\":9212:9277   */\n      tag_210\n        /* \"#utility.yul\":9274:9275   */\n      0x00\n        /* \"#utility.yul\":9263:9272   */\n      dup4\n        /* \"#utility.yul\":9259:9276   */\n      add\n        /* \"#utility.yul\":9250:9256   */\n      dup5\n        /* \"#utility.yul\":9212:9277   */\n      tag_92\n      jump\t// in\n    tag_210:\n        /* \"#utility.yul\":9074:9284   */\n      swap3\n      swap2\n      pop\n      pop\n      jump\t// out\n        /* \"#utility.yul\":9290:9462   */\n    tag_93:\n        /* \"#utility.yul\":9430:9454   */\n      0x596120616772656761737465207475206e6f6d62726500000000000000000000\n        /* \"#utility.yul\":9426:9427   */\n      0x00\n        /* \"#utility.yul\":9418:9424   */\n      dup3\n        /* \"#utility.yul\":9414:9428   */\n      add\n        /* \"#utility.yul\":9407:9455   */\n      mstore\n        /* \"#utility.yul\":9290:9462   */\n      pop\n      jump\t// out\n        /* \"#utility.yul\":9468:9834   */\n    tag_94:\n        /* \"#utility.yul\":9610:9613   */\n      0x00\n        /* \"#utility.yul\":9631:9698   */\n      tag_213\n        /* \"#utility.yul\":9695:9697   */\n      0x16\n        /* \"#utility.yul\":9690:9693   */\n      dup4\n        /* \"#utility.yul\":9631:9698   */\n      tag_76\n      jump\t// in\n    tag_213:\n        /* \"#utility.yul\":9624:9698   */\n      swap2\n      pop\n        /* \"#utility.yul\":9707:9800   */\n      tag_214\n        /* \"#utility.yul\":9796:9799   */\n      dup3\n        /* \"#utility.yul\":9707:9800   */\n      tag_93\n      jump\t// in\n    tag_214:\n        /* \"#utility.yul\":9825:9827   */\n      0x20\n        /* \"#utility.yul\":9820:9823   */\n      dup3\n        /* \"#utility.yul\":9816:9828   */\n      add\n        /* \"#utility.yul\":9809:9828   */\n      swap1\n      pop\n        /* \"#utility.yul\":9468:9834   */\n      swap2\n      swap1\n      pop\n      jump\t// out\n        /* \"#utility.yul\":9840:10259   */\n    tag_36:\n        /* \"#utility.yul\":10006:10010   */\n      0x00\n        /* \"#utility.yul\":10044:10046   */\n      0x20\n        /* \"#utility.yul\":10033:10042   */\n      dup3\n        /* \"#utility.yul\":10029:10047   */\n      add\n        /* \"#utility.yul\":10021:10047   */\n      swap1\n      pop\n        /* \"#utility.yul\":10093:10102   */\n      dup2\n        /* \"#utility.yul\":10087:10091   */\n      dup2\n        /* \"#utility.yul\":10083:10103   */\n      sub\n        /* \"#utility.yul\":10079:10080   */\n      0x00\n        /* \"#utility.yul\":10068:10077   */\n      dup4\n        /* \"#utility.yul\":10064:10081   */\n      add\n        /* \"#utility.yul\":10057:10104   */\n      mstore\n        /* \"#utility.yul\":10121:10252   */\n      tag_216\n        /* \"#utility.yul\":10247:10251   */\n      dup2\n        /* \"#utility.yul\":10121:10252   */\n      tag_94\n      jump\t// in\n    tag_216:\n        /* \"#utility.yul\":10113:10252   */\n      swap1\n      pop\n        /* \"#utility.yul\":9840:10259   */\n      swap2\n      swap1\n      pop\n      jump\t// out\n        /* \"#utility.yul\":10265:10445   */\n    tag_95:\n        /* \"#utility.yul\":10313:10390   */\n      0x4e487b7100000000000000000000000000000000000000000000000000000000\n        /* \"#utility.yul\":10310:10311   */\n      0x00\n        /* \"#utility.yul\":10303:10391   */\n      mstore\n        /* \"#utility.yul\":10410:10414   */\n      0x22\n        /* \"#utility.yul\":10407:10408   */\n      0x04\n        /* \"#utility.yul\":10400:10415   */\n      mstore\n        /* \"#utility.yul\":10434:10438   */\n      0x24\n        /* \"#utility.yul\":10431:10432   */\n      0x00\n        /* \"#utility.yul\":10424:10439   */\n      revert\n        /* \"#utility.yul\":10451:10771   */\n    tag_44:\n        /* \"#utility.yul\":10495:10501   */\n      0x00\n        /* \"#utility.yul\":10532:10533   */\n      0x02\n        /* \"#utility.yul\":10526:10530   */\n      dup3\n        /* \"#utility.yul\":10522:10534   */\n      div\n        /* \"#utility.yul\":10512:10534   */\n      swap1\n      pop\n        /* \"#utility.yul\":10579:10580   */\n      0x01\n        /* \"#utility.yul\":10573:10577   */\n      dup3\n        /* \"#utility.yul\":10569:10581   */\n      and\n        /* \"#utility.yul\":10600:10618   */\n      dup1\n        /* \"#utility.yul\":10590:10671   */\n      tag_219\n      jumpi\n        /* \"#utility.yul\":10656:10660   */\n      0x7f\n        /* \"#utility.yul\":10648:10654   */\n      dup3\n        /* \"#utility.yul\":10644:10661   */\n      and\n        /* \"#utility.yul\":10634:10661   */\n      swap2\n      pop\n        /* \"#utility.yul\":10590:10671   */\n    tag_219:\n        /* \"#utility.yul\":10718:10720   */\n      0x20\n        /* \"#utility.yul\":10710:10716   */\n      dup3\n        /* \"#utility.yul\":10707:10721   */\n      lt\n        /* \"#utility.yul\":10687:10705   */\n      dup2\n        /* \"#utility.yul\":10684:10722   */\n      sub\n        /* \"#utility.yul\":10681:10765   */\n      tag_220\n      jumpi\n        /* \"#utility.yul\":10737:10755   */\n      tag_221\n      tag_95\n      jump\t// in\n    tag_221:\n        /* \"#utility.yul\":10681:10765   */\n    tag_220:\n        /* \"#utility.yul\":10502:10771   */\n      pop\n        /* \"#utility.yul\":10451:10771   */\n      swap2\n      swap1\n      pop\n      jump\t// out\n        /* \"#utility.yul\":10777:10918   */\n    tag_96:\n        /* \"#utility.yul\":10826:10830   */\n      0x00\n        /* \"#utility.yul\":10849:10852   */\n      dup2\n        /* \"#utility.yul\":10841:10852   */\n      swap1\n      pop\n        /* \"#utility.yul\":10872:10875   */\n      dup2\n        /* \"#utility.yul\":10869:10870   */\n      0x00\n        /* \"#utility.yul\":10862:10876   */\n      mstore\n        /* \"#utility.yul\":10906:10910   */\n      0x20\n        /* \"#utility.yul\":10903:10904   */\n      0x00\n        /* \"#utility.yul\":10893:10911   */\n      keccak256\n        /* \"#utility.yul\":10885:10911   */\n      swap1\n      pop\n        /* \"#utility.yul\":10777:10918   */\n      swap2\n      swap1\n      pop\n      jump\t// out\n        /* \"#utility.yul\":10924:11017   */\n    tag_97:\n        /* \"#utility.yul\":10961:10967   */\n      0x00\n        /* \"#utility.yul\":11008:11010   */\n      0x20\n        /* \"#utility.yul\":11003:11005   */\n      0x1f\n        /* \"#utility.yul\":10996:11001   */\n      dup4\n        /* \"#utility.yul\":10992:11006   */\n      add\n        /* \"#utility.yul\":10988:11011   */\n      div\n        /* \"#utility.yul\":10978:11011   */\n      swap1\n      pop\n        /* \"#utility.yul\":10924:11017   */\n      swap2\n      swap1\n      pop\n      jump\t// out\n        /* \"#utility.yul\":11023:11130   */\n    tag_98:\n        /* \"#utility.yul\":11067:11075   */\n      0x00\n        /* \"#utility.yul\":11117:11122   */\n      dup3\n        /* \"#utility.yul\":11111:11115   */\n      dup3\n        /* \"#utility.yul\":11107:11123   */\n      shl\n        /* \"#utility.yul\":11086:11123   */\n      swap1\n      pop\n        /* \"#utility.yul\":11023:11130   */\n      swap3\n      swap2\n      pop\n      pop\n      jump\t// out\n        /* \"#utility.yul\":11136:11529   */\n    tag_99:\n        /* \"#utility.yul\":11205:11211   */\n      0x00\n        /* \"#utility.yul\":11255:11256   */\n      0x08\n        /* \"#utility.yul\":11243:11253   */\n      dup4\n        /* \"#utility.yul\":11239:11257   */\n      mul\n        /* \"#utility.yul\":11278:11375   */\n      tag_226\n        /* \"#utility.yul\":11308:11374   */\n      0xffffffffffffffffffffffffffffffffffffffffffffffffffffffffffffffff\n        /* \"#utility.yul\":11297:11306   */\n      dup3\n        /* \"#utility.yul\":11278:11375   */\n      tag_98\n      jump\t// in\n    tag_226:\n        /* \"#utility.yul\":11396:11435   */\n      tag_227\n        /* \"#utility.yul\":11426:11434   */\n      dup7\n        /* \"#utility.yul\":11415:11424   */\n      dup4\n        /* \"#utility.yul\":11396:11435   */\n      tag_98\n      jump\t// in\n    tag_227:\n        /* \"#utility.yul\":11384:11435   */\n      swap6\n      pop\n        /* \"#utility.yul\":11468:11472   */\n      dup1\n        /* \"#utility.yul\":11464:11473   */\n      not\n        /* \"#utility.yul\":11457:11462   */\n      dup5\n        /* \"#utility.yul\":11453:11474   */\n      and\n        /* \"#utility.yul\":11444:11474   */\n      swap4\n      pop\n        /* \"#utility.yul\":11517:11521   */\n      dup1\n        /* \"#utility.yul\":11507:11515   */\n      dup7\n        /* \"#utility.yul\":11503:11522   */\n      and\n        /* \"#utility.yul\":11496:11501   */\n      dup5\n        /* \"#utility.yul\":11493:11523   */\n      or\n        /* \"#utility.yul\":11483:11523   */\n      swap3\n      pop\n        /* \"#utility.yul\":11212:11529   */\n      pop\n      pop\n        /* \"#utility.yul\":11136:11529   */\n      swap4\n      swap3\n      pop\n      pop\n      pop\n      jump\t// out\n        /* \"#utility.yul\":11535:11595   */\n    tag_100:\n        /* \"#utility.yul\":11563:11566   */\n      0x00\n        /* \"#utility.yul\":11584:11589   */\n      dup2\n        /* \"#utility.yul\":11577:11589   */\n      swap1\n      pop\n        /* \"#utility.yul\":11535:11595   */\n      swap2\n      swap1\n      pop\n      jump\t// out\n        /* \"#utility.yul\":11601:11743   */\n    tag_101:\n        /* \"#utility.yul\":11651:11660   */\n      0x00\n        /* \"#utility.yul\":11684:11737   */\n      tag_230\n        /* \"#utility.yul\":11702:11736   */\n      tag_231\n        /* \"#utility.yul\":11711:11735   */\n      tag_232\n        /* \"#utility.yul\":11729:11734   */\n      dup5\n        /* \"#utility.yul\":11711:11735   */\n      tag_58\n      jump\t// in\n    tag_232:\n        /* \"#utility.yul\":11702:11736   */\n      tag_100\n      jump\t// in\n    tag_231:\n        /* \"#utility.yul\":11684:11737   */\n      tag_58\n      jump\t// in\n    tag_230:\n        /* \"#utility.yul\":11671:11737   */\n      swap1\n      pop\n        /* \"#utility.yul\":11601:11743   */\n      swap2\n      swap1\n      pop\n      jump\t// out\n        /* \"#utility.yul\":11749:11824   */\n    tag_102:\n        /* \"#utility.yul\":11792:11795   */\n      0x00\n        /* \"#utility.yul\":11813:11818   */\n      dup2\n        /* \"#utility.yul\":11806:11818   */\n      swap1\n      pop\n        /* \"#utility.yul\":11749:11824   */\n      swap2\n      swap1\n      pop\n      jump\t// out\n        /* \"#utility.yul\":11830:12099   */\n    tag_103:\n        /* \"#utility.yul\":11940:11979   */\n      tag_235\n        /* \"#utility.yul\":11971:11978   */\n      dup4\n        /* \"#utility.yul\":11940:11979   */\n      tag_101\n      jump\t// in\n    tag_235:\n        /* \"#utility.yul\":12001:12092   */\n      tag_236\n        /* \"#utility.yul\":12050:12091   */\n      tag_237\n        /* \"#utility.yul\":12074:12090   */\n      dup3\n        /* \"#utility.yul\":12050:12091   */\n      tag_102\n      jump\t// in\n    tag_237:\n        /* \"#utility.yul\":12042:12048   */\n      dup5\n        /* \"#utility.yul\":12035:12039   */\n      dup5\n        /* \"#utility.yul\":12029:12040   */\n      sload\n        /* \"#utility.yul\":12001:12092   */\n      tag_99\n      jump\t// in\n    tag_236:\n        /* \"#utility.yul\":11995:11999   */\n      dup3\n        /* \"#utility.yul\":11988:12093   */\n      sstore\n        /* \"#utility.yul\":11906:12099   */\n      pop\n        /* \"#utility.yul\":11830:12099   */\n      pop\n      pop\n      pop\n      jump\t// out\n        /* \"#utility.yul\":12105:12178   */\n    tag_104:\n        /* \"#utility.yul\":12150:12153   */\n      0x00\n        /* \"#utility.yul\":12171:12172   */\n      0x00\n        /* \"#utility.yul\":12164:12172   */\n      swap1\n      pop\n        /* \"#utility.yul\":12105:12178   */\n      swap1\n      jump\t// out\n        /* \"#utility.yul\":12184:12373   */\n    tag_105:\n        /* \"#utility.yul\":12261:12293   */\n      tag_240\n      tag_104\n      jump\t// in\n    tag_240:\n        /* \"#utility.yul\":12302:12367   */\n      tag_241\n        /* \"#utility.yul\":12360:12366   */\n      dup2\n        /* \"#utility.yul\":12352:12358   */\n      dup5\n        /* \"#utility.yul\":12346:12350   */\n      dup5\n        /* \"#utility.yul\":12302:12367   */\n      tag_103\n      jump\t// in\n    tag_241:\n        /* \"#utility.yul\":12237:12373   */\n      pop\n        /* \"#utility.yul\":12184:12373   */\n      pop\n      pop\n      jump\t// out\n        /* \"#utility.yul\":12379:12565   */\n    tag_106:\n        /* \"#utility.yul\":12439:12559   */\n    tag_243:\n        /* \"#utility.yul\":12456:12459   */\n      dup2\n        /* \"#utility.yul\":12449:12454   */\n      dup2\n        /* \"#utility.yul\":12446:12460   */\n      lt\n        /* \"#utility.yul\":12439:12559   */\n      iszero\n      tag_245\n      jumpi\n        /* \"#utility.yul\":12510:12549   */\n      tag_246\n        /* \"#utility.yul\":12547:12548   */\n      0x00\n        /* \"#utility.yul\":12540:12545   */\n      dup3\n        /* \"#utility.yul\":12510:12549   */\n      tag_105\n      jump\t// in\n    tag_246:\n        /* \"#utility.yul\":12483:12484   */\n      0x01\n        /* \"#utility.yul\":12476:12481   */\n      dup2\n        /* \"#utility.yul\":12472:12485   */\n      add\n        /* \"#utility.yul\":12463:12485   */\n      swap1\n      pop\n        /* \"#utility.yul\":12439:12559   */\n      jump(tag_243)\n    tag_245:\n        /* \"#utility.yul\":12379:12565   */\n      pop\n      pop\n      jump\t// out\n        /* \"#utility.yul\":12571:13114   */\n    tag_107:\n        /* \"#utility.yul\":12672:12674   */\n      0x1f\n        /* \"#utility.yul\":12667:12670   */\n      dup3\n        /* \"#utility.yul\":12664:12675   */\n      gt\n        /* \"#utility.yul\":12661:13107   */\n      iszero\n      tag_248\n      jumpi\n        /* \"#utility.yul\":12706:12744   */\n      tag_249\n        /* \"#utility.yul\":12738:12743   */\n      dup2\n        /* \"#utility.yul\":12706:12744   */\n      tag_96\n      jump\t// in\n    tag_249:\n        /* \"#utility.yul\":12790:12819   */\n      tag_250\n        /* \"#utility.yul\":12808:12818   */\n      dup5\n        /* \"#utility.yul\":12790:12819   */\n      tag_97\n      jump\t// in\n    tag_250:\n        /* \"#utility.yul\":12780:12788   */\n      dup2\n        /* \"#utility.yul\":12776:12820   */\n      add\n        /* \"#utility.yul\":12973:12975   */\n      0x20\n        /* \"#utility.yul\":12961:12971   */\n      dup6\n        /* \"#utility.yul\":12958:12976   */\n      lt\n        /* \"#utility.yul\":12955:13004   */\n      iszero\n      tag_251\n      jumpi\n        /* \"#utility.yul\":12994:13002   */\n      dup2\n        /* \"#utility.yul\":12979:13002   */\n      swap1\n      pop\n        /* \"#utility.yul\":12955:13004   */\n    tag_251:\n        /* \"#utility.yul\":13017:13097   */\n      tag_252\n        /* \"#utility.yul\":13073:13095   */\n      tag_253\n        /* \"#utility.yul\":13091:13094   */\n      dup6\n        /* \"#utility.yul\":13073:13095   */\n      tag_97\n      jump\t// in\n    tag_253:\n        /* \"#utility.yul\":13063:13071   */\n      dup4\n        /* \"#utility.yul\":13059:13096   */\n      add\n        /* \"#utility.yul\":13046:13057   */\n      dup3\n        /* \"#utility.yul\":13017:13097   */\n      tag_106\n      jump\t// in\n    tag_252:\n        /* \"#utility.yul\":12676:13107   */\n      pop\n      pop\n        /* \"#utility.yul\":12661:13107   */\n    tag_248:\n        /* \"#utility.yul\":12571:13114   */\n      pop\n      pop\n      pop\n      jump\t// out\n        /* \"#utility.yul\":13120:13237   */\n    tag_108:\n        /* \"#utility.yul\":13174:13182   */\n      0x00\n        /* \"#utility.yul\":13224:13229   */\n      dup3\n        /* \"#utility.yul\":13218:13222   */\n      dup3\n        /* \"#utility.yul\":13214:13230   */\n      shr\n        /* \"#utility.yul\":13193:13230   */\n      swap1\n      pop\n        /* \"#utility.yul\":13120:13237   */\n      swap3\n      swap2\n      pop\n      pop\n      jump\t// out\n        /* \"#utility.yul\":13243:13412   */\n    tag_109:\n        /* \"#utility.yul\":13287:13293   */\n      0x00\n        /* \"#utility.yul\":13320:13371   */\n      tag_256\n        /* \"#utility.yul\":13368:13369   */\n      0x00\n        /* \"#utility.yul\":13364:13370   */\n      not\n        /* \"#utility.yul\":13356:13361   */\n      dup5\n        /* \"#utility.yul\":13353:13354   */\n      0x08\n        /* \"#utility.yul\":13349:13362   */\n      mul\n        /* \"#utility.yul\":13320:13371   */\n      tag_108\n      jump\t// in\n    tag_256:\n        /* \"#utility.yul\":13316:13372   */\n      not\n        /* \"#utility.yul\":13401:13405   */\n      dup1\n        /* \"#utility.yul\":13395:13399   */\n      dup4\n        /* \"#utility.yul\":13391:13406   */\n      and\n        /* \"#utility.yul\":13381:13406   */\n      swap2\n      pop\n        /* \"#utility.yul\":13294:13412   */\n      pop\n        /* \"#utility.yul\":13243:13412   */\n      swap3\n      swap2\n      pop\n      pop\n      jump\t// out\n        /* \"#utility.yul\":13417:13712   */\n    tag_110:\n        /* \"#utility.yul\":13493:13497   */\n      0x00\n        /* \"#utility.yul\":13639:13668   */\n      tag_258\n        /* \"#utility.yul\":13664:13667   */\n      dup4\n        /* \"#utility.yul\":13658:13662   */\n      dup4\n        /* \"#utility.yul\":13639:13668   */\n      tag_109\n      jump\t// in\n    tag_258:\n        /* \"#utility.yul\":13631:13668   */\n      swap2\n      pop\n        /* \"#utility.yul\":13701:13704   */\n      dup3\n        /* \"#utility.yul\":13698:13699   */\n      0x02\n        /* \"#utility.yul\":13694:13705   */\n      mul\n        /* \"#utility.yul\":13688:13692   */\n      dup3\n        /* \"#utility.yul\":13685:13706   */\n      or\n        /* \"#utility.yul\":13677:13706   */\n      swap1\n      pop\n        /* \"#utility.yul\":13417:13712   */\n      swap3\n      swap2\n      pop\n      pop\n      jump\t// out\n        /* \"#utility.yul\":13717:15112   */\n    tag_39:\n        /* \"#utility.yul\":13834:13871   */\n      tag_260\n        /* \"#utility.yul\":13867:13870   */\n      dup3\n        /* \"#utility.yul\":13834:13871   */\n      tag_75\n      jump\t// in\n    tag_260:\n        /* \"#utility.yul\":13936:13954   */\n      0xffffffffffffffff\n        /* \"#utility.yul\":13928:13934   */\n      dup2\n        /* \"#utility.yul\":13925:13955   */\n      gt\n        /* \"#utility.yul\":13922:13978   */\n      iszero\n      tag_261\n      jumpi\n        /* \"#utility.yul\":13958:13976   */\n      tag_262\n      tag_66\n      jump\t// in\n    tag_262:\n        /* \"#utility.yul\":13922:13978   */\n    tag_261:\n        /* \"#utility.yul\":14002:14040   */\n      tag_263\n        /* \"#utility.yul\":14034:14038   */\n      dup3\n        /* \"#utility.yul\":14028:14039   */\n      sload\n        /* \"#utility.yul\":14002:14040   */\n      tag_44\n      jump\t// in\n    tag_263:\n        /* \"#utility.yul\":14087:14154   */\n      tag_264\n        /* \"#utility.yul\":14147:14153   */\n      dup3\n        /* \"#utility.yul\":14139:14145   */\n      dup3\n        /* \"#utility.yul\":14133:14137   */\n      dup6\n        /* \"#utility.yul\":14087:14154   */\n      tag_107\n      jump\t// in\n    tag_264:\n        /* \"#utility.yul\":14181:14182   */\n      0x00\n        /* \"#utility.yul\":14205:14209   */\n      0x20\n        /* \"#utility.yul\":14192:14209   */\n      swap1\n      pop\n        /* \"#utility.yul\":14237:14239   */\n      0x1f\n        /* \"#utility.yul\":14229:14235   */\n      dup4\n        /* \"#utility.yul\":14226:14240   */\n      gt\n        /* \"#utility.yul\":14254:14255   */\n      0x01\n        /* \"#utility.yul\":14249:14867   */\n      dup2\n      eq\n      tag_266\n      jumpi\n        /* \"#utility.yul\":14911:14912   */\n      0x00\n        /* \"#utility.yul\":14928:14934   */\n      dup5\n        /* \"#utility.yul\":14925:15002   */\n      iszero\n      tag_267\n      jumpi\n        /* \"#utility.yul\":14977:14986   */\n      dup3\n        /* \"#utility.yul\":14972:14975   */\n      dup8\n        /* \"#utility.yul\":14968:14987   */\n      add\n        /* \"#utility.yul\":14962:14988   */\n      mload\n        /* \"#utility.yul\":14953:14988   */\n      swap1\n      pop\n        /* \"#utility.yul\":14925:15002   */\n    tag_267:\n        /* \"#utility.yul\":15028:15095   */\n      tag_268\n        /* \"#utility.yul\":15088:15094   */\n      dup6\n        /* \"#utility.yul\":15081:15086   */\n      dup3\n        /* \"#utility.yul\":15028:15095   */\n      tag_110\n      jump\t// in\n    tag_268:\n        /* \"#utility.yul\":15022:15026   */\n      dup7\n        /* \"#utility.yul\":15015:15096   */\n      sstore\n        /* \"#utility.yul\":14884:15106   */\n      pop\n        /* \"#utility.yul\":14219:15106   */\n      jump(tag_265)\n        /* \"#utility.yul\":14249:14867   */\n    tag_266:\n        /* \"#utility.yul\":14301:14305   */\n      0x1f\n        /* \"#utility.yul\":14297:14306   */\n      not\n        /* \"#utility.yul\":14289:14295   */\n      dup5\n        /* \"#utility.yul\":14285:14307   */\n      and\n        /* \"#utility.yul\":14335:14372   */\n      tag_269\n        /* \"#utility.yul\":14367:14371   */\n      dup7\n        /* \"#utility.yul\":14335:14372   */\n      tag_96\n      jump\t// in\n    tag_269:\n        /* \"#utility.yul\":14394:14395   */\n      0x00\n        /* \"#utility.yul\":14408:14616   */\n    tag_270:\n        /* \"#utility.yul\":14422:14429   */\n      dup3\n        /* \"#utility.yul\":14419:14420   */\n      dup2\n        /* \"#utility.yul\":14416:14430   */\n      lt\n        /* \"#utility.yul\":14408:14616   */\n      iszero\n      tag_272\n      jumpi\n        /* \"#utility.yul\":14501:14510   */\n      dup5\n        /* \"#utility.yul\":14496:14499   */\n      dup10\n        /* \"#utility.yul\":14492:14511   */\n      add\n        /* \"#utility.yul\":14486:14512   */\n      mload\n        /* \"#utility.yul\":14478:14484   */\n      dup3\n        /* \"#utility.yul\":14471:14513   */\n      sstore\n        /* \"#utility.yul\":14552:14553   */\n      0x01\n        /* \"#utility.yul\":14544:14550   */\n      dup3\n        /* \"#utility.yul\":14540:14554   */\n      add\n        /* \"#utility.yul\":14530:14554   */\n      swap2\n      pop\n        /* \"#utility.yul\":14599:14601   */\n      0x20\n        /* \"#utility.yul\":14588:14597   */\n      dup6\n        /* \"#utility.yul\":14584:14602   */\n      add\n        /* \"#utility.yul\":14571:14602   */\n      swap5\n      pop\n        /* \"#utility.yul\":14445:14449   */\n      0x20\n        /* \"#utility.yul\":14442:14443   */\n      dup2\n        /* \"#utility.yul\":14438:14450   */\n      add\n        /* \"#utility.yul\":14433:14450   */\n      swap1\n      pop\n        /* \"#utility.yul\":14408:14616   */\n      jump(tag_270)\n    tag_272:\n        /* \"#utility.yul\":14644:14650   */\n      dup7\n        /* \"#utility.yul\":14635:14642   */\n      dup4\n        /* \"#utility.yul\":14632:14651   */\n      lt\n        /* \"#utility.yul\":14629:14808   */\n      iszero\n      tag_273\n      jumpi\n        /* \"#utility.yul\":14702:14711   */\n      dup5\n        /* \"#utility.yul\":14697:14700   */\n      dup10\n        /* \"#utility.yul\":14693:14712   */\n      add\n        /* \"#utility.yul\":14687:14713   */\n      mload\n        /* \"#utility.yul\":14745:14793   */\n      tag_274\n        /* \"#utility.yul\":14787:14791   */\n      0x1f\n        /* \"#utility.yul\":14779:14785   */\n      dup10\n        /* \"#utility.yul\":14775:14792   */\n      and\n        /* \"#utility.yul\":14764:14773   */\n      dup3\n        /* \"#utility.yul\":14745:14793   */\n      tag_109\n      jump\t// in\n    tag_274:\n        /* \"#utility.yul\":14737:14743   */\n      dup4\n        /* \"#utility.yul\":14730:14794   */\n      sstore\n        /* \"#utility.yul\":14652:14808   */\n      pop\n        /* \"#utility.yul\":14629:14808   */\n    tag_273:\n        /* \"#utility.yul\":14854:14855   */\n      0x01\n        /* \"#utility.yul\":14850:14851   */\n      0x02\n        /* \"#utility.yul\":14842:14848   */\n      dup9\n        /* \"#utility.yul\":14838:14852   */\n      mul\n        /* \"#utility.yul\":14834:14856   */\n      add\n        /* \"#utility.yul\":14828:14832   */\n      dup9\n        /* \"#utility.yul\":14821:14857   */\n      sstore\n        /* \"#utility.yul\":14256:14867   */\n      pop\n      pop\n      pop\n        /* \"#utility.yul\":14219:15106   */\n    tag_265:\n      pop\n        /* \"#utility.yul\":13809:15112   */\n      pop\n      pop\n      pop\n        /* \"#utility.yul\":13717:15112   */\n      pop\n      pop\n      jump\t// out\n\n    auxdata: 0xa264697066735822122016782d9fcc3d82044f006d660cff7f4c8da4a8eb9ec16367e019b92ad48edc1864736f6c634300081e0033\n}\n",
				"bytecode": {
					"linkReferences": {},
					"object": "6080604052348015600e575f5ffd5b50610bf08061001c5f395ff3fe608060405234801561000f575f5ffd5b5060043610610055575f3560e01c806306661abd1461005957806311456b47146100775780634622ab0314610093578063cd838f0f146100c3578063e3874b29146100e1575b5f5ffd5b610061610111565b60405161006e9190610429565b60405180910390f35b610091600480360381019061008c919061058f565b61011c565b005b6100ad60048036038101906100a89190610600565b61027c565b6040516100ba919061068b565b60405180910390f35b6100cb610321565b6040516100d891906107ae565b60405180910390f35b6100fb60048036038101906100f69190610828565b6103f4565b604051610108919061086d565b60405180910390f35b5f5f80549050905090565b60015f3373ffffffffffffffffffffffffffffffffffffffff1673ffffffffffffffffffffffffffffffffffffffff1681526020019081526020015f205f9054906101000a900460ff16156101a6576040517f08c379a000000000000000000000000000000000000000000000000000000000815260040161019d906108d0565b60405180910390fd5b5f81908060018154018082558091505060019003905f5260205f20015f9091909190915090816101d69190610aeb565b506001805f3373ffffffffffffffffffffffffffffffffffffffff1673ffffffffffffffffffffffffffffffffffffffff1681526020019081526020015f205f6101000a81548160ff0219169083151502179055503373ffffffffffffffffffffffffffffffffffffffff167f31f8d01138a1ab23e3f48cd17611b8e263b29e2c77855e1f3171da6cc7a71ce782604051610271919061068b565b60405180910390a250565b5f818154811061028a575f80fd5b905f5260205f20015f9150905080546102a29061091b565b80601f01602080910402602001604051908101604052809291908181526020018280546102ce9061091b565b80156103195780601f106102f057610100808354040283529160200191610319565b820191905f5260205f20905b8154815290600101906020018083116102fc57829003601f168201915b505050505081565b60605f805480602002602001604051908101604052809291908181526020015f905b828210156103eb578382905f5260205f200180546103609061091b565b80601f016020809104026020016040519081016040528092919081815260200182805461038c9061091b565b80156103d75780601f106103ae576101008083540402835291602001916103d7565b820191905f5260205f20905b8154815290600101906020018083116103ba57829003601f168201915b505050505081526020019060010190610343565b50505050905090565b6001602052805f5260405f205f915054906101000a900460ff1681565b5f819050919050565b61042381610411565b82525050565b5f60208201905061043c5f83018461041a565b92915050565b5f604051905090565b5f5ffd5b5f5ffd5b5f5ffd5b5f5ffd5b5f601f19601f8301169050919050565b7f4e487b71000000000000000000000000000000000000000000000000000000005f52604160045260245ffd5b6104a18261045b565b810181811067ffffffffffffffff821117156104c0576104bf61046b565b5b80604052505050565b5f6104d2610442565b90506104de8282610498565b919050565b5f67ffffffffffffffff8211156104fd576104fc61046b565b5b6105068261045b565b9050602081019050919050565b828183375f83830152505050565b5f61053361052e846104e3565b6104c9565b90508281526020810184848401111561054f5761054e610457565b5b61055a848285610513565b509392505050565b5f82601f83011261057657610575610453565b5b8135610586848260208601610521565b91505092915050565b5f602082840312156105a4576105a361044b565b5b5f82013567ffffffffffffffff8111156105c1576105c061044f565b5b6105cd84828501610562565b91505092915050565b6105df81610411565b81146105e9575f5ffd5b50565b5f813590506105fa816105d6565b92915050565b5f602082840312156106155761061461044b565b5b5f610622848285016105ec565b91505092915050565b5f81519050919050565b5f82825260208201905092915050565b8281835e5f83830152505050565b5f61065d8261062b565b6106678185610635565b9350610677818560208601610645565b6106808161045b565b840191505092915050565b5f6020820190508181035f8301526106a38184610653565b905092915050565b5f81519050919050565b5f82825260208201905092915050565b5f819050602082019050919050565b5f82825260208201905092915050565b5f6106ee8261062b565b6106f881856106d4565b9350610708818560208601610645565b6107118161045b565b840191505092915050565b5f61072783836106e4565b905092915050565b5f602082019050919050565b5f610745826106ab565b61074f81856106b5565b935083602082028501610761856106c5565b805f5b8581101561079c578484038952815161077d858261071c565b94506107888361072f565b925060208a01995050600181019050610764565b50829750879550505050505092915050565b5f6020820190508181035f8301526107c6818461073b565b905092915050565b5f73ffffffffffffffffffffffffffffffffffffffff82169050919050565b5f6107f7826107ce565b9050919050565b610807816107ed565b8114610811575f5ffd5b50565b5f81359050610822816107fe565b92915050565b5f6020828403121561083d5761083c61044b565b5b5f61084a84828501610814565b91505092915050565b5f8115159050919050565b61086781610853565b82525050565b5f6020820190506108805f83018461085e565b92915050565b7f596120616772656761737465207475206e6f6d627265000000000000000000005f82015250565b5f6108ba601683610635565b91506108c582610886565b602082019050919050565b5f6020820190508181035f8301526108e7816108ae565b9050919050565b7f4e487b71000000000000000000000000000000000000000000000000000000005f52602260045260245ffd5b5f600282049050600182168061093257607f821691505b602082108103610945576109446108ee565b5b50919050565b5f819050815f5260205f209050919050565b5f6020601f8301049050919050565b5f82821b905092915050565b5f600883026109a77fffffffffffffffffffffffffffffffffffffffffffffffffffffffffffffffff8261096c565b6109b1868361096c565b95508019841693508086168417925050509392505050565b5f819050919050565b5f6109ec6109e76109e284610411565b6109c9565b610411565b9050919050565b5f819050919050565b610a05836109d2565b610a19610a11826109f3565b848454610978565b825550505050565b5f5f905090565b610a30610a21565b610a3b8184846109fc565b505050565b5b81811015610a5e57610a535f82610a28565b600181019050610a41565b5050565b601f821115610aa357610a748161094b565b610a7d8461095d565b81016020851015610a8c578190505b610aa0610a988561095d565b830182610a40565b50505b505050565b5f82821c905092915050565b5f610ac35f1984600802610aa8565b1980831691505092915050565b5f610adb8383610ab4565b9150826002028217905092915050565b610af48261062b565b67ffffffffffffffff811115610b0d57610b0c61046b565b5b610b17825461091b565b610b22828285610a62565b5f60209050601f831160018114610b53575f8415610b41578287015190505b610b4b8582610ad0565b865550610bb2565b601f198416610b618661094b565b5f5b82811015610b8857848901518255600182019150602085019450602081019050610b63565b86831015610ba55784890151610ba1601f891682610ab4565b8355505b6001600288020188555050505b50505050505056fea264697066735822122016782d9fcc3d82044f006d660cff7f4c8da4a8eb9ec16367e019b92ad48edc1864736f6c634300081e0033",
					"opcodes": "PUSH1 0x80 PUSH1 0x40 MSTORE CALLVALUE DUP1 ISZERO PUSH1 0xE JUMPI PUSH0 PUSH0 REVERT JUMPDEST POP PUSH2 0xBF0 DUP1 PUSH2 0x1C PUSH0 CODECOPY PUSH0 RETURN INVALID PUSH1 0x80 PUSH1 0x40 MSTORE CALLVALUE DUP1 ISZERO PUSH2 0xF JUMPI PUSH0 PUSH0 REVERT JUMPDEST POP PUSH1 0x4 CALLDATASIZE LT PUSH2 0x55 JUMPI PUSH0 CALLDATALOAD PUSH1 0xE0 SHR DUP1 PUSH4 0x6661ABD EQ PUSH2 0x59 JUMPI DUP1 PUSH4 0x11456B47 EQ PUSH2 0x77 JUMPI DUP1 PUSH4 0x4622AB03 EQ PUSH2 0x93 JUMPI DUP1 PUSH4 0xCD838F0F EQ PUSH2 0xC3 JUMPI DUP1 PUSH4 0xE3874B29 EQ PUSH2 0xE1 JUMPI JUMPDEST PUSH0 PUSH0 REVERT JUMPDEST PUSH2 0x61 PUSH2 0x111 JUMP JUMPDEST PUSH1 0x40 MLOAD PUSH2 0x6E SWAP2 SWAP1 PUSH2 0x429 JUMP JUMPDEST PUSH1 0x40 MLOAD DUP1 SWAP2 SUB SWAP1 RETURN JUMPDEST PUSH2 0x91 PUSH1 0x4 DUP1 CALLDATASIZE SUB DUP2 ADD SWAP1 PUSH2 0x8C SWAP2 SWAP1 PUSH2 0x58F JUMP JUMPDEST PUSH2 0x11C JUMP JUMPDEST STOP JUMPDEST PUSH2 0xAD PUSH1 0x4 DUP1 CALLDATASIZE SUB DUP2 ADD SWAP1 PUSH2 0xA8 SWAP2 SWAP1 PUSH2 0x600 JUMP JUMPDEST PUSH2 0x27C JUMP JUMPDEST PUSH1 0x40 MLOAD PUSH2 0xBA SWAP2 SWAP1 PUSH2 0x68B JUMP JUMPDEST PUSH1 0x40 MLOAD DUP1 SWAP2 SUB SWAP1 RETURN JUMPDEST PUSH2 0xCB PUSH2 0x321 JUMP JUMPDEST PUSH1 0x40 MLOAD PUSH2 0xD8 SWAP2 SWAP1 PUSH2 0x7AE JUMP JUMPDEST PUSH1 0x40 MLOAD DUP1 SWAP2 SUB SWAP1 RETURN JUMPDEST PUSH2 0xFB PUSH1 0x4 DUP1 CALLDATASIZE SUB DUP2 ADD SWAP1 PUSH2 0xF6 SWAP2 SWAP1 PUSH2 0x828 JUMP JUMPDEST PUSH2 0x3F4 JUMP JUMPDEST PUSH1 0x40 MLOAD PUSH2 0x108 SWAP2 SWAP1 PUSH2 0x86D JUMP JUMPDEST PUSH1 0x40 MLOAD DUP1 SWAP2 SUB SWAP1 RETURN JUMPDEST PUSH0 PUSH0 DUP1 SLOAD SWAP1 POP SWAP1 POP SWAP1 JUMP JUMPDEST PUSH1 0x1 PUSH0 CALLER PUSH20 0xFFFFFFFFFFFFFFFFFFFFFFFFFFFFFFFFFFFFFFFF AND PUSH20 0xFFFFFFFFFFFFFFFFFFFFFFFFFFFFFFFFFFFFFFFF AND DUP2 MSTORE PUSH1 0x20 ADD SWAP1 DUP2 MSTORE PUSH1 0x20 ADD PUSH0 KECCAK256 PUSH0 SWAP1 SLOAD SWAP1 PUSH2 0x100 EXP SWAP1 DIV PUSH1 0xFF AND ISZERO PUSH2 0x1A6 JUMPI PUSH1 0x40 MLOAD PUSH32 0x8C379A000000000000000000000000000000000000000000000000000000000 DUP2 MSTORE PUSH1 0x4 ADD PUSH2 0x19D SWAP1 PUSH2 0x8D0 JUMP JUMPDEST PUSH1 0x40 MLOAD DUP1 SWAP2 SUB SWAP1 REVERT JUMPDEST PUSH0 DUP2 SWAP1 DUP1 PUSH1 0x1 DUP2 SLOAD ADD DUP1 DUP3 SSTORE DUP1 SWAP2 POP POP PUSH1 0x1 SWAP1 SUB SWAP1 PUSH0 MSTORE PUSH1 0x20 PUSH0 KECCAK256 ADD PUSH0 SWAP1 SWAP2 SWAP1 SWAP2 SWAP1 SWAP2 POP SWAP1 DUP2 PUSH2 0x1D6 SWAP2 SWAP1 PUSH2 0xAEB JUMP JUMPDEST POP PUSH1 0x1 DUP1 PUSH0 CALLER PUSH20 0xFFFFFFFFFFFFFFFFFFFFFFFFFFFFFFFFFFFFFFFF AND PUSH20 0xFFFFFFFFFFFFFFFFFFFFFFFFFFFFFFFFFFFFFFFF AND DUP2 MSTORE PUSH1 0x20 ADD SWAP1 DUP2 MSTORE PUSH1 0x20 ADD PUSH0 KECCAK256 PUSH0 PUSH2 0x100 EXP DUP2 SLOAD DUP2 PUSH1 0xFF MUL NOT AND SWAP1 DUP4 ISZERO ISZERO MUL OR SWAP1 SSTORE POP CALLER PUSH20 0xFFFFFFFFFFFFFFFFFFFFFFFFFFFFFFFFFFFFFFFF AND PUSH32 0x31F8D01138A1AB23E3F48CD17611B8E263B29E2C77855E1F3171DA6CC7A71CE7 DUP3 PUSH1 0x40 MLOAD PUSH2 0x271 SWAP2 SWAP1 PUSH2 0x68B JUMP JUMPDEST PUSH1 0x40 MLOAD DUP1 SWAP2 SUB SWAP1 LOG2 POP JUMP JUMPDEST PUSH0 DUP2 DUP2 SLOAD DUP2 LT PUSH2 0x28A JUMPI PUSH0 DUP1 REVERT JUMPDEST SWAP1 PUSH0 MSTORE PUSH1 0x20 PUSH0 KECCAK256 ADD PUSH0 SWAP2 POP SWAP1 POP DUP1 SLOAD PUSH2 0x2A2 SWAP1 PUSH2 0x91B JUMP JUMPDEST DUP1 PUSH1 0x1F ADD PUSH1 0x20 DUP1 SWAP2 DIV MUL PUSH1 0x20 ADD PUSH1 0x40 MLOAD SWAP1 DUP2 ADD PUSH1 0x40 MSTORE DUP1 SWAP3 SWAP2 SWAP1 DUP2 DUP2 MSTORE PUSH1 0x20 ADD DUP3 DUP1 SLOAD PUSH2 0x2CE SWAP1 PUSH2 0x91B JUMP JUMPDEST DUP1 ISZERO PUSH2 0x319 JUMPI DUP1 PUSH1 0x1F LT PUSH2 0x2F0 JUMPI PUSH2 0x100 DUP1 DUP4 SLOAD DIV MUL DUP4 MSTORE SWAP2 PUSH1 0x20 ADD SWAP2 PUSH2 0x319 JUMP JUMPDEST DUP3 ADD SWAP2 SWAP1 PUSH0 MSTORE PUSH1 0x20 PUSH0 KECCAK256 SWAP1 JUMPDEST DUP2 SLOAD DUP2 MSTORE SWAP1 PUSH1 0x1 ADD SWAP1 PUSH1 0x20 ADD DUP1 DUP4 GT PUSH2 0x2FC JUMPI DUP3 SWAP1 SUB PUSH1 0x1F AND DUP3 ADD SWAP2 JUMPDEST POP POP POP POP POP DUP2 JUMP JUMPDEST PUSH1 0x60 PUSH0 DUP1 SLOAD DUP1 PUSH1 0x20 MUL PUSH1 0x20 ADD PUSH1 0x40 MLOAD SWAP1 DUP2 ADD PUSH1 0x40 MSTORE DUP1 SWAP3 SWAP2 SWAP1 DUP2 DUP2 MSTORE PUSH1 0x20 ADD PUSH0 SWAP1 JUMPDEST DUP3 DUP3 LT ISZERO PUSH2 0x3EB JUMPI DUP4 DUP3 SWAP1 PUSH0 MSTORE PUSH1 0x20 PUSH0 KECCAK256 ADD DUP1 SLOAD PUSH2 0x360 SWAP1 PUSH2 0x91B JUMP JUMPDEST DUP1 PUSH1 0x1F ADD PUSH1 0x20 DUP1 SWAP2 DIV MUL PUSH1 0x20 ADD PUSH1 0x40 MLOAD SWAP1 DUP2 ADD PUSH1 0x40 MSTORE DUP1 SWAP3 SWAP2 SWAP1 DUP2 DUP2 MSTORE PUSH1 0x20 ADD DUP3 DUP1 SLOAD PUSH2 0x38C SWAP1 PUSH2 0x91B JUMP JUMPDEST DUP1 ISZERO PUSH2 0x3D7 JUMPI DUP1 PUSH1 0x1F LT PUSH2 0x3AE JUMPI PUSH2 0x100 DUP1 DUP4 SLOAD DIV MUL DUP4 MSTORE SWAP2 PUSH1 0x20 ADD SWAP2 PUSH2 0x3D7 JUMP JUMPDEST DUP3 ADD SWAP2 SWAP1 PUSH0 MSTORE PUSH1 0x20 PUSH0 KECCAK256 SWAP1 JUMPDEST DUP2 SLOAD DUP2 MSTORE SWAP1 PUSH1 0x1 ADD SWAP1 PUSH1 0x20 ADD DUP1 DUP4 GT PUSH2 0x3BA JUMPI DUP3 SWAP1 SUB PUSH1 0x1F AND DUP3 ADD SWAP2 JUMPDEST POP POP POP POP POP DUP2 MSTORE PUSH1 0x20 ADD SWAP1 PUSH1 0x1 ADD SWAP1 PUSH2 0x343 JUMP JUMPDEST POP POP POP POP SWAP1 POP SWAP1 JUMP JUMPDEST PUSH1 0x1 PUSH1 0x20 MSTORE DUP1 PUSH0 MSTORE PUSH1 0x40 PUSH0 KECCAK256 PUSH0 SWAP2 POP SLOAD SWAP1 PUSH2 0x100 EXP SWAP1 DIV PUSH1 0xFF AND DUP2 JUMP JUMPDEST PUSH0 DUP2 SWAP1 POP SWAP2 SWAP1 POP JUMP JUMPDEST PUSH2 0x423 DUP2 PUSH2 0x411 JUMP JUMPDEST DUP3 MSTORE POP POP JUMP JUMPDEST PUSH0 PUSH1 0x20 DUP3 ADD SWAP1 POP PUSH2 0x43C PUSH0 DUP4 ADD DUP5 PUSH2 0x41A JUMP JUMPDEST SWAP3 SWAP2 POP POP JUMP JUMPDEST PUSH0 PUSH1 0x40 MLOAD SWAP1 POP SWAP1 JUMP JUMPDEST PUSH0 PUSH0 REVERT JUMPDEST PUSH0 PUSH0 REVERT JUMPDEST PUSH0 PUSH0 REVERT JUMPDEST PUSH0 PUSH0 REVERT JUMPDEST PUSH0 PUSH1 0x1F NOT PUSH1 0x1F DUP4 ADD AND SWAP1 POP SWAP2 SWAP1 POP JUMP JUMPDEST PUSH32 0x4E487B7100000000000000000000000000000000000000000000000000000000 PUSH0 MSTORE PUSH1 0x41 PUSH1 0x4 MSTORE PUSH1 0x24 PUSH0 REVERT JUMPDEST PUSH2 0x4A1 DUP3 PUSH2 0x45B JUMP JUMPDEST DUP2 ADD DUP2 DUP2 LT PUSH8 0xFFFFFFFFFFFFFFFF DUP3 GT OR ISZERO PUSH2 0x4C0 JUMPI PUSH2 0x4BF PUSH2 0x46B JUMP JUMPDEST JUMPDEST DUP1 PUSH1 0x40 MSTORE POP POP POP JUMP JUMPDEST PUSH0 PUSH2 0x4D2 PUSH2 0x442 JUMP JUMPDEST SWAP1 POP PUSH2 0x4DE DUP3 DUP3 PUSH2 0x498 JUMP JUMPDEST SWAP2 SWAP1 POP JUMP JUMPDEST PUSH0 PUSH8 0xFFFFFFFFFFFFFFFF DUP3 GT ISZERO PUSH2 0x4FD JUMPI PUSH2 0x4FC PUSH2 0x46B JUMP JUMPDEST JUMPDEST PUSH2 0x506 DUP3 PUSH2 0x45B JUMP JUMPDEST SWAP1 POP PUSH1 0x20 DUP2 ADD SWAP1 POP SWAP2 SWAP1 POP JUMP JUMPDEST DUP3 DUP2 DUP4 CALLDATACOPY PUSH0 DUP4 DUP4 ADD MSTORE POP POP POP JUMP JUMPDEST PUSH0 PUSH2 0x533 PUSH2 0x52E DUP5 PUSH2 0x4E3 JUMP JUMPDEST PUSH2 0x4C9 JUMP JUMPDEST SWAP1 POP DUP3 DUP2 MSTORE PUSH1 0x20 DUP2 ADD DUP5 DUP5 DUP5 ADD GT ISZERO PUSH2 0x54F JUMPI PUSH2 0x54E PUSH2 0x457 JUMP JUMPDEST JUMPDEST PUSH2 0x55A DUP5 DUP3 DUP6 PUSH2 0x513 JUMP JUMPDEST POP SWAP4 SWAP3 POP POP POP JUMP JUMPDEST PUSH0 DUP3 PUSH1 0x1F DUP4 ADD SLT PUSH2 0x576 JUMPI PUSH2 0x575 PUSH2 0x453 JUMP JUMPDEST JUMPDEST DUP2 CALLDATALOAD PUSH2 0x586 DUP5 DUP3 PUSH1 0x20 DUP7 ADD PUSH2 0x521 JUMP JUMPDEST SWAP2 POP POP SWAP3 SWAP2 POP POP JUMP JUMPDEST PUSH0 PUSH1 0x20 DUP3 DUP5 SUB SLT ISZERO PUSH2 0x5A4 JUMPI PUSH2 0x5A3 PUSH2 0x44B JUMP JUMPDEST JUMPDEST PUSH0 DUP3 ADD CALLDATALOAD PUSH8 0xFFFFFFFFFFFFFFFF DUP2 GT ISZERO PUSH2 0x5C1 JUMPI PUSH2 0x5C0 PUSH2 0x44F JUMP JUMPDEST JUMPDEST PUSH2 0x5CD DUP5 DUP3 DUP6 ADD PUSH2 0x562 JUMP JUMPDEST SWAP2 POP POP SWAP3 SWAP2 POP POP JUMP JUMPDEST PUSH2 0x5DF DUP2 PUSH2 0x411 JUMP JUMPDEST DUP2 EQ PUSH2 0x5E9 JUMPI PUSH0 PUSH0 REVERT JUMPDEST POP JUMP JUMPDEST PUSH0 DUP2 CALLDATALOAD SWAP1 POP PUSH2 0x5FA DUP2 PUSH2 0x5D6 JUMP JUMPDEST SWAP3 SWAP2 POP POP JUMP JUMPDEST PUSH0 PUSH1 0x20 DUP3 DUP5 SUB SLT ISZERO PUSH2 0x615 JUMPI PUSH2 0x614 PUSH2 0x44B JUMP JUMPDEST JUMPDEST PUSH0 PUSH2 0x622 DUP5 DUP3 DUP6 ADD PUSH2 0x5EC JUMP JUMPDEST SWAP2 POP POP SWAP3 SWAP2 POP POP JUMP JUMPDEST PUSH0 DUP2 MLOAD SWAP1 POP SWAP2 SWAP1 POP JUMP JUMPDEST PUSH0 DUP3 DUP3 MSTORE PUSH1 0x20 DUP3 ADD SWAP1 POP SWAP3 SWAP2 POP POP JUMP JUMPDEST DUP3 DUP2 DUP4 MCOPY PUSH0 DUP4 DUP4 ADD MSTORE POP POP POP JUMP JUMPDEST PUSH0 PUSH2 0x65D DUP3 PUSH2 0x62B JUMP JUMPDEST PUSH2 0x667 DUP2 DUP6 PUSH2 0x635 JUMP JUMPDEST SWAP4 POP PUSH2 0x677 DUP2 DUP6 PUSH1 0x20 DUP7 ADD PUSH2 0x645 JUMP JUMPDEST PUSH2 0x680 DUP2 PUSH2 0x45B JUMP JUMPDEST DUP5 ADD SWAP2 POP POP SWAP3 SWAP2 POP POP JUMP JUMPDEST PUSH0 PUSH1 0x20 DUP3 ADD SWAP1 POP DUP2 DUP2 SUB PUSH0 DUP4 ADD MSTORE PUSH2 0x6A3 DUP2 DUP5 PUSH2 0x653 JUMP JUMPDEST SWAP1 POP SWAP3 SWAP2 POP POP JUMP JUMPDEST PUSH0 DUP2 MLOAD SWAP1 POP SWAP2 SWAP1 POP JUMP JUMPDEST PUSH0 DUP3 DUP3 MSTORE PUSH1 0x20 DUP3 ADD SWAP1 POP SWAP3 SWAP2 POP POP JUMP JUMPDEST PUSH0 DUP2 SWAP1 POP PUSH1 0x20 DUP3 ADD SWAP1 POP SWAP2 SWAP1 POP JUMP JUMPDEST PUSH0 DUP3 DUP3 MSTORE PUSH1 0x20 DUP3 ADD SWAP1 POP SWAP3 SWAP2 POP POP JUMP JUMPDEST PUSH0 PUSH2 0x6EE DUP3 PUSH2 0x62B JUMP JUMPDEST PUSH2 0x6F8 DUP2 DUP6 PUSH2 0x6D4 JUMP JUMPDEST SWAP4 POP PUSH2 0x708 DUP2 DUP6 PUSH1 0x20 DUP7 ADD PUSH2 0x645 JUMP JUMPDEST PUSH2 0x711 DUP2 PUSH2 0x45B JUMP JUMPDEST DUP5 ADD SWAP2 POP POP SWAP3 SWAP2 POP POP JUMP JUMPDEST PUSH0 PUSH2 0x727 DUP4 DUP4 PUSH2 0x6E4 JUMP JUMPDEST SWAP1 POP SWAP3 SWAP2 POP POP JUMP JUMPDEST PUSH0 PUSH1 0x20 DUP3 ADD SWAP1 POP SWAP2 SWAP1 POP JUMP JUMPDEST PUSH0 PUSH2 0x745 DUP3 PUSH2 0x6AB JUMP JUMPDEST PUSH2 0x74F DUP2 DUP6 PUSH2 0x6B5 JUMP JUMPDEST SWAP4 POP DUP4 PUSH1 0x20 DUP3 MUL DUP6 ADD PUSH2 0x761 DUP6 PUSH2 0x6C5 JUMP JUMPDEST DUP1 PUSH0 JUMPDEST DUP6 DUP2 LT ISZERO PUSH2 0x79C JUMPI DUP5 DUP5 SUB DUP10 MSTORE DUP2 MLOAD PUSH2 0x77D DUP6 DUP3 PUSH2 0x71C JUMP JUMPDEST SWAP5 POP PUSH2 0x788 DUP4 PUSH2 0x72F JUMP JUMPDEST SWAP3 POP PUSH1 0x20 DUP11 ADD SWAP10 POP POP PUSH1 0x1 DUP2 ADD SWAP1 POP PUSH2 0x764 JUMP JUMPDEST POP DUP3 SWAP8 POP DUP8 SWAP6 POP POP POP POP POP POP SWAP3 SWAP2 POP POP JUMP JUMPDEST PUSH0 PUSH1 0x20 DUP3 ADD SWAP1 POP DUP2 DUP2 SUB PUSH0 DUP4 ADD MSTORE PUSH2 0x7C6 DUP2 DUP5 PUSH2 0x73B JUMP JUMPDEST SWAP1 POP SWAP3 SWAP2 POP POP JUMP JUMPDEST PUSH0 PUSH20 0xFFFFFFFFFFFFFFFFFFFFFFFFFFFFFFFFFFFFFFFF DUP3 AND SWAP1 POP SWAP2 SWAP1 POP JUMP JUMPDEST PUSH0 PUSH2 0x7F7 DUP3 PUSH2 0x7CE JUMP JUMPDEST SWAP1 POP SWAP2 SWAP1 POP JUMP JUMPDEST PUSH2 0x807 DUP2 PUSH2 0x7ED JUMP JUMPDEST DUP2 EQ PUSH2 0x811 JUMPI PUSH0 PUSH0 REVERT JUMPDEST POP JUMP JUMPDEST PUSH0 DUP2 CALLDATALOAD SWAP1 POP PUSH2 0x822 DUP2 PUSH2 0x7FE JUMP JUMPDEST SWAP3 SWAP2 POP POP JUMP JUMPDEST PUSH0 PUSH1 0x20 DUP3 DUP5 SUB SLT ISZERO PUSH2 0x83D JUMPI PUSH2 0x83C PUSH2 0x44B JUMP JUMPDEST JUMPDEST PUSH0 PUSH2 0x84A DUP5 DUP3 DUP6 ADD PUSH2 0x814 JUMP JUMPDEST SWAP2 POP POP SWAP3 SWAP2 POP POP JUMP JUMPDEST PUSH0 DUP2 ISZERO ISZERO SWAP1 POP SWAP2 SWAP1 POP JUMP JUMPDEST PUSH2 0x867 DUP2 PUSH2 0x853 JUMP JUMPDEST DUP3 MSTORE POP POP JUMP JUMPDEST PUSH0 PUSH1 0x20 DUP3 ADD SWAP1 POP PUSH2 0x880 PUSH0 DUP4 ADD DUP5 PUSH2 0x85E JUMP JUMPDEST SWAP3 SWAP2 POP POP JUMP JUMPDEST PUSH32 0x596120616772656761737465207475206E6F6D62726500000000000000000000 PUSH0 DUP3 ADD MSTORE POP JUMP JUMPDEST PUSH0 PUSH2 0x8BA PUSH1 0x16 DUP4 PUSH2 0x635 JUMP JUMPDEST SWAP2 POP PUSH2 0x8C5 DUP3 PUSH2 0x886 JUMP JUMPDEST PUSH1 0x20 DUP3 ADD SWAP1 POP SWAP2 SWAP1 POP JUMP JUMPDEST PUSH0 PUSH1 0x20 DUP3 ADD SWAP1 POP DUP2 DUP2 SUB PUSH0 DUP4 ADD MSTORE PUSH2 0x8E7 DUP2 PUSH2 0x8AE JUMP JUMPDEST SWAP1 POP SWAP2 SWAP1 POP JUMP JUMPDEST PUSH32 0x4E487B7100000000000000000000000000000000000000000000000000000000 PUSH0 MSTORE PUSH1 0x22 PUSH1 0x4 MSTORE PUSH1 0x24 PUSH0 REVERT JUMPDEST PUSH0 PUSH1 0x2 DUP3 DIV SWAP1 POP PUSH1 0x1 DUP3 AND DUP1 PUSH2 0x932 JUMPI PUSH1 0x7F DUP3 AND SWAP2 POP JUMPDEST PUSH1 0x20 DUP3 LT DUP2 SUB PUSH2 0x945 JUMPI PUSH2 0x944 PUSH2 0x8EE JUMP JUMPDEST JUMPDEST POP SWAP2 SWAP1 POP JUMP JUMPDEST PUSH0 DUP2 SWAP1 POP DUP2 PUSH0 MSTORE PUSH1 0x20 PUSH0 KECCAK256 SWAP1 POP SWAP2 SWAP1 POP JUMP JUMPDEST PUSH0 PUSH1 0x20 PUSH1 0x1F DUP4 ADD DIV SWAP1 POP SWAP2 SWAP1 POP JUMP JUMPDEST PUSH0 DUP3 DUP3 SHL SWAP1 POP SWAP3 SWAP2 POP POP JUMP JUMPDEST PUSH0 PUSH1 0x8 DUP4 MUL PUSH2 0x9A7 PUSH32 0xFFFFFFFFFFFFFFFFFFFFFFFFFFFFFFFFFFFFFFFFFFFFFFFFFFFFFFFFFFFFFFFF DUP3 PUSH2 0x96C JUMP JUMPDEST PUSH2 0x9B1 DUP7 DUP4 PUSH2 0x96C JUMP JUMPDEST SWAP6 POP DUP1 NOT DUP5 AND SWAP4 POP DUP1 DUP7 AND DUP5 OR SWAP3 POP POP POP SWAP4 SWAP3 POP POP POP JUMP JUMPDEST PUSH0 DUP2 SWAP1 POP SWAP2 SWAP1 POP JUMP JUMPDEST PUSH0 PUSH2 0x9EC PUSH2 0x9E7 PUSH2 0x9E2 DUP5 PUSH2 0x411 JUMP JUMPDEST PUSH2 0x9C9 JUMP JUMPDEST PUSH2 0x411 JUMP JUMPDEST SWAP1 POP SWAP2 SWAP1 POP JUMP JUMPDEST PUSH0 DUP2 SWAP1 POP SWAP2 SWAP1 POP JUMP JUMPDEST PUSH2 0xA05 DUP4 PUSH2 0x9D2 JUMP JUMPDEST PUSH2 0xA19 PUSH2 0xA11 DUP3 PUSH2 0x9F3 JUMP JUMPDEST DUP5 DUP5 SLOAD PUSH2 0x978 JUMP JUMPDEST DUP3 SSTORE POP POP POP POP JUMP JUMPDEST PUSH0 PUSH0 SWAP1 POP SWAP1 JUMP JUMPDEST PUSH2 0xA30 PUSH2 0xA21 JUMP JUMPDEST PUSH2 0xA3B DUP2 DUP5 DUP5 PUSH2 0x9FC JUMP JUMPDEST POP POP POP JUMP JUMPDEST JUMPDEST DUP2 DUP2 LT ISZERO PUSH2 0xA5E JUMPI PUSH2 0xA53 PUSH0 DUP3 PUSH2 0xA28 JUMP JUMPDEST PUSH1 0x1 DUP2 ADD SWAP1 POP PUSH2 0xA41 JUMP JUMPDEST POP POP JUMP JUMPDEST PUSH1 0x1F DUP3 GT ISZERO PUSH2 0xAA3 JUMPI PUSH2 0xA74 DUP2 PUSH2 0x94B JUMP JUMPDEST PUSH2 0xA7D DUP5 PUSH2 0x95D JUMP JUMPDEST DUP2 ADD PUSH1 0x20 DUP6 LT ISZERO PUSH2 0xA8C JUMPI DUP2 SWAP1 POP JUMPDEST PUSH2 0xAA0 PUSH2 0xA98 DUP6 PUSH2 0x95D JUMP JUMPDEST DUP4 ADD DUP3 PUSH2 0xA40 JUMP JUMPDEST POP POP JUMPDEST POP POP POP JUMP JUMPDEST PUSH0 DUP3 DUP3 SHR SWAP1 POP SWAP3 SWAP2 POP POP JUMP JUMPDEST PUSH0 PUSH2 0xAC3 PUSH0 NOT DUP5 PUSH1 0x8 MUL PUSH2 0xAA8 JUMP JUMPDEST NOT DUP1 DUP4 AND SWAP2 POP POP SWAP3 SWAP2 POP POP JUMP JUMPDEST PUSH0 PUSH2 0xADB DUP4 DUP4 PUSH2 0xAB4 JUMP JUMPDEST SWAP2 POP DUP3 PUSH1 0x2 MUL DUP3 OR SWAP1 POP SWAP3 SWAP2 POP POP JUMP JUMPDEST PUSH2 0xAF4 DUP3 PUSH2 0x62B JUMP JUMPDEST PUSH8 0xFFFFFFFFFFFFFFFF DUP2 GT ISZERO PUSH2 0xB0D JUMPI PUSH2 0xB0C PUSH2 0x46B JUMP JUMPDEST JUMPDEST PUSH2 0xB17 DUP3 SLOAD PUSH2 0x91B JUMP JUMPDEST PUSH2 0xB22 DUP3 DUP3 DUP6 PUSH2 0xA62 JUMP JUMPDEST PUSH0 PUSH1 0x20 SWAP1 POP PUSH1 0x1F DUP4 GT PUSH1 0x1 DUP2 EQ PUSH2 0xB53 JUMPI PUSH0 DUP5 ISZERO PUSH2 0xB41 JUMPI DUP3 DUP8 ADD MLOAD SWAP1 POP JUMPDEST PUSH2 0xB4B DUP6 DUP3 PUSH2 0xAD0 JUMP JUMPDEST DUP7 SSTORE POP PUSH2 0xBB2 JUMP JUMPDEST PUSH1 0x1F NOT DUP5 AND PUSH2 0xB61 DUP7 PUSH2 0x94B JUMP JUMPDEST PUSH0 JUMPDEST DUP3 DUP2 LT ISZERO PUSH2 0xB88 JUMPI DUP5 DUP10 ADD MLOAD DUP3 SSTORE PUSH1 0x1 DUP3 ADD SWAP2 POP PUSH1 0x20 DUP6 ADD SWAP5 POP PUSH1 0x20 DUP2 ADD SWAP1 POP PUSH2 0xB63 JUMP JUMPDEST DUP7 DUP4 LT ISZERO PUSH2 0xBA5 JUMPI DUP5 DUP10 ADD MLOAD PUSH2 0xBA1 PUSH1 0x1F DUP10 AND DUP3 PUSH2 0xAB4 JUMP JUMPDEST DUP4 SSTORE POP JUMPDEST PUSH1 0x1 PUSH1 0x2 DUP9 MUL ADD DUP9 SSTORE POP POP POP JUMPDEST POP POP POP POP POP POP JUMP INVALID LOG2 PUSH5 0x6970667358 0x22 SLT KECCAK256 AND PUSH25 0x2D9FCC3D82044F006D660CFF7F4C8DA4A8EB9EC16367E019B9 0x2A 0xD4 DUP15 0xDC XOR PUSH5 0x736F6C6343 STOP ADDMOD 0x1E STOP CALLER "
				},
				"gasEstimates": {
					"creation": {
						"codeDepositCost": "611200",
						"executionCost": "643",
						"totalCost": "611843"
					},
					"external": {
						"addName(string)": "infinite",
						"count()": "2417",
						"getNames()": "infinite",
						"hasAdded(address)": "2899",
						"names(uint256)": "infinite"
					}
				},
				"methodIdentifiers": {
					"addName(string)": "11456b47",
					"count()": "06661abd",
					"getNames()": "cd838f0f",
					"hasAdded(address)": "e3874b29",
					"names(uint256)": "4622ab03"
				}
			},
			"storageLayout": {
				"storage": [
					{
						"astId": 5,
						"contract": "modulo2/muro.sol:Wall",
						"label": "names",
						"offset": 0,
						"slot": "0",
						"type": "t_array(t_string_storage)dyn_storage"
					},
					{
						"astId": 9,
						"contract": "modulo2/muro.sol:Wall",
						"label": "hasAdded",
						"offset": 0,
						"slot": "1",
						"type": "t_mapping(t_address,t_bool)"
					}
				],
				"types": {
					"t_address": {
						"encoding": "inplace",
						"label": "address",
						"numberOfBytes": "20"
					},
					"t_array(t_string_storage)dyn_storage": {
						"base": "t_string_storage",
						"encoding": "dynamic_array",
						"label": "string[]",
						"numberOfBytes": "32"
					},
					"t_bool": {
						"encoding": "inplace",
						"label": "bool",
						"numberOfBytes": "1"
					},
					"t_mapping(t_address,t_bool)": {
						"encoding": "mapping",
						"key": "t_address",
						"label": "mapping(address => bool)",
						"numberOfBytes": "32",
						"value": "t_bool"
					},
					"t_string_storage": {
						"encoding": "bytes",
						"label": "string",
						"numberOfBytes": "32"
					}
				}
			},
			"userdoc": {
				"kind": "user",
				"methods": {
					"addName(string)": {
						"notice": "Agrega tu nombre al muro. Solo una vez por dirección."
					},
					"count()": {
						"notice": "Devuelve cuántos nombres hay en el muro"
					},
					"getNames()": {
						"notice": "Devuelve todos los nombres agregados"
					}
				},
				"version": 1
			}
		}
	}
}