{
	"contracts/kipu_bank.sol": {
		"KipuBank": {
			"abi": [
				{
					"inputs": [
						{
							"internalType": "uint256",
							"name": "_bankCap",
							"type": "uint256"
						},
						{
							"internalType": "uint256",
							"name": "_maxWithdrawalPerTx",
							"type": "uint256"
						}
					],
					"stateMutability": "nonpayable",
					"type": "constructor"
				},
				{
					"inputs": [
						{
							"internalType": "uint256",
							"name": "attempted",
							"type": "uint256"
						},
						{
							"internalType": "uint256",
							"name": "bankCap",
							"type": "uint256"
						}
					],
					"name": "ExceedsBankCap",
					"type": "error"
				},
				{
					"inputs": [
						{
							"internalType": "uint256",
							"name": "attempted",
							"type": "uint256"
						},
						{
							"internalType": "uint256",
							"name": "maxAllowed",
							"type": "uint256"
						}
					],
					"name": "ExceedsMaxWithdrawal",
					"type": "error"
				},
				{
					"inputs": [
						{
							"internalType": "uint256",
							"name": "available",
							"type": "uint256"
						},
						{
							"internalType": "uint256",
							"name": "required",
							"type": "uint256"
						}
					],
					"name": "InsufficientBalance",
					"type": "error"
				},
				{
					"inputs": [
						{
							"internalType": "address",
							"name": "caller",
							"type": "address"
						}
					],
					"name": "NotOwner",
					"type": "error"
				},
				{
					"inputs": [],
					"name": "ReentrantCall",
					"type": "error"
				},
				{
					"inputs": [
						{
							"internalType": "address",
							"name": "to",
							"type": "address"
						},
						{
							"internalType": "uint256",
							"name": "amount",
							"type": "uint256"
						}
					],
					"name": "TransferFailed",
					"type": "error"
				},
				{
					"inputs": [],
					"name": "ZeroAddress",
					"type": "error"
				},
				{
					"inputs": [],
					"name": "ZeroAmount",
					"type": "error"
				},
				{
					"anonymous": false,
					"inputs": [
						{
							"indexed": true,
							"internalType": "address",
							"name": "user",
							"type": "address"
						},
						{
							"indexed": false,
							"internalType": "uint256",
							"name": "amount",
							"type": "uint256"
						},
						{
							"indexed": false,
							"internalType": "uint256",
							"name": "newBalance",
							"type": "uint256"
						},
						{
							"indexed": false,
							"internalType": "uint256",
							"name": "depositIndex",
							"type": "uint256"
						}
					],
					"name": "Deposit",
					"type": "event"
				},
				{
					"anonymous": false,
					"inputs": [
						{
							"indexed": true,
							"internalType": "address",
							"name": "owner",
							"type": "address"
						},
						{
							"indexed": false,
							"internalType": "uint256",
							"name": "amount",
							"type": "uint256"
						},
						{
							"indexed": false,
							"internalType": "uint256",
							"name": "bankBalanceAfter",
							"type": "uint256"
						}
					],
					"name": "OwnerWithdrawal",
					"type": "event"
				},
				{
					"anonymous": false,
					"inputs": [
						{
							"indexed": true,
							"internalType": "address",
							"name": "user",
							"type": "address"
						},
						{
							"indexed": false,
							"internalType": "uint256",
							"name": "amount",
							"type": "uint256"
						},
						{
							"indexed": false,
							"internalType": "uint256",
							"name": "newBalance",
							"type": "uint256"
						},
						{
							"indexed": false,
							"internalType": "uint256",
							"name": "withdrawalIndex",
							"type": "uint256"
						}
					],
					"name": "Withdrawal",
					"type": "event"
				},
				{
					"stateMutability": "payable",
					"type": "fallback"
				},
				{
					"inputs": [],
					"name": "VERSION",
					"outputs": [
						{
							"internalType": "string",
							"name": "",
							"type": "string"
						}
					],
					"stateMutability": "view",
					"type": "function"
				},
				{
					"inputs": [],
					"name": "bankCap",
					"outputs": [
						{
							"internalType": "uint256",
							"name": "",
							"type": "uint256"
						}
					],
					"stateMutability": "view",
					"type": "function"
				},
				{
					"inputs": [],
					"name": "deposit",
					"outputs": [],
					"stateMutability": "payable",
					"type": "function"
				},
				{
					"inputs": [
						{
							"internalType": "address",
							"name": "user",
							"type": "address"
						}
					],
					"name": "getBalance",
					"outputs": [
						{
							"internalType": "uint256",
							"name": "",
							"type": "uint256"
						}
					],
					"stateMutability": "view",
					"type": "function"
				},
				{
					"inputs": [],
					"name": "maxWithdrawalPerTx",
					"outputs": [
						{
							"internalType": "uint256",
							"name": "",
							"type": "uint256"
						}
					],
					"stateMutability": "view",
					"type": "function"
				},
				{
					"inputs": [],
					"name": "owner",
					"outputs": [
						{
							"internalType": "address",
							"name": "",
							"type": "address"
						}
					],
					"stateMutability": "view",
					"type": "function"
				},
				{
					"inputs": [
						{
							"internalType": "uint256",
							"name": "amount",
							"type": "uint256"
						}
					],
					"name": "ownerWithdrawFromBank",
					"outputs": [],
					"stateMutability": "nonpayable",
					"type": "function"
				},
				{
					"inputs": [],
					"name": "summary",
					"outputs": [
						{
							"internalType": "uint256",
							"name": "bankBalance_",
							"type": "uint256"
						},
						{
							"internalType": "uint256",
							"name": "deposits_",
							"type": "uint256"
						},
						{
							"internalType": "uint256",
							"name": "withdrawals_",
							"type": "uint256"
						},
						{
							"internalType": "uint256",
							"name": "cap_",
							"type": "uint256"
						},
						{
							"internalType": "uint256",
							"name": "maxWithdraw_",
							"type": "uint256"
						}
					],
					"stateMutability": "view",
					"type": "function"
				},
				{
					"inputs": [],
					"name": "totalBankBalance",
					"outputs": [
						{
							"internalType": "uint256",
							"name": "",
							"type": "uint256"
						}
					],
					"stateMutability": "view",
					"type": "function"
				},
				{
					"inputs": [],
					"name": "totalDepositsCount",
					"outputs": [
						{
							"internalType": "uint256",
							"name": "",
							"type": "uint256"
						}
					],
					"stateMutability": "view",
					"type": "function"
				},
				{
					"inputs": [],
					"name": "totalWithdrawalsCount",
					"outputs": [
						{
							"internalType": "uint256",
							"name": "",
							"type": "uint256"
						}
					],
					"stateMutability": "view",
					"type": "function"
				},
				{
					"inputs": [
						{
							"internalType": "address",
							"name": "newOwner",
							"type": "address"
						}
					],
					"name": "transferOwnership",
					"outputs": [],
					"stateMutability": "nonpayable",
					"type": "function"
				},
				{
					"inputs": [
						{
							"internalType": "address",
							"name": "",
							"type": "address"
						}
					],
					"name": "userDepositsCount",
					"outputs": [
						{
							"internalType": "uint256",
							"name": "",
							"type": "uint256"
						}
					],
					"stateMutability": "view",
					"type": "function"
				},
				{
					"inputs": [
						{
							"internalType": "address",
							"name": "",
							"type": "address"
						}
					],
					"name": "userWithdrawalsCount",
					"outputs": [
						{
							"internalType": "uint256",
							"name": "",
							"type": "uint256"
						}
					],
					"stateMutability": "view",
					"type": "function"
				},
				{
					"inputs": [
						{
							"internalType": "uint256",
							"name": "amount",
							"type": "uint256"
						}
					],
					"name": "withdraw",
					"outputs": [],
					"stateMutability": "nonpayable",
					"type": "function"
				},
				{
					"stateMutability": "payable",
					"type": "receive"
				}
			],
			"devdoc": {
				"kind": "dev",
				"methods": {
					"constructor": {
						"params": {
							"_bankCap": "Límite máximo de ETH del banco",
							"_maxWithdrawalPerTx": "Máximo retiro por transacción"
						}
					},
					"getBalance(address)": {
						"params": {
							"user": "Dirección a consultar"
						},
						"returns": {
							"_0": "Balance del usuario en wei"
						}
					},
					"ownerWithdrawFromBank(uint256)": {
						"details": "Esta función permite al owner extraer cualquier cantidad del balance total,      incluidos fondos depositados por otros usuarios. Esto implica un riesgo para      los depositantes: el owner puede vaciar el banco en cualquier momento.",
						"params": {
							"amount": "Monto a retirar"
						}
					},
					"summary()": {
						"returns": {
							"bankBalance_": "Balance total",
							"cap_": "Límite del banco",
							"deposits_": "Total de depósitos",
							"maxWithdraw_": "Límite de retiro por operación",
							"withdrawals_": "Total de retiros"
						}
					},
					"transferOwnership(address)": {
						"params": {
							"newOwner": "Nueva dirección de owner"
						}
					},
					"withdraw(uint256)": {
						"params": {
							"amount": "Cantidad a retirar en wei"
						}
					}
				},
				"stateVariables": {
					"_ENTERED": {
						"details": "Valor de entrada para control de reentrancy"
					},
					"_NOT_ENTERED": {
						"details": "Valor por defecto para control de reentrancy"
					},
					"_status": {
						"details": "Estado para control de reentrancy"
					}
				},
				"title": "KipuBank - Banco simple para depósitos y retiros de ETH con límites y seguridad",
				"version": 1
			},
			"evm": {
				"assembly": "    /* \"contracts/kipu_bank.sol\":150:8118  contract KipuBank {... */\n  mstore(0x40, 0xc0)\n    /* \"contracts/kipu_bank.sol\":3485:3689  constructor(uint256 _bankCap, uint256 _maxWithdrawalPerTx) {... */\n  callvalue\n  dup1\n  iszero\n  tag_1\n  jumpi\n  revert(0x00, 0x00)\ntag_1:\n  pop\n  mload(0x40)\n  sub(codesize, bytecodeSize)\n  dup1\n  bytecodeSize\n  dup4\n  codecopy\n  dup2\n  dup2\n  add\n  0x40\n  mstore\n  dup2\n  add\n  swap1\n  tag_2\n  swap2\n  swap1\n  tag_3\n  jump\t// in\ntag_2:\n    /* \"contracts/kipu_bank.sol\":3562:3572  msg.sender */\n  caller\n    /* \"contracts/kipu_bank.sol\":3554:3559  owner */\n  0x00\n  0x00\n    /* \"contracts/kipu_bank.sol\":3554:3572  owner = msg.sender */\n  0x0100\n  exp\n  dup2\n  sload\n  dup2\n  0xffffffffffffffffffffffffffffffffffffffff\n  mul\n  not\n  and\n  swap1\n  dup4\n  0xffffffffffffffffffffffffffffffffffffffff\n  and\n  mul\n  or\n  swap1\n  sstore\n  pop\n    /* \"contracts/kipu_bank.sol\":3592:3600  _bankCap */\n  dup2\n    /* \"contracts/kipu_bank.sol\":3582:3600  bankCap = _bankCap */\n  0x80\n  dup2\n  dup2\n  mstore\n  pop\n  pop\n    /* \"contracts/kipu_bank.sol\":3631:3650  _maxWithdrawalPerTx */\n  dup1\n    /* \"contracts/kipu_bank.sol\":3610:3650  maxWithdrawalPerTx = _maxWithdrawalPerTx */\n  0xa0\n  dup2\n  dup2\n  mstore\n  pop\n  pop\n    /* \"contracts/kipu_bank.sol\":2822:2823  1 */\n  0x01\n    /* \"contracts/kipu_bank.sol\":3660:3667  _status */\n  0x07\n  0x00\n    /* \"contracts/kipu_bank.sol\":3660:3682  _status = _NOT_ENTERED */\n  0x0100\n  exp\n  dup2\n  sload\n  dup2\n  0xff\n  mul\n  not\n  and\n  swap1\n  dup4\n  0xff\n  and\n  mul\n  or\n  swap1\n  sstore\n  pop\n    /* \"contracts/kipu_bank.sol\":3485:3689  constructor(uint256 _bankCap, uint256 _maxWithdrawalPerTx) {... */\n  pop\n  pop\n    /* \"contracts/kipu_bank.sol\":150:8118  contract KipuBank {... */\n  jump(tag_6)\n    /* \"#utility.yul\":88:205   */\ntag_8:\n    /* \"#utility.yul\":197:198   */\n  0x00\n    /* \"#utility.yul\":194:195   */\n  0x00\n    /* \"#utility.yul\":187:199   */\n  revert\n    /* \"#utility.yul\":334:411   */\ntag_10:\n    /* \"#utility.yul\":371:378   */\n  0x00\n    /* \"#utility.yul\":400:405   */\n  dup2\n    /* \"#utility.yul\":389:405   */\n  swap1\n  pop\n    /* \"#utility.yul\":334:411   */\n  swap2\n  swap1\n  pop\n  jump\t// out\n    /* \"#utility.yul\":417:539   */\ntag_11:\n    /* \"#utility.yul\":490:514   */\n  tag_19\n    /* \"#utility.yul\":508:513   */\n  dup2\n    /* \"#utility.yul\":490:514   */\n  tag_10\n  jump\t// in\ntag_19:\n    /* \"#utility.yul\":483:488   */\n  dup2\n    /* \"#utility.yul\":480:515   */\n  eq\n    /* \"#utility.yul\":470:533   */\n  tag_20\n  jumpi\n    /* \"#utility.yul\":529:530   */\n  0x00\n    /* \"#utility.yul\":526:527   */\n  0x00\n    /* \"#utility.yul\":519:531   */\n  revert\n    /* \"#utility.yul\":470:533   */\ntag_20:\n    /* \"#utility.yul\":417:539   */\n  pop\n  jump\t// out\n    /* \"#utility.yul\":545:688   */\ntag_12:\n    /* \"#utility.yul\":602:607   */\n  0x00\n    /* \"#utility.yul\":633:639   */\n  dup2\n    /* \"#utility.yul\":627:640   */\n  mload\n    /* \"#utility.yul\":618:640   */\n  swap1\n  pop\n    /* \"#utility.yul\":649:682   */\n  tag_22\n    /* \"#utility.yul\":676:681   */\n  dup2\n    /* \"#utility.yul\":649:682   */\n  tag_11\n  jump\t// in\ntag_22:\n    /* \"#utility.yul\":545:688   */\n  swap3\n  swap2\n  pop\n  pop\n  jump\t// out\n    /* \"#utility.yul\":694:1201   */\ntag_3:\n    /* \"#utility.yul\":773:779   */\n  0x00\n    /* \"#utility.yul\":781:787   */\n  0x00\n    /* \"#utility.yul\":830:832   */\n  0x40\n    /* \"#utility.yul\":818:827   */\n  dup4\n    /* \"#utility.yul\":809:816   */\n  dup6\n    /* \"#utility.yul\":805:828   */\n  sub\n    /* \"#utility.yul\":801:833   */\n  slt\n    /* \"#utility.yul\":798:917   */\n  iszero\n  tag_24\n  jumpi\n    /* \"#utility.yul\":836:915   */\n  tag_25\n  tag_8\n  jump\t// in\ntag_25:\n    /* \"#utility.yul\":798:917   */\ntag_24:\n    /* \"#utility.yul\":956:957   */\n  0x00\n    /* \"#utility.yul\":981:1045   */\n  tag_26\n    /* \"#utility.yul\":1037:1044   */\n  dup6\n    /* \"#utility.yul\":1028:1034   */\n  dup3\n    /* \"#utility.yul\":1017:1026   */\n  dup7\n    /* \"#utility.yul\":1013:1035   */\n  add\n    /* \"#utility.yul\":981:1045   */\n  tag_12\n  jump\t// in\ntag_26:\n    /* \"#utility.yul\":971:1045   */\n  swap3\n  pop\n    /* \"#utility.yul\":927:1055   */\n  pop\n    /* \"#utility.yul\":1094:1096   */\n  0x20\n    /* \"#utility.yul\":1120:1184   */\n  tag_27\n    /* \"#utility.yul\":1176:1183   */\n  dup6\n    /* \"#utility.yul\":1167:1173   */\n  dup3\n    /* \"#utility.yul\":1156:1165   */\n  dup7\n    /* \"#utility.yul\":1152:1174   */\n  add\n    /* \"#utility.yul\":1120:1184   */\n  tag_12\n  jump\t// in\ntag_27:\n    /* \"#utility.yul\":1110:1184   */\n  swap2\n  pop\n    /* \"#utility.yul\":1065:1194   */\n  pop\n    /* \"#utility.yul\":694:1201   */\n  swap3\n  pop\n  swap3\n  swap1\n  pop\n  jump\t// out\n    /* \"contracts/kipu_bank.sol\":150:8118  contract KipuBank {... */\ntag_6:\n  mload(0x80)\n  mload(0xa0)\n  codecopy(0x00, dataOffset(sub_0), dataSize(sub_0))\n  0x00\n  assignImmutable(\"0x6b3e710f3089a74ecb6b0f5948e5ff07a3db6ba4da475d2be17624ba96b95b\")\n  0x00\n  assignImmutable(\"0xf928ede1c39c5595ff22fe845412ee05a93eeaa584f8ef0c46b5eeb14cb99ec8\")\n  return(0x00, dataSize(sub_0))\nstop\n\nsub_0: assembly {\n        /* \"contracts/kipu_bank.sol\":150:8118  contract KipuBank {... */\n      mstore(0x40, 0x80)\n      jumpi(tag_1, lt(calldatasize, 0x04))\n      shr(0xe0, calldataload(0x00))\n      dup1\n      0xd0e30db0\n      gt\n      tag_18\n      jumpi\n      dup1\n      0xecbea24d\n      gt\n      tag_19\n      jumpi\n      dup1\n      0xecbea24d\n      eq\n      tag_14\n      jumpi\n      dup1\n      0xf2fde38b\n      eq\n      tag_15\n      jumpi\n      dup1\n      0xf8b2cb4f\n      eq\n      tag_16\n      jumpi\n      dup1\n      0xffa1ad74\n      eq\n      tag_17\n      jumpi\n      jump(tag_2)\n    tag_19:\n      dup1\n      0xd0e30db0\n      eq\n      tag_10\n      jumpi\n      dup1\n      0xd369e33c\n      eq\n      tag_11\n      jumpi\n      dup1\n      0xd8e426a8\n      eq\n      tag_12\n      jumpi\n      dup1\n      0xe4813821\n      eq\n      tag_13\n      jumpi\n      jump(tag_2)\n    tag_18:\n      dup1\n      0x4dab4207\n      gt\n      tag_20\n      jumpi\n      dup1\n      0x4dab4207\n      eq\n      tag_6\n      jumpi\n      dup1\n      0x8da5cb5b\n      eq\n      tag_7\n      jumpi\n      dup1\n      0xb16a867c\n      eq\n      tag_8\n      jumpi\n      dup1\n      0xc847119d\n      eq\n      tag_9\n      jumpi\n      jump(tag_2)\n    tag_20:\n      dup1\n      0x0770e571\n      eq\n      tag_3\n      jumpi\n      dup1\n      0x1977e938\n      eq\n      tag_4\n      jumpi\n      dup1\n      0x2e1a7d4d\n      eq\n      tag_5\n      jumpi\n      jump(tag_2)\n    tag_1:\n      jumpi(tag_2, calldatasize)\n        /* \"contracts/kipu_bank.sol\":2920:2921  2 */\n      0x02\n        /* \"contracts/kipu_bank.sol\":3010:3029  _status == _ENTERED */\n      0xff\n      and\n        /* \"contracts/kipu_bank.sol\":3010:3017  _status */\n      0x07\n      0x00\n      swap1\n      sload\n      swap1\n      0x0100\n      exp\n      swap1\n      div\n      0xff\n      and\n        /* \"contracts/kipu_bank.sol\":3010:3029  _status == _ENTERED */\n      0xff\n      and\n      sub\n        /* \"contracts/kipu_bank.sol\":3006:3053  if (_status == _ENTERED) revert ReentrantCall() */\n      tag_23\n      jumpi\n        /* \"contracts/kipu_bank.sol\":3038:3053  ReentrantCall() */\n      mload(0x40)\n      0x37ed32e800000000000000000000000000000000000000000000000000000000\n      dup2\n      mstore\n      0x04\n      add\n      mload(0x40)\n      dup1\n      swap2\n      sub\n      swap1\n      revert\n        /* \"contracts/kipu_bank.sol\":3006:3053  if (_status == _ENTERED) revert ReentrantCall() */\n    tag_23:\n        /* \"contracts/kipu_bank.sol\":2920:2921  2 */\n      0x02\n        /* \"contracts/kipu_bank.sol\":3063:3070  _status */\n      0x07\n      0x00\n        /* \"contracts/kipu_bank.sol\":3063:3081  _status = _ENTERED */\n      0x0100\n      exp\n      dup2\n      sload\n      dup2\n      0xff\n      mul\n      not\n      and\n      swap1\n      dup4\n      0xff\n      and\n      mul\n      or\n      swap1\n      sstore\n      pop\n        /* \"contracts/kipu_bank.sol\":7829:7868  _internalDeposit(msg.sender, msg.value) */\n      tag_25\n        /* \"contracts/kipu_bank.sol\":7846:7856  msg.sender */\n      caller\n        /* \"contracts/kipu_bank.sol\":7858:7867  msg.value */\n      callvalue\n        /* \"contracts/kipu_bank.sol\":7829:7845  _internalDeposit */\n      tag_26\n        /* \"contracts/kipu_bank.sol\":7829:7868  _internalDeposit(msg.sender, msg.value) */\n      jump\t// in\n    tag_25:\n        /* \"contracts/kipu_bank.sol\":2822:2823  1 */\n      0x01\n        /* \"contracts/kipu_bank.sol\":3102:3109  _status */\n      0x07\n      0x00\n        /* \"contracts/kipu_bank.sol\":3102:3124  _status = _NOT_ENTERED */\n      0x0100\n      exp\n      dup2\n      sload\n      dup2\n      0xff\n      mul\n      not\n      and\n      swap1\n      dup4\n      0xff\n      and\n      mul\n      or\n      swap1\n      sstore\n      stop\n        /* \"contracts/kipu_bank.sol\":150:8118  contract KipuBank {... */\n    tag_2:\n        /* \"contracts/kipu_bank.sol\":2920:2921  2 */\n      0x02\n        /* \"contracts/kipu_bank.sol\":3010:3029  _status == _ENTERED */\n      0xff\n      and\n        /* \"contracts/kipu_bank.sol\":3010:3017  _status */\n      0x07\n      0x00\n      swap1\n      sload\n      swap1\n      0x0100\n      exp\n      swap1\n      div\n      0xff\n      and\n        /* \"contracts/kipu_bank.sol\":3010:3029  _status == _ENTERED */\n      0xff\n      and\n      sub\n        /* \"contracts/kipu_bank.sol\":3006:3053  if (_status == _ENTERED) revert ReentrantCall() */\n      tag_29\n      jumpi\n        /* \"contracts/kipu_bank.sol\":3038:3053  ReentrantCall() */\n      mload(0x40)\n      0x37ed32e800000000000000000000000000000000000000000000000000000000\n      dup2\n      mstore\n      0x04\n      add\n      mload(0x40)\n      dup1\n      swap2\n      sub\n      swap1\n      revert\n        /* \"contracts/kipu_bank.sol\":3006:3053  if (_status == _ENTERED) revert ReentrantCall() */\n    tag_29:\n        /* \"contracts/kipu_bank.sol\":2920:2921  2 */\n      0x02\n        /* \"contracts/kipu_bank.sol\":3063:3070  _status */\n      0x07\n      0x00\n        /* \"contracts/kipu_bank.sol\":3063:3081  _status = _ENTERED */\n      0x0100\n      exp\n      dup2\n      sload\n      dup2\n      0xff\n      mul\n      not\n      and\n      swap1\n      dup4\n      0xff\n      and\n      mul\n      or\n      swap1\n      sstore\n      pop\n        /* \"contracts/kipu_bank.sol\":8043:8044  0 */\n      0x00\n        /* \"contracts/kipu_bank.sol\":8031:8040  msg.value */\n      callvalue\n        /* \"contracts/kipu_bank.sol\":8031:8044  msg.value > 0 */\n      gt\n        /* \"contracts/kipu_bank.sol\":8027:8110  if (msg.value > 0) {... */\n      iszero\n      tag_31\n      jumpi\n        /* \"contracts/kipu_bank.sol\":8060:8099  _internalDeposit(msg.sender, msg.value) */\n      tag_32\n        /* \"contracts/kipu_bank.sol\":8077:8087  msg.sender */\n      caller\n        /* \"contracts/kipu_bank.sol\":8089:8098  msg.value */\n      callvalue\n        /* \"contracts/kipu_bank.sol\":8060:8076  _internalDeposit */\n      tag_26\n        /* \"contracts/kipu_bank.sol\":8060:8099  _internalDeposit(msg.sender, msg.value) */\n      jump\t// in\n    tag_32:\n        /* \"contracts/kipu_bank.sol\":8027:8110  if (msg.value > 0) {... */\n    tag_31:\n        /* \"contracts/kipu_bank.sol\":2822:2823  1 */\n      0x01\n        /* \"contracts/kipu_bank.sol\":3102:3109  _status */\n      0x07\n      0x00\n        /* \"contracts/kipu_bank.sol\":3102:3124  _status = _NOT_ENTERED */\n      0x0100\n      exp\n      dup2\n      sload\n      dup2\n      0xff\n      mul\n      not\n      and\n      swap1\n      dup4\n      0xff\n      and\n      mul\n      or\n      swap1\n      sstore\n      stop\n        /* \"contracts/kipu_bank.sol\":1758:1794  uint256 public totalWithdrawalsCount */\n    tag_3:\n      callvalue\n      dup1\n      iszero\n      tag_33\n      jumpi\n      revert(0x00, 0x00)\n    tag_33:\n      pop\n      tag_34\n      tag_35\n      jump\t// in\n    tag_34:\n      mload(0x40)\n      tag_36\n      swap2\n      swap1\n      tag_37\n      jump\t// in\n    tag_36:\n      mload(0x40)\n      dup1\n      swap2\n      sub\n      swap1\n      return\n        /* \"contracts/kipu_bank.sol\":1593:1624  uint256 public totalBankBalance */\n    tag_4:\n      callvalue\n      dup1\n      iszero\n      tag_38\n      jumpi\n      revert(0x00, 0x00)\n    tag_38:\n      pop\n      tag_39\n      tag_40\n      jump\t// in\n    tag_39:\n      mload(0x40)\n      tag_41\n      swap2\n      swap1\n      tag_37\n      jump\t// in\n    tag_41:\n      mload(0x40)\n      dup1\n      swap2\n      sub\n      swap1\n      return\n        /* \"contracts/kipu_bank.sol\":4744:5452  function withdraw(uint256 amount) external nonReentrant {... */\n    tag_5:\n      callvalue\n      dup1\n      iszero\n      tag_42\n      jumpi\n      revert(0x00, 0x00)\n    tag_42:\n      pop\n      tag_43\n      0x04\n      dup1\n      calldatasize\n      sub\n      dup2\n      add\n      swap1\n      tag_44\n      swap2\n      swap1\n      tag_45\n      jump\t// in\n    tag_44:\n      tag_46\n      jump\t// in\n    tag_43:\n      stop\n        /* \"contracts/kipu_bank.sol\":1372:1415  uint256 public immutable maxWithdrawalPerTx */\n    tag_6:\n      callvalue\n      dup1\n      iszero\n      tag_47\n      jumpi\n      revert(0x00, 0x00)\n    tag_47:\n      pop\n      tag_48\n      tag_49\n      jump\t// in\n    tag_48:\n      mload(0x40)\n      tag_50\n      swap2\n      swap1\n      tag_37\n      jump\t// in\n    tag_50:\n      mload(0x40)\n      dup1\n      swap2\n      sub\n      swap1\n      return\n        /* \"contracts/kipu_bank.sol\":1526:1546  address public owner */\n    tag_7:\n      callvalue\n      dup1\n      iszero\n      tag_51\n      jumpi\n      revert(0x00, 0x00)\n    tag_51:\n      pop\n      tag_52\n      tag_53\n      jump\t// in\n    tag_52:\n      mload(0x40)\n      tag_54\n      swap2\n      swap1\n      tag_55\n      jump\t// in\n    tag_54:\n      mload(0x40)\n      dup1\n      swap2\n      sub\n      swap1\n      return\n        /* \"contracts/kipu_bank.sol\":7258:7611  function summary()... */\n    tag_8:\n      callvalue\n      dup1\n      iszero\n      tag_56\n      jumpi\n      revert(0x00, 0x00)\n    tag_56:\n      pop\n      tag_57\n      tag_58\n      jump\t// in\n    tag_57:\n      mload(0x40)\n      tag_59\n      swap6\n      swap5\n      swap4\n      swap3\n      swap2\n      swap1\n      tag_60\n      jump\t// in\n    tag_59:\n      mload(0x40)\n      dup1\n      swap2\n      sub\n      swap1\n      return\n        /* \"contracts/kipu_bank.sol\":1676:1709  uint256 public totalDepositsCount */\n    tag_9:\n      callvalue\n      dup1\n      iszero\n      tag_61\n      jumpi\n      revert(0x00, 0x00)\n    tag_61:\n      pop\n      tag_62\n      tag_63\n      jump\t// in\n    tag_62:\n      mload(0x40)\n      tag_64\n      swap2\n      swap1\n      tag_37\n      jump\t// in\n    tag_64:\n      mload(0x40)\n      dup1\n      swap2\n      sub\n      swap1\n      return\n        /* \"contracts/kipu_bank.sol\":4511:4616  function deposit() external payable nonReentrant {... */\n    tag_10:\n      tag_65\n      tag_66\n      jump\t// in\n    tag_65:\n      stop\n        /* \"contracts/kipu_bank.sol\":1942:1994  mapping(address => uint256) public userDepositsCount */\n    tag_11:\n      callvalue\n      dup1\n      iszero\n      tag_67\n      jumpi\n      revert(0x00, 0x00)\n    tag_67:\n      pop\n      tag_68\n      0x04\n      dup1\n      calldatasize\n      sub\n      dup2\n      add\n      swap1\n      tag_69\n      swap2\n      swap1\n      tag_70\n      jump\t// in\n    tag_69:\n      tag_71\n      jump\t// in\n    tag_68:\n      mload(0x40)\n      tag_72\n      swap2\n      swap1\n      tag_37\n      jump\t// in\n    tag_72:\n      mload(0x40)\n      dup1\n      swap2\n      sub\n      swap1\n      return\n        /* \"contracts/kipu_bank.sol\":5916:6370  function ownerWithdrawFromBank(uint256 amount) external onlyOwner nonReentrant {... */\n    tag_12:\n      callvalue\n      dup1\n      iszero\n      tag_73\n      jumpi\n      revert(0x00, 0x00)\n    tag_73:\n      pop\n      tag_74\n      0x04\n      dup1\n      calldatasize\n      sub\n      dup2\n      add\n      swap1\n      tag_75\n      swap2\n      swap1\n      tag_45\n      jump\t// in\n    tag_75:\n      tag_76\n      jump\t// in\n    tag_74:\n      stop\n        /* \"contracts/kipu_bank.sol\":2048:2103  mapping(address => uint256) public userWithdrawalsCount */\n    tag_13:\n      callvalue\n      dup1\n      iszero\n      tag_77\n      jumpi\n      revert(0x00, 0x00)\n    tag_77:\n      pop\n      tag_78\n      0x04\n      dup1\n      calldatasize\n      sub\n      dup2\n      add\n      swap1\n      tag_79\n      swap2\n      swap1\n      tag_70\n      jump\t// in\n    tag_79:\n      tag_80\n      jump\t// in\n    tag_78:\n      mload(0x40)\n      tag_81\n      swap2\n      swap1\n      tag_37\n      jump\t// in\n    tag_81:\n      mload(0x40)\n      dup1\n      swap2\n      sub\n      swap1\n      return\n        /* \"contracts/kipu_bank.sol\":1272:1304  uint256 public immutable bankCap */\n    tag_14:\n      callvalue\n      dup1\n      iszero\n      tag_82\n      jumpi\n      revert(0x00, 0x00)\n    tag_82:\n      pop\n      tag_83\n      tag_84\n      jump\t// in\n    tag_83:\n      mload(0x40)\n      tag_85\n      swap2\n      swap1\n      tag_37\n      jump\t// in\n    tag_85:\n      mload(0x40)\n      dup1\n      swap2\n      sub\n      swap1\n      return\n        /* \"contracts/kipu_bank.sol\":6497:6652  function transferOwnership(address newOwner) external onlyOwner {... */\n    tag_15:\n      callvalue\n      dup1\n      iszero\n      tag_86\n      jumpi\n      revert(0x00, 0x00)\n    tag_86:\n      pop\n      tag_87\n      0x04\n      dup1\n      calldatasize\n      sub\n      dup2\n      add\n      swap1\n      tag_88\n      swap2\n      swap1\n      tag_70\n      jump\t// in\n    tag_88:\n      tag_89\n      jump\t// in\n    tag_87:\n      stop\n        /* \"contracts/kipu_bank.sol\":6859:6963  function getBalance(address user) external view returns (uint256) {... */\n    tag_16:\n      callvalue\n      dup1\n      iszero\n      tag_90\n      jumpi\n      revert(0x00, 0x00)\n    tag_90:\n      pop\n      tag_91\n      0x04\n      dup1\n      calldatasize\n      sub\n      dup2\n      add\n      swap1\n      tag_92\n      swap2\n      swap1\n      tag_70\n      jump\t// in\n    tag_92:\n      tag_93\n      jump\t// in\n    tag_91:\n      mload(0x40)\n      tag_94\n      swap2\n      swap1\n      tag_37\n      jump\t// in\n    tag_94:\n      mload(0x40)\n      dup1\n      swap2\n      sub\n      swap1\n      return\n        /* \"contracts/kipu_bank.sol\":1156:1202  string public constant VERSION = \"KipuBank v1\" */\n    tag_17:\n      callvalue\n      dup1\n      iszero\n      tag_95\n      jumpi\n      revert(0x00, 0x00)\n    tag_95:\n      pop\n      tag_96\n      tag_97\n      jump\t// in\n    tag_96:\n      mload(0x40)\n      tag_98\n      swap2\n      swap1\n      tag_99\n      jump\t// in\n    tag_98:\n      mload(0x40)\n      dup1\n      swap2\n      sub\n      swap1\n      return\n        /* \"contracts/kipu_bank.sol\":3937:4392  function _internalDeposit(address user, uint256 amount) private {... */\n    tag_26:\n        /* \"contracts/kipu_bank.sol\":4025:4026  0 */\n      0x00\n        /* \"contracts/kipu_bank.sol\":4015:4021  amount */\n      dup2\n        /* \"contracts/kipu_bank.sol\":4015:4026  amount == 0 */\n      sub\n        /* \"contracts/kipu_bank.sol\":4011:4047  if (amount == 0) revert ZeroAmount() */\n      tag_101\n      jumpi\n        /* \"contracts/kipu_bank.sol\":4035:4047  ZeroAmount() */\n      mload(0x40)\n      0x1f2a200500000000000000000000000000000000000000000000000000000000\n      dup2\n      mstore\n      0x04\n      add\n      mload(0x40)\n      dup1\n      swap2\n      sub\n      swap1\n      revert\n        /* \"contracts/kipu_bank.sol\":4011:4047  if (amount == 0) revert ZeroAmount() */\n    tag_101:\n        /* \"contracts/kipu_bank.sol\":4057:4073  uint256 newTotal */\n      0x00\n        /* \"contracts/kipu_bank.sol\":4095:4101  amount */\n      dup2\n        /* \"contracts/kipu_bank.sol\":4076:4092  totalBankBalance */\n      sload(0x01)\n        /* \"contracts/kipu_bank.sol\":4076:4101  totalBankBalance + amount */\n      tag_102\n      swap2\n      swap1\n      tag_103\n      jump\t// in\n    tag_102:\n        /* \"contracts/kipu_bank.sol\":4057:4101  uint256 newTotal = totalBankBalance + amount */\n      swap1\n      pop\n        /* \"contracts/kipu_bank.sol\":4126:4133  bankCap */\n      immutable(\"0xf928ede1c39c5595ff22fe845412ee05a93eeaa584f8ef0c46b5eeb14cb99ec8\")\n        /* \"contracts/kipu_bank.sol\":4115:4123  newTotal */\n      dup2\n        /* \"contracts/kipu_bank.sol\":4115:4133  newTotal > bankCap */\n      gt\n        /* \"contracts/kipu_bank.sol\":4111:4175  if (newTotal > bankCap) revert ExceedsBankCap(newTotal, bankCap) */\n      iszero\n      tag_104\n      jumpi\n        /* \"contracts/kipu_bank.sol\":4157:4165  newTotal */\n      dup1\n        /* \"contracts/kipu_bank.sol\":4167:4174  bankCap */\n      immutable(\"0xf928ede1c39c5595ff22fe845412ee05a93eeaa584f8ef0c46b5eeb14cb99ec8\")\n        /* \"contracts/kipu_bank.sol\":4142:4175  ExceedsBankCap(newTotal, bankCap) */\n      mload(0x40)\n      0x4274ef7700000000000000000000000000000000000000000000000000000000\n      dup2\n      mstore\n      0x04\n      add\n      tag_105\n      swap3\n      swap2\n      swap1\n      tag_106\n      jump\t// in\n    tag_105:\n      mload(0x40)\n      dup1\n      swap2\n      sub\n      swap1\n      revert\n        /* \"contracts/kipu_bank.sol\":4111:4175  if (newTotal > bankCap) revert ExceedsBankCap(newTotal, bankCap) */\n    tag_104:\n        /* \"contracts/kipu_bank.sol\":4204:4210  amount */\n      dup2\n        /* \"contracts/kipu_bank.sol\":4186:4194  balances */\n      0x04\n        /* \"contracts/kipu_bank.sol\":4186:4200  balances[user] */\n      0x00\n        /* \"contracts/kipu_bank.sol\":4195:4199  user */\n      dup6\n        /* \"contracts/kipu_bank.sol\":4186:4200  balances[user] */\n      0xffffffffffffffffffffffffffffffffffffffff\n      and\n      0xffffffffffffffffffffffffffffffffffffffff\n      and\n      dup2\n      mstore\n      0x20\n      add\n      swap1\n      dup2\n      mstore\n      0x20\n      add\n      0x00\n      keccak256\n      0x00\n        /* \"contracts/kipu_bank.sol\":4186:4210  balances[user] += amount */\n      dup3\n      dup3\n      sload\n      tag_107\n      swap2\n      swap1\n      tag_103\n      jump\t// in\n    tag_107:\n      swap3\n      pop\n      pop\n      dup2\n      swap1\n      sstore\n      pop\n        /* \"contracts/kipu_bank.sol\":4239:4247  newTotal */\n      dup1\n        /* \"contracts/kipu_bank.sol\":4220:4236  totalBankBalance */\n      0x01\n        /* \"contracts/kipu_bank.sol\":4220:4247  totalBankBalance = newTotal */\n      dup2\n      swap1\n      sstore\n      pop\n        /* \"contracts/kipu_bank.sol\":4257:4275  totalDepositsCount */\n      0x02\n      0x00\n        /* \"contracts/kipu_bank.sol\":4257:4277  totalDepositsCount++ */\n      dup2\n      sload\n      dup1\n      swap3\n      swap2\n      swap1\n      tag_108\n      swap1\n      tag_109\n      jump\t// in\n    tag_108:\n      swap2\n      swap1\n      pop\n      sstore\n      pop\n        /* \"contracts/kipu_bank.sol\":4287:4304  userDepositsCount */\n      0x05\n        /* \"contracts/kipu_bank.sol\":4287:4310  userDepositsCount[user] */\n      0x00\n        /* \"contracts/kipu_bank.sol\":4305:4309  user */\n      dup5\n        /* \"contracts/kipu_bank.sol\":4287:4310  userDepositsCount[user] */\n      0xffffffffffffffffffffffffffffffffffffffff\n      and\n      0xffffffffffffffffffffffffffffffffffffffff\n      and\n      dup2\n      mstore\n      0x20\n      add\n      swap1\n      dup2\n      mstore\n      0x20\n      add\n      0x00\n      keccak256\n      0x00\n        /* \"contracts/kipu_bank.sol\":4287:4312  userDepositsCount[user]++ */\n      dup2\n      sload\n      dup1\n      swap3\n      swap2\n      swap1\n      tag_110\n      swap1\n      tag_109\n      jump\t// in\n    tag_110:\n      swap2\n      swap1\n      pop\n      sstore\n      pop\n        /* \"contracts/kipu_bank.sol\":4336:4340  user */\n      dup3\n        /* \"contracts/kipu_bank.sol\":4328:4385  Deposit(user, amount, balances[user], totalDepositsCount) */\n      0xffffffffffffffffffffffffffffffffffffffff\n      and\n      0x36af321ec8d3c75236829c5317affd40ddb308863a1236d2d277a4025cccee1e\n        /* \"contracts/kipu_bank.sol\":4342:4348  amount */\n      dup4\n        /* \"contracts/kipu_bank.sol\":4350:4358  balances */\n      0x04\n        /* \"contracts/kipu_bank.sol\":4350:4364  balances[user] */\n      0x00\n        /* \"contracts/kipu_bank.sol\":4359:4363  user */\n      dup8\n        /* \"contracts/kipu_bank.sol\":4350:4364  balances[user] */\n      0xffffffffffffffffffffffffffffffffffffffff\n      and\n      0xffffffffffffffffffffffffffffffffffffffff\n      and\n      dup2\n      mstore\n      0x20\n      add\n      swap1\n      dup2\n      mstore\n      0x20\n      add\n      0x00\n      keccak256\n      sload\n        /* \"contracts/kipu_bank.sol\":4366:4384  totalDepositsCount */\n      sload(0x02)\n        /* \"contracts/kipu_bank.sol\":4328:4385  Deposit(user, amount, balances[user], totalDepositsCount) */\n      mload(0x40)\n      tag_111\n      swap4\n      swap3\n      swap2\n      swap1\n      tag_112\n      jump\t// in\n    tag_111:\n      mload(0x40)\n      dup1\n      swap2\n      sub\n      swap1\n      log2\n        /* \"contracts/kipu_bank.sol\":4001:4392  {... */\n      pop\n        /* \"contracts/kipu_bank.sol\":3937:4392  function _internalDeposit(address user, uint256 amount) private {... */\n      pop\n      pop\n      jump\t// out\n        /* \"contracts/kipu_bank.sol\":1758:1794  uint256 public totalWithdrawalsCount */\n    tag_35:\n      sload(0x03)\n      dup2\n      jump\t// out\n        /* \"contracts/kipu_bank.sol\":1593:1624  uint256 public totalBankBalance */\n    tag_40:\n      sload(0x01)\n      dup2\n      jump\t// out\n        /* \"contracts/kipu_bank.sol\":4744:5452  function withdraw(uint256 amount) external nonReentrant {... */\n    tag_46:\n        /* \"contracts/kipu_bank.sol\":2920:2921  2 */\n      0x02\n        /* \"contracts/kipu_bank.sol\":3010:3029  _status == _ENTERED */\n      0xff\n      and\n        /* \"contracts/kipu_bank.sol\":3010:3017  _status */\n      0x07\n      0x00\n      swap1\n      sload\n      swap1\n      0x0100\n      exp\n      swap1\n      div\n      0xff\n      and\n        /* \"contracts/kipu_bank.sol\":3010:3029  _status == _ENTERED */\n      0xff\n      and\n      sub\n        /* \"contracts/kipu_bank.sol\":3006:3053  if (_status == _ENTERED) revert ReentrantCall() */\n      tag_114\n      jumpi\n        /* \"contracts/kipu_bank.sol\":3038:3053  ReentrantCall() */\n      mload(0x40)\n      0x37ed32e800000000000000000000000000000000000000000000000000000000\n      dup2\n      mstore\n      0x04\n      add\n      mload(0x40)\n      dup1\n      swap2\n      sub\n      swap1\n      revert\n        /* \"contracts/kipu_bank.sol\":3006:3053  if (_status == _ENTERED) revert ReentrantCall() */\n    tag_114:\n        /* \"contracts/kipu_bank.sol\":2920:2921  2 */\n      0x02\n        /* \"contracts/kipu_bank.sol\":3063:3070  _status */\n      0x07\n      0x00\n        /* \"contracts/kipu_bank.sol\":3063:3081  _status = _ENTERED */\n      0x0100\n      exp\n      dup2\n      sload\n      dup2\n      0xff\n      mul\n      not\n      and\n      swap1\n      dup4\n      0xff\n      and\n      mul\n      or\n      swap1\n      sstore\n      pop\n        /* \"contracts/kipu_bank.sol\":4824:4825  0 */\n      0x00\n        /* \"contracts/kipu_bank.sol\":4814:4820  amount */\n      dup2\n        /* \"contracts/kipu_bank.sol\":4814:4825  amount == 0 */\n      sub\n        /* \"contracts/kipu_bank.sol\":4810:4846  if (amount == 0) revert ZeroAmount() */\n      tag_116\n      jumpi\n        /* \"contracts/kipu_bank.sol\":4834:4846  ZeroAmount() */\n      mload(0x40)\n      0x1f2a200500000000000000000000000000000000000000000000000000000000\n      dup2\n      mstore\n      0x04\n      add\n      mload(0x40)\n      dup1\n      swap2\n      sub\n      swap1\n      revert\n        /* \"contracts/kipu_bank.sol\":4810:4846  if (amount == 0) revert ZeroAmount() */\n    tag_116:\n        /* \"contracts/kipu_bank.sol\":4869:4887  maxWithdrawalPerTx */\n      immutable(\"0x6b3e710f3089a74ecb6b0f5948e5ff07a3db6ba4da475d2be17624ba96b95b\")\n        /* \"contracts/kipu_bank.sol\":4860:4866  amount */\n      dup2\n        /* \"contracts/kipu_bank.sol\":4860:4887  amount > maxWithdrawalPerTx */\n      gt\n        /* \"contracts/kipu_bank.sol\":4856:4944  if (amount > maxWithdrawalPerTx) revert ExceedsMaxWithdrawal(amount, maxWithdrawalPerTx) */\n      iszero\n      tag_117\n      jumpi\n        /* \"contracts/kipu_bank.sol\":4917:4923  amount */\n      dup1\n        /* \"contracts/kipu_bank.sol\":4925:4943  maxWithdrawalPerTx */\n      immutable(\"0x6b3e710f3089a74ecb6b0f5948e5ff07a3db6ba4da475d2be17624ba96b95b\")\n        /* \"contracts/kipu_bank.sol\":4896:4944  ExceedsMaxWithdrawal(amount, maxWithdrawalPerTx) */\n      mload(0x40)\n      0xde0313af00000000000000000000000000000000000000000000000000000000\n      dup2\n      mstore\n      0x04\n      add\n      tag_118\n      swap3\n      swap2\n      swap1\n      tag_106\n      jump\t// in\n    tag_118:\n      mload(0x40)\n      dup1\n      swap2\n      sub\n      swap1\n      revert\n        /* \"contracts/kipu_bank.sol\":4856:4944  if (amount > maxWithdrawalPerTx) revert ExceedsMaxWithdrawal(amount, maxWithdrawalPerTx) */\n    tag_117:\n        /* \"contracts/kipu_bank.sol\":4955:4970  uint256 userBal */\n      0x00\n        /* \"contracts/kipu_bank.sol\":4973:4981  balances */\n      0x04\n        /* \"contracts/kipu_bank.sol\":4973:4993  balances[msg.sender] */\n      0x00\n        /* \"contracts/kipu_bank.sol\":4982:4992  msg.sender */\n      caller\n        /* \"contracts/kipu_bank.sol\":4973:4993  balances[msg.sender] */\n      0xffffffffffffffffffffffffffffffffffffffff\n      and\n      0xffffffffffffffffffffffffffffffffffffffff\n      and\n      dup2\n      mstore\n      0x20\n      add\n      swap1\n      dup2\n      mstore\n      0x20\n      add\n      0x00\n      keccak256\n      sload\n        /* \"contracts/kipu_bank.sol\":4955:4993  uint256 userBal = balances[msg.sender] */\n      swap1\n      pop\n        /* \"contracts/kipu_bank.sol\":5017:5023  amount */\n      dup2\n        /* \"contracts/kipu_bank.sol\":5007:5014  userBal */\n      dup2\n        /* \"contracts/kipu_bank.sol\":5007:5023  userBal < amount */\n      lt\n        /* \"contracts/kipu_bank.sol\":5003:5068  if (userBal < amount) revert InsufficientBalance(userBal, amount) */\n      iszero\n      tag_119\n      jumpi\n        /* \"contracts/kipu_bank.sol\":5052:5059  userBal */\n      dup1\n        /* \"contracts/kipu_bank.sol\":5061:5067  amount */\n      dup3\n        /* \"contracts/kipu_bank.sol\":5032:5068  InsufficientBalance(userBal, amount) */\n      mload(0x40)\n      0xcf47918100000000000000000000000000000000000000000000000000000000\n      dup2\n      mstore\n      0x04\n      add\n      tag_120\n      swap3\n      swap2\n      swap1\n      tag_106\n      jump\t// in\n    tag_120:\n      mload(0x40)\n      dup1\n      swap2\n      sub\n      swap1\n      revert\n        /* \"contracts/kipu_bank.sol\":5003:5068  if (userBal < amount) revert InsufficientBalance(userBal, amount) */\n    tag_119:\n        /* \"contracts/kipu_bank.sol\":5112:5118  amount */\n      dup2\n        /* \"contracts/kipu_bank.sol\":5102:5109  userBal */\n      dup2\n        /* \"contracts/kipu_bank.sol\":5102:5118  userBal - amount */\n      tag_121\n      swap2\n      swap1\n      tag_122\n      jump\t// in\n    tag_121:\n        /* \"contracts/kipu_bank.sol\":5079:5087  balances */\n      0x04\n        /* \"contracts/kipu_bank.sol\":5079:5099  balances[msg.sender] */\n      0x00\n        /* \"contracts/kipu_bank.sol\":5088:5098  msg.sender */\n      caller\n        /* \"contracts/kipu_bank.sol\":5079:5099  balances[msg.sender] */\n      0xffffffffffffffffffffffffffffffffffffffff\n      and\n      0xffffffffffffffffffffffffffffffffffffffff\n      and\n      dup2\n      mstore\n      0x20\n      add\n      swap1\n      dup2\n      mstore\n      0x20\n      add\n      0x00\n      keccak256\n        /* \"contracts/kipu_bank.sol\":5079:5118  balances[msg.sender] = userBal - amount */\n      dup2\n      swap1\n      sstore\n      pop\n        /* \"contracts/kipu_bank.sol\":5148:5154  amount */\n      dup2\n        /* \"contracts/kipu_bank.sol\":5128:5144  totalBankBalance */\n      0x01\n      0x00\n        /* \"contracts/kipu_bank.sol\":5128:5154  totalBankBalance -= amount */\n      dup3\n      dup3\n      sload\n      tag_123\n      swap2\n      swap1\n      tag_122\n      jump\t// in\n    tag_123:\n      swap3\n      pop\n      pop\n      dup2\n      swap1\n      sstore\n      pop\n        /* \"contracts/kipu_bank.sol\":5164:5185  totalWithdrawalsCount */\n      0x03\n      0x00\n        /* \"contracts/kipu_bank.sol\":5164:5187  totalWithdrawalsCount++ */\n      dup2\n      sload\n      dup1\n      swap3\n      swap2\n      swap1\n      tag_124\n      swap1\n      tag_109\n      jump\t// in\n    tag_124:\n      swap2\n      swap1\n      pop\n      sstore\n      pop\n        /* \"contracts/kipu_bank.sol\":5197:5217  userWithdrawalsCount */\n      0x06\n        /* \"contracts/kipu_bank.sol\":5197:5229  userWithdrawalsCount[msg.sender] */\n      0x00\n        /* \"contracts/kipu_bank.sol\":5218:5228  msg.sender */\n      caller\n        /* \"contracts/kipu_bank.sol\":5197:5229  userWithdrawalsCount[msg.sender] */\n      0xffffffffffffffffffffffffffffffffffffffff\n      and\n      0xffffffffffffffffffffffffffffffffffffffff\n      and\n      dup2\n      mstore\n      0x20\n      add\n      swap1\n      dup2\n      mstore\n      0x20\n      add\n      0x00\n      keccak256\n      0x00\n        /* \"contracts/kipu_bank.sol\":5197:5231  userWithdrawalsCount[msg.sender]++ */\n      dup2\n      sload\n      dup1\n      swap3\n      swap2\n      swap1\n      tag_125\n      swap1\n      tag_109\n      jump\t// in\n    tag_125:\n      swap2\n      swap1\n      pop\n      sstore\n      pop\n        /* \"contracts/kipu_bank.sol\":5243:5252  bool sent */\n      0x00\n        /* \"contracts/kipu_bank.sol\":5258:5268  msg.sender */\n      caller\n        /* \"contracts/kipu_bank.sol\":5258:5273  msg.sender.call */\n      0xffffffffffffffffffffffffffffffffffffffff\n      and\n        /* \"contracts/kipu_bank.sol\":5281:5287  amount */\n      dup4\n        /* \"contracts/kipu_bank.sol\":5258:5292  msg.sender.call{value: amount}(\"\") */\n      mload(0x40)\n      tag_126\n      swap1\n      tag_127\n      jump\t// in\n    tag_126:\n      0x00\n      mload(0x40)\n      dup1\n      dup4\n      sub\n      dup2\n      dup6\n      dup8\n      gas\n      call\n      swap3\n      pop\n      pop\n      pop\n      returndatasize\n      dup1\n      0x00\n      dup2\n      eq\n      tag_130\n      jumpi\n      mload(0x40)\n      swap2\n      pop\n      and(add(returndatasize, 0x3f), not(0x1f))\n      dup3\n      add\n      0x40\n      mstore\n      returndatasize\n      dup3\n      mstore\n      returndatasize\n      0x00\n      0x20\n      dup5\n      add\n      returndatacopy\n      jump(tag_129)\n    tag_130:\n      0x60\n      swap2\n      pop\n    tag_129:\n      pop\n        /* \"contracts/kipu_bank.sol\":5242:5292  (bool sent, ) = msg.sender.call{value: amount}(\"\") */\n      pop\n      swap1\n      pop\n        /* \"contracts/kipu_bank.sol\":5307:5311  sent */\n      dup1\n        /* \"contracts/kipu_bank.sol\":5302:5354  if (!sent) revert TransferFailed(msg.sender, amount) */\n      tag_131\n      jumpi\n        /* \"contracts/kipu_bank.sol\":5335:5345  msg.sender */\n      caller\n        /* \"contracts/kipu_bank.sol\":5347:5353  amount */\n      dup4\n        /* \"contracts/kipu_bank.sol\":5320:5354  TransferFailed(msg.sender, amount) */\n      mload(0x40)\n      0x1c43b97600000000000000000000000000000000000000000000000000000000\n      dup2\n      mstore\n      0x04\n      add\n      tag_132\n      swap3\n      swap2\n      swap1\n      tag_133\n      jump\t// in\n    tag_132:\n      mload(0x40)\n      dup1\n      swap2\n      sub\n      swap1\n      revert\n        /* \"contracts/kipu_bank.sol\":5302:5354  if (!sent) revert TransferFailed(msg.sender, amount) */\n    tag_131:\n        /* \"contracts/kipu_bank.sol\":5381:5391  msg.sender */\n      caller\n        /* \"contracts/kipu_bank.sol\":5370:5445  Withdrawal(msg.sender, amount, balances[msg.sender], totalWithdrawalsCount) */\n      0xffffffffffffffffffffffffffffffffffffffff\n      and\n      0x650fdf669e93aa6c8ff3defe2da9c12b64f1548e5e1e54e803f4c1beb6466c8e\n        /* \"contracts/kipu_bank.sol\":5393:5399  amount */\n      dup5\n        /* \"contracts/kipu_bank.sol\":5401:5409  balances */\n      0x04\n        /* \"contracts/kipu_bank.sol\":5401:5421  balances[msg.sender] */\n      0x00\n        /* \"contracts/kipu_bank.sol\":5410:5420  msg.sender */\n      caller\n        /* \"contracts/kipu_bank.sol\":5401:5421  balances[msg.sender] */\n      0xffffffffffffffffffffffffffffffffffffffff\n      and\n      0xffffffffffffffffffffffffffffffffffffffff\n      and\n      dup2\n      mstore\n      0x20\n      add\n      swap1\n      dup2\n      mstore\n      0x20\n      add\n      0x00\n      keccak256\n      sload\n        /* \"contracts/kipu_bank.sol\":5423:5444  totalWithdrawalsCount */\n      sload(0x03)\n        /* \"contracts/kipu_bank.sol\":5370:5445  Withdrawal(msg.sender, amount, balances[msg.sender], totalWithdrawalsCount) */\n      mload(0x40)\n      tag_134\n      swap4\n      swap3\n      swap2\n      swap1\n      tag_112\n      jump\t// in\n    tag_134:\n      mload(0x40)\n      dup1\n      swap2\n      sub\n      swap1\n      log2\n        /* \"contracts/kipu_bank.sol\":4800:5452  {... */\n      pop\n      pop\n        /* \"contracts/kipu_bank.sol\":2822:2823  1 */\n      0x01\n        /* \"contracts/kipu_bank.sol\":3102:3109  _status */\n      0x07\n      0x00\n        /* \"contracts/kipu_bank.sol\":3102:3124  _status = _NOT_ENTERED */\n      0x0100\n      exp\n      dup2\n      sload\n      dup2\n      0xff\n      mul\n      not\n      and\n      swap1\n      dup4\n      0xff\n      and\n      mul\n      or\n      swap1\n      sstore\n      pop\n        /* \"contracts/kipu_bank.sol\":4744:5452  function withdraw(uint256 amount) external nonReentrant {... */\n      pop\n      jump\t// out\n        /* \"contracts/kipu_bank.sol\":1372:1415  uint256 public immutable maxWithdrawalPerTx */\n    tag_49:\n      immutable(\"0x6b3e710f3089a74ecb6b0f5948e5ff07a3db6ba4da475d2be17624ba96b95b\")\n      dup2\n      jump\t// out\n        /* \"contracts/kipu_bank.sol\":1526:1546  address public owner */\n    tag_53:\n      0x00\n      0x00\n      swap1\n      sload\n      swap1\n      0x0100\n      exp\n      swap1\n      div\n      0xffffffffffffffffffffffffffffffffffffffff\n      and\n      dup2\n      jump\t// out\n        /* \"contracts/kipu_bank.sol\":7258:7611  function summary()... */\n    tag_58:\n        /* \"contracts/kipu_bank.sol\":7337:7357  uint256 bankBalance_ */\n      0x00\n        /* \"contracts/kipu_bank.sol\":7371:7388  uint256 deposits_ */\n      0x00\n        /* \"contracts/kipu_bank.sol\":7402:7422  uint256 withdrawals_ */\n      0x00\n        /* \"contracts/kipu_bank.sol\":7436:7448  uint256 cap_ */\n      0x00\n        /* \"contracts/kipu_bank.sol\":7462:7482  uint256 maxWithdraw_ */\n      0x00\n        /* \"contracts/kipu_bank.sol\":7515:7531  totalBankBalance */\n      sload(0x01)\n        /* \"contracts/kipu_bank.sol\":7533:7551  totalDepositsCount */\n      sload(0x02)\n        /* \"contracts/kipu_bank.sol\":7553:7574  totalWithdrawalsCount */\n      sload(0x03)\n        /* \"contracts/kipu_bank.sol\":7576:7583  bankCap */\n      immutable(\"0xf928ede1c39c5595ff22fe845412ee05a93eeaa584f8ef0c46b5eeb14cb99ec8\")\n        /* \"contracts/kipu_bank.sol\":7585:7603  maxWithdrawalPerTx */\n      immutable(\"0x6b3e710f3089a74ecb6b0f5948e5ff07a3db6ba4da475d2be17624ba96b95b\")\n        /* \"contracts/kipu_bank.sol\":7507:7604  return (totalBankBalance, totalDepositsCount, totalWithdrawalsCount, bankCap, maxWithdrawalPerTx) */\n      swap5\n      pop\n      swap5\n      pop\n      swap5\n      pop\n      swap5\n      pop\n      swap5\n      pop\n        /* \"contracts/kipu_bank.sol\":7258:7611  function summary()... */\n      swap1\n      swap2\n      swap3\n      swap4\n      swap5\n      jump\t// out\n        /* \"contracts/kipu_bank.sol\":1676:1709  uint256 public totalDepositsCount */\n    tag_63:\n      sload(0x02)\n      dup2\n      jump\t// out\n        /* \"contracts/kipu_bank.sol\":4511:4616  function deposit() external payable nonReentrant {... */\n    tag_66:\n        /* \"contracts/kipu_bank.sol\":2920:2921  2 */\n      0x02\n        /* \"contracts/kipu_bank.sol\":3010:3029  _status == _ENTERED */\n      0xff\n      and\n        /* \"contracts/kipu_bank.sol\":3010:3017  _status */\n      0x07\n      0x00\n      swap1\n      sload\n      swap1\n      0x0100\n      exp\n      swap1\n      div\n      0xff\n      and\n        /* \"contracts/kipu_bank.sol\":3010:3029  _status == _ENTERED */\n      0xff\n      and\n      sub\n        /* \"contracts/kipu_bank.sol\":3006:3053  if (_status == _ENTERED) revert ReentrantCall() */\n      tag_137\n      jumpi\n        /* \"contracts/kipu_bank.sol\":3038:3053  ReentrantCall() */\n      mload(0x40)\n      0x37ed32e800000000000000000000000000000000000000000000000000000000\n      dup2\n      mstore\n      0x04\n      add\n      mload(0x40)\n      dup1\n      swap2\n      sub\n      swap1\n      revert\n        /* \"contracts/kipu_bank.sol\":3006:3053  if (_status == _ENTERED) revert ReentrantCall() */\n    tag_137:\n        /* \"contracts/kipu_bank.sol\":2920:2921  2 */\n      0x02\n        /* \"contracts/kipu_bank.sol\":3063:3070  _status */\n      0x07\n      0x00\n        /* \"contracts/kipu_bank.sol\":3063:3081  _status = _ENTERED */\n      0x0100\n      exp\n      dup2\n      sload\n      dup2\n      0xff\n      mul\n      not\n      and\n      swap1\n      dup4\n      0xff\n      and\n      mul\n      or\n      swap1\n      sstore\n      pop\n        /* \"contracts/kipu_bank.sol\":4570:4609  _internalDeposit(msg.sender, msg.value) */\n      tag_139\n        /* \"contracts/kipu_bank.sol\":4587:4597  msg.sender */\n      caller\n        /* \"contracts/kipu_bank.sol\":4599:4608  msg.value */\n      callvalue\n        /* \"contracts/kipu_bank.sol\":4570:4586  _internalDeposit */\n      tag_26\n        /* \"contracts/kipu_bank.sol\":4570:4609  _internalDeposit(msg.sender, msg.value) */\n      jump\t// in\n    tag_139:\n        /* \"contracts/kipu_bank.sol\":2822:2823  1 */\n      0x01\n        /* \"contracts/kipu_bank.sol\":3102:3109  _status */\n      0x07\n      0x00\n        /* \"contracts/kipu_bank.sol\":3102:3124  _status = _NOT_ENTERED */\n      0x0100\n      exp\n      dup2\n      sload\n      dup2\n      0xff\n      mul\n      not\n      and\n      swap1\n      dup4\n      0xff\n      and\n      mul\n      or\n      swap1\n      sstore\n      pop\n        /* \"contracts/kipu_bank.sol\":4511:4616  function deposit() external payable nonReentrant {... */\n      jump\t// out\n        /* \"contracts/kipu_bank.sol\":1942:1994  mapping(address => uint256) public userDepositsCount */\n    tag_71:\n      mstore(0x20, 0x05)\n      dup1\n      0x00\n      mstore\n      keccak256(0x00, 0x40)\n      0x00\n      swap2\n      pop\n      swap1\n      pop\n      sload\n      dup2\n      jump\t// out\n        /* \"contracts/kipu_bank.sol\":5916:6370  function ownerWithdrawFromBank(uint256 amount) external onlyOwner nonReentrant {... */\n    tag_76:\n        /* \"contracts/kipu_bank.sol\":3237:3242  owner */\n      0x00\n      0x00\n      swap1\n      sload\n      swap1\n      0x0100\n      exp\n      swap1\n      div\n      0xffffffffffffffffffffffffffffffffffffffff\n      and\n        /* \"contracts/kipu_bank.sol\":3223:3242  msg.sender != owner */\n      0xffffffffffffffffffffffffffffffffffffffff\n      and\n        /* \"contracts/kipu_bank.sol\":3223:3233  msg.sender */\n      caller\n        /* \"contracts/kipu_bank.sol\":3223:3242  msg.sender != owner */\n      0xffffffffffffffffffffffffffffffffffffffff\n      and\n      eq\n        /* \"contracts/kipu_bank.sol\":3219:3271  if (msg.sender != owner) revert NotOwner(msg.sender) */\n      tag_141\n      jumpi\n        /* \"contracts/kipu_bank.sol\":3260:3270  msg.sender */\n      caller\n        /* \"contracts/kipu_bank.sol\":3251:3271  NotOwner(msg.sender) */\n      mload(0x40)\n      0x245aecd300000000000000000000000000000000000000000000000000000000\n      dup2\n      mstore\n      0x04\n      add\n      tag_142\n      swap2\n      swap1\n      tag_55\n      jump\t// in\n    tag_142:\n      mload(0x40)\n      dup1\n      swap2\n      sub\n      swap1\n      revert\n        /* \"contracts/kipu_bank.sol\":3219:3271  if (msg.sender != owner) revert NotOwner(msg.sender) */\n    tag_141:\n        /* \"contracts/kipu_bank.sol\":2920:2921  2 */\n      0x02\n        /* \"contracts/kipu_bank.sol\":3010:3029  _status == _ENTERED */\n      0xff\n      and\n        /* \"contracts/kipu_bank.sol\":3010:3017  _status */\n      0x07\n      0x00\n      swap1\n      sload\n      swap1\n      0x0100\n      exp\n      swap1\n      div\n      0xff\n      and\n        /* \"contracts/kipu_bank.sol\":3010:3029  _status == _ENTERED */\n      0xff\n      and\n      sub\n        /* \"contracts/kipu_bank.sol\":3006:3053  if (_status == _ENTERED) revert ReentrantCall() */\n      tag_144\n      jumpi\n        /* \"contracts/kipu_bank.sol\":3038:3053  ReentrantCall() */\n      mload(0x40)\n      0x37ed32e800000000000000000000000000000000000000000000000000000000\n      dup2\n      mstore\n      0x04\n      add\n      mload(0x40)\n      dup1\n      swap2\n      sub\n      swap1\n      revert\n        /* \"contracts/kipu_bank.sol\":3006:3053  if (_status == _ENTERED) revert ReentrantCall() */\n    tag_144:\n        /* \"contracts/kipu_bank.sol\":2920:2921  2 */\n      0x02\n        /* \"contracts/kipu_bank.sol\":3063:3070  _status */\n      0x07\n      0x00\n        /* \"contracts/kipu_bank.sol\":3063:3081  _status = _ENTERED */\n      0x0100\n      exp\n      dup2\n      sload\n      dup2\n      0xff\n      mul\n      not\n      and\n      swap1\n      dup4\n      0xff\n      and\n      mul\n      or\n      swap1\n      sstore\n      pop\n        /* \"contracts/kipu_bank.sol\":6019:6020  0 */\n      0x00\n        /* \"contracts/kipu_bank.sol\":6009:6015  amount */\n      dup2\n        /* \"contracts/kipu_bank.sol\":6009:6020  amount == 0 */\n      sub\n        /* \"contracts/kipu_bank.sol\":6005:6041  if (amount == 0) revert ZeroAmount() */\n      tag_146\n      jumpi\n        /* \"contracts/kipu_bank.sol\":6029:6041  ZeroAmount() */\n      mload(0x40)\n      0x1f2a200500000000000000000000000000000000000000000000000000000000\n      dup2\n      mstore\n      0x04\n      add\n      mload(0x40)\n      dup1\n      swap2\n      sub\n      swap1\n      revert\n        /* \"contracts/kipu_bank.sol\":6005:6041  if (amount == 0) revert ZeroAmount() */\n    tag_146:\n        /* \"contracts/kipu_bank.sol\":6064:6080  totalBankBalance */\n      sload(0x01)\n        /* \"contracts/kipu_bank.sol\":6055:6061  amount */\n      dup2\n        /* \"contracts/kipu_bank.sol\":6055:6080  amount > totalBankBalance */\n      gt\n        /* \"contracts/kipu_bank.sol\":6051:6134  if (amount > totalBankBalance) revert InsufficientBalance(totalBankBalance, amount) */\n      iszero\n      tag_147\n      jumpi\n        /* \"contracts/kipu_bank.sol\":6109:6125  totalBankBalance */\n      sload(0x01)\n        /* \"contracts/kipu_bank.sol\":6127:6133  amount */\n      dup2\n        /* \"contracts/kipu_bank.sol\":6089:6134  InsufficientBalance(totalBankBalance, amount) */\n      mload(0x40)\n      0xcf47918100000000000000000000000000000000000000000000000000000000\n      dup2\n      mstore\n      0x04\n      add\n      tag_148\n      swap3\n      swap2\n      swap1\n      tag_106\n      jump\t// in\n    tag_148:\n      mload(0x40)\n      dup1\n      swap2\n      sub\n      swap1\n      revert\n        /* \"contracts/kipu_bank.sol\":6051:6134  if (amount > totalBankBalance) revert InsufficientBalance(totalBankBalance, amount) */\n    tag_147:\n        /* \"contracts/kipu_bank.sol\":6165:6171  amount */\n      dup1\n        /* \"contracts/kipu_bank.sol\":6145:6161  totalBankBalance */\n      0x01\n      0x00\n        /* \"contracts/kipu_bank.sol\":6145:6171  totalBankBalance -= amount */\n      dup3\n      dup3\n      sload\n      tag_149\n      swap2\n      swap1\n      tag_122\n      jump\t// in\n    tag_149:\n      swap3\n      pop\n      pop\n      dup2\n      swap1\n      sstore\n      pop\n        /* \"contracts/kipu_bank.sol\":6183:6192  bool sent */\n      0x00\n        /* \"contracts/kipu_bank.sol\":6198:6208  msg.sender */\n      caller\n        /* \"contracts/kipu_bank.sol\":6198:6213  msg.sender.call */\n      0xffffffffffffffffffffffffffffffffffffffff\n      and\n        /* \"contracts/kipu_bank.sol\":6221:6227  amount */\n      dup3\n        /* \"contracts/kipu_bank.sol\":6198:6232  msg.sender.call{value: amount}(\"\") */\n      mload(0x40)\n      tag_150\n      swap1\n      tag_127\n      jump\t// in\n    tag_150:\n      0x00\n      mload(0x40)\n      dup1\n      dup4\n      sub\n      dup2\n      dup6\n      dup8\n      gas\n      call\n      swap3\n      pop\n      pop\n      pop\n      returndatasize\n      dup1\n      0x00\n      dup2\n      eq\n      tag_153\n      jumpi\n      mload(0x40)\n      swap2\n      pop\n      and(add(returndatasize, 0x3f), not(0x1f))\n      dup3\n      add\n      0x40\n      mstore\n      returndatasize\n      dup3\n      mstore\n      returndatasize\n      0x00\n      0x20\n      dup5\n      add\n      returndatacopy\n      jump(tag_152)\n    tag_153:\n      0x60\n      swap2\n      pop\n    tag_152:\n      pop\n        /* \"contracts/kipu_bank.sol\":6182:6232  (bool sent, ) = msg.sender.call{value: amount}(\"\") */\n      pop\n      swap1\n      pop\n        /* \"contracts/kipu_bank.sol\":6247:6251  sent */\n      dup1\n        /* \"contracts/kipu_bank.sol\":6242:6294  if (!sent) revert TransferFailed(msg.sender, amount) */\n      tag_154\n      jumpi\n        /* \"contracts/kipu_bank.sol\":6275:6285  msg.sender */\n      caller\n        /* \"contracts/kipu_bank.sol\":6287:6293  amount */\n      dup3\n        /* \"contracts/kipu_bank.sol\":6260:6294  TransferFailed(msg.sender, amount) */\n      mload(0x40)\n      0x1c43b97600000000000000000000000000000000000000000000000000000000\n      dup2\n      mstore\n      0x04\n      add\n      tag_155\n      swap3\n      swap2\n      swap1\n      tag_133\n      jump\t// in\n    tag_155:\n      mload(0x40)\n      dup1\n      swap2\n      sub\n      swap1\n      revert\n        /* \"contracts/kipu_bank.sol\":6242:6294  if (!sent) revert TransferFailed(msg.sender, amount) */\n    tag_154:\n        /* \"contracts/kipu_bank.sol\":6326:6336  msg.sender */\n      caller\n        /* \"contracts/kipu_bank.sol\":6310:6363  OwnerWithdrawal(msg.sender, amount, totalBankBalance) */\n      0xffffffffffffffffffffffffffffffffffffffff\n      and\n      0x5e70f429cb11006093b2f75398f48bd6971871dca25171e8237120e666c1b168\n        /* \"contracts/kipu_bank.sol\":6338:6344  amount */\n      dup4\n        /* \"contracts/kipu_bank.sol\":6346:6362  totalBankBalance */\n      sload(0x01)\n        /* \"contracts/kipu_bank.sol\":6310:6363  OwnerWithdrawal(msg.sender, amount, totalBankBalance) */\n      mload(0x40)\n      tag_156\n      swap3\n      swap2\n      swap1\n      tag_106\n      jump\t// in\n    tag_156:\n      mload(0x40)\n      dup1\n      swap2\n      sub\n      swap1\n      log2\n        /* \"contracts/kipu_bank.sol\":5995:6370  {... */\n      pop\n        /* \"contracts/kipu_bank.sol\":2822:2823  1 */\n      0x01\n        /* \"contracts/kipu_bank.sol\":3102:3109  _status */\n      0x07\n      0x00\n        /* \"contracts/kipu_bank.sol\":3102:3124  _status = _NOT_ENTERED */\n      0x0100\n      exp\n      dup2\n      sload\n      dup2\n      0xff\n      mul\n      not\n      and\n      swap1\n      dup4\n      0xff\n      and\n      mul\n      or\n      swap1\n      sstore\n      pop\n        /* \"contracts/kipu_bank.sol\":5916:6370  function ownerWithdrawFromBank(uint256 amount) external onlyOwner nonReentrant {... */\n      pop\n      jump\t// out\n        /* \"contracts/kipu_bank.sol\":2048:2103  mapping(address => uint256) public userWithdrawalsCount */\n    tag_80:\n      mstore(0x20, 0x06)\n      dup1\n      0x00\n      mstore\n      keccak256(0x00, 0x40)\n      0x00\n      swap2\n      pop\n      swap1\n      pop\n      sload\n      dup2\n      jump\t// out\n        /* \"contracts/kipu_bank.sol\":1272:1304  uint256 public immutable bankCap */\n    tag_84:\n      immutable(\"0xf928ede1c39c5595ff22fe845412ee05a93eeaa584f8ef0c46b5eeb14cb99ec8\")\n      dup2\n      jump\t// out\n        /* \"contracts/kipu_bank.sol\":6497:6652  function transferOwnership(address newOwner) external onlyOwner {... */\n    tag_89:\n        /* \"contracts/kipu_bank.sol\":3237:3242  owner */\n      0x00\n      0x00\n      swap1\n      sload\n      swap1\n      0x0100\n      exp\n      swap1\n      div\n      0xffffffffffffffffffffffffffffffffffffffff\n      and\n        /* \"contracts/kipu_bank.sol\":3223:3242  msg.sender != owner */\n      0xffffffffffffffffffffffffffffffffffffffff\n      and\n        /* \"contracts/kipu_bank.sol\":3223:3233  msg.sender */\n      caller\n        /* \"contracts/kipu_bank.sol\":3223:3242  msg.sender != owner */\n      0xffffffffffffffffffffffffffffffffffffffff\n      and\n      eq\n        /* \"contracts/kipu_bank.sol\":3219:3271  if (msg.sender != owner) revert NotOwner(msg.sender) */\n      tag_158\n      jumpi\n        /* \"contracts/kipu_bank.sol\":3260:3270  msg.sender */\n      caller\n        /* \"contracts/kipu_bank.sol\":3251:3271  NotOwner(msg.sender) */\n      mload(0x40)\n      0x245aecd300000000000000000000000000000000000000000000000000000000\n      dup2\n      mstore\n      0x04\n      add\n      tag_159\n      swap2\n      swap1\n      tag_55\n      jump\t// in\n    tag_159:\n      mload(0x40)\n      dup1\n      swap2\n      sub\n      swap1\n      revert\n        /* \"contracts/kipu_bank.sol\":3219:3271  if (msg.sender != owner) revert NotOwner(msg.sender) */\n    tag_158:\n        /* \"contracts/kipu_bank.sol\":6595:6596  0 */\n      0x00\n        /* \"contracts/kipu_bank.sol\":6575:6597  newOwner == address(0) */\n      0xffffffffffffffffffffffffffffffffffffffff\n      and\n        /* \"contracts/kipu_bank.sol\":6575:6583  newOwner */\n      dup2\n        /* \"contracts/kipu_bank.sol\":6575:6597  newOwner == address(0) */\n      0xffffffffffffffffffffffffffffffffffffffff\n      and\n      sub\n        /* \"contracts/kipu_bank.sol\":6571:6619  if (newOwner == address(0)) revert ZeroAddress() */\n      tag_161\n      jumpi\n        /* \"contracts/kipu_bank.sol\":6606:6619  ZeroAddress() */\n      mload(0x40)\n      0xd92e233d00000000000000000000000000000000000000000000000000000000\n      dup2\n      mstore\n      0x04\n      add\n      mload(0x40)\n      dup1\n      swap2\n      sub\n      swap1\n      revert\n        /* \"contracts/kipu_bank.sol\":6571:6619  if (newOwner == address(0)) revert ZeroAddress() */\n    tag_161:\n        /* \"contracts/kipu_bank.sol\":6637:6645  newOwner */\n      dup1\n        /* \"contracts/kipu_bank.sol\":6629:6634  owner */\n      0x00\n      0x00\n        /* \"contracts/kipu_bank.sol\":6629:6645  owner = newOwner */\n      0x0100\n      exp\n      dup2\n      sload\n      dup2\n      0xffffffffffffffffffffffffffffffffffffffff\n      mul\n      not\n      and\n      swap1\n      dup4\n      0xffffffffffffffffffffffffffffffffffffffff\n      and\n      mul\n      or\n      swap1\n      sstore\n      pop\n        /* \"contracts/kipu_bank.sol\":6497:6652  function transferOwnership(address newOwner) external onlyOwner {... */\n      pop\n      jump\t// out\n        /* \"contracts/kipu_bank.sol\":6859:6963  function getBalance(address user) external view returns (uint256) {... */\n    tag_93:\n        /* \"contracts/kipu_bank.sol\":6916:6923  uint256 */\n      0x00\n        /* \"contracts/kipu_bank.sol\":6942:6950  balances */\n      0x04\n        /* \"contracts/kipu_bank.sol\":6942:6956  balances[user] */\n      0x00\n        /* \"contracts/kipu_bank.sol\":6951:6955  user */\n      dup4\n        /* \"contracts/kipu_bank.sol\":6942:6956  balances[user] */\n      0xffffffffffffffffffffffffffffffffffffffff\n      and\n      0xffffffffffffffffffffffffffffffffffffffff\n      and\n      dup2\n      mstore\n      0x20\n      add\n      swap1\n      dup2\n      mstore\n      0x20\n      add\n      0x00\n      keccak256\n      sload\n        /* \"contracts/kipu_bank.sol\":6935:6956  return balances[user] */\n      swap1\n      pop\n        /* \"contracts/kipu_bank.sol\":6859:6963  function getBalance(address user) external view returns (uint256) {... */\n      swap2\n      swap1\n      pop\n      jump\t// out\n        /* \"contracts/kipu_bank.sol\":1156:1202  string public constant VERSION = \"KipuBank v1\" */\n    tag_97:\n      mload(0x40)\n      dup1\n      0x40\n      add\n      0x40\n      mstore\n      dup1\n      0x0b\n      dup2\n      mstore\n      0x20\n      add\n      0x4b69707542616e6b207631000000000000000000000000000000000000000000\n      dup2\n      mstore\n      pop\n      dup2\n      jump\t// out\n        /* \"#utility.yul\":7:84   */\n    tag_163:\n        /* \"#utility.yul\":44:51   */\n      0x00\n        /* \"#utility.yul\":73:78   */\n      dup2\n        /* \"#utility.yul\":62:78   */\n      swap1\n      pop\n        /* \"#utility.yul\":7:84   */\n      swap2\n      swap1\n      pop\n      jump\t// out\n        /* \"#utility.yul\":90:208   */\n    tag_164:\n        /* \"#utility.yul\":177:201   */\n      tag_187\n        /* \"#utility.yul\":195:200   */\n      dup2\n        /* \"#utility.yul\":177:201   */\n      tag_163\n      jump\t// in\n    tag_187:\n        /* \"#utility.yul\":172:175   */\n      dup3\n        /* \"#utility.yul\":165:202   */\n      mstore\n        /* \"#utility.yul\":90:208   */\n      pop\n      pop\n      jump\t// out\n        /* \"#utility.yul\":214:436   */\n    tag_37:\n        /* \"#utility.yul\":307:311   */\n      0x00\n        /* \"#utility.yul\":345:347   */\n      0x20\n        /* \"#utility.yul\":334:343   */\n      dup3\n        /* \"#utility.yul\":330:348   */\n      add\n        /* \"#utility.yul\":322:348   */\n      swap1\n      pop\n        /* \"#utility.yul\":358:429   */\n      tag_189\n        /* \"#utility.yul\":426:427   */\n      0x00\n        /* \"#utility.yul\":415:424   */\n      dup4\n        /* \"#utility.yul\":411:428   */\n      add\n        /* \"#utility.yul\":402:408   */\n      dup5\n        /* \"#utility.yul\":358:429   */\n      tag_164\n      jump\t// in\n    tag_189:\n        /* \"#utility.yul\":214:436   */\n      swap3\n      swap2\n      pop\n      pop\n      jump\t// out\n        /* \"#utility.yul\":523:640   */\n    tag_166:\n        /* \"#utility.yul\":632:633   */\n      0x00\n        /* \"#utility.yul\":629:630   */\n      0x00\n        /* \"#utility.yul\":622:634   */\n      revert\n        /* \"#utility.yul\":769:891   */\n    tag_168:\n        /* \"#utility.yul\":842:866   */\n      tag_194\n        /* \"#utility.yul\":860:865   */\n      dup2\n        /* \"#utility.yul\":842:866   */\n      tag_163\n      jump\t// in\n    tag_194:\n        /* \"#utility.yul\":835:840   */\n      dup2\n        /* \"#utility.yul\":832:867   */\n      eq\n        /* \"#utility.yul\":822:885   */\n      tag_195\n      jumpi\n        /* \"#utility.yul\":881:882   */\n      0x00\n        /* \"#utility.yul\":878:879   */\n      0x00\n        /* \"#utility.yul\":871:883   */\n      revert\n        /* \"#utility.yul\":822:885   */\n    tag_195:\n        /* \"#utility.yul\":769:891   */\n      pop\n      jump\t// out\n        /* \"#utility.yul\":897:1036   */\n    tag_169:\n        /* \"#utility.yul\":943:948   */\n      0x00\n        /* \"#utility.yul\":981:987   */\n      dup2\n        /* \"#utility.yul\":968:988   */\n      calldataload\n        /* \"#utility.yul\":959:988   */\n      swap1\n      pop\n        /* \"#utility.yul\":997:1030   */\n      tag_197\n        /* \"#utility.yul\":1024:1029   */\n      dup2\n        /* \"#utility.yul\":997:1030   */\n      tag_168\n      jump\t// in\n    tag_197:\n        /* \"#utility.yul\":897:1036   */\n      swap3\n      swap2\n      pop\n      pop\n      jump\t// out\n        /* \"#utility.yul\":1042:1371   */\n    tag_45:\n        /* \"#utility.yul\":1101:1107   */\n      0x00\n        /* \"#utility.yul\":1150:1152   */\n      0x20\n        /* \"#utility.yul\":1138:1147   */\n      dup3\n        /* \"#utility.yul\":1129:1136   */\n      dup5\n        /* \"#utility.yul\":1125:1148   */\n      sub\n        /* \"#utility.yul\":1121:1153   */\n      slt\n        /* \"#utility.yul\":1118:1237   */\n      iszero\n      tag_199\n      jumpi\n        /* \"#utility.yul\":1156:1235   */\n      tag_200\n      tag_166\n      jump\t// in\n    tag_200:\n        /* \"#utility.yul\":1118:1237   */\n    tag_199:\n        /* \"#utility.yul\":1276:1277   */\n      0x00\n        /* \"#utility.yul\":1301:1354   */\n      tag_201\n        /* \"#utility.yul\":1346:1353   */\n      dup5\n        /* \"#utility.yul\":1337:1343   */\n      dup3\n        /* \"#utility.yul\":1326:1335   */\n      dup6\n        /* \"#utility.yul\":1322:1344   */\n      add\n        /* \"#utility.yul\":1301:1354   */\n      tag_169\n      jump\t// in\n    tag_201:\n        /* \"#utility.yul\":1291:1354   */\n      swap2\n      pop\n        /* \"#utility.yul\":1247:1364   */\n      pop\n        /* \"#utility.yul\":1042:1371   */\n      swap3\n      swap2\n      pop\n      pop\n      jump\t// out\n        /* \"#utility.yul\":1377:1503   */\n    tag_170:\n        /* \"#utility.yul\":1414:1421   */\n      0x00\n        /* \"#utility.yul\":1454:1496   */\n      0xffffffffffffffffffffffffffffffffffffffff\n        /* \"#utility.yul\":1447:1452   */\n      dup3\n        /* \"#utility.yul\":1443:1497   */\n      and\n        /* \"#utility.yul\":1432:1497   */\n      swap1\n      pop\n        /* \"#utility.yul\":1377:1503   */\n      swap2\n      swap1\n      pop\n      jump\t// out\n        /* \"#utility.yul\":1509:1605   */\n    tag_171:\n        /* \"#utility.yul\":1546:1553   */\n      0x00\n        /* \"#utility.yul\":1575:1599   */\n      tag_204\n        /* \"#utility.yul\":1593:1598   */\n      dup3\n        /* \"#utility.yul\":1575:1599   */\n      tag_170\n      jump\t// in\n    tag_204:\n        /* \"#utility.yul\":1564:1599   */\n      swap1\n      pop\n        /* \"#utility.yul\":1509:1605   */\n      swap2\n      swap1\n      pop\n      jump\t// out\n        /* \"#utility.yul\":1611:1729   */\n    tag_172:\n        /* \"#utility.yul\":1698:1722   */\n      tag_206\n        /* \"#utility.yul\":1716:1721   */\n      dup2\n        /* \"#utility.yul\":1698:1722   */\n      tag_171\n      jump\t// in\n    tag_206:\n        /* \"#utility.yul\":1693:1696   */\n      dup3\n        /* \"#utility.yul\":1686:1723   */\n      mstore\n        /* \"#utility.yul\":1611:1729   */\n      pop\n      pop\n      jump\t// out\n        /* \"#utility.yul\":1735:1957   */\n    tag_55:\n        /* \"#utility.yul\":1828:1832   */\n      0x00\n        /* \"#utility.yul\":1866:1868   */\n      0x20\n        /* \"#utility.yul\":1855:1864   */\n      dup3\n        /* \"#utility.yul\":1851:1869   */\n      add\n        /* \"#utility.yul\":1843:1869   */\n      swap1\n      pop\n        /* \"#utility.yul\":1879:1950   */\n      tag_208\n        /* \"#utility.yul\":1947:1948   */\n      0x00\n        /* \"#utility.yul\":1936:1945   */\n      dup4\n        /* \"#utility.yul\":1932:1949   */\n      add\n        /* \"#utility.yul\":1923:1929   */\n      dup5\n        /* \"#utility.yul\":1879:1950   */\n      tag_172\n      jump\t// in\n    tag_208:\n        /* \"#utility.yul\":1735:1957   */\n      swap3\n      swap2\n      pop\n      pop\n      jump\t// out\n        /* \"#utility.yul\":1963:2627   */\n    tag_60:\n        /* \"#utility.yul\":2168:2172   */\n      0x00\n        /* \"#utility.yul\":2206:2209   */\n      0xa0\n        /* \"#utility.yul\":2195:2204   */\n      dup3\n        /* \"#utility.yul\":2191:2210   */\n      add\n        /* \"#utility.yul\":2183:2210   */\n      swap1\n      pop\n        /* \"#utility.yul\":2220:2291   */\n      tag_210\n        /* \"#utility.yul\":2288:2289   */\n      0x00\n        /* \"#utility.yul\":2277:2286   */\n      dup4\n        /* \"#utility.yul\":2273:2290   */\n      add\n        /* \"#utility.yul\":2264:2270   */\n      dup9\n        /* \"#utility.yul\":2220:2291   */\n      tag_164\n      jump\t// in\n    tag_210:\n        /* \"#utility.yul\":2301:2373   */\n      tag_211\n        /* \"#utility.yul\":2369:2371   */\n      0x20\n        /* \"#utility.yul\":2358:2367   */\n      dup4\n        /* \"#utility.yul\":2354:2372   */\n      add\n        /* \"#utility.yul\":2345:2351   */\n      dup8\n        /* \"#utility.yul\":2301:2373   */\n      tag_164\n      jump\t// in\n    tag_211:\n        /* \"#utility.yul\":2383:2455   */\n      tag_212\n        /* \"#utility.yul\":2451:2453   */\n      0x40\n        /* \"#utility.yul\":2440:2449   */\n      dup4\n        /* \"#utility.yul\":2436:2454   */\n      add\n        /* \"#utility.yul\":2427:2433   */\n      dup7\n        /* \"#utility.yul\":2383:2455   */\n      tag_164\n      jump\t// in\n    tag_212:\n        /* \"#utility.yul\":2465:2537   */\n      tag_213\n        /* \"#utility.yul\":2533:2535   */\n      0x60\n        /* \"#utility.yul\":2522:2531   */\n      dup4\n        /* \"#utility.yul\":2518:2536   */\n      add\n        /* \"#utility.yul\":2509:2515   */\n      dup6\n        /* \"#utility.yul\":2465:2537   */\n      tag_164\n      jump\t// in\n    tag_213:\n        /* \"#utility.yul\":2547:2620   */\n      tag_214\n        /* \"#utility.yul\":2615:2618   */\n      0x80\n        /* \"#utility.yul\":2604:2613   */\n      dup4\n        /* \"#utility.yul\":2600:2619   */\n      add\n        /* \"#utility.yul\":2591:2597   */\n      dup5\n        /* \"#utility.yul\":2547:2620   */\n      tag_164\n      jump\t// in\n    tag_214:\n        /* \"#utility.yul\":1963:2627   */\n      swap7\n      swap6\n      pop\n      pop\n      pop\n      pop\n      pop\n      pop\n      jump\t// out\n        /* \"#utility.yul\":2633:2755   */\n    tag_173:\n        /* \"#utility.yul\":2706:2730   */\n      tag_216\n        /* \"#utility.yul\":2724:2729   */\n      dup2\n        /* \"#utility.yul\":2706:2730   */\n      tag_171\n      jump\t// in\n    tag_216:\n        /* \"#utility.yul\":2699:2704   */\n      dup2\n        /* \"#utility.yul\":2696:2731   */\n      eq\n        /* \"#utility.yul\":2686:2749   */\n      tag_217\n      jumpi\n        /* \"#utility.yul\":2745:2746   */\n      0x00\n        /* \"#utility.yul\":2742:2743   */\n      0x00\n        /* \"#utility.yul\":2735:2747   */\n      revert\n        /* \"#utility.yul\":2686:2749   */\n    tag_217:\n        /* \"#utility.yul\":2633:2755   */\n      pop\n      jump\t// out\n        /* \"#utility.yul\":2761:2900   */\n    tag_174:\n        /* \"#utility.yul\":2807:2812   */\n      0x00\n        /* \"#utility.yul\":2845:2851   */\n      dup2\n        /* \"#utility.yul\":2832:2852   */\n      calldataload\n        /* \"#utility.yul\":2823:2852   */\n      swap1\n      pop\n        /* \"#utility.yul\":2861:2894   */\n      tag_219\n        /* \"#utility.yul\":2888:2893   */\n      dup2\n        /* \"#utility.yul\":2861:2894   */\n      tag_173\n      jump\t// in\n    tag_219:\n        /* \"#utility.yul\":2761:2900   */\n      swap3\n      swap2\n      pop\n      pop\n      jump\t// out\n        /* \"#utility.yul\":2906:3235   */\n    tag_70:\n        /* \"#utility.yul\":2965:2971   */\n      0x00\n        /* \"#utility.yul\":3014:3016   */\n      0x20\n        /* \"#utility.yul\":3002:3011   */\n      dup3\n        /* \"#utility.yul\":2993:3000   */\n      dup5\n        /* \"#utility.yul\":2989:3012   */\n      sub\n        /* \"#utility.yul\":2985:3017   */\n      slt\n        /* \"#utility.yul\":2982:3101   */\n      iszero\n      tag_221\n      jumpi\n        /* \"#utility.yul\":3020:3099   */\n      tag_222\n      tag_166\n      jump\t// in\n    tag_222:\n        /* \"#utility.yul\":2982:3101   */\n    tag_221:\n        /* \"#utility.yul\":3140:3141   */\n      0x00\n        /* \"#utility.yul\":3165:3218   */\n      tag_223\n        /* \"#utility.yul\":3210:3217   */\n      dup5\n        /* \"#utility.yul\":3201:3207   */\n      dup3\n        /* \"#utility.yul\":3190:3199   */\n      dup6\n        /* \"#utility.yul\":3186:3208   */\n      add\n        /* \"#utility.yul\":3165:3218   */\n      tag_174\n      jump\t// in\n    tag_223:\n        /* \"#utility.yul\":3155:3218   */\n      swap2\n      pop\n        /* \"#utility.yul\":3111:3228   */\n      pop\n        /* \"#utility.yul\":2906:3235   */\n      swap3\n      swap2\n      pop\n      pop\n      jump\t// out\n        /* \"#utility.yul\":3241:3340   */\n    tag_175:\n        /* \"#utility.yul\":3293:3299   */\n      0x00\n        /* \"#utility.yul\":3327:3332   */\n      dup2\n        /* \"#utility.yul\":3321:3333   */\n      mload\n        /* \"#utility.yul\":3311:3333   */\n      swap1\n      pop\n        /* \"#utility.yul\":3241:3340   */\n      swap2\n      swap1\n      pop\n      jump\t// out\n        /* \"#utility.yul\":3346:3515   */\n    tag_176:\n        /* \"#utility.yul\":3430:3441   */\n      0x00\n        /* \"#utility.yul\":3464:3470   */\n      dup3\n        /* \"#utility.yul\":3459:3462   */\n      dup3\n        /* \"#utility.yul\":3452:3471   */\n      mstore\n        /* \"#utility.yul\":3504:3508   */\n      0x20\n        /* \"#utility.yul\":3499:3502   */\n      dup3\n        /* \"#utility.yul\":3495:3509   */\n      add\n        /* \"#utility.yul\":3480:3509   */\n      swap1\n      pop\n        /* \"#utility.yul\":3346:3515   */\n      swap3\n      swap2\n      pop\n      pop\n      jump\t// out\n        /* \"#utility.yul\":3521:3660   */\n    tag_177:\n        /* \"#utility.yul\":3610:3616   */\n      dup3\n        /* \"#utility.yul\":3605:3608   */\n      dup2\n        /* \"#utility.yul\":3600:3603   */\n      dup4\n        /* \"#utility.yul\":3594:3617   */\n      mcopy\n        /* \"#utility.yul\":3651:3652   */\n      0x00\n        /* \"#utility.yul\":3642:3648   */\n      dup4\n        /* \"#utility.yul\":3637:3640   */\n      dup4\n        /* \"#utility.yul\":3633:3649   */\n      add\n        /* \"#utility.yul\":3626:3653   */\n      mstore\n        /* \"#utility.yul\":3521:3660   */\n      pop\n      pop\n      pop\n      jump\t// out\n        /* \"#utility.yul\":3666:3768   */\n    tag_178:\n        /* \"#utility.yul\":3707:3713   */\n      0x00\n        /* \"#utility.yul\":3758:3760   */\n      0x1f\n        /* \"#utility.yul\":3754:3761   */\n      not\n        /* \"#utility.yul\":3749:3751   */\n      0x1f\n        /* \"#utility.yul\":3742:3747   */\n      dup4\n        /* \"#utility.yul\":3738:3752   */\n      add\n        /* \"#utility.yul\":3734:3762   */\n      and\n        /* \"#utility.yul\":3724:3762   */\n      swap1\n      pop\n        /* \"#utility.yul\":3666:3768   */\n      swap2\n      swap1\n      pop\n      jump\t// out\n        /* \"#utility.yul\":3774:4151   */\n    tag_179:\n        /* \"#utility.yul\":3862:3865   */\n      0x00\n        /* \"#utility.yul\":3890:3929   */\n      tag_229\n        /* \"#utility.yul\":3923:3928   */\n      dup3\n        /* \"#utility.yul\":3890:3929   */\n      tag_175\n      jump\t// in\n    tag_229:\n        /* \"#utility.yul\":3945:4016   */\n      tag_230\n        /* \"#utility.yul\":4009:4015   */\n      dup2\n        /* \"#utility.yul\":4004:4007   */\n      dup6\n        /* \"#utility.yul\":3945:4016   */\n      tag_176\n      jump\t// in\n    tag_230:\n        /* \"#utility.yul\":3938:4016   */\n      swap4\n      pop\n        /* \"#utility.yul\":4025:4090   */\n      tag_231\n        /* \"#utility.yul\":4083:4089   */\n      dup2\n        /* \"#utility.yul\":4078:4081   */\n      dup6\n        /* \"#utility.yul\":4071:4075   */\n      0x20\n        /* \"#utility.yul\":4064:4069   */\n      dup7\n        /* \"#utility.yul\":4060:4076   */\n      add\n        /* \"#utility.yul\":4025:4090   */\n      tag_177\n      jump\t// in\n    tag_231:\n        /* \"#utility.yul\":4115:4144   */\n      tag_232\n        /* \"#utility.yul\":4137:4143   */\n      dup2\n        /* \"#utility.yul\":4115:4144   */\n      tag_178\n      jump\t// in\n    tag_232:\n        /* \"#utility.yul\":4110:4113   */\n      dup5\n        /* \"#utility.yul\":4106:4145   */\n      add\n        /* \"#utility.yul\":4099:4145   */\n      swap2\n      pop\n        /* \"#utility.yul\":3866:4151   */\n      pop\n        /* \"#utility.yul\":3774:4151   */\n      swap3\n      swap2\n      pop\n      pop\n      jump\t// out\n        /* \"#utility.yul\":4157:4470   */\n    tag_99:\n        /* \"#utility.yul\":4270:4274   */\n      0x00\n        /* \"#utility.yul\":4308:4310   */\n      0x20\n        /* \"#utility.yul\":4297:4306   */\n      dup3\n        /* \"#utility.yul\":4293:4311   */\n      add\n        /* \"#utility.yul\":4285:4311   */\n      swap1\n      pop\n        /* \"#utility.yul\":4357:4366   */\n      dup2\n        /* \"#utility.yul\":4351:4355   */\n      dup2\n        /* \"#utility.yul\":4347:4367   */\n      sub\n        /* \"#utility.yul\":4343:4344   */\n      0x00\n        /* \"#utility.yul\":4332:4341   */\n      dup4\n        /* \"#utility.yul\":4328:4345   */\n      add\n        /* \"#utility.yul\":4321:4368   */\n      mstore\n        /* \"#utility.yul\":4385:4463   */\n      tag_234\n        /* \"#utility.yul\":4458:4462   */\n      dup2\n        /* \"#utility.yul\":4449:4455   */\n      dup5\n        /* \"#utility.yul\":4385:4463   */\n      tag_179\n      jump\t// in\n    tag_234:\n        /* \"#utility.yul\":4377:4463   */\n      swap1\n      pop\n        /* \"#utility.yul\":4157:4470   */\n      swap3\n      swap2\n      pop\n      pop\n      jump\t// out\n        /* \"#utility.yul\":4476:4656   */\n    tag_180:\n        /* \"#utility.yul\":4524:4601   */\n      0x4e487b7100000000000000000000000000000000000000000000000000000000\n        /* \"#utility.yul\":4521:4522   */\n      0x00\n        /* \"#utility.yul\":4514:4602   */\n      mstore\n        /* \"#utility.yul\":4621:4625   */\n      0x11\n        /* \"#utility.yul\":4618:4619   */\n      0x04\n        /* \"#utility.yul\":4611:4626   */\n      mstore\n        /* \"#utility.yul\":4645:4649   */\n      0x24\n        /* \"#utility.yul\":4642:4643   */\n      0x00\n        /* \"#utility.yul\":4635:4650   */\n      revert\n        /* \"#utility.yul\":4662:4853   */\n    tag_103:\n        /* \"#utility.yul\":4702:4705   */\n      0x00\n        /* \"#utility.yul\":4721:4741   */\n      tag_237\n        /* \"#utility.yul\":4739:4740   */\n      dup3\n        /* \"#utility.yul\":4721:4741   */\n      tag_163\n      jump\t// in\n    tag_237:\n        /* \"#utility.yul\":4716:4741   */\n      swap2\n      pop\n        /* \"#utility.yul\":4755:4775   */\n      tag_238\n        /* \"#utility.yul\":4773:4774   */\n      dup4\n        /* \"#utility.yul\":4755:4775   */\n      tag_163\n      jump\t// in\n    tag_238:\n        /* \"#utility.yul\":4750:4775   */\n      swap3\n      pop\n        /* \"#utility.yul\":4798:4799   */\n      dup3\n        /* \"#utility.yul\":4795:4796   */\n      dup3\n        /* \"#utility.yul\":4791:4800   */\n      add\n        /* \"#utility.yul\":4784:4800   */\n      swap1\n      pop\n        /* \"#utility.yul\":4819:4822   */\n      dup1\n        /* \"#utility.yul\":4816:4817   */\n      dup3\n        /* \"#utility.yul\":4813:4823   */\n      gt\n        /* \"#utility.yul\":4810:4846   */\n      iszero\n      tag_239\n      jumpi\n        /* \"#utility.yul\":4826:4844   */\n      tag_240\n      tag_180\n      jump\t// in\n    tag_240:\n        /* \"#utility.yul\":4810:4846   */\n    tag_239:\n        /* \"#utility.yul\":4662:4853   */\n      swap3\n      swap2\n      pop\n      pop\n      jump\t// out\n        /* \"#utility.yul\":4859:5191   */\n    tag_106:\n        /* \"#utility.yul\":4980:4984   */\n      0x00\n        /* \"#utility.yul\":5018:5020   */\n      0x40\n        /* \"#utility.yul\":5007:5016   */\n      dup3\n        /* \"#utility.yul\":5003:5021   */\n      add\n        /* \"#utility.yul\":4995:5021   */\n      swap1\n      pop\n        /* \"#utility.yul\":5031:5102   */\n      tag_242\n        /* \"#utility.yul\":5099:5100   */\n      0x00\n        /* \"#utility.yul\":5088:5097   */\n      dup4\n        /* \"#utility.yul\":5084:5101   */\n      add\n        /* \"#utility.yul\":5075:5081   */\n      dup6\n        /* \"#utility.yul\":5031:5102   */\n      tag_164\n      jump\t// in\n    tag_242:\n        /* \"#utility.yul\":5112:5184   */\n      tag_243\n        /* \"#utility.yul\":5180:5182   */\n      0x20\n        /* \"#utility.yul\":5169:5178   */\n      dup4\n        /* \"#utility.yul\":5165:5183   */\n      add\n        /* \"#utility.yul\":5156:5162   */\n      dup5\n        /* \"#utility.yul\":5112:5184   */\n      tag_164\n      jump\t// in\n    tag_243:\n        /* \"#utility.yul\":4859:5191   */\n      swap4\n      swap3\n      pop\n      pop\n      pop\n      jump\t// out\n        /* \"#utility.yul\":5197:5430   */\n    tag_109:\n        /* \"#utility.yul\":5236:5239   */\n      0x00\n        /* \"#utility.yul\":5259:5283   */\n      tag_245\n        /* \"#utility.yul\":5277:5282   */\n      dup3\n        /* \"#utility.yul\":5259:5283   */\n      tag_163\n      jump\t// in\n    tag_245:\n        /* \"#utility.yul\":5250:5283   */\n      swap2\n      pop\n        /* \"#utility.yul\":5305:5371   */\n      0xffffffffffffffffffffffffffffffffffffffffffffffffffffffffffffffff\n        /* \"#utility.yul\":5298:5303   */\n      dup3\n        /* \"#utility.yul\":5295:5372   */\n      sub\n        /* \"#utility.yul\":5292:5395   */\n      tag_246\n      jumpi\n        /* \"#utility.yul\":5375:5393   */\n      tag_247\n      tag_180\n      jump\t// in\n    tag_247:\n        /* \"#utility.yul\":5292:5395   */\n    tag_246:\n        /* \"#utility.yul\":5422:5423   */\n      0x01\n        /* \"#utility.yul\":5415:5420   */\n      dup3\n        /* \"#utility.yul\":5411:5424   */\n      add\n        /* \"#utility.yul\":5404:5424   */\n      swap1\n      pop\n        /* \"#utility.yul\":5197:5430   */\n      swap2\n      swap1\n      pop\n      jump\t// out\n        /* \"#utility.yul\":5436:5878   */\n    tag_112:\n        /* \"#utility.yul\":5585:5589   */\n      0x00\n        /* \"#utility.yul\":5623:5625   */\n      0x60\n        /* \"#utility.yul\":5612:5621   */\n      dup3\n        /* \"#utility.yul\":5608:5626   */\n      add\n        /* \"#utility.yul\":5600:5626   */\n      swap1\n      pop\n        /* \"#utility.yul\":5636:5707   */\n      tag_249\n        /* \"#utility.yul\":5704:5705   */\n      0x00\n        /* \"#utility.yul\":5693:5702   */\n      dup4\n        /* \"#utility.yul\":5689:5706   */\n      add\n        /* \"#utility.yul\":5680:5686   */\n      dup7\n        /* \"#utility.yul\":5636:5707   */\n      tag_164\n      jump\t// in\n    tag_249:\n        /* \"#utility.yul\":5717:5789   */\n      tag_250\n        /* \"#utility.yul\":5785:5787   */\n      0x20\n        /* \"#utility.yul\":5774:5783   */\n      dup4\n        /* \"#utility.yul\":5770:5788   */\n      add\n        /* \"#utility.yul\":5761:5767   */\n      dup6\n        /* \"#utility.yul\":5717:5789   */\n      tag_164\n      jump\t// in\n    tag_250:\n        /* \"#utility.yul\":5799:5871   */\n      tag_251\n        /* \"#utility.yul\":5867:5869   */\n      0x40\n        /* \"#utility.yul\":5856:5865   */\n      dup4\n        /* \"#utility.yul\":5852:5870   */\n      add\n        /* \"#utility.yul\":5843:5849   */\n      dup5\n        /* \"#utility.yul\":5799:5871   */\n      tag_164\n      jump\t// in\n    tag_251:\n        /* \"#utility.yul\":5436:5878   */\n      swap5\n      swap4\n      pop\n      pop\n      pop\n      pop\n      jump\t// out\n        /* \"#utility.yul\":5884:6078   */\n    tag_122:\n        /* \"#utility.yul\":5924:5928   */\n      0x00\n        /* \"#utility.yul\":5944:5964   */\n      tag_253\n        /* \"#utility.yul\":5962:5963   */\n      dup3\n        /* \"#utility.yul\":5944:5964   */\n      tag_163\n      jump\t// in\n    tag_253:\n        /* \"#utility.yul\":5939:5964   */\n      swap2\n      pop\n        /* \"#utility.yul\":5978:5998   */\n      tag_254\n        /* \"#utility.yul\":5996:5997   */\n      dup4\n        /* \"#utility.yul\":5978:5998   */\n      tag_163\n      jump\t// in\n    tag_254:\n        /* \"#utility.yul\":5973:5998   */\n      swap3\n      pop\n        /* \"#utility.yul\":6022:6023   */\n      dup3\n        /* \"#utility.yul\":6019:6020   */\n      dup3\n        /* \"#utility.yul\":6015:6024   */\n      sub\n        /* \"#utility.yul\":6007:6024   */\n      swap1\n      pop\n        /* \"#utility.yul\":6046:6047   */\n      dup2\n        /* \"#utility.yul\":6040:6044   */\n      dup2\n        /* \"#utility.yul\":6037:6048   */\n      gt\n        /* \"#utility.yul\":6034:6071   */\n      iszero\n      tag_255\n      jumpi\n        /* \"#utility.yul\":6051:6069   */\n      tag_256\n      tag_180\n      jump\t// in\n    tag_256:\n        /* \"#utility.yul\":6034:6071   */\n    tag_255:\n        /* \"#utility.yul\":5884:6078   */\n      swap3\n      swap2\n      pop\n      pop\n      jump\t// out\n        /* \"#utility.yul\":6084:6231   */\n    tag_181:\n        /* \"#utility.yul\":6185:6196   */\n      0x00\n        /* \"#utility.yul\":6222:6225   */\n      dup2\n        /* \"#utility.yul\":6207:6225   */\n      swap1\n      pop\n        /* \"#utility.yul\":6084:6231   */\n      swap3\n      swap2\n      pop\n      pop\n      jump\t// out\n        /* \"#utility.yul\":6237:6351   */\n    tag_182:\n      pop\n      jump\t// out\n        /* \"#utility.yul\":6357:6755   */\n    tag_183:\n        /* \"#utility.yul\":6516:6519   */\n      0x00\n        /* \"#utility.yul\":6537:6620   */\n      tag_260\n        /* \"#utility.yul\":6618:6619   */\n      0x00\n        /* \"#utility.yul\":6613:6616   */\n      dup4\n        /* \"#utility.yul\":6537:6620   */\n      tag_181\n      jump\t// in\n    tag_260:\n        /* \"#utility.yul\":6530:6620   */\n      swap2\n      pop\n        /* \"#utility.yul\":6629:6722   */\n      tag_261\n        /* \"#utility.yul\":6718:6721   */\n      dup3\n        /* \"#utility.yul\":6629:6722   */\n      tag_182\n      jump\t// in\n    tag_261:\n        /* \"#utility.yul\":6747:6748   */\n      0x00\n        /* \"#utility.yul\":6742:6745   */\n      dup3\n        /* \"#utility.yul\":6738:6749   */\n      add\n        /* \"#utility.yul\":6731:6749   */\n      swap1\n      pop\n        /* \"#utility.yul\":6357:6755   */\n      swap2\n      swap1\n      pop\n      jump\t// out\n        /* \"#utility.yul\":6761:7140   */\n    tag_127:\n        /* \"#utility.yul\":6945:6948   */\n      0x00\n        /* \"#utility.yul\":6967:7114   */\n      tag_263\n        /* \"#utility.yul\":7110:7113   */\n      dup3\n        /* \"#utility.yul\":6967:7114   */\n      tag_183\n      jump\t// in\n    tag_263:\n        /* \"#utility.yul\":6960:7114   */\n      swap2\n      pop\n        /* \"#utility.yul\":7131:7134   */\n      dup2\n        /* \"#utility.yul\":7124:7134   */\n      swap1\n      pop\n        /* \"#utility.yul\":6761:7140   */\n      swap2\n      swap1\n      pop\n      jump\t// out\n        /* \"#utility.yul\":7146:7478   */\n    tag_133:\n        /* \"#utility.yul\":7267:7271   */\n      0x00\n        /* \"#utility.yul\":7305:7307   */\n      0x40\n        /* \"#utility.yul\":7294:7303   */\n      dup3\n        /* \"#utility.yul\":7290:7308   */\n      add\n        /* \"#utility.yul\":7282:7308   */\n      swap1\n      pop\n        /* \"#utility.yul\":7318:7389   */\n      tag_265\n        /* \"#utility.yul\":7386:7387   */\n      0x00\n        /* \"#utility.yul\":7375:7384   */\n      dup4\n        /* \"#utility.yul\":7371:7388   */\n      add\n        /* \"#utility.yul\":7362:7368   */\n      dup6\n        /* \"#utility.yul\":7318:7389   */\n      tag_172\n      jump\t// in\n    tag_265:\n        /* \"#utility.yul\":7399:7471   */\n      tag_266\n        /* \"#utility.yul\":7467:7469   */\n      0x20\n        /* \"#utility.yul\":7456:7465   */\n      dup4\n        /* \"#utility.yul\":7452:7470   */\n      add\n        /* \"#utility.yul\":7443:7449   */\n      dup5\n        /* \"#utility.yul\":7399:7471   */\n      tag_164\n      jump\t// in\n    tag_266:\n        /* \"#utility.yul\":7146:7478   */\n      swap4\n      swap3\n      pop\n      pop\n      pop\n      jump\t// out\n\n    auxdata: 0xa2646970667358221220c7e9b7dc635c060dc8fabbeb694e26a17d071ef8979cf8bb839dfa333e5d398c64736f6c634300081e0033\n}\n",
				"bytecode": {
					"linkReferences": {},
					"object": "60c060405234801561000f575f5ffd5b506040516115f63803806115f6833981810160405281019061003191906100d9565b335f5f6101000a81548173ffffffffffffffffffffffffffffffffffffffff021916908373ffffffffffffffffffffffffffffffffffffffff16021790555081608081815250508060a08181525050600160075f6101000a81548160ff021916908360ff1602179055505050610117565b5f5ffd5b5f819050919050565b6100b8816100a6565b81146100c2575f5ffd5b50565b5f815190506100d3816100af565b92915050565b5f5f604083850312156100ef576100ee6100a2565b5b5f6100fc858286016100c5565b925050602061010d858286016100c5565b9150509250929050565b60805160a0516114946101625f395f818161077b015281816107a401528181610ab50152610b2c01525f81816104ed0152818161051601528181610b0b0152610ed001526114945ff3fe6080604052600436106100eb575f3560e01c8063d0e30db011610089578063ecbea24d11610058578063ecbea24d146103e9578063f2fde38b14610413578063f8b2cb4f1461043b578063ffa1ad74146104775761017f565b8063d0e30db01461033f578063d369e33c14610349578063d8e426a814610385578063e4813821146103ad5761017f565b80634dab4207116100c55780634dab4207146102935780638da5cb5b146102bd578063b16a867c146102e7578063c847119d146103155761017f565b80630770e571146102175780631977e938146102415780632e1a7d4d1461026b5761017f565b3661017f57600260ff1660075f9054906101000a900460ff1660ff160361013e576040517f37ed32e800000000000000000000000000000000000000000000000000000000815260040160405180910390fd5b600260075f6101000a81548160ff021916908360ff16021790555061016333346104a1565b600160075f6101000a81548160ff021916908360ff1602179055005b600260ff1660075f9054906101000a900460ff1660ff16036101cd576040517f37ed32e800000000000000000000000000000000000000000000000000000000815260040160405180910390fd5b600260075f6101000a81548160ff021916908360ff1602179055505f3411156101fb576101fa33346104a1565b5b600160075f6101000a81548160ff021916908360ff1602179055005b348015610222575f5ffd5b5061022b6106cb565b60405161023891906110c0565b60405180910390f35b34801561024c575f5ffd5b506102556106d1565b60405161026291906110c0565b60405180910390f35b348015610276575f5ffd5b50610291600480360381019061028c9190611107565b6106d7565b005b34801561029e575f5ffd5b506102a7610ab3565b6040516102b491906110c0565b60405180910390f35b3480156102c8575f5ffd5b506102d1610ad7565b6040516102de9190611171565b60405180910390f35b3480156102f2575f5ffd5b506102fb610afb565b60405161030c95949392919061118a565b60405180910390f35b348015610320575f5ffd5b50610329610b5c565b60405161033691906110c0565b60405180910390f35b610347610b62565b005b348015610354575f5ffd5b5061036f600480360381019061036a9190611205565b610bf2565b60405161037c91906110c0565b60405180910390f35b348015610390575f5ffd5b506103ab60048036038101906103a69190611107565b610c07565b005b3480156103b8575f5ffd5b506103d360048036038101906103ce9190611205565b610eb9565b6040516103e091906110c0565b60405180910390f35b3480156103f4575f5ffd5b506103fd610ece565b60405161040a91906110c0565b60405180910390f35b34801561041e575f5ffd5b5061043960048036038101906104349190611205565b610ef2565b005b348015610446575f5ffd5b50610461600480360381019061045c9190611205565b611029565b60405161046e91906110c0565b60405180910390f35b348015610482575f5ffd5b5061048b61106f565b60405161049891906112a0565b60405180910390f35b5f81036104da576040517f1f2a200500000000000000000000000000000000000000000000000000000000815260040160405180910390fd5b5f816001546104e991906112ed565b90507f000000000000000000000000000000000000000000000000000000000000000081111561057257807f00000000000000000000000000000000000000000000000000000000000000006040517f4274ef77000000000000000000000000000000000000000000000000000000008152600401610569929190611320565b60405180910390fd5b8160045f8573ffffffffffffffffffffffffffffffffffffffff1673ffffffffffffffffffffffffffffffffffffffff1681526020019081526020015f205f8282546105be91906112ed565b925050819055508060018190555060025f8154809291906105de90611347565b919050555060055f8473ffffffffffffffffffffffffffffffffffffffff1673ffffffffffffffffffffffffffffffffffffffff1681526020019081526020015f205f81548092919061063090611347565b91905055508273ffffffffffffffffffffffffffffffffffffffff167f36af321ec8d3c75236829c5317affd40ddb308863a1236d2d277a4025cccee1e8360045f8773ffffffffffffffffffffffffffffffffffffffff1673ffffffffffffffffffffffffffffffffffffffff1681526020019081526020015f20546002546040516106be9392919061138e565b60405180910390a2505050565b60035481565b60015481565b600260ff1660075f9054906101000a900460ff1660ff1603610725576040517f37ed32e800000000000000000000000000000000000000000000000000000000815260040160405180910390fd5b600260075f6101000a81548160ff021916908360ff1602179055505f8103610779576040517f1f2a200500000000000000000000000000000000000000000000000000000000815260040160405180910390fd5b7f000000000000000000000000000000000000000000000000000000000000000081111561080057807f00000000000000000000000000000000000000000000000000000000000000006040517fde0313af0000000000000000000000000000000000000000000000000000000081526004016107f7929190611320565b60405180910390fd5b5f60045f3373ffffffffffffffffffffffffffffffffffffffff1673ffffffffffffffffffffffffffffffffffffffff1681526020019081526020015f20549050818110156108885780826040517fcf47918100000000000000000000000000000000000000000000000000000000815260040161087f929190611320565b60405180910390fd5b818161089491906113c3565b60045f3373ffffffffffffffffffffffffffffffffffffffff1673ffffffffffffffffffffffffffffffffffffffff1681526020019081526020015f20819055508160015f8282546108e691906113c3565b9250508190555060035f8154809291906108ff90611347565b919050555060065f3373ffffffffffffffffffffffffffffffffffffffff1673ffffffffffffffffffffffffffffffffffffffff1681526020019081526020015f205f81548092919061095190611347565b91905055505f3373ffffffffffffffffffffffffffffffffffffffff168360405161097b90611423565b5f6040518083038185875af1925050503d805f81146109b5576040519150601f19603f3d011682016040523d82523d5f602084013e6109ba565b606091505b5050905080610a025733836040517f1c43b9760000000000000000000000000000000000000000000000000000000081526004016109f9929190611437565b60405180910390fd5b3373ffffffffffffffffffffffffffffffffffffffff167f650fdf669e93aa6c8ff3defe2da9c12b64f1548e5e1e54e803f4c1beb6466c8e8460045f3373ffffffffffffffffffffffffffffffffffffffff1673ffffffffffffffffffffffffffffffffffffffff1681526020019081526020015f2054600354604051610a8b9392919061138e565b60405180910390a25050600160075f6101000a81548160ff021916908360ff16021790555050565b7f000000000000000000000000000000000000000000000000000000000000000081565b5f5f9054906101000a900473ffffffffffffffffffffffffffffffffffffffff1681565b5f5f5f5f5f6001546002546003547f00000000000000000000000000000000000000000000000000000000000000007f0000000000000000000000000000000000000000000000000000000000000000945094509450945094509091929394565b60025481565b600260ff1660075f9054906101000a900460ff1660ff1603610bb0576040517f37ed32e800000000000000000000000000000000000000000000000000000000815260040160405180910390fd5b600260075f6101000a81548160ff021916908360ff160217905550610bd533346104a1565b600160075f6101000a81548160ff021916908360ff160217905550565b6005602052805f5260405f205f915090505481565b5f5f9054906101000a900473ffffffffffffffffffffffffffffffffffffffff1673ffffffffffffffffffffffffffffffffffffffff163373ffffffffffffffffffffffffffffffffffffffff1614610c9757336040517f245aecd3000000000000000000000000000000000000000000000000000000008152600401610c8e9190611171565b60405180910390fd5b600260ff1660075f9054906101000a900460ff1660ff1603610ce5576040517f37ed32e800000000000000000000000000000000000000000000000000000000815260040160405180910390fd5b600260075f6101000a81548160ff021916908360ff1602179055505f8103610d39576040517f1f2a200500000000000000000000000000000000000000000000000000000000815260040160405180910390fd5b600154811115610d8457600154816040517fcf479181000000000000000000000000000000000000000000000000000000008152600401610d7b929190611320565b60405180910390fd5b8060015f828254610d9591906113c3565b925050819055505f3373ffffffffffffffffffffffffffffffffffffffff1682604051610dc190611423565b5f6040518083038185875af1925050503d805f8114610dfb576040519150601f19603f3d011682016040523d82523d5f602084013e610e00565b606091505b5050905080610e485733826040517f1c43b976000000000000000000000000000000000000000000000000000000008152600401610e3f929190611437565b60405180910390fd5b3373ffffffffffffffffffffffffffffffffffffffff167f5e70f429cb11006093b2f75398f48bd6971871dca25171e8237120e666c1b16883600154604051610e92929190611320565b60405180910390a250600160075f6101000a81548160ff021916908360ff16021790555050565b6006602052805f5260405f205f915090505481565b7f000000000000000000000000000000000000000000000000000000000000000081565b5f5f9054906101000a900473ffffffffffffffffffffffffffffffffffffffff1673ffffffffffffffffffffffffffffffffffffffff163373ffffffffffffffffffffffffffffffffffffffff1614610f8257336040517f245aecd3000000000000000000000000000000000000000000000000000000008152600401610f799190611171565b60405180910390fd5b5f73ffffffffffffffffffffffffffffffffffffffff168173ffffffffffffffffffffffffffffffffffffffff1603610fe7576040517fd92e233d00000000000000000000000000000000000000000000000000000000815260040160405180910390fd5b805f5f6101000a81548173ffffffffffffffffffffffffffffffffffffffff021916908373ffffffffffffffffffffffffffffffffffffffff16021790555050565b5f60045f8373ffffffffffffffffffffffffffffffffffffffff1673ffffffffffffffffffffffffffffffffffffffff1681526020019081526020015f20549050919050565b6040518060400160405280600b81526020017f4b69707542616e6b20763100000000000000000000000000000000000000000081525081565b5f819050919050565b6110ba816110a8565b82525050565b5f6020820190506110d35f8301846110b1565b92915050565b5f5ffd5b6110e6816110a8565b81146110f0575f5ffd5b50565b5f81359050611101816110dd565b92915050565b5f6020828403121561111c5761111b6110d9565b5b5f611129848285016110f3565b91505092915050565b5f73ffffffffffffffffffffffffffffffffffffffff82169050919050565b5f61115b82611132565b9050919050565b61116b81611151565b82525050565b5f6020820190506111845f830184611162565b92915050565b5f60a08201905061119d5f8301886110b1565b6111aa60208301876110b1565b6111b760408301866110b1565b6111c460608301856110b1565b6111d160808301846110b1565b9695505050505050565b6111e481611151565b81146111ee575f5ffd5b50565b5f813590506111ff816111db565b92915050565b5f6020828403121561121a576112196110d9565b5b5f611227848285016111f1565b91505092915050565b5f81519050919050565b5f82825260208201905092915050565b8281835e5f83830152505050565b5f601f19601f8301169050919050565b5f61127282611230565b61127c818561123a565b935061128c81856020860161124a565b61129581611258565b840191505092915050565b5f6020820190508181035f8301526112b88184611268565b905092915050565b7f4e487b71000000000000000000000000000000000000000000000000000000005f52601160045260245ffd5b5f6112f7826110a8565b9150611302836110a8565b925082820190508082111561131a576113196112c0565b5b92915050565b5f6040820190506113335f8301856110b1565b61134060208301846110b1565b9392505050565b5f611351826110a8565b91507fffffffffffffffffffffffffffffffffffffffffffffffffffffffffffffffff8203611383576113826112c0565b5b600182019050919050565b5f6060820190506113a15f8301866110b1565b6113ae60208301856110b1565b6113bb60408301846110b1565b949350505050565b5f6113cd826110a8565b91506113d8836110a8565b92508282039050818111156113f0576113ef6112c0565b5b92915050565b5f81905092915050565b50565b5f61140e5f836113f6565b915061141982611400565b5f82019050919050565b5f61142d82611403565b9150819050919050565b5f60408201905061144a5f830185611162565b61145760208301846110b1565b939250505056fea2646970667358221220c7e9b7dc635c060dc8fabbeb694e26a17d071ef8979cf8bb839dfa333e5d398c64736f6c634300081e0033",
					"opcodes": "PUSH1 0xC0 PUSH1 0x40 MSTORE CALLVALUE DUP1 ISZERO PUSH2 0xF JUMPI PUSH0 PUSH0 REVERT JUMPDEST POP PUSH1 0x40 MLOAD PUSH2 0x15F6 CODESIZE SUB DUP1 PUSH2 0x15F6 DUP4 CODECOPY DUP2 DUP2 ADD PUSH1 0x40 MSTORE DUP2 ADD SWAP1 PUSH2 0x31 SWAP2 SWAP1 PUSH2 0xD9 JUMP JUMPDEST CALLER PUSH0 PUSH0 PUSH2 0x100 EXP DUP2 SLOAD DUP2 PUSH20 0xFFFFFFFFFFFFFFFFFFFFFFFFFFFFFFFFFFFFFFFF MUL NOT AND SWAP1 DUP4 PUSH20 0xFFFFFFFFFFFFFFFFFFFFFFFFFFFFFFFFFFFFFFFF AND MUL OR SWAP1 SSTORE POP DUP2 PUSH1 0x80 DUP2 DUP2 MSTORE POP POP DUP1 PUSH1 0xA0 DUP2 DUP2 MSTORE POP POP PUSH1 0x1 PUSH1 0x7 PUSH0 PUSH2 0x100 EXP DUP2 SLOAD DUP2 PUSH1 0xFF MUL NOT AND SWAP1 DUP4 PUSH1 0xFF AND MUL OR SWAP1 SSTORE POP POP POP PUSH2 0x117 JUMP JUMPDEST PUSH0 PUSH0 REVERT JUMPDEST PUSH0 DUP2 SWAP1 POP SWAP2 SWAP1 POP JUMP JUMPDEST PUSH2 0xB8 DUP2 PUSH2 0xA6 JUMP JUMPDEST DUP2 EQ PUSH2 0xC2 JUMPI PUSH0 PUSH0 REVERT JUMPDEST POP JUMP JUMPDEST PUSH0 DUP2 MLOAD SWAP1 POP PUSH2 0xD3 DUP2 PUSH2 0xAF JUMP JUMPDEST SWAP3 SWAP2 POP POP JUMP JUMPDEST PUSH0 PUSH0 PUSH1 0x40 DUP4 DUP6 SUB SLT ISZERO PUSH2 0xEF JUMPI PUSH2 0xEE PUSH2 0xA2 JUMP JUMPDEST JUMPDEST PUSH0 PUSH2 0xFC DUP6 DUP3 DUP7 ADD PUSH2 0xC5 JUMP JUMPDEST SWAP3 POP POP PUSH1 0x20 PUSH2 0x10D DUP6 DUP3 DUP7 ADD PUSH2 0xC5 JUMP JUMPDEST SWAP2 POP POP SWAP3 POP SWAP3 SWAP1 POP JUMP JUMPDEST PUSH1 0x80 MLOAD PUSH1 0xA0 MLOAD PUSH2 0x1494 PUSH2 0x162 PUSH0 CODECOPY PUSH0 DUP2 DUP2 PUSH2 0x77B ADD MSTORE DUP2 DUP2 PUSH2 0x7A4 ADD MSTORE DUP2 DUP2 PUSH2 0xAB5 ADD MSTORE PUSH2 0xB2C ADD MSTORE PUSH0 DUP2 DUP2 PUSH2 0x4ED ADD MSTORE DUP2 DUP2 PUSH2 0x516 ADD MSTORE DUP2 DUP2 PUSH2 0xB0B ADD MSTORE PUSH2 0xED0 ADD MSTORE PUSH2 0x1494 PUSH0 RETURN INVALID PUSH1 0x80 PUSH1 0x40 MSTORE PUSH1 0x4 CALLDATASIZE LT PUSH2 0xEB JUMPI PUSH0 CALLDATALOAD PUSH1 0xE0 SHR DUP1 PUSH4 0xD0E30DB0 GT PUSH2 0x89 JUMPI DUP1 PUSH4 0xECBEA24D GT PUSH2 0x58 JUMPI DUP1 PUSH4 0xECBEA24D EQ PUSH2 0x3E9 JUMPI DUP1 PUSH4 0xF2FDE38B EQ PUSH2 0x413 JUMPI DUP1 PUSH4 0xF8B2CB4F EQ PUSH2 0x43B JUMPI DUP1 PUSH4 0xFFA1AD74 EQ PUSH2 0x477 JUMPI PUSH2 0x17F JUMP JUMPDEST DUP1 PUSH4 0xD0E30DB0 EQ PUSH2 0x33F JUMPI DUP1 PUSH4 0xD369E33C EQ PUSH2 0x349 JUMPI DUP1 PUSH4 0xD8E426A8 EQ PUSH2 0x385 JUMPI DUP1 PUSH4 0xE4813821 EQ PUSH2 0x3AD JUMPI PUSH2 0x17F JUMP JUMPDEST DUP1 PUSH4 0x4DAB4207 GT PUSH2 0xC5 JUMPI DUP1 PUSH4 0x4DAB4207 EQ PUSH2 0x293 JUMPI DUP1 PUSH4 0x8DA5CB5B EQ PUSH2 0x2BD JUMPI DUP1 PUSH4 0xB16A867C EQ PUSH2 0x2E7 JUMPI DUP1 PUSH4 0xC847119D EQ PUSH2 0x315 JUMPI PUSH2 0x17F JUMP JUMPDEST DUP1 PUSH4 0x770E571 EQ PUSH2 0x217 JUMPI DUP1 PUSH4 0x1977E938 EQ PUSH2 0x241 JUMPI DUP1 PUSH4 0x2E1A7D4D EQ PUSH2 0x26B JUMPI PUSH2 0x17F JUMP JUMPDEST CALLDATASIZE PUSH2 0x17F JUMPI PUSH1 0x2 PUSH1 0xFF AND PUSH1 0x7 PUSH0 SWAP1 SLOAD SWAP1 PUSH2 0x100 EXP SWAP1 DIV PUSH1 0xFF AND PUSH1 0xFF AND SUB PUSH2 0x13E JUMPI PUSH1 0x40 MLOAD PUSH32 0x37ED32E800000000000000000000000000000000000000000000000000000000 DUP2 MSTORE PUSH1 0x4 ADD PUSH1 0x40 MLOAD DUP1 SWAP2 SUB SWAP1 REVERT JUMPDEST PUSH1 0x2 PUSH1 0x7 PUSH0 PUSH2 0x100 EXP DUP2 SLOAD DUP2 PUSH1 0xFF MUL NOT AND SWAP1 DUP4 PUSH1 0xFF AND MUL OR SWAP1 SSTORE POP PUSH2 0x163 CALLER CALLVALUE PUSH2 0x4A1 JUMP JUMPDEST PUSH1 0x1 PUSH1 0x7 PUSH0 PUSH2 0x100 EXP DUP2 SLOAD DUP2 PUSH1 0xFF MUL NOT AND SWAP1 DUP4 PUSH1 0xFF AND MUL OR SWAP1 SSTORE STOP JUMPDEST PUSH1 0x2 PUSH1 0xFF AND PUSH1 0x7 PUSH0 SWAP1 SLOAD SWAP1 PUSH2 0x100 EXP SWAP1 DIV PUSH1 0xFF AND PUSH1 0xFF AND SUB PUSH2 0x1CD JUMPI PUSH1 0x40 MLOAD PUSH32 0x37ED32E800000000000000000000000000000000000000000000000000000000 DUP2 MSTORE PUSH1 0x4 ADD PUSH1 0x40 MLOAD DUP1 SWAP2 SUB SWAP1 REVERT JUMPDEST PUSH1 0x2 PUSH1 0x7 PUSH0 PUSH2 0x100 EXP DUP2 SLOAD DUP2 PUSH1 0xFF MUL NOT AND SWAP1 DUP4 PUSH1 0xFF AND MUL OR SWAP1 SSTORE POP PUSH0 CALLVALUE GT ISZERO PUSH2 0x1FB JUMPI PUSH2 0x1FA CALLER CALLVALUE PUSH2 0x4A1 JUMP JUMPDEST JUMPDEST PUSH1 0x1 PUSH1 0x7 PUSH0 PUSH2 0x100 EXP DUP2 SLOAD DUP2 PUSH1 0xFF MUL NOT AND SWAP1 DUP4 PUSH1 0xFF AND MUL OR SWAP1 SSTORE STOP JUMPDEST CALLVALUE DUP1 ISZERO PUSH2 0x222 JUMPI PUSH0 PUSH0 REVERT JUMPDEST POP PUSH2 0x22B PUSH2 0x6CB JUMP JUMPDEST PUSH1 0x40 MLOAD PUSH2 0x238 SWAP2 SWAP1 PUSH2 0x10C0 JUMP JUMPDEST PUSH1 0x40 MLOAD DUP1 SWAP2 SUB SWAP1 RETURN JUMPDEST CALLVALUE DUP1 ISZERO PUSH2 0x24C JUMPI PUSH0 PUSH0 REVERT JUMPDEST POP PUSH2 0x255 PUSH2 0x6D1 JUMP JUMPDEST PUSH1 0x40 MLOAD PUSH2 0x262 SWAP2 SWAP1 PUSH2 0x10C0 JUMP JUMPDEST PUSH1 0x40 MLOAD DUP1 SWAP2 SUB SWAP1 RETURN JUMPDEST CALLVALUE DUP1 ISZERO PUSH2 0x276 JUMPI PUSH0 PUSH0 REVERT JUMPDEST POP PUSH2 0x291 PUSH1 0x4 DUP1 CALLDATASIZE SUB DUP2 ADD SWAP1 PUSH2 0x28C SWAP2 SWAP1 PUSH2 0x1107 JUMP JUMPDEST PUSH2 0x6D7 JUMP JUMPDEST STOP JUMPDEST CALLVALUE DUP1 ISZERO PUSH2 0x29E JUMPI PUSH0 PUSH0 REVERT JUMPDEST POP PUSH2 0x2A7 PUSH2 0xAB3 JUMP JUMPDEST PUSH1 0x40 MLOAD PUSH2 0x2B4 SWAP2 SWAP1 PUSH2 0x10C0 JUMP JUMPDEST PUSH1 0x40 MLOAD DUP1 SWAP2 SUB SWAP1 RETURN JUMPDEST CALLVALUE DUP1 ISZERO PUSH2 0x2C8 JUMPI PUSH0 PUSH0 REVERT JUMPDEST POP PUSH2 0x2D1 PUSH2 0xAD7 JUMP JUMPDEST PUSH1 0x40 MLOAD PUSH2 0x2DE SWAP2 SWAP1 PUSH2 0x1171 JUMP JUMPDEST PUSH1 0x40 MLOAD DUP1 SWAP2 SUB SWAP1 RETURN JUMPDEST CALLVALUE DUP1 ISZERO PUSH2 0x2F2 JUMPI PUSH0 PUSH0 REVERT JUMPDEST POP PUSH2 0x2FB PUSH2 0xAFB JUMP JUMPDEST PUSH1 0x40 MLOAD PUSH2 0x30C SWAP6 SWAP5 SWAP4 SWAP3 SWAP2 SWAP1 PUSH2 0x118A JUMP JUMPDEST PUSH1 0x40 MLOAD DUP1 SWAP2 SUB SWAP1 RETURN JUMPDEST CALLVALUE DUP1 ISZERO PUSH2 0x320 JUMPI PUSH0 PUSH0 REVERT JUMPDEST POP PUSH2 0x329 PUSH2 0xB5C JUMP JUMPDEST PUSH1 0x40 MLOAD PUSH2 0x336 SWAP2 SWAP1 PUSH2 0x10C0 JUMP JUMPDEST PUSH1 0x40 MLOAD DUP1 SWAP2 SUB SWAP1 RETURN JUMPDEST PUSH2 0x347 PUSH2 0xB62 JUMP JUMPDEST STOP JUMPDEST CALLVALUE DUP1 ISZERO PUSH2 0x354 JUMPI PUSH0 PUSH0 REVERT JUMPDEST POP PUSH2 0x36F PUSH1 0x4 DUP1 CALLDATASIZE SUB DUP2 ADD SWAP1 PUSH2 0x36A SWAP2 SWAP1 PUSH2 0x1205 JUMP JUMPDEST PUSH2 0xBF2 JUMP JUMPDEST PUSH1 0x40 MLOAD PUSH2 0x37C SWAP2 SWAP1 PUSH2 0x10C0 JUMP JUMPDEST PUSH1 0x40 MLOAD DUP1 SWAP2 SUB SWAP1 RETURN JUMPDEST CALLVALUE DUP1 ISZERO PUSH2 0x390 JUMPI PUSH0 PUSH0 REVERT JUMPDEST POP PUSH2 0x3AB PUSH1 0x4 DUP1 CALLDATASIZE SUB DUP2 ADD SWAP1 PUSH2 0x3A6 SWAP2 SWAP1 PUSH2 0x1107 JUMP JUMPDEST PUSH2 0xC07 JUMP JUMPDEST STOP JUMPDEST CALLVALUE DUP1 ISZERO PUSH2 0x3B8 JUMPI PUSH0 PUSH0 REVERT JUMPDEST POP PUSH2 0x3D3 PUSH1 0x4 DUP1 CALLDATASIZE SUB DUP2 ADD SWAP1 PUSH2 0x3CE SWAP2 SWAP1 PUSH2 0x1205 JUMP JUMPDEST PUSH2 0xEB9 JUMP JUMPDEST PUSH1 0x40 MLOAD PUSH2 0x3E0 SWAP2 SWAP1 PUSH2 0x10C0 JUMP JUMPDEST PUSH1 0x40 MLOAD DUP1 SWAP2 SUB SWAP1 RETURN JUMPDEST CALLVALUE DUP1 ISZERO PUSH2 0x3F4 JUMPI PUSH0 PUSH0 REVERT JUMPDEST POP PUSH2 0x3FD PUSH2 0xECE JUMP JUMPDEST PUSH1 0x40 MLOAD PUSH2 0x40A SWAP2 SWAP1 PUSH2 0x10C0 JUMP JUMPDEST PUSH1 0x40 MLOAD DUP1 SWAP2 SUB SWAP1 RETURN JUMPDEST CALLVALUE DUP1 ISZERO PUSH2 0x41E JUMPI PUSH0 PUSH0 REVERT JUMPDEST POP PUSH2 0x439 PUSH1 0x4 DUP1 CALLDATASIZE SUB DUP2 ADD SWAP1 PUSH2 0x434 SWAP2 SWAP1 PUSH2 0x1205 JUMP JUMPDEST PUSH2 0xEF2 JUMP JUMPDEST STOP JUMPDEST CALLVALUE DUP1 ISZERO PUSH2 0x446 JUMPI PUSH0 PUSH0 REVERT JUMPDEST POP PUSH2 0x461 PUSH1 0x4 DUP1 CALLDATASIZE SUB DUP2 ADD SWAP1 PUSH2 0x45C SWAP2 SWAP1 PUSH2 0x1205 JUMP JUMPDEST PUSH2 0x1029 JUMP JUMPDEST PUSH1 0x40 MLOAD PUSH2 0x46E SWAP2 SWAP1 PUSH2 0x10C0 JUMP JUMPDEST PUSH1 0x40 MLOAD DUP1 SWAP2 SUB SWAP1 RETURN JUMPDEST CALLVALUE DUP1 ISZERO PUSH2 0x482 JUMPI PUSH0 PUSH0 REVERT JUMPDEST POP PUSH2 0x48B PUSH2 0x106F JUMP JUMPDEST PUSH1 0x40 MLOAD PUSH2 0x498 SWAP2 SWAP1 PUSH2 0x12A0 JUMP JUMPDEST PUSH1 0x40 MLOAD DUP1 SWAP2 SUB SWAP1 RETURN JUMPDEST PUSH0 DUP2 SUB PUSH2 0x4DA JUMPI PUSH1 0x40 MLOAD PUSH32 0x1F2A200500000000000000000000000000000000000000000000000000000000 DUP2 MSTORE PUSH1 0x4 ADD PUSH1 0x40 MLOAD DUP1 SWAP2 SUB SWAP1 REVERT JUMPDEST PUSH0 DUP2 PUSH1 0x1 SLOAD PUSH2 0x4E9 SWAP2 SWAP1 PUSH2 0x12ED JUMP JUMPDEST SWAP1 POP PUSH32 0x0 DUP2 GT ISZERO PUSH2 0x572 JUMPI DUP1 PUSH32 0x0 PUSH1 0x40 MLOAD PUSH32 0x4274EF7700000000000000000000000000000000000000000000000000000000 DUP2 MSTORE PUSH1 0x4 ADD PUSH2 0x569 SWAP3 SWAP2 SWAP1 PUSH2 0x1320 JUMP JUMPDEST PUSH1 0x40 MLOAD DUP1 SWAP2 SUB SWAP1 REVERT JUMPDEST DUP2 PUSH1 0x4 PUSH0 DUP6 PUSH20 0xFFFFFFFFFFFFFFFFFFFFFFFFFFFFFFFFFFFFFFFF AND PUSH20 0xFFFFFFFFFFFFFFFFFFFFFFFFFFFFFFFFFFFFFFFF AND DUP2 MSTORE PUSH1 0x20 ADD SWAP1 DUP2 MSTORE PUSH1 0x20 ADD PUSH0 KECCAK256 PUSH0 DUP3 DUP3 SLOAD PUSH2 0x5BE SWAP2 SWAP1 PUSH2 0x12ED JUMP JUMPDEST SWAP3 POP POP DUP2 SWAP1 SSTORE POP DUP1 PUSH1 0x1 DUP2 SWAP1 SSTORE POP PUSH1 0x2 PUSH0 DUP2 SLOAD DUP1 SWAP3 SWAP2 SWAP1 PUSH2 0x5DE SWAP1 PUSH2 0x1347 JUMP JUMPDEST SWAP2 SWAP1 POP SSTORE POP PUSH1 0x5 PUSH0 DUP5 PUSH20 0xFFFFFFFFFFFFFFFFFFFFFFFFFFFFFFFFFFFFFFFF AND PUSH20 0xFFFFFFFFFFFFFFFFFFFFFFFFFFFFFFFFFFFFFFFF AND DUP2 MSTORE PUSH1 0x20 ADD SWAP1 DUP2 MSTORE PUSH1 0x20 ADD PUSH0 KECCAK256 PUSH0 DUP2 SLOAD DUP1 SWAP3 SWAP2 SWAP1 PUSH2 0x630 SWAP1 PUSH2 0x1347 JUMP JUMPDEST SWAP2 SWAP1 POP SSTORE POP DUP3 PUSH20 0xFFFFFFFFFFFFFFFFFFFFFFFFFFFFFFFFFFFFFFFF AND PUSH32 0x36AF321EC8D3C75236829C5317AFFD40DDB308863A1236D2D277A4025CCCEE1E DUP4 PUSH1 0x4 PUSH0 DUP8 PUSH20 0xFFFFFFFFFFFFFFFFFFFFFFFFFFFFFFFFFFFFFFFF AND PUSH20 0xFFFFFFFFFFFFFFFFFFFFFFFFFFFFFFFFFFFFFFFF AND DUP2 MSTORE PUSH1 0x20 ADD SWAP1 DUP2 MSTORE PUSH1 0x20 ADD PUSH0 KECCAK256 SLOAD PUSH1 0x2 SLOAD PUSH1 0x40 MLOAD PUSH2 0x6BE SWAP4 SWAP3 SWAP2 SWAP1 PUSH2 0x138E JUMP JUMPDEST PUSH1 0x40 MLOAD DUP1 SWAP2 SUB SWAP1 LOG2 POP POP POP JUMP JUMPDEST PUSH1 0x3 SLOAD DUP2 JUMP JUMPDEST PUSH1 0x1 SLOAD DUP2 JUMP JUMPDEST PUSH1 0x2 PUSH1 0xFF AND PUSH1 0x7 PUSH0 SWAP1 SLOAD SWAP1 PUSH2 0x100 EXP SWAP1 DIV PUSH1 0xFF AND PUSH1 0xFF AND SUB PUSH2 0x725 JUMPI PUSH1 0x40 MLOAD PUSH32 0x37ED32E800000000000000000000000000000000000000000000000000000000 DUP2 MSTORE PUSH1 0x4 ADD PUSH1 0x40 MLOAD DUP1 SWAP2 SUB SWAP1 REVERT JUMPDEST PUSH1 0x2 PUSH1 0x7 PUSH0 PUSH2 0x100 EXP DUP2 SLOAD DUP2 PUSH1 0xFF MUL NOT AND SWAP1 DUP4 PUSH1 0xFF AND MUL OR SWAP1 SSTORE POP PUSH0 DUP2 SUB PUSH2 0x779 JUMPI PUSH1 0x40 MLOAD PUSH32 0x1F2A200500000000000000000000000000000000000000000000000000000000 DUP2 MSTORE PUSH1 0x4 ADD PUSH1 0x40 MLOAD DUP1 SWAP2 SUB SWAP1 REVERT JUMPDEST PUSH32 0x0 DUP2 GT ISZERO PUSH2 0x800 JUMPI DUP1 PUSH32 0x0 PUSH1 0x40 MLOAD PUSH32 0xDE0313AF00000000000000000000000000000000000000000000000000000000 DUP2 MSTORE PUSH1 0x4 ADD PUSH2 0x7F7 SWAP3 SWAP2 SWAP1 PUSH2 0x1320 JUMP JUMPDEST PUSH1 0x40 MLOAD DUP1 SWAP2 SUB SWAP1 REVERT JUMPDEST PUSH0 PUSH1 0x4 PUSH0 CALLER PUSH20 0xFFFFFFFFFFFFFFFFFFFFFFFFFFFFFFFFFFFFFFFF AND PUSH20 0xFFFFFFFFFFFFFFFFFFFFFFFFFFFFFFFFFFFFFFFF AND DUP2 MSTORE PUSH1 0x20 ADD SWAP1 DUP2 MSTORE PUSH1 0x20 ADD PUSH0 KECCAK256 SLOAD SWAP1 POP DUP2 DUP2 LT ISZERO PUSH2 0x888 JUMPI DUP1 DUP3 PUSH1 0x40 MLOAD PUSH32 0xCF47918100000000000000000000000000000000000000000000000000000000 DUP2 MSTORE PUSH1 0x4 ADD PUSH2 0x87F SWAP3 SWAP2 SWAP1 PUSH2 0x1320 JUMP JUMPDEST PUSH1 0x40 MLOAD DUP1 SWAP2 SUB SWAP1 REVERT JUMPDEST DUP2 DUP2 PUSH2 0x894 SWAP2 SWAP1 PUSH2 0x13C3 JUMP JUMPDEST PUSH1 0x4 PUSH0 CALLER PUSH20 0xFFFFFFFFFFFFFFFFFFFFFFFFFFFFFFFFFFFFFFFF AND PUSH20 0xFFFFFFFFFFFFFFFFFFFFFFFFFFFFFFFFFFFFFFFF AND DUP2 MSTORE PUSH1 0x20 ADD SWAP1 DUP2 MSTORE PUSH1 0x20 ADD PUSH0 KECCAK256 DUP2 SWAP1 SSTORE POP DUP2 PUSH1 0x1 PUSH0 DUP3 DUP3 SLOAD PUSH2 0x8E6 SWAP2 SWAP1 PUSH2 0x13C3 JUMP JUMPDEST SWAP3 POP POP DUP2 SWAP1 SSTORE POP PUSH1 0x3 PUSH0 DUP2 SLOAD DUP1 SWAP3 SWAP2 SWAP1 PUSH2 0x8FF SWAP1 PUSH2 0x1347 JUMP JUMPDEST SWAP2 SWAP1 POP SSTORE POP PUSH1 0x6 PUSH0 CALLER PUSH20 0xFFFFFFFFFFFFFFFFFFFFFFFFFFFFFFFFFFFFFFFF AND PUSH20 0xFFFFFFFFFFFFFFFFFFFFFFFFFFFFFFFFFFFFFFFF AND DUP2 MSTORE PUSH1 0x20 ADD SWAP1 DUP2 MSTORE PUSH1 0x20 ADD PUSH0 KECCAK256 PUSH0 DUP2 SLOAD DUP1 SWAP3 SWAP2 SWAP1 PUSH2 0x951 SWAP1 PUSH2 0x1347 JUMP JUMPDEST SWAP2 SWAP1 POP SSTORE POP PUSH0 CALLER PUSH20 0xFFFFFFFFFFFFFFFFFFFFFFFFFFFFFFFFFFFFFFFF AND DUP4 PUSH1 0x40 MLOAD PUSH2 0x97B SWAP1 PUSH2 0x1423 JUMP JUMPDEST PUSH0 PUSH1 0x40 MLOAD DUP1 DUP4 SUB DUP2 DUP6 DUP8 GAS CALL SWAP3 POP POP POP RETURNDATASIZE DUP1 PUSH0 DUP2 EQ PUSH2 0x9B5 JUMPI PUSH1 0x40 MLOAD SWAP2 POP PUSH1 0x1F NOT PUSH1 0x3F RETURNDATASIZE ADD AND DUP3 ADD PUSH1 0x40 MSTORE RETURNDATASIZE DUP3 MSTORE RETURNDATASIZE PUSH0 PUSH1 0x20 DUP5 ADD RETURNDATACOPY PUSH2 0x9BA JUMP JUMPDEST PUSH1 0x60 SWAP2 POP JUMPDEST POP POP SWAP1 POP DUP1 PUSH2 0xA02 JUMPI CALLER DUP4 PUSH1 0x40 MLOAD PUSH32 0x1C43B97600000000000000000000000000000000000000000000000000000000 DUP2 MSTORE PUSH1 0x4 ADD PUSH2 0x9F9 SWAP3 SWAP2 SWAP1 PUSH2 0x1437 JUMP JUMPDEST PUSH1 0x40 MLOAD DUP1 SWAP2 SUB SWAP1 REVERT JUMPDEST CALLER PUSH20 0xFFFFFFFFFFFFFFFFFFFFFFFFFFFFFFFFFFFFFFFF AND PUSH32 0x650FDF669E93AA6C8FF3DEFE2DA9C12B64F1548E5E1E54E803F4C1BEB6466C8E DUP5 PUSH1 0x4 PUSH0 CALLER PUSH20 0xFFFFFFFFFFFFFFFFFFFFFFFFFFFFFFFFFFFFFFFF AND PUSH20 0xFFFFFFFFFFFFFFFFFFFFFFFFFFFFFFFFFFFFFFFF AND DUP2 MSTORE PUSH1 0x20 ADD SWAP1 DUP2 MSTORE PUSH1 0x20 ADD PUSH0 KECCAK256 SLOAD PUSH1 0x3 SLOAD PUSH1 0x40 MLOAD PUSH2 0xA8B SWAP4 SWAP3 SWAP2 SWAP1 PUSH2 0x138E JUMP JUMPDEST PUSH1 0x40 MLOAD DUP1 SWAP2 SUB SWAP1 LOG2 POP POP PUSH1 0x1 PUSH1 0x7 PUSH0 PUSH2 0x100 EXP DUP2 SLOAD DUP2 PUSH1 0xFF MUL NOT AND SWAP1 DUP4 PUSH1 0xFF AND MUL OR SWAP1 SSTORE POP POP JUMP JUMPDEST PUSH32 0x0 DUP2 JUMP JUMPDEST PUSH0 PUSH0 SWAP1 SLOAD SWAP1 PUSH2 0x100 EXP SWAP1 DIV PUSH20 0xFFFFFFFFFFFFFFFFFFFFFFFFFFFFFFFFFFFFFFFF AND DUP2 JUMP JUMPDEST PUSH0 PUSH0 PUSH0 PUSH0 PUSH0 PUSH1 0x1 SLOAD PUSH1 0x2 SLOAD PUSH1 0x3 SLOAD PUSH32 0x0 PUSH32 0x0 SWAP5 POP SWAP5 POP SWAP5 POP SWAP5 POP SWAP5 POP SWAP1 SWAP2 SWAP3 SWAP4 SWAP5 JUMP JUMPDEST PUSH1 0x2 SLOAD DUP2 JUMP JUMPDEST PUSH1 0x2 PUSH1 0xFF AND PUSH1 0x7 PUSH0 SWAP1 SLOAD SWAP1 PUSH2 0x100 EXP SWAP1 DIV PUSH1 0xFF AND PUSH1 0xFF AND SUB PUSH2 0xBB0 JUMPI PUSH1 0x40 MLOAD PUSH32 0x37ED32E800000000000000000000000000000000000000000000000000000000 DUP2 MSTORE PUSH1 0x4 ADD PUSH1 0x40 MLOAD DUP1 SWAP2 SUB SWAP1 REVERT JUMPDEST PUSH1 0x2 PUSH1 0x7 PUSH0 PUSH2 0x100 EXP DUP2 SLOAD DUP2 PUSH1 0xFF MUL NOT AND SWAP1 DUP4 PUSH1 0xFF AND MUL OR SWAP1 SSTORE POP PUSH2 0xBD5 CALLER CALLVALUE PUSH2 0x4A1 JUMP JUMPDEST PUSH1 0x1 PUSH1 0x7 PUSH0 PUSH2 0x100 EXP DUP2 SLOAD DUP2 PUSH1 0xFF MUL NOT AND SWAP1 DUP4 PUSH1 0xFF AND MUL OR SWAP1 SSTORE POP JUMP JUMPDEST PUSH1 0x5 PUSH1 0x20 MSTORE DUP1 PUSH0 MSTORE PUSH1 0x40 PUSH0 KECCAK256 PUSH0 SWAP2 POP SWAP1 POP SLOAD DUP2 JUMP JUMPDEST PUSH0 PUSH0 SWAP1 SLOAD SWAP1 PUSH2 0x100 EXP SWAP1 DIV PUSH20 0xFFFFFFFFFFFFFFFFFFFFFFFFFFFFFFFFFFFFFFFF AND PUSH20 0xFFFFFFFFFFFFFFFFFFFFFFFFFFFFFFFFFFFFFFFF AND CALLER PUSH20 0xFFFFFFFFFFFFFFFFFFFFFFFFFFFFFFFFFFFFFFFF AND EQ PUSH2 0xC97 JUMPI CALLER PUSH1 0x40 MLOAD PUSH32 0x245AECD300000000000000000000000000000000000000000000000000000000 DUP2 MSTORE PUSH1 0x4 ADD PUSH2 0xC8E SWAP2 SWAP1 PUSH2 0x1171 JUMP JUMPDEST PUSH1 0x40 MLOAD DUP1 SWAP2 SUB SWAP1 REVERT JUMPDEST PUSH1 0x2 PUSH1 0xFF AND PUSH1 0x7 PUSH0 SWAP1 SLOAD SWAP1 PUSH2 0x100 EXP SWAP1 DIV PUSH1 0xFF AND PUSH1 0xFF AND SUB PUSH2 0xCE5 JUMPI PUSH1 0x40 MLOAD PUSH32 0x37ED32E800000000000000000000000000000000000000000000000000000000 DUP2 MSTORE PUSH1 0x4 ADD PUSH1 0x40 MLOAD DUP1 SWAP2 SUB SWAP1 REVERT JUMPDEST PUSH1 0x2 PUSH1 0x7 PUSH0 PUSH2 0x100 EXP DUP2 SLOAD DUP2 PUSH1 0xFF MUL NOT AND SWAP1 DUP4 PUSH1 0xFF AND MUL OR SWAP1 SSTORE POP PUSH0 DUP2 SUB PUSH2 0xD39 JUMPI PUSH1 0x40 MLOAD PUSH32 0x1F2A200500000000000000000000000000000000000000000000000000000000 DUP2 MSTORE PUSH1 0x4 ADD PUSH1 0x40 MLOAD DUP1 SWAP2 SUB SWAP1 REVERT JUMPDEST PUSH1 0x1 SLOAD DUP2 GT ISZERO PUSH2 0xD84 JUMPI PUSH1 0x1 SLOAD DUP2 PUSH1 0x40 MLOAD PUSH32 0xCF47918100000000000000000000000000000000000000000000000000000000 DUP2 MSTORE PUSH1 0x4 ADD PUSH2 0xD7B SWAP3 SWAP2 SWAP1 PUSH2 0x1320 JUMP JUMPDEST PUSH1 0x40 MLOAD DUP1 SWAP2 SUB SWAP1 REVERT JUMPDEST DUP1 PUSH1 0x1 PUSH0 DUP3 DUP3 SLOAD PUSH2 0xD95 SWAP2 SWAP1 PUSH2 0x13C3 JUMP JUMPDEST SWAP3 POP POP DUP2 SWAP1 SSTORE POP PUSH0 CALLER PUSH20 0xFFFFFFFFFFFFFFFFFFFFFFFFFFFFFFFFFFFFFFFF AND DUP3 PUSH1 0x40 MLOAD PUSH2 0xDC1 SWAP1 PUSH2 0x1423 JUMP JUMPDEST PUSH0 PUSH1 0x40 MLOAD DUP1 DUP4 SUB DUP2 DUP6 DUP8 GAS CALL SWAP3 POP POP POP RETURNDATASIZE DUP1 PUSH0 DUP2 EQ PUSH2 0xDFB JUMPI PUSH1 0x40 MLOAD SWAP2 POP PUSH1 0x1F NOT PUSH1 0x3F RETURNDATASIZE ADD AND DUP3 ADD PUSH1 0x40 MSTORE RETURNDATASIZE DUP3 MSTORE RETURNDATASIZE PUSH0 PUSH1 0x20 DUP5 ADD RETURNDATACOPY PUSH2 0xE00 JUMP JUMPDEST PUSH1 0x60 SWAP2 POP JUMPDEST POP POP SWAP1 POP DUP1 PUSH2 0xE48 JUMPI CALLER DUP3 PUSH1 0x40 MLOAD PUSH32 0x1C43B97600000000000000000000000000000000000000000000000000000000 DUP2 MSTORE PUSH1 0x4 ADD PUSH2 0xE3F SWAP3 SWAP2 SWAP1 PUSH2 0x1437 JUMP JUMPDEST PUSH1 0x40 MLOAD DUP1 SWAP2 SUB SWAP1 REVERT JUMPDEST CALLER PUSH20 0xFFFFFFFFFFFFFFFFFFFFFFFFFFFFFFFFFFFFFFFF AND PUSH32 0x5E70F429CB11006093B2F75398F48BD6971871DCA25171E8237120E666C1B168 DUP4 PUSH1 0x1 SLOAD PUSH1 0x40 MLOAD PUSH2 0xE92 SWAP3 SWAP2 SWAP1 PUSH2 0x1320 JUMP JUMPDEST PUSH1 0x40 MLOAD DUP1 SWAP2 SUB SWAP1 LOG2 POP PUSH1 0x1 PUSH1 0x7 PUSH0 PUSH2 0x100 EXP DUP2 SLOAD DUP2 PUSH1 0xFF MUL NOT AND SWAP1 DUP4 PUSH1 0xFF AND MUL OR SWAP1 SSTORE POP POP JUMP JUMPDEST PUSH1 0x6 PUSH1 0x20 MSTORE DUP1 PUSH0 MSTORE PUSH1 0x40 PUSH0 KECCAK256 PUSH0 SWAP2 POP SWAP1 POP SLOAD DUP2 JUMP JUMPDEST PUSH32 0x0 DUP2 JUMP JUMPDEST PUSH0 PUSH0 SWAP1 SLOAD SWAP1 PUSH2 0x100 EXP SWAP1 DIV PUSH20 0xFFFFFFFFFFFFFFFFFFFFFFFFFFFFFFFFFFFFFFFF AND PUSH20 0xFFFFFFFFFFFFFFFFFFFFFFFFFFFFFFFFFFFFFFFF AND CALLER PUSH20 0xFFFFFFFFFFFFFFFFFFFFFFFFFFFFFFFFFFFFFFFF AND EQ PUSH2 0xF82 JUMPI CALLER PUSH1 0x40 MLOAD PUSH32 0x245AECD300000000000000000000000000000000000000000000000000000000 DUP2 MSTORE PUSH1 0x4 ADD PUSH2 0xF79 SWAP2 SWAP1 PUSH2 0x1171 JUMP JUMPDEST PUSH1 0x40 MLOAD DUP1 SWAP2 SUB SWAP1 REVERT JUMPDEST PUSH0 PUSH20 0xFFFFFFFFFFFFFFFFFFFFFFFFFFFFFFFFFFFFFFFF AND DUP2 PUSH20 0xFFFFFFFFFFFFFFFFFFFFFFFFFFFFFFFFFFFFFFFF AND SUB PUSH2 0xFE7 JUMPI PUSH1 0x40 MLOAD PUSH32 0xD92E233D00000000000000000000000000000000000000000000000000000000 DUP2 MSTORE PUSH1 0x4 ADD PUSH1 0x40 MLOAD DUP1 SWAP2 SUB SWAP1 REVERT JUMPDEST DUP1 PUSH0 PUSH0 PUSH2 0x100 EXP DUP2 SLOAD DUP2 PUSH20 0xFFFFFFFFFFFFFFFFFFFFFFFFFFFFFFFFFFFFFFFF MUL NOT AND SWAP1 DUP4 PUSH20 0xFFFFFFFFFFFFFFFFFFFFFFFFFFFFFFFFFFFFFFFF AND MUL OR SWAP1 SSTORE POP POP JUMP JUMPDEST PUSH0 PUSH1 0x4 PUSH0 DUP4 PUSH20 0xFFFFFFFFFFFFFFFFFFFFFFFFFFFFFFFFFFFFFFFF AND PUSH20 0xFFFFFFFFFFFFFFFFFFFFFFFFFFFFFFFFFFFFFFFF AND DUP2 MSTORE PUSH1 0x20 ADD SWAP1 DUP2 MSTORE PUSH1 0x20 ADD PUSH0 KECCAK256 SLOAD SWAP1 POP SWAP2 SWAP1 POP JUMP JUMPDEST PUSH1 0x40 MLOAD DUP1 PUSH1 0x40 ADD PUSH1 0x40 MSTORE DUP1 PUSH1 0xB DUP2 MSTORE PUSH1 0x20 ADD PUSH32 0x4B69707542616E6B207631000000000000000000000000000000000000000000 DUP2 MSTORE POP DUP2 JUMP JUMPDEST PUSH0 DUP2 SWAP1 POP SWAP2 SWAP1 POP JUMP JUMPDEST PUSH2 0x10BA DUP2 PUSH2 0x10A8 JUMP JUMPDEST DUP3 MSTORE POP POP JUMP JUMPDEST PUSH0 PUSH1 0x20 DUP3 ADD SWAP1 POP PUSH2 0x10D3 PUSH0 DUP4 ADD DUP5 PUSH2 0x10B1 JUMP JUMPDEST SWAP3 SWAP2 POP POP JUMP JUMPDEST PUSH0 PUSH0 REVERT JUMPDEST PUSH2 0x10E6 DUP2 PUSH2 0x10A8 JUMP JUMPDEST DUP2 EQ PUSH2 0x10F0 JUMPI PUSH0 PUSH0 REVERT JUMPDEST POP JUMP JUMPDEST PUSH0 DUP2 CALLDATALOAD SWAP1 POP PUSH2 0x1101 DUP2 PUSH2 0x10DD JUMP JUMPDEST SWAP3 SWAP2 POP POP JUMP JUMPDEST PUSH0 PUSH1 0x20 DUP3 DUP5 SUB SLT ISZERO PUSH2 0x111C JUMPI PUSH2 0x111B PUSH2 0x10D9 JUMP JUMPDEST JUMPDEST PUSH0 PUSH2 0x1129 DUP5 DUP3 DUP6 ADD PUSH2 0x10F3 JUMP JUMPDEST SWAP2 POP POP SWAP3 SWAP2 POP POP JUMP JUMPDEST PUSH0 PUSH20 0xFFFFFFFFFFFFFFFFFFFFFFFFFFFFFFFFFFFFFFFF DUP3 AND SWAP1 POP SWAP2 SWAP1 POP JUMP JUMPDEST PUSH0 PUSH2 0x115B DUP3 PUSH2 0x1132 JUMP JUMPDEST SWAP1 POP SWAP2 SWAP1 POP JUMP JUMPDEST PUSH2 0x116B DUP2 PUSH2 0x1151 JUMP JUMPDEST DUP3 MSTORE POP POP JUMP JUMPDEST PUSH0 PUSH1 0x20 DUP3 ADD SWAP1 POP PUSH2 0x1184 PUSH0 DUP4 ADD DUP5 PUSH2 0x1162 JUMP JUMPDEST SWAP3 SWAP2 POP POP JUMP JUMPDEST PUSH0 PUSH1 0xA0 DUP3 ADD SWAP1 POP PUSH2 0x119D PUSH0 DUP4 ADD DUP9 PUSH2 0x10B1 JUMP JUMPDEST PUSH2 0x11AA PUSH1 0x20 DUP4 ADD DUP8 PUSH2 0x10B1 JUMP JUMPDEST PUSH2 0x11B7 PUSH1 0x40 DUP4 ADD DUP7 PUSH2 0x10B1 JUMP JUMPDEST PUSH2 0x11C4 PUSH1 0x60 DUP4 ADD DUP6 PUSH2 0x10B1 JUMP JUMPDEST PUSH2 0x11D1 PUSH1 0x80 DUP4 ADD DUP5 PUSH2 0x10B1 JUMP JUMPDEST SWAP7 SWAP6 POP POP POP POP POP POP JUMP JUMPDEST PUSH2 0x11E4 DUP2 PUSH2 0x1151 JUMP JUMPDEST DUP2 EQ PUSH2 0x11EE JUMPI PUSH0 PUSH0 REVERT JUMPDEST POP JUMP JUMPDEST PUSH0 DUP2 CALLDATALOAD SWAP1 POP PUSH2 0x11FF DUP2 PUSH2 0x11DB JUMP JUMPDEST SWAP3 SWAP2 POP POP JUMP JUMPDEST PUSH0 PUSH1 0x20 DUP3 DUP5 SUB SLT ISZERO PUSH2 0x121A JUMPI PUSH2 0x1219 PUSH2 0x10D9 JUMP JUMPDEST JUMPDEST PUSH0 PUSH2 0x1227 DUP5 DUP3 DUP6 ADD PUSH2 0x11F1 JUMP JUMPDEST SWAP2 POP POP SWAP3 SWAP2 POP POP JUMP JUMPDEST PUSH0 DUP2 MLOAD SWAP1 POP SWAP2 SWAP1 POP JUMP JUMPDEST PUSH0 DUP3 DUP3 MSTORE PUSH1 0x20 DUP3 ADD SWAP1 POP SWAP3 SWAP2 POP POP JUMP JUMPDEST DUP3 DUP2 DUP4 MCOPY PUSH0 DUP4 DUP4 ADD MSTORE POP POP POP JUMP JUMPDEST PUSH0 PUSH1 0x1F NOT PUSH1 0x1F DUP4 ADD AND SWAP1 POP SWAP2 SWAP1 POP JUMP JUMPDEST PUSH0 PUSH2 0x1272 DUP3 PUSH2 0x1230 JUMP JUMPDEST PUSH2 0x127C DUP2 DUP6 PUSH2 0x123A JUMP JUMPDEST SWAP4 POP PUSH2 0x128C DUP2 DUP6 PUSH1 0x20 DUP7 ADD PUSH2 0x124A JUMP JUMPDEST PUSH2 0x1295 DUP2 PUSH2 0x1258 JUMP JUMPDEST DUP5 ADD SWAP2 POP POP SWAP3 SWAP2 POP POP JUMP JUMPDEST PUSH0 PUSH1 0x20 DUP3 ADD SWAP1 POP DUP2 DUP2 SUB PUSH0 DUP4 ADD MSTORE PUSH2 0x12B8 DUP2 DUP5 PUSH2 0x1268 JUMP JUMPDEST SWAP1 POP SWAP3 SWAP2 POP POP JUMP JUMPDEST PUSH32 0x4E487B7100000000000000000000000000000000000000000000000000000000 PUSH0 MSTORE PUSH1 0x11 PUSH1 0x4 MSTORE PUSH1 0x24 PUSH0 REVERT JUMPDEST PUSH0 PUSH2 0x12F7 DUP3 PUSH2 0x10A8 JUMP JUMPDEST SWAP2 POP PUSH2 0x1302 DUP4 PUSH2 0x10A8 JUMP JUMPDEST SWAP3 POP DUP3 DUP3 ADD SWAP1 POP DUP1 DUP3 GT ISZERO PUSH2 0x131A JUMPI PUSH2 0x1319 PUSH2 0x12C0 JUMP JUMPDEST JUMPDEST SWAP3 SWAP2 POP POP JUMP JUMPDEST PUSH0 PUSH1 0x40 DUP3 ADD SWAP1 POP PUSH2 0x1333 PUSH0 DUP4 ADD DUP6 PUSH2 0x10B1 JUMP JUMPDEST PUSH2 0x1340 PUSH1 0x20 DUP4 ADD DUP5 PUSH2 0x10B1 JUMP JUMPDEST SWAP4 SWAP3 POP POP POP JUMP JUMPDEST PUSH0 PUSH2 0x1351 DUP3 PUSH2 0x10A8 JUMP JUMPDEST SWAP2 POP PUSH32 0xFFFFFFFFFFFFFFFFFFFFFFFFFFFFFFFFFFFFFFFFFFFFFFFFFFFFFFFFFFFFFFFF DUP3 SUB PUSH2 0x1383 JUMPI PUSH2 0x1382 PUSH2 0x12C0 JUMP JUMPDEST JUMPDEST PUSH1 0x1 DUP3 ADD SWAP1 POP SWAP2 SWAP1 POP JUMP JUMPDEST PUSH0 PUSH1 0x60 DUP3 ADD SWAP1 POP PUSH2 0x13A1 PUSH0 DUP4 ADD DUP7 PUSH2 0x10B1 JUMP JUMPDEST PUSH2 0x13AE PUSH1 0x20 DUP4 ADD DUP6 PUSH2 0x10B1 JUMP JUMPDEST PUSH2 0x13BB PUSH1 0x40 DUP4 ADD DUP5 PUSH2 0x10B1 JUMP JUMPDEST SWAP5 SWAP4 POP POP POP POP JUMP JUMPDEST PUSH0 PUSH2 0x13CD DUP3 PUSH2 0x10A8 JUMP JUMPDEST SWAP2 POP PUSH2 0x13D8 DUP4 PUSH2 0x10A8 JUMP JUMPDEST SWAP3 POP DUP3 DUP3 SUB SWAP1 POP DUP2 DUP2 GT ISZERO PUSH2 0x13F0 JUMPI PUSH2 0x13EF PUSH2 0x12C0 JUMP JUMPDEST JUMPDEST SWAP3 SWAP2 POP POP JUMP JUMPDEST PUSH0 DUP2 SWAP1 POP SWAP3 SWAP2 POP POP JUMP JUMPDEST POP JUMP JUMPDEST PUSH0 PUSH2 0x140E PUSH0 DUP4 PUSH2 0x13F6 JUMP JUMPDEST SWAP2 POP PUSH2 0x1419 DUP3 PUSH2 0x1400 JUMP JUMPDEST PUSH0 DUP3 ADD SWAP1 POP SWAP2 SWAP1 POP JUMP JUMPDEST PUSH0 PUSH2 0x142D DUP3 PUSH2 0x1403 JUMP JUMPDEST SWAP2 POP DUP2 SWAP1 POP SWAP2 SWAP1 POP JUMP JUMPDEST PUSH0 PUSH1 0x40 DUP3 ADD SWAP1 POP PUSH2 0x144A PUSH0 DUP4 ADD DUP6 PUSH2 0x1162 JUMP JUMPDEST PUSH2 0x1457 PUSH1 0x20 DUP4 ADD DUP5 PUSH2 0x10B1 JUMP JUMPDEST SWAP4 SWAP3 POP POP POP JUMP INVALID LOG2 PUSH5 0x6970667358 0x22 SLT KECCAK256 0xC7 0xE9 0xB7 0xDC PUSH4 0x5C060DC8 STATICCALL 0xBB 0xEB PUSH10 0x4E26A17D071EF8979CF8 0xBB DUP4 SWAP14 STATICCALL CALLER RETURNDATACOPY TSTORE CODECOPY DUP13 PUSH5 0x736F6C6343 STOP ADDMOD 0x1E STOP CALLER "
				},
				"gasEstimates": {
					"creation": {
						"codeDepositCost": "1053600",
						"executionCost": "infinite",
						"totalCost": "infinite"
					},
					"external": {
						"": "infinite",
						"VERSION()": "infinite",
						"bankCap()": "infinite",
						"deposit()": "infinite",
						"getBalance(address)": "2895",
						"maxWithdrawalPerTx()": "infinite",
						"owner()": "2552",
						"ownerWithdrawFromBank(uint256)": "infinite",
						"summary()": "infinite",
						"totalBankBalance()": "2471",
						"totalDepositsCount()": "2514",
						"totalWithdrawalsCount()": "2449",
						"transferOwnership(address)": "infinite",
						"userDepositsCount(address)": "2847",
						"userWithdrawalsCount(address)": "2891",
						"withdraw(uint256)": "infinite"
					},
					"internal": {
						"_internalDeposit(address,uint256)": "infinite"
					}
				},
				"methodIdentifiers": {
					"VERSION()": "ffa1ad74",
					"bankCap()": "ecbea24d",
					"deposit()": "d0e30db0",
					"getBalance(address)": "f8b2cb4f",
					"maxWithdrawalPerTx()": "4dab4207",
					"owner()": "8da5cb5b",
					"ownerWithdrawFromBank(uint256)": "d8e426a8",
					"summary()": "b16a867c",
					"totalBankBalance()": "1977e938",
					"totalDepositsCount()": "c847119d",
					"totalWithdrawalsCount()": "0770e571",
					"transferOwnership(address)": "f2fde38b",
					"userDepositsCount(address)": "d369e33c",
					"userWithdrawalsCount(address)": "e4813821",
					"withdraw(uint256)": "2e1a7d4d"
				}
			},
			"storageLayout": {
				"storage": [
					{
						"astId": 57,
						"contract": "contracts/kipu_bank.sol:KipuBank",
						"label": "owner",
						"offset": 0,
						"slot": "0",
						"type": "t_address"
					},
					{
						"astId": 60,
						"contract": "contracts/kipu_bank.sol:KipuBank",
						"label": "totalBankBalance",
						"offset": 0,
						"slot": "1",
						"type": "t_uint256"
					},
					{
						"astId": 63,
						"contract": "contracts/kipu_bank.sol:KipuBank",
						"label": "totalDepositsCount",
						"offset": 0,
						"slot": "2",
						"type": "t_uint256"
					},
					{
						"astId": 66,
						"contract": "contracts/kipu_bank.sol:KipuBank",
						"label": "totalWithdrawalsCount",
						"offset": 0,
						"slot": "3",
						"type": "t_uint256"
					},
					{
						"astId": 71,
						"contract": "contracts/kipu_bank.sol:KipuBank",
						"label": "balances",
						"offset": 0,
						"slot": "4",
						"type": "t_mapping(t_address,t_uint256)"
					},
					{
						"astId": 76,
						"contract": "contracts/kipu_bank.sol:KipuBank",
						"label": "userDepositsCount",
						"offset": 0,
						"slot": "5",
						"type": "t_mapping(t_address,t_uint256)"
					},
					{
						"astId": 81,
						"contract": "contracts/kipu_bank.sol:KipuBank",
						"label": "userWithdrawalsCount",
						"offset": 0,
						"slot": "6",
						"type": "t_mapping(t_address,t_uint256)"
					},
					{
						"astId": 115,
						"contract": "contracts/kipu_bank.sol:KipuBank",
						"label": "_status",
						"offset": 0,
						"slot": "7",
						"type": "t_uint8"
					}
				],
				"types": {
					"t_address": {
						"encoding": "inplace",
						"label": "address",
						"numberOfBytes": "20"
					},
					"t_mapping(t_address,t_uint256)": {
						"encoding": "mapping",
						"key": "t_address",
						"label": "mapping(address => uint256)",
						"numberOfBytes": "32",
						"value": "t_uint256"
					},
					"t_uint256": {
						"encoding": "inplace",
						"label": "uint256",
						"numberOfBytes": "32"
					},
					"t_uint8": {
						"encoding": "inplace",
						"label": "uint8",
						"numberOfBytes": "1"
					}
				}
			},
			"userdoc": {
				"errors": {
					"ExceedsBankCap(uint256,uint256)": [
						{
							"notice": "El depósito supera el límite global del banco"
						}
					],
					"ExceedsMaxWithdrawal(uint256,uint256)": [
						{
							"notice": "El monto excede el retiro máximo por transacción"
						}
					],
					"InsufficientBalance(uint256,uint256)": [
						{
							"notice": "El usuario no tiene suficiente saldo para esta acción"
						}
					],
					"NotOwner(address)": [
						{
							"notice": "Solo el owner puede ejecutar esta función"
						}
					],
					"ReentrantCall()": [
						{
							"notice": "Se detectó un intento de reentrancia"
						}
					],
					"TransferFailed(address,uint256)": [
						{
							"notice": "Falló la transferencia de ETH"
						}
					],
					"ZeroAddress()": [
						{
							"notice": "No se permite la dirección 0 como owner"
						}
					],
					"ZeroAmount()": [
						{
							"notice": "No se puede enviar ni retirar 0 ETH"
						}
					]
				},
				"events": {
					"Deposit(address,uint256,uint256,uint256)": {
						"notice": "Se emite al depositar ETH"
					},
					"OwnerWithdrawal(address,uint256,uint256)": {
						"notice": "Se emite cuando el owner retira del banco"
					},
					"Withdrawal(address,uint256,uint256,uint256)": {
						"notice": "Se emite al retirar ETH"
					}
				},
				"kind": "user",
				"methods": {
					"VERSION()": {
						"notice": "Versión del contrato"
					},
					"bankCap()": {
						"notice": "Límite máximo de ETH que puede tener el banco"
					},
					"constructor": {
						"notice": "Constructor, setea límites e inicializa el owner"
					},
					"deposit()": {
						"notice": "Deposita ETH en la bóveda personal"
					},
					"getBalance(address)": {
						"notice": "Devuelve el balance de un usuario"
					},
					"maxWithdrawalPerTx()": {
						"notice": "Máximo que se puede retirar por transacción"
					},
					"owner()": {
						"notice": "Dirección del dueño del contrato"
					},
					"ownerWithdrawFromBank(uint256)": {
						"notice": "Permite al owner retirar del banco SIN afectar balances individuales."
					},
					"summary()": {
						"notice": "Devuelve el resumen global del banco"
					},
					"totalBankBalance()": {
						"notice": "Balance global del banco"
					},
					"totalDepositsCount()": {
						"notice": "Contador global de depósitos"
					},
					"totalWithdrawalsCount()": {
						"notice": "Contador global de retiros"
					},
					"transferOwnership(address)": {
						"notice": "Cambia el owner del contrato, no se permite address(0)"
					},
					"userDepositsCount(address)": {
						"notice": "Cantidad de depósitos por usuario"
					},
					"userWithdrawalsCount(address)": {
						"notice": "Cantidad de retiros por usuario"
					},
					"withdraw(uint256)": {
						"notice": "Retira ETH de la bóveda personal respetando los límites"
					}
				},
				"version": 1
			}
		}
	}
}