{
	"contracts/kipu_bank.sol": {
		"KipuBank": {
			"abi": [
				{
					"inputs": [
						{
							"internalType": "uint256",
							"name": "_bankCap",
							"type": "uint256"
						},
						{
							"internalType": "uint256",
							"name": "_maxWithdrawalPerTx",
							"type": "uint256"
						}
					],
					"stateMutability": "nonpayable",
					"type": "constructor"
				},
				{
					"inputs": [
						{
							"internalType": "uint256",
							"name": "attempted",
							"type": "uint256"
						},
						{
							"internalType": "uint256",
							"name": "bankCap",
							"type": "uint256"
						}
					],
					"name": "ExceedsBankCap",
					"type": "error"
				},
				{
					"inputs": [
						{
							"internalType": "uint256",
							"name": "attempted",
							"type": "uint256"
						},
						{
							"internalType": "uint256",
							"name": "maxAllowed",
							"type": "uint256"
						}
					],
					"name": "ExceedsMaxWithdrawal",
					"type": "error"
				},
				{
					"inputs": [
						{
							"internalType": "uint256",
							"name": "available",
							"type": "uint256"
						},
						{
							"internalType": "uint256",
							"name": "required",
							"type": "uint256"
						}
					],
					"name": "InsufficientBalance",
					"type": "error"
				},
				{
					"inputs": [
						{
							"internalType": "address",
							"name": "caller",
							"type": "address"
						}
					],
					"name": "NotOwner",
					"type": "error"
				},
				{
					"inputs": [],
					"name": "ReentrantCall",
					"type": "error"
				},
				{
					"inputs": [
						{
							"internalType": "address",
							"name": "to",
							"type": "address"
						},
						{
							"internalType": "uint256",
							"name": "amount",
							"type": "uint256"
						}
					],
					"name": "TransferFailed",
					"type": "error"
				},
				{
					"inputs": [],
					"name": "ZeroAmount",
					"type": "error"
				},
				{
					"anonymous": false,
					"inputs": [
						{
							"indexed": true,
							"internalType": "address",
							"name": "user",
							"type": "address"
						},
						{
							"indexed": false,
							"internalType": "uint256",
							"name": "amount",
							"type": "uint256"
						},
						{
							"indexed": false,
							"internalType": "uint256",
							"name": "newBalance",
							"type": "uint256"
						},
						{
							"indexed": false,
							"internalType": "uint256",
							"name": "depositIndex",
							"type": "uint256"
						}
					],
					"name": "Deposit",
					"type": "event"
				},
				{
					"anonymous": false,
					"inputs": [
						{
							"indexed": true,
							"internalType": "address",
							"name": "owner",
							"type": "address"
						},
						{
							"indexed": false,
							"internalType": "uint256",
							"name": "amount",
							"type": "uint256"
						},
						{
							"indexed": false,
							"internalType": "uint256",
							"name": "bankBalanceAfter",
							"type": "uint256"
						}
					],
					"name": "OwnerWithdrawal",
					"type": "event"
				},
				{
					"anonymous": false,
					"inputs": [
						{
							"indexed": true,
							"internalType": "address",
							"name": "user",
							"type": "address"
						},
						{
							"indexed": false,
							"internalType": "uint256",
							"name": "amount",
							"type": "uint256"
						},
						{
							"indexed": false,
							"internalType": "uint256",
							"name": "newBalance",
							"type": "uint256"
						},
						{
							"indexed": false,
							"internalType": "uint256",
							"name": "withdrawalIndex",
							"type": "uint256"
						}
					],
					"name": "Withdrawal",
					"type": "event"
				},
				{
					"inputs": [],
					"name": "VERSION",
					"outputs": [
						{
							"internalType": "string",
							"name": "",
							"type": "string"
						}
					],
					"stateMutability": "view",
					"type": "function"
				},
				{
					"inputs": [],
					"name": "bankCap",
					"outputs": [
						{
							"internalType": "uint256",
							"name": "",
							"type": "uint256"
						}
					],
					"stateMutability": "view",
					"type": "function"
				},
				{
					"inputs": [],
					"name": "deposit",
					"outputs": [],
					"stateMutability": "payable",
					"type": "function"
				},
				{
					"inputs": [
						{
							"internalType": "address",
							"name": "user",
							"type": "address"
						}
					],
					"name": "getBalance",
					"outputs": [
						{
							"internalType": "uint256",
							"name": "",
							"type": "uint256"
						}
					],
					"stateMutability": "view",
					"type": "function"
				},
				{
					"inputs": [],
					"name": "maxWithdrawalPerTx",
					"outputs": [
						{
							"internalType": "uint256",
							"name": "",
							"type": "uint256"
						}
					],
					"stateMutability": "view",
					"type": "function"
				},
				{
					"inputs": [],
					"name": "owner",
					"outputs": [
						{
							"internalType": "address",
							"name": "",
							"type": "address"
						}
					],
					"stateMutability": "view",
					"type": "function"
				},
				{
					"inputs": [
						{
							"internalType": "uint256",
							"name": "amount",
							"type": "uint256"
						}
					],
					"name": "ownerWithdrawFromBank",
					"outputs": [],
					"stateMutability": "nonpayable",
					"type": "function"
				},
				{
					"inputs": [],
					"name": "summary",
					"outputs": [
						{
							"internalType": "uint256",
							"name": "bankBalance_",
							"type": "uint256"
						},
						{
							"internalType": "uint256",
							"name": "deposits_",
							"type": "uint256"
						},
						{
							"internalType": "uint256",
							"name": "withdrawals_",
							"type": "uint256"
						},
						{
							"internalType": "uint256",
							"name": "cap_",
							"type": "uint256"
						},
						{
							"internalType": "uint256",
							"name": "maxWithdraw_",
							"type": "uint256"
						}
					],
					"stateMutability": "view",
					"type": "function"
				},
				{
					"inputs": [],
					"name": "totalBankBalance",
					"outputs": [
						{
							"internalType": "uint256",
							"name": "",
							"type": "uint256"
						}
					],
					"stateMutability": "view",
					"type": "function"
				},
				{
					"inputs": [],
					"name": "totalDepositsCount",
					"outputs": [
						{
							"internalType": "uint256",
							"name": "",
							"type": "uint256"
						}
					],
					"stateMutability": "view",
					"type": "function"
				},
				{
					"inputs": [],
					"name": "totalWithdrawalsCount",
					"outputs": [
						{
							"internalType": "uint256",
							"name": "",
							"type": "uint256"
						}
					],
					"stateMutability": "view",
					"type": "function"
				},
				{
					"inputs": [
						{
							"internalType": "address",
							"name": "newOwner",
							"type": "address"
						}
					],
					"name": "transferOwnership",
					"outputs": [],
					"stateMutability": "nonpayable",
					"type": "function"
				},
				{
					"inputs": [
						{
							"internalType": "address",
							"name": "",
							"type": "address"
						}
					],
					"name": "userDepositsCount",
					"outputs": [
						{
							"internalType": "uint256",
							"name": "",
							"type": "uint256"
						}
					],
					"stateMutability": "view",
					"type": "function"
				},
				{
					"inputs": [
						{
							"internalType": "address",
							"name": "",
							"type": "address"
						}
					],
					"name": "userWithdrawalsCount",
					"outputs": [
						{
							"internalType": "uint256",
							"name": "",
							"type": "uint256"
						}
					],
					"stateMutability": "view",
					"type": "function"
				},
				{
					"inputs": [
						{
							"internalType": "uint256",
							"name": "amount",
							"type": "uint256"
						}
					],
					"name": "withdraw",
					"outputs": [],
					"stateMutability": "nonpayable",
					"type": "function"
				}
			],
			"devdoc": {
				"kind": "dev",
				"methods": {},
				"version": 1
			},
			"evm": {
				"assembly": "    /* \"contracts/kipu_bank.sol\":57:5170  contract KipuBank {... */\n  mstore(0x40, 0xc0)\n    /* \"contracts/kipu_bank.sol\":2458:2662  constructor(uint256 _bankCap, uint256 _maxWithdrawalPerTx) {... */\n  callvalue\n  dup1\n  iszero\n  tag_1\n  jumpi\n  revert(0x00, 0x00)\ntag_1:\n  pop\n  mload(0x40)\n  sub(codesize, bytecodeSize)\n  dup1\n  bytecodeSize\n  dup4\n  codecopy\n  dup2\n  dup2\n  add\n  0x40\n  mstore\n  dup2\n  add\n  swap1\n  tag_2\n  swap2\n  swap1\n  tag_3\n  jump\t// in\ntag_2:\n    /* \"contracts/kipu_bank.sol\":2535:2545  msg.sender */\n  caller\n    /* \"contracts/kipu_bank.sol\":2527:2532  owner */\n  0x00\n  0x00\n    /* \"contracts/kipu_bank.sol\":2527:2545  owner = msg.sender */\n  0x0100\n  exp\n  dup2\n  sload\n  dup2\n  0xffffffffffffffffffffffffffffffffffffffff\n  mul\n  not\n  and\n  swap1\n  dup4\n  0xffffffffffffffffffffffffffffffffffffffff\n  and\n  mul\n  or\n  swap1\n  sstore\n  pop\n    /* \"contracts/kipu_bank.sol\":2565:2573  _bankCap */\n  dup2\n    /* \"contracts/kipu_bank.sol\":2555:2573  bankCap = _bankCap */\n  0x80\n  dup2\n  dup2\n  mstore\n  pop\n  pop\n    /* \"contracts/kipu_bank.sol\":2604:2623  _maxWithdrawalPerTx */\n  dup1\n    /* \"contracts/kipu_bank.sol\":2583:2623  maxWithdrawalPerTx = _maxWithdrawalPerTx */\n  0xa0\n  dup2\n  dup2\n  mstore\n  pop\n  pop\n    /* \"contracts/kipu_bank.sol\":2024:2025  1 */\n  0x01\n    /* \"contracts/kipu_bank.sol\":2633:2640  _status */\n  0x07\n  0x00\n    /* \"contracts/kipu_bank.sol\":2633:2655  _status = _NOT_ENTERED */\n  0x0100\n  exp\n  dup2\n  sload\n  dup2\n  0xff\n  mul\n  not\n  and\n  swap1\n  dup4\n  0xff\n  and\n  mul\n  or\n  swap1\n  sstore\n  pop\n    /* \"contracts/kipu_bank.sol\":2458:2662  constructor(uint256 _bankCap, uint256 _maxWithdrawalPerTx) {... */\n  pop\n  pop\n    /* \"contracts/kipu_bank.sol\":57:5170  contract KipuBank {... */\n  jump(tag_6)\n    /* \"#utility.yul\":88:205   */\ntag_8:\n    /* \"#utility.yul\":197:198   */\n  0x00\n    /* \"#utility.yul\":194:195   */\n  0x00\n    /* \"#utility.yul\":187:199   */\n  revert\n    /* \"#utility.yul\":334:411   */\ntag_10:\n    /* \"#utility.yul\":371:378   */\n  0x00\n    /* \"#utility.yul\":400:405   */\n  dup2\n    /* \"#utility.yul\":389:405   */\n  swap1\n  pop\n    /* \"#utility.yul\":334:411   */\n  swap2\n  swap1\n  pop\n  jump\t// out\n    /* \"#utility.yul\":417:539   */\ntag_11:\n    /* \"#utility.yul\":490:514   */\n  tag_19\n    /* \"#utility.yul\":508:513   */\n  dup2\n    /* \"#utility.yul\":490:514   */\n  tag_10\n  jump\t// in\ntag_19:\n    /* \"#utility.yul\":483:488   */\n  dup2\n    /* \"#utility.yul\":480:515   */\n  eq\n    /* \"#utility.yul\":470:533   */\n  tag_20\n  jumpi\n    /* \"#utility.yul\":529:530   */\n  0x00\n    /* \"#utility.yul\":526:527   */\n  0x00\n    /* \"#utility.yul\":519:531   */\n  revert\n    /* \"#utility.yul\":470:533   */\ntag_20:\n    /* \"#utility.yul\":417:539   */\n  pop\n  jump\t// out\n    /* \"#utility.yul\":545:688   */\ntag_12:\n    /* \"#utility.yul\":602:607   */\n  0x00\n    /* \"#utility.yul\":633:639   */\n  dup2\n    /* \"#utility.yul\":627:640   */\n  mload\n    /* \"#utility.yul\":618:640   */\n  swap1\n  pop\n    /* \"#utility.yul\":649:682   */\n  tag_22\n    /* \"#utility.yul\":676:681   */\n  dup2\n    /* \"#utility.yul\":649:682   */\n  tag_11\n  jump\t// in\ntag_22:\n    /* \"#utility.yul\":545:688   */\n  swap3\n  swap2\n  pop\n  pop\n  jump\t// out\n    /* \"#utility.yul\":694:1201   */\ntag_3:\n    /* \"#utility.yul\":773:779   */\n  0x00\n    /* \"#utility.yul\":781:787   */\n  0x00\n    /* \"#utility.yul\":830:832   */\n  0x40\n    /* \"#utility.yul\":818:827   */\n  dup4\n    /* \"#utility.yul\":809:816   */\n  dup6\n    /* \"#utility.yul\":805:828   */\n  sub\n    /* \"#utility.yul\":801:833   */\n  slt\n    /* \"#utility.yul\":798:917   */\n  iszero\n  tag_24\n  jumpi\n    /* \"#utility.yul\":836:915   */\n  tag_25\n  tag_8\n  jump\t// in\ntag_25:\n    /* \"#utility.yul\":798:917   */\ntag_24:\n    /* \"#utility.yul\":956:957   */\n  0x00\n    /* \"#utility.yul\":981:1045   */\n  tag_26\n    /* \"#utility.yul\":1037:1044   */\n  dup6\n    /* \"#utility.yul\":1028:1034   */\n  dup3\n    /* \"#utility.yul\":1017:1026   */\n  dup7\n    /* \"#utility.yul\":1013:1035   */\n  add\n    /* \"#utility.yul\":981:1045   */\n  tag_12\n  jump\t// in\ntag_26:\n    /* \"#utility.yul\":971:1045   */\n  swap3\n  pop\n    /* \"#utility.yul\":927:1055   */\n  pop\n    /* \"#utility.yul\":1094:1096   */\n  0x20\n    /* \"#utility.yul\":1120:1184   */\n  tag_27\n    /* \"#utility.yul\":1176:1183   */\n  dup6\n    /* \"#utility.yul\":1167:1173   */\n  dup3\n    /* \"#utility.yul\":1156:1165   */\n  dup7\n    /* \"#utility.yul\":1152:1174   */\n  add\n    /* \"#utility.yul\":1120:1184   */\n  tag_12\n  jump\t// in\ntag_27:\n    /* \"#utility.yul\":1110:1184   */\n  swap2\n  pop\n    /* \"#utility.yul\":1065:1194   */\n  pop\n    /* \"#utility.yul\":694:1201   */\n  swap3\n  pop\n  swap3\n  swap1\n  pop\n  jump\t// out\n    /* \"contracts/kipu_bank.sol\":57:5170  contract KipuBank {... */\ntag_6:\n  mload(0x80)\n  mload(0xa0)\n  codecopy(0x00, dataOffset(sub_0), dataSize(sub_0))\n  0x00\n  assignImmutable(\"0x880de8116b3dfac28e9ff528a9fef1d1e0a51449c1addce011ffec1f302992b6\")\n  0x00\n  assignImmutable(\"0xd67d834462ca31eaef1f30157e31659f60355143b7441e6fc7d9eae1fa79f3f8\")\n  return(0x00, dataSize(sub_0))\nstop\n\nsub_0: assembly {\n        /* \"contracts/kipu_bank.sol\":57:5170  contract KipuBank {... */\n      mstore(0x40, 0x80)\n      jumpi(tag_1, lt(calldatasize, 0x04))\n      shr(0xe0, calldataload(0x00))\n      dup1\n      0xd0e30db0\n      gt\n      tag_17\n      jumpi\n      dup1\n      0xecbea24d\n      gt\n      tag_18\n      jumpi\n      dup1\n      0xecbea24d\n      eq\n      tag_13\n      jumpi\n      dup1\n      0xf2fde38b\n      eq\n      tag_14\n      jumpi\n      dup1\n      0xf8b2cb4f\n      eq\n      tag_15\n      jumpi\n      dup1\n      0xffa1ad74\n      eq\n      tag_16\n      jumpi\n      jump(tag_1)\n    tag_18:\n      dup1\n      0xd0e30db0\n      eq\n      tag_9\n      jumpi\n      dup1\n      0xd369e33c\n      eq\n      tag_10\n      jumpi\n      dup1\n      0xd8e426a8\n      eq\n      tag_11\n      jumpi\n      dup1\n      0xe4813821\n      eq\n      tag_12\n      jumpi\n      jump(tag_1)\n    tag_17:\n      dup1\n      0x4dab4207\n      gt\n      tag_19\n      jumpi\n      dup1\n      0x4dab4207\n      eq\n      tag_5\n      jumpi\n      dup1\n      0x8da5cb5b\n      eq\n      tag_6\n      jumpi\n      dup1\n      0xb16a867c\n      eq\n      tag_7\n      jumpi\n      dup1\n      0xc847119d\n      eq\n      tag_8\n      jumpi\n      jump(tag_1)\n    tag_19:\n      dup1\n      0x0770e571\n      eq\n      tag_2\n      jumpi\n      dup1\n      0x1977e938\n      eq\n      tag_3\n      jumpi\n      dup1\n      0x2e1a7d4d\n      eq\n      tag_4\n      jumpi\n    tag_1:\n      revert(0x00, 0x00)\n        /* \"contracts/kipu_bank.sol\":1251:1287  uint256 public totalWithdrawalsCount */\n    tag_2:\n      callvalue\n      dup1\n      iszero\n      tag_20\n      jumpi\n      revert(0x00, 0x00)\n    tag_20:\n      pop\n      tag_21\n      tag_22\n      jump\t// in\n    tag_21:\n      mload(0x40)\n      tag_23\n      swap2\n      swap1\n      tag_24\n      jump\t// in\n    tag_23:\n      mload(0x40)\n      dup1\n      swap2\n      sub\n      swap1\n      return\n        /* \"contracts/kipu_bank.sol\":1128:1159  uint256 public totalBankBalance */\n    tag_3:\n      callvalue\n      dup1\n      iszero\n      tag_25\n      jumpi\n      revert(0x00, 0x00)\n    tag_25:\n      pop\n      tag_26\n      tag_27\n      jump\t// in\n    tag_26:\n      mload(0x40)\n      tag_28\n      swap2\n      swap1\n      tag_24\n      jump\t// in\n    tag_28:\n      mload(0x40)\n      dup1\n      swap2\n      sub\n      swap1\n      return\n        /* \"contracts/kipu_bank.sol\":3235:3943  function withdraw(uint256 amount) external nonReentrant {... */\n    tag_4:\n      callvalue\n      dup1\n      iszero\n      tag_29\n      jumpi\n      revert(0x00, 0x00)\n    tag_29:\n      pop\n      tag_30\n      0x04\n      dup1\n      calldatasize\n      sub\n      dup2\n      add\n      swap1\n      tag_31\n      swap2\n      swap1\n      tag_32\n      jump\t// in\n    tag_31:\n      tag_33\n      jump\t// in\n    tag_30:\n      stop\n        /* \"contracts/kipu_bank.sol\":948:991  uint256 public immutable maxWithdrawalPerTx */\n    tag_5:\n      callvalue\n      dup1\n      iszero\n      tag_34\n      jumpi\n      revert(0x00, 0x00)\n    tag_34:\n      pop\n      tag_35\n      tag_36\n      jump\t// in\n    tag_35:\n      mload(0x40)\n      tag_37\n      swap2\n      swap1\n      tag_24\n      jump\t// in\n    tag_37:\n      mload(0x40)\n      dup1\n      swap2\n      sub\n      swap1\n      return\n        /* \"contracts/kipu_bank.sol\":1079:1099  address public owner */\n    tag_6:\n      callvalue\n      dup1\n      iszero\n      tag_38\n      jumpi\n      revert(0x00, 0x00)\n    tag_38:\n      pop\n      tag_39\n      tag_40\n      jump\t// in\n    tag_39:\n      mload(0x40)\n      tag_41\n      swap2\n      swap1\n      tag_42\n      jump\t// in\n    tag_41:\n      mload(0x40)\n      dup1\n      swap2\n      sub\n      swap1\n      return\n        /* \"contracts/kipu_bank.sol\":4809:5162  function summary()... */\n    tag_7:\n      callvalue\n      dup1\n      iszero\n      tag_43\n      jumpi\n      revert(0x00, 0x00)\n    tag_43:\n      pop\n      tag_44\n      tag_45\n      jump\t// in\n    tag_44:\n      mload(0x40)\n      tag_46\n      swap6\n      swap5\n      swap4\n      swap3\n      swap2\n      swap1\n      tag_47\n      jump\t// in\n    tag_46:\n      mload(0x40)\n      dup1\n      swap2\n      sub\n      swap1\n      return\n        /* \"contracts/kipu_bank.sol\":1190:1223  uint256 public totalDepositsCount */\n    tag_8:\n      callvalue\n      dup1\n      iszero\n      tag_48\n      jumpi\n      revert(0x00, 0x00)\n    tag_48:\n      pop\n      tag_49\n      tag_50\n      jump\t// in\n    tag_49:\n      mload(0x40)\n      tag_51\n      swap2\n      swap1\n      tag_24\n      jump\t// in\n    tag_51:\n      mload(0x40)\n      dup1\n      swap2\n      sub\n      swap1\n      return\n        /* \"contracts/kipu_bank.sol\":2729:3229  function deposit() external payable nonReentrant {... */\n    tag_9:\n      tag_52\n      tag_53\n      jump\t// in\n    tag_52:\n      stop\n        /* \"contracts/kipu_bank.sol\":1390:1442  mapping(address => uint256) public userDepositsCount */\n    tag_10:\n      callvalue\n      dup1\n      iszero\n      tag_54\n      jumpi\n      revert(0x00, 0x00)\n    tag_54:\n      pop\n      tag_55\n      0x04\n      dup1\n      calldatasize\n      sub\n      dup2\n      add\n      swap1\n      tag_56\n      swap2\n      swap1\n      tag_57\n      jump\t// in\n    tag_56:\n      tag_58\n      jump\t// in\n    tag_55:\n      mload(0x40)\n      tag_59\n      swap2\n      swap1\n      tag_24\n      jump\t// in\n    tag_59:\n      mload(0x40)\n      dup1\n      swap2\n      sub\n      swap1\n      return\n        /* \"contracts/kipu_bank.sol\":4008:4462  function ownerWithdrawFromBank(uint256 amount) external onlyOwner nonReentrant {... */\n    tag_11:\n      callvalue\n      dup1\n      iszero\n      tag_60\n      jumpi\n      revert(0x00, 0x00)\n    tag_60:\n      pop\n      tag_61\n      0x04\n      dup1\n      calldatasize\n      sub\n      dup2\n      add\n      swap1\n      tag_62\n      swap2\n      swap1\n      tag_32\n      jump\t// in\n    tag_62:\n      tag_63\n      jump\t// in\n    tag_61:\n      stop\n        /* \"contracts/kipu_bank.sol\":1472:1527  mapping(address => uint256) public userWithdrawalsCount */\n    tag_12:\n      callvalue\n      dup1\n      iszero\n      tag_64\n      jumpi\n      revert(0x00, 0x00)\n    tag_64:\n      pop\n      tag_65\n      0x04\n      dup1\n      calldatasize\n      sub\n      dup2\n      add\n      swap1\n      tag_66\n      swap2\n      swap1\n      tag_57\n      jump\t// in\n    tag_66:\n      tag_67\n      jump\t// in\n    tag_65:\n      mload(0x40)\n      tag_68\n      swap2\n      swap1\n      tag_24\n      jump\t// in\n    tag_68:\n      mload(0x40)\n      dup1\n      swap2\n      sub\n      swap1\n      return\n        /* \"contracts/kipu_bank.sol\":882:914  uint256 public immutable bankCap */\n    tag_13:\n      callvalue\n      dup1\n      iszero\n      tag_69\n      jumpi\n      revert(0x00, 0x00)\n    tag_69:\n      pop\n      tag_70\n      tag_71\n      jump\t// in\n    tag_70:\n      mload(0x40)\n      tag_72\n      swap2\n      swap1\n      tag_24\n      jump\t// in\n    tag_72:\n      mload(0x40)\n      dup1\n      swap2\n      sub\n      swap1\n      return\n        /* \"contracts/kipu_bank.sol\":4468:4628  function transferOwnership(address newOwner) external onlyOwner {... */\n    tag_14:\n      callvalue\n      dup1\n      iszero\n      tag_73\n      jumpi\n      revert(0x00, 0x00)\n    tag_73:\n      pop\n      tag_74\n      0x04\n      dup1\n      calldatasize\n      sub\n      dup2\n      add\n      swap1\n      tag_75\n      swap2\n      swap1\n      tag_57\n      jump\t// in\n    tag_75:\n      tag_76\n      jump\t// in\n    tag_74:\n      stop\n        /* \"contracts/kipu_bank.sol\":4699:4803  function getBalance(address user) external view returns (uint256) {... */\n    tag_15:\n      callvalue\n      dup1\n      iszero\n      tag_77\n      jumpi\n      revert(0x00, 0x00)\n    tag_77:\n      pop\n      tag_78\n      0x04\n      dup1\n      calldatasize\n      sub\n      dup2\n      add\n      swap1\n      tag_79\n      swap2\n      swap1\n      tag_57\n      jump\t// in\n    tag_79:\n      tag_80\n      jump\t// in\n    tag_78:\n      mload(0x40)\n      tag_81\n      swap2\n      swap1\n      tag_24\n      jump\t// in\n    tag_81:\n      mload(0x40)\n      dup1\n      swap2\n      sub\n      swap1\n      return\n        /* \"contracts/kipu_bank.sol\":830:876  string public constant VERSION = \"KipuBank v1\" */\n    tag_16:\n      callvalue\n      dup1\n      iszero\n      tag_82\n      jumpi\n      revert(0x00, 0x00)\n    tag_82:\n      pop\n      tag_83\n      tag_84\n      jump\t// in\n    tag_83:\n      mload(0x40)\n      tag_85\n      swap2\n      swap1\n      tag_86\n      jump\t// in\n    tag_85:\n      mload(0x40)\n      dup1\n      swap2\n      sub\n      swap1\n      return\n        /* \"contracts/kipu_bank.sol\":1251:1287  uint256 public totalWithdrawalsCount */\n    tag_22:\n      sload(0x03)\n      dup2\n      jump\t// out\n        /* \"contracts/kipu_bank.sol\":1128:1159  uint256 public totalBankBalance */\n    tag_27:\n      sload(0x01)\n      dup2\n      jump\t// out\n        /* \"contracts/kipu_bank.sol\":3235:3943  function withdraw(uint256 amount) external nonReentrant {... */\n    tag_33:\n        /* \"contracts/kipu_bank.sol\":2065:2066  2 */\n      0x02\n        /* \"contracts/kipu_bank.sol\":2111:2130  _status == _ENTERED */\n      0xff\n      and\n        /* \"contracts/kipu_bank.sol\":2111:2118  _status */\n      0x07\n      0x00\n      swap1\n      sload\n      swap1\n      0x0100\n      exp\n      swap1\n      div\n      0xff\n      and\n        /* \"contracts/kipu_bank.sol\":2111:2130  _status == _ENTERED */\n      0xff\n      and\n      sub\n        /* \"contracts/kipu_bank.sol\":2107:2154  if (_status == _ENTERED) revert ReentrantCall() */\n      tag_88\n      jumpi\n        /* \"contracts/kipu_bank.sol\":2139:2154  ReentrantCall() */\n      mload(0x40)\n      0x37ed32e800000000000000000000000000000000000000000000000000000000\n      dup2\n      mstore\n      0x04\n      add\n      mload(0x40)\n      dup1\n      swap2\n      sub\n      swap1\n      revert\n        /* \"contracts/kipu_bank.sol\":2107:2154  if (_status == _ENTERED) revert ReentrantCall() */\n    tag_88:\n        /* \"contracts/kipu_bank.sol\":2065:2066  2 */\n      0x02\n        /* \"contracts/kipu_bank.sol\":2164:2171  _status */\n      0x07\n      0x00\n        /* \"contracts/kipu_bank.sol\":2164:2182  _status = _ENTERED */\n      0x0100\n      exp\n      dup2\n      sload\n      dup2\n      0xff\n      mul\n      not\n      and\n      swap1\n      dup4\n      0xff\n      and\n      mul\n      or\n      swap1\n      sstore\n      pop\n        /* \"contracts/kipu_bank.sol\":3315:3316  0 */\n      0x00\n        /* \"contracts/kipu_bank.sol\":3305:3311  amount */\n      dup2\n        /* \"contracts/kipu_bank.sol\":3305:3316  amount == 0 */\n      sub\n        /* \"contracts/kipu_bank.sol\":3301:3337  if (amount == 0) revert ZeroAmount() */\n      tag_90\n      jumpi\n        /* \"contracts/kipu_bank.sol\":3325:3337  ZeroAmount() */\n      mload(0x40)\n      0x1f2a200500000000000000000000000000000000000000000000000000000000\n      dup2\n      mstore\n      0x04\n      add\n      mload(0x40)\n      dup1\n      swap2\n      sub\n      swap1\n      revert\n        /* \"contracts/kipu_bank.sol\":3301:3337  if (amount == 0) revert ZeroAmount() */\n    tag_90:\n        /* \"contracts/kipu_bank.sol\":3360:3378  maxWithdrawalPerTx */\n      immutable(\"0x880de8116b3dfac28e9ff528a9fef1d1e0a51449c1addce011ffec1f302992b6\")\n        /* \"contracts/kipu_bank.sol\":3351:3357  amount */\n      dup2\n        /* \"contracts/kipu_bank.sol\":3351:3378  amount > maxWithdrawalPerTx */\n      gt\n        /* \"contracts/kipu_bank.sol\":3347:3435  if (amount > maxWithdrawalPerTx) revert ExceedsMaxWithdrawal(amount, maxWithdrawalPerTx) */\n      iszero\n      tag_91\n      jumpi\n        /* \"contracts/kipu_bank.sol\":3408:3414  amount */\n      dup1\n        /* \"contracts/kipu_bank.sol\":3416:3434  maxWithdrawalPerTx */\n      immutable(\"0x880de8116b3dfac28e9ff528a9fef1d1e0a51449c1addce011ffec1f302992b6\")\n        /* \"contracts/kipu_bank.sol\":3387:3435  ExceedsMaxWithdrawal(amount, maxWithdrawalPerTx) */\n      mload(0x40)\n      0xde0313af00000000000000000000000000000000000000000000000000000000\n      dup2\n      mstore\n      0x04\n      add\n      tag_92\n      swap3\n      swap2\n      swap1\n      tag_93\n      jump\t// in\n    tag_92:\n      mload(0x40)\n      dup1\n      swap2\n      sub\n      swap1\n      revert\n        /* \"contracts/kipu_bank.sol\":3347:3435  if (amount > maxWithdrawalPerTx) revert ExceedsMaxWithdrawal(amount, maxWithdrawalPerTx) */\n    tag_91:\n        /* \"contracts/kipu_bank.sol\":3446:3461  uint256 userBal */\n      0x00\n        /* \"contracts/kipu_bank.sol\":3464:3472  balances */\n      0x04\n        /* \"contracts/kipu_bank.sol\":3464:3484  balances[msg.sender] */\n      0x00\n        /* \"contracts/kipu_bank.sol\":3473:3483  msg.sender */\n      caller\n        /* \"contracts/kipu_bank.sol\":3464:3484  balances[msg.sender] */\n      0xffffffffffffffffffffffffffffffffffffffff\n      and\n      0xffffffffffffffffffffffffffffffffffffffff\n      and\n      dup2\n      mstore\n      0x20\n      add\n      swap1\n      dup2\n      mstore\n      0x20\n      add\n      0x00\n      keccak256\n      sload\n        /* \"contracts/kipu_bank.sol\":3446:3484  uint256 userBal = balances[msg.sender] */\n      swap1\n      pop\n        /* \"contracts/kipu_bank.sol\":3508:3514  amount */\n      dup2\n        /* \"contracts/kipu_bank.sol\":3498:3505  userBal */\n      dup2\n        /* \"contracts/kipu_bank.sol\":3498:3514  userBal < amount */\n      lt\n        /* \"contracts/kipu_bank.sol\":3494:3559  if (userBal < amount) revert InsufficientBalance(userBal, amount) */\n      iszero\n      tag_94\n      jumpi\n        /* \"contracts/kipu_bank.sol\":3543:3550  userBal */\n      dup1\n        /* \"contracts/kipu_bank.sol\":3552:3558  amount */\n      dup3\n        /* \"contracts/kipu_bank.sol\":3523:3559  InsufficientBalance(userBal, amount) */\n      mload(0x40)\n      0xcf47918100000000000000000000000000000000000000000000000000000000\n      dup2\n      mstore\n      0x04\n      add\n      tag_95\n      swap3\n      swap2\n      swap1\n      tag_93\n      jump\t// in\n    tag_95:\n      mload(0x40)\n      dup1\n      swap2\n      sub\n      swap1\n      revert\n        /* \"contracts/kipu_bank.sol\":3494:3559  if (userBal < amount) revert InsufficientBalance(userBal, amount) */\n    tag_94:\n        /* \"contracts/kipu_bank.sol\":3603:3609  amount */\n      dup2\n        /* \"contracts/kipu_bank.sol\":3593:3600  userBal */\n      dup2\n        /* \"contracts/kipu_bank.sol\":3593:3609  userBal - amount */\n      tag_96\n      swap2\n      swap1\n      tag_97\n      jump\t// in\n    tag_96:\n        /* \"contracts/kipu_bank.sol\":3570:3578  balances */\n      0x04\n        /* \"contracts/kipu_bank.sol\":3570:3590  balances[msg.sender] */\n      0x00\n        /* \"contracts/kipu_bank.sol\":3579:3589  msg.sender */\n      caller\n        /* \"contracts/kipu_bank.sol\":3570:3590  balances[msg.sender] */\n      0xffffffffffffffffffffffffffffffffffffffff\n      and\n      0xffffffffffffffffffffffffffffffffffffffff\n      and\n      dup2\n      mstore\n      0x20\n      add\n      swap1\n      dup2\n      mstore\n      0x20\n      add\n      0x00\n      keccak256\n        /* \"contracts/kipu_bank.sol\":3570:3609  balances[msg.sender] = userBal - amount */\n      dup2\n      swap1\n      sstore\n      pop\n        /* \"contracts/kipu_bank.sol\":3639:3645  amount */\n      dup2\n        /* \"contracts/kipu_bank.sol\":3619:3635  totalBankBalance */\n      0x01\n      0x00\n        /* \"contracts/kipu_bank.sol\":3619:3645  totalBankBalance -= amount */\n      dup3\n      dup3\n      sload\n      tag_98\n      swap2\n      swap1\n      tag_97\n      jump\t// in\n    tag_98:\n      swap3\n      pop\n      pop\n      dup2\n      swap1\n      sstore\n      pop\n        /* \"contracts/kipu_bank.sol\":3655:3676  totalWithdrawalsCount */\n      0x03\n      0x00\n        /* \"contracts/kipu_bank.sol\":3655:3678  totalWithdrawalsCount++ */\n      dup2\n      sload\n      dup1\n      swap3\n      swap2\n      swap1\n      tag_99\n      swap1\n      tag_100\n      jump\t// in\n    tag_99:\n      swap2\n      swap1\n      pop\n      sstore\n      pop\n        /* \"contracts/kipu_bank.sol\":3688:3708  userWithdrawalsCount */\n      0x06\n        /* \"contracts/kipu_bank.sol\":3688:3720  userWithdrawalsCount[msg.sender] */\n      0x00\n        /* \"contracts/kipu_bank.sol\":3709:3719  msg.sender */\n      caller\n        /* \"contracts/kipu_bank.sol\":3688:3720  userWithdrawalsCount[msg.sender] */\n      0xffffffffffffffffffffffffffffffffffffffff\n      and\n      0xffffffffffffffffffffffffffffffffffffffff\n      and\n      dup2\n      mstore\n      0x20\n      add\n      swap1\n      dup2\n      mstore\n      0x20\n      add\n      0x00\n      keccak256\n      0x00\n        /* \"contracts/kipu_bank.sol\":3688:3722  userWithdrawalsCount[msg.sender]++ */\n      dup2\n      sload\n      dup1\n      swap3\n      swap2\n      swap1\n      tag_101\n      swap1\n      tag_100\n      jump\t// in\n    tag_101:\n      swap2\n      swap1\n      pop\n      sstore\n      pop\n        /* \"contracts/kipu_bank.sol\":3734:3743  bool sent */\n      0x00\n        /* \"contracts/kipu_bank.sol\":3749:3759  msg.sender */\n      caller\n        /* \"contracts/kipu_bank.sol\":3749:3764  msg.sender.call */\n      0xffffffffffffffffffffffffffffffffffffffff\n      and\n        /* \"contracts/kipu_bank.sol\":3772:3778  amount */\n      dup4\n        /* \"contracts/kipu_bank.sol\":3749:3783  msg.sender.call{value: amount}(\"\") */\n      mload(0x40)\n      tag_102\n      swap1\n      tag_103\n      jump\t// in\n    tag_102:\n      0x00\n      mload(0x40)\n      dup1\n      dup4\n      sub\n      dup2\n      dup6\n      dup8\n      gas\n      call\n      swap3\n      pop\n      pop\n      pop\n      returndatasize\n      dup1\n      0x00\n      dup2\n      eq\n      tag_106\n      jumpi\n      mload(0x40)\n      swap2\n      pop\n      and(add(returndatasize, 0x3f), not(0x1f))\n      dup3\n      add\n      0x40\n      mstore\n      returndatasize\n      dup3\n      mstore\n      returndatasize\n      0x00\n      0x20\n      dup5\n      add\n      returndatacopy\n      jump(tag_105)\n    tag_106:\n      0x60\n      swap2\n      pop\n    tag_105:\n      pop\n        /* \"contracts/kipu_bank.sol\":3733:3783  (bool sent, ) = msg.sender.call{value: amount}(\"\") */\n      pop\n      swap1\n      pop\n        /* \"contracts/kipu_bank.sol\":3798:3802  sent */\n      dup1\n        /* \"contracts/kipu_bank.sol\":3793:3845  if (!sent) revert TransferFailed(msg.sender, amount) */\n      tag_107\n      jumpi\n        /* \"contracts/kipu_bank.sol\":3826:3836  msg.sender */\n      caller\n        /* \"contracts/kipu_bank.sol\":3838:3844  amount */\n      dup4\n        /* \"contracts/kipu_bank.sol\":3811:3845  TransferFailed(msg.sender, amount) */\n      mload(0x40)\n      0x1c43b97600000000000000000000000000000000000000000000000000000000\n      dup2\n      mstore\n      0x04\n      add\n      tag_108\n      swap3\n      swap2\n      swap1\n      tag_109\n      jump\t// in\n    tag_108:\n      mload(0x40)\n      dup1\n      swap2\n      sub\n      swap1\n      revert\n        /* \"contracts/kipu_bank.sol\":3793:3845  if (!sent) revert TransferFailed(msg.sender, amount) */\n    tag_107:\n        /* \"contracts/kipu_bank.sol\":3872:3882  msg.sender */\n      caller\n        /* \"contracts/kipu_bank.sol\":3861:3936  Withdrawal(msg.sender, amount, balances[msg.sender], totalWithdrawalsCount) */\n      0xffffffffffffffffffffffffffffffffffffffff\n      and\n      0x650fdf669e93aa6c8ff3defe2da9c12b64f1548e5e1e54e803f4c1beb6466c8e\n        /* \"contracts/kipu_bank.sol\":3884:3890  amount */\n      dup5\n        /* \"contracts/kipu_bank.sol\":3892:3900  balances */\n      0x04\n        /* \"contracts/kipu_bank.sol\":3892:3912  balances[msg.sender] */\n      0x00\n        /* \"contracts/kipu_bank.sol\":3901:3911  msg.sender */\n      caller\n        /* \"contracts/kipu_bank.sol\":3892:3912  balances[msg.sender] */\n      0xffffffffffffffffffffffffffffffffffffffff\n      and\n      0xffffffffffffffffffffffffffffffffffffffff\n      and\n      dup2\n      mstore\n      0x20\n      add\n      swap1\n      dup2\n      mstore\n      0x20\n      add\n      0x00\n      keccak256\n      sload\n        /* \"contracts/kipu_bank.sol\":3914:3935  totalWithdrawalsCount */\n      sload(0x03)\n        /* \"contracts/kipu_bank.sol\":3861:3936  Withdrawal(msg.sender, amount, balances[msg.sender], totalWithdrawalsCount) */\n      mload(0x40)\n      tag_110\n      swap4\n      swap3\n      swap2\n      swap1\n      tag_111\n      jump\t// in\n    tag_110:\n      mload(0x40)\n      dup1\n      swap2\n      sub\n      swap1\n      log2\n        /* \"contracts/kipu_bank.sol\":3291:3943  {... */\n      pop\n      pop\n        /* \"contracts/kipu_bank.sol\":2024:2025  1 */\n      0x01\n        /* \"contracts/kipu_bank.sol\":2203:2210  _status */\n      0x07\n      0x00\n        /* \"contracts/kipu_bank.sol\":2203:2225  _status = _NOT_ENTERED */\n      0x0100\n      exp\n      dup2\n      sload\n      dup2\n      0xff\n      mul\n      not\n      and\n      swap1\n      dup4\n      0xff\n      and\n      mul\n      or\n      swap1\n      sstore\n      pop\n        /* \"contracts/kipu_bank.sol\":3235:3943  function withdraw(uint256 amount) external nonReentrant {... */\n      pop\n      jump\t// out\n        /* \"contracts/kipu_bank.sol\":948:991  uint256 public immutable maxWithdrawalPerTx */\n    tag_36:\n      immutable(\"0x880de8116b3dfac28e9ff528a9fef1d1e0a51449c1addce011ffec1f302992b6\")\n      dup2\n      jump\t// out\n        /* \"contracts/kipu_bank.sol\":1079:1099  address public owner */\n    tag_40:\n      0x00\n      0x00\n      swap1\n      sload\n      swap1\n      0x0100\n      exp\n      swap1\n      div\n      0xffffffffffffffffffffffffffffffffffffffff\n      and\n      dup2\n      jump\t// out\n        /* \"contracts/kipu_bank.sol\":4809:5162  function summary()... */\n    tag_45:\n        /* \"contracts/kipu_bank.sol\":4888:4908  uint256 bankBalance_ */\n      0x00\n        /* \"contracts/kipu_bank.sol\":4922:4939  uint256 deposits_ */\n      0x00\n        /* \"contracts/kipu_bank.sol\":4953:4973  uint256 withdrawals_ */\n      0x00\n        /* \"contracts/kipu_bank.sol\":4987:4999  uint256 cap_ */\n      0x00\n        /* \"contracts/kipu_bank.sol\":5013:5033  uint256 maxWithdraw_ */\n      0x00\n        /* \"contracts/kipu_bank.sol\":5066:5082  totalBankBalance */\n      sload(0x01)\n        /* \"contracts/kipu_bank.sol\":5084:5102  totalDepositsCount */\n      sload(0x02)\n        /* \"contracts/kipu_bank.sol\":5104:5125  totalWithdrawalsCount */\n      sload(0x03)\n        /* \"contracts/kipu_bank.sol\":5127:5134  bankCap */\n      immutable(\"0xd67d834462ca31eaef1f30157e31659f60355143b7441e6fc7d9eae1fa79f3f8\")\n        /* \"contracts/kipu_bank.sol\":5136:5154  maxWithdrawalPerTx */\n      immutable(\"0x880de8116b3dfac28e9ff528a9fef1d1e0a51449c1addce011ffec1f302992b6\")\n        /* \"contracts/kipu_bank.sol\":5058:5155  return (totalBankBalance, totalDepositsCount, totalWithdrawalsCount, bankCap, maxWithdrawalPerTx) */\n      swap5\n      pop\n      swap5\n      pop\n      swap5\n      pop\n      swap5\n      pop\n      swap5\n      pop\n        /* \"contracts/kipu_bank.sol\":4809:5162  function summary()... */\n      swap1\n      swap2\n      swap3\n      swap4\n      swap5\n      jump\t// out\n        /* \"contracts/kipu_bank.sol\":1190:1223  uint256 public totalDepositsCount */\n    tag_50:\n      sload(0x02)\n      dup2\n      jump\t// out\n        /* \"contracts/kipu_bank.sol\":2729:3229  function deposit() external payable nonReentrant {... */\n    tag_53:\n        /* \"contracts/kipu_bank.sol\":2065:2066  2 */\n      0x02\n        /* \"contracts/kipu_bank.sol\":2111:2130  _status == _ENTERED */\n      0xff\n      and\n        /* \"contracts/kipu_bank.sol\":2111:2118  _status */\n      0x07\n      0x00\n      swap1\n      sload\n      swap1\n      0x0100\n      exp\n      swap1\n      div\n      0xff\n      and\n        /* \"contracts/kipu_bank.sol\":2111:2130  _status == _ENTERED */\n      0xff\n      and\n      sub\n        /* \"contracts/kipu_bank.sol\":2107:2154  if (_status == _ENTERED) revert ReentrantCall() */\n      tag_114\n      jumpi\n        /* \"contracts/kipu_bank.sol\":2139:2154  ReentrantCall() */\n      mload(0x40)\n      0x37ed32e800000000000000000000000000000000000000000000000000000000\n      dup2\n      mstore\n      0x04\n      add\n      mload(0x40)\n      dup1\n      swap2\n      sub\n      swap1\n      revert\n        /* \"contracts/kipu_bank.sol\":2107:2154  if (_status == _ENTERED) revert ReentrantCall() */\n    tag_114:\n        /* \"contracts/kipu_bank.sol\":2065:2066  2 */\n      0x02\n        /* \"contracts/kipu_bank.sol\":2164:2171  _status */\n      0x07\n      0x00\n        /* \"contracts/kipu_bank.sol\":2164:2182  _status = _ENTERED */\n      0x0100\n      exp\n      dup2\n      sload\n      dup2\n      0xff\n      mul\n      not\n      and\n      swap1\n      dup4\n      0xff\n      and\n      mul\n      or\n      swap1\n      sstore\n      pop\n        /* \"contracts/kipu_bank.sol\":2788:2802  uint256 amount */\n      0x00\n        /* \"contracts/kipu_bank.sol\":2805:2814  msg.value */\n      callvalue\n        /* \"contracts/kipu_bank.sol\":2788:2814  uint256 amount = msg.value */\n      swap1\n      pop\n        /* \"contracts/kipu_bank.sol\":2838:2839  0 */\n      0x00\n        /* \"contracts/kipu_bank.sol\":2828:2834  amount */\n      dup2\n        /* \"contracts/kipu_bank.sol\":2828:2839  amount == 0 */\n      sub\n        /* \"contracts/kipu_bank.sol\":2824:2860  if (amount == 0) revert ZeroAmount() */\n      tag_116\n      jumpi\n        /* \"contracts/kipu_bank.sol\":2848:2860  ZeroAmount() */\n      mload(0x40)\n      0x1f2a200500000000000000000000000000000000000000000000000000000000\n      dup2\n      mstore\n      0x04\n      add\n      mload(0x40)\n      dup1\n      swap2\n      sub\n      swap1\n      revert\n        /* \"contracts/kipu_bank.sol\":2824:2860  if (amount == 0) revert ZeroAmount() */\n    tag_116:\n        /* \"contracts/kipu_bank.sol\":2870:2886  uint256 newTotal */\n      0x00\n        /* \"contracts/kipu_bank.sol\":2908:2914  amount */\n      dup2\n        /* \"contracts/kipu_bank.sol\":2889:2905  totalBankBalance */\n      sload(0x01)\n        /* \"contracts/kipu_bank.sol\":2889:2914  totalBankBalance + amount */\n      tag_117\n      swap2\n      swap1\n      tag_118\n      jump\t// in\n    tag_117:\n        /* \"contracts/kipu_bank.sol\":2870:2914  uint256 newTotal = totalBankBalance + amount */\n      swap1\n      pop\n        /* \"contracts/kipu_bank.sol\":2939:2946  bankCap */\n      immutable(\"0xd67d834462ca31eaef1f30157e31659f60355143b7441e6fc7d9eae1fa79f3f8\")\n        /* \"contracts/kipu_bank.sol\":2928:2936  newTotal */\n      dup2\n        /* \"contracts/kipu_bank.sol\":2928:2946  newTotal > bankCap */\n      gt\n        /* \"contracts/kipu_bank.sol\":2924:2988  if (newTotal > bankCap) revert ExceedsBankCap(newTotal, bankCap) */\n      iszero\n      tag_119\n      jumpi\n        /* \"contracts/kipu_bank.sol\":2970:2978  newTotal */\n      dup1\n        /* \"contracts/kipu_bank.sol\":2980:2987  bankCap */\n      immutable(\"0xd67d834462ca31eaef1f30157e31659f60355143b7441e6fc7d9eae1fa79f3f8\")\n        /* \"contracts/kipu_bank.sol\":2955:2988  ExceedsBankCap(newTotal, bankCap) */\n      mload(0x40)\n      0x4274ef7700000000000000000000000000000000000000000000000000000000\n      dup2\n      mstore\n      0x04\n      add\n      tag_120\n      swap3\n      swap2\n      swap1\n      tag_93\n      jump\t// in\n    tag_120:\n      mload(0x40)\n      dup1\n      swap2\n      sub\n      swap1\n      revert\n        /* \"contracts/kipu_bank.sol\":2924:2988  if (newTotal > bankCap) revert ExceedsBankCap(newTotal, bankCap) */\n    tag_119:\n        /* \"contracts/kipu_bank.sol\":3023:3029  amount */\n      dup2\n        /* \"contracts/kipu_bank.sol\":2999:3007  balances */\n      0x04\n        /* \"contracts/kipu_bank.sol\":2999:3019  balances[msg.sender] */\n      0x00\n        /* \"contracts/kipu_bank.sol\":3008:3018  msg.sender */\n      caller\n        /* \"contracts/kipu_bank.sol\":2999:3019  balances[msg.sender] */\n      0xffffffffffffffffffffffffffffffffffffffff\n      and\n      0xffffffffffffffffffffffffffffffffffffffff\n      and\n      dup2\n      mstore\n      0x20\n      add\n      swap1\n      dup2\n      mstore\n      0x20\n      add\n      0x00\n      keccak256\n      0x00\n        /* \"contracts/kipu_bank.sol\":2999:3029  balances[msg.sender] += amount */\n      dup3\n      dup3\n      sload\n      tag_121\n      swap2\n      swap1\n      tag_118\n      jump\t// in\n    tag_121:\n      swap3\n      pop\n      pop\n      dup2\n      swap1\n      sstore\n      pop\n        /* \"contracts/kipu_bank.sol\":3058:3066  newTotal */\n      dup1\n        /* \"contracts/kipu_bank.sol\":3039:3055  totalBankBalance */\n      0x01\n        /* \"contracts/kipu_bank.sol\":3039:3066  totalBankBalance = newTotal */\n      dup2\n      swap1\n      sstore\n      pop\n        /* \"contracts/kipu_bank.sol\":3076:3094  totalDepositsCount */\n      0x02\n      0x00\n        /* \"contracts/kipu_bank.sol\":3076:3096  totalDepositsCount++ */\n      dup2\n      sload\n      dup1\n      swap3\n      swap2\n      swap1\n      tag_122\n      swap1\n      tag_100\n      jump\t// in\n    tag_122:\n      swap2\n      swap1\n      pop\n      sstore\n      pop\n        /* \"contracts/kipu_bank.sol\":3106:3123  userDepositsCount */\n      0x05\n        /* \"contracts/kipu_bank.sol\":3106:3135  userDepositsCount[msg.sender] */\n      0x00\n        /* \"contracts/kipu_bank.sol\":3124:3134  msg.sender */\n      caller\n        /* \"contracts/kipu_bank.sol\":3106:3135  userDepositsCount[msg.sender] */\n      0xffffffffffffffffffffffffffffffffffffffff\n      and\n      0xffffffffffffffffffffffffffffffffffffffff\n      and\n      dup2\n      mstore\n      0x20\n      add\n      swap1\n      dup2\n      mstore\n      0x20\n      add\n      0x00\n      keccak256\n      0x00\n        /* \"contracts/kipu_bank.sol\":3106:3137  userDepositsCount[msg.sender]++ */\n      dup2\n      sload\n      dup1\n      swap3\n      swap2\n      swap1\n      tag_123\n      swap1\n      tag_100\n      jump\t// in\n    tag_123:\n      swap2\n      swap1\n      pop\n      sstore\n      pop\n        /* \"contracts/kipu_bank.sol\":3161:3171  msg.sender */\n      caller\n        /* \"contracts/kipu_bank.sol\":3153:3222  Deposit(msg.sender, amount, balances[msg.sender], totalDepositsCount) */\n      0xffffffffffffffffffffffffffffffffffffffff\n      and\n      0x36af321ec8d3c75236829c5317affd40ddb308863a1236d2d277a4025cccee1e\n        /* \"contracts/kipu_bank.sol\":3173:3179  amount */\n      dup4\n        /* \"contracts/kipu_bank.sol\":3181:3189  balances */\n      0x04\n        /* \"contracts/kipu_bank.sol\":3181:3201  balances[msg.sender] */\n      0x00\n        /* \"contracts/kipu_bank.sol\":3190:3200  msg.sender */\n      caller\n        /* \"contracts/kipu_bank.sol\":3181:3201  balances[msg.sender] */\n      0xffffffffffffffffffffffffffffffffffffffff\n      and\n      0xffffffffffffffffffffffffffffffffffffffff\n      and\n      dup2\n      mstore\n      0x20\n      add\n      swap1\n      dup2\n      mstore\n      0x20\n      add\n      0x00\n      keccak256\n      sload\n        /* \"contracts/kipu_bank.sol\":3203:3221  totalDepositsCount */\n      sload(0x02)\n        /* \"contracts/kipu_bank.sol\":3153:3222  Deposit(msg.sender, amount, balances[msg.sender], totalDepositsCount) */\n      mload(0x40)\n      tag_124\n      swap4\n      swap3\n      swap2\n      swap1\n      tag_111\n      jump\t// in\n    tag_124:\n      mload(0x40)\n      dup1\n      swap2\n      sub\n      swap1\n      log2\n        /* \"contracts/kipu_bank.sol\":2778:3229  {... */\n      pop\n      pop\n        /* \"contracts/kipu_bank.sol\":2024:2025  1 */\n      0x01\n        /* \"contracts/kipu_bank.sol\":2203:2210  _status */\n      0x07\n      0x00\n        /* \"contracts/kipu_bank.sol\":2203:2225  _status = _NOT_ENTERED */\n      0x0100\n      exp\n      dup2\n      sload\n      dup2\n      0xff\n      mul\n      not\n      and\n      swap1\n      dup4\n      0xff\n      and\n      mul\n      or\n      swap1\n      sstore\n      pop\n        /* \"contracts/kipu_bank.sol\":2729:3229  function deposit() external payable nonReentrant {... */\n      jump\t// out\n        /* \"contracts/kipu_bank.sol\":1390:1442  mapping(address => uint256) public userDepositsCount */\n    tag_58:\n      mstore(0x20, 0x05)\n      dup1\n      0x00\n      mstore\n      keccak256(0x00, 0x40)\n      0x00\n      swap2\n      pop\n      swap1\n      pop\n      sload\n      dup2\n      jump\t// out\n        /* \"contracts/kipu_bank.sol\":4008:4462  function ownerWithdrawFromBank(uint256 amount) external onlyOwner nonReentrant {... */\n    tag_63:\n        /* \"contracts/kipu_bank.sol\":2345:2350  owner */\n      0x00\n      0x00\n      swap1\n      sload\n      swap1\n      0x0100\n      exp\n      swap1\n      div\n      0xffffffffffffffffffffffffffffffffffffffff\n      and\n        /* \"contracts/kipu_bank.sol\":2331:2350  msg.sender != owner */\n      0xffffffffffffffffffffffffffffffffffffffff\n      and\n        /* \"contracts/kipu_bank.sol\":2331:2341  msg.sender */\n      caller\n        /* \"contracts/kipu_bank.sol\":2331:2350  msg.sender != owner */\n      0xffffffffffffffffffffffffffffffffffffffff\n      and\n      eq\n        /* \"contracts/kipu_bank.sol\":2327:2379  if (msg.sender != owner) revert NotOwner(msg.sender) */\n      tag_126\n      jumpi\n        /* \"contracts/kipu_bank.sol\":2368:2378  msg.sender */\n      caller\n        /* \"contracts/kipu_bank.sol\":2359:2379  NotOwner(msg.sender) */\n      mload(0x40)\n      0x245aecd300000000000000000000000000000000000000000000000000000000\n      dup2\n      mstore\n      0x04\n      add\n      tag_127\n      swap2\n      swap1\n      tag_42\n      jump\t// in\n    tag_127:\n      mload(0x40)\n      dup1\n      swap2\n      sub\n      swap1\n      revert\n        /* \"contracts/kipu_bank.sol\":2327:2379  if (msg.sender != owner) revert NotOwner(msg.sender) */\n    tag_126:\n        /* \"contracts/kipu_bank.sol\":2065:2066  2 */\n      0x02\n        /* \"contracts/kipu_bank.sol\":2111:2130  _status == _ENTERED */\n      0xff\n      and\n        /* \"contracts/kipu_bank.sol\":2111:2118  _status */\n      0x07\n      0x00\n      swap1\n      sload\n      swap1\n      0x0100\n      exp\n      swap1\n      div\n      0xff\n      and\n        /* \"contracts/kipu_bank.sol\":2111:2130  _status == _ENTERED */\n      0xff\n      and\n      sub\n        /* \"contracts/kipu_bank.sol\":2107:2154  if (_status == _ENTERED) revert ReentrantCall() */\n      tag_129\n      jumpi\n        /* \"contracts/kipu_bank.sol\":2139:2154  ReentrantCall() */\n      mload(0x40)\n      0x37ed32e800000000000000000000000000000000000000000000000000000000\n      dup2\n      mstore\n      0x04\n      add\n      mload(0x40)\n      dup1\n      swap2\n      sub\n      swap1\n      revert\n        /* \"contracts/kipu_bank.sol\":2107:2154  if (_status == _ENTERED) revert ReentrantCall() */\n    tag_129:\n        /* \"contracts/kipu_bank.sol\":2065:2066  2 */\n      0x02\n        /* \"contracts/kipu_bank.sol\":2164:2171  _status */\n      0x07\n      0x00\n        /* \"contracts/kipu_bank.sol\":2164:2182  _status = _ENTERED */\n      0x0100\n      exp\n      dup2\n      sload\n      dup2\n      0xff\n      mul\n      not\n      and\n      swap1\n      dup4\n      0xff\n      and\n      mul\n      or\n      swap1\n      sstore\n      pop\n        /* \"contracts/kipu_bank.sol\":4111:4112  0 */\n      0x00\n        /* \"contracts/kipu_bank.sol\":4101:4107  amount */\n      dup2\n        /* \"contracts/kipu_bank.sol\":4101:4112  amount == 0 */\n      sub\n        /* \"contracts/kipu_bank.sol\":4097:4133  if (amount == 0) revert ZeroAmount() */\n      tag_131\n      jumpi\n        /* \"contracts/kipu_bank.sol\":4121:4133  ZeroAmount() */\n      mload(0x40)\n      0x1f2a200500000000000000000000000000000000000000000000000000000000\n      dup2\n      mstore\n      0x04\n      add\n      mload(0x40)\n      dup1\n      swap2\n      sub\n      swap1\n      revert\n        /* \"contracts/kipu_bank.sol\":4097:4133  if (amount == 0) revert ZeroAmount() */\n    tag_131:\n        /* \"contracts/kipu_bank.sol\":4156:4172  totalBankBalance */\n      sload(0x01)\n        /* \"contracts/kipu_bank.sol\":4147:4153  amount */\n      dup2\n        /* \"contracts/kipu_bank.sol\":4147:4172  amount > totalBankBalance */\n      gt\n        /* \"contracts/kipu_bank.sol\":4143:4226  if (amount > totalBankBalance) revert InsufficientBalance(totalBankBalance, amount) */\n      iszero\n      tag_132\n      jumpi\n        /* \"contracts/kipu_bank.sol\":4201:4217  totalBankBalance */\n      sload(0x01)\n        /* \"contracts/kipu_bank.sol\":4219:4225  amount */\n      dup2\n        /* \"contracts/kipu_bank.sol\":4181:4226  InsufficientBalance(totalBankBalance, amount) */\n      mload(0x40)\n      0xcf47918100000000000000000000000000000000000000000000000000000000\n      dup2\n      mstore\n      0x04\n      add\n      tag_133\n      swap3\n      swap2\n      swap1\n      tag_93\n      jump\t// in\n    tag_133:\n      mload(0x40)\n      dup1\n      swap2\n      sub\n      swap1\n      revert\n        /* \"contracts/kipu_bank.sol\":4143:4226  if (amount > totalBankBalance) revert InsufficientBalance(totalBankBalance, amount) */\n    tag_132:\n        /* \"contracts/kipu_bank.sol\":4257:4263  amount */\n      dup1\n        /* \"contracts/kipu_bank.sol\":4237:4253  totalBankBalance */\n      0x01\n      0x00\n        /* \"contracts/kipu_bank.sol\":4237:4263  totalBankBalance -= amount */\n      dup3\n      dup3\n      sload\n      tag_134\n      swap2\n      swap1\n      tag_97\n      jump\t// in\n    tag_134:\n      swap3\n      pop\n      pop\n      dup2\n      swap1\n      sstore\n      pop\n        /* \"contracts/kipu_bank.sol\":4275:4284  bool sent */\n      0x00\n        /* \"contracts/kipu_bank.sol\":4290:4300  msg.sender */\n      caller\n        /* \"contracts/kipu_bank.sol\":4290:4305  msg.sender.call */\n      0xffffffffffffffffffffffffffffffffffffffff\n      and\n        /* \"contracts/kipu_bank.sol\":4313:4319  amount */\n      dup3\n        /* \"contracts/kipu_bank.sol\":4290:4324  msg.sender.call{value: amount}(\"\") */\n      mload(0x40)\n      tag_135\n      swap1\n      tag_103\n      jump\t// in\n    tag_135:\n      0x00\n      mload(0x40)\n      dup1\n      dup4\n      sub\n      dup2\n      dup6\n      dup8\n      gas\n      call\n      swap3\n      pop\n      pop\n      pop\n      returndatasize\n      dup1\n      0x00\n      dup2\n      eq\n      tag_138\n      jumpi\n      mload(0x40)\n      swap2\n      pop\n      and(add(returndatasize, 0x3f), not(0x1f))\n      dup3\n      add\n      0x40\n      mstore\n      returndatasize\n      dup3\n      mstore\n      returndatasize\n      0x00\n      0x20\n      dup5\n      add\n      returndatacopy\n      jump(tag_137)\n    tag_138:\n      0x60\n      swap2\n      pop\n    tag_137:\n      pop\n        /* \"contracts/kipu_bank.sol\":4274:4324  (bool sent, ) = msg.sender.call{value: amount}(\"\") */\n      pop\n      swap1\n      pop\n        /* \"contracts/kipu_bank.sol\":4339:4343  sent */\n      dup1\n        /* \"contracts/kipu_bank.sol\":4334:4386  if (!sent) revert TransferFailed(msg.sender, amount) */\n      tag_139\n      jumpi\n        /* \"contracts/kipu_bank.sol\":4367:4377  msg.sender */\n      caller\n        /* \"contracts/kipu_bank.sol\":4379:4385  amount */\n      dup3\n        /* \"contracts/kipu_bank.sol\":4352:4386  TransferFailed(msg.sender, amount) */\n      mload(0x40)\n      0x1c43b97600000000000000000000000000000000000000000000000000000000\n      dup2\n      mstore\n      0x04\n      add\n      tag_140\n      swap3\n      swap2\n      swap1\n      tag_109\n      jump\t// in\n    tag_140:\n      mload(0x40)\n      dup1\n      swap2\n      sub\n      swap1\n      revert\n        /* \"contracts/kipu_bank.sol\":4334:4386  if (!sent) revert TransferFailed(msg.sender, amount) */\n    tag_139:\n        /* \"contracts/kipu_bank.sol\":4418:4428  msg.sender */\n      caller\n        /* \"contracts/kipu_bank.sol\":4402:4455  OwnerWithdrawal(msg.sender, amount, totalBankBalance) */\n      0xffffffffffffffffffffffffffffffffffffffff\n      and\n      0x5e70f429cb11006093b2f75398f48bd6971871dca25171e8237120e666c1b168\n        /* \"contracts/kipu_bank.sol\":4430:4436  amount */\n      dup4\n        /* \"contracts/kipu_bank.sol\":4438:4454  totalBankBalance */\n      sload(0x01)\n        /* \"contracts/kipu_bank.sol\":4402:4455  OwnerWithdrawal(msg.sender, amount, totalBankBalance) */\n      mload(0x40)\n      tag_141\n      swap3\n      swap2\n      swap1\n      tag_93\n      jump\t// in\n    tag_141:\n      mload(0x40)\n      dup1\n      swap2\n      sub\n      swap1\n      log2\n        /* \"contracts/kipu_bank.sol\":4087:4462  {... */\n      pop\n        /* \"contracts/kipu_bank.sol\":2024:2025  1 */\n      0x01\n        /* \"contracts/kipu_bank.sol\":2203:2210  _status */\n      0x07\n      0x00\n        /* \"contracts/kipu_bank.sol\":2203:2225  _status = _NOT_ENTERED */\n      0x0100\n      exp\n      dup2\n      sload\n      dup2\n      0xff\n      mul\n      not\n      and\n      swap1\n      dup4\n      0xff\n      and\n      mul\n      or\n      swap1\n      sstore\n      pop\n        /* \"contracts/kipu_bank.sol\":4008:4462  function ownerWithdrawFromBank(uint256 amount) external onlyOwner nonReentrant {... */\n      pop\n      jump\t// out\n        /* \"contracts/kipu_bank.sol\":1472:1527  mapping(address => uint256) public userWithdrawalsCount */\n    tag_67:\n      mstore(0x20, 0x06)\n      dup1\n      0x00\n      mstore\n      keccak256(0x00, 0x40)\n      0x00\n      swap2\n      pop\n      swap1\n      pop\n      sload\n      dup2\n      jump\t// out\n        /* \"contracts/kipu_bank.sol\":882:914  uint256 public immutable bankCap */\n    tag_71:\n      immutable(\"0xd67d834462ca31eaef1f30157e31659f60355143b7441e6fc7d9eae1fa79f3f8\")\n      dup2\n      jump\t// out\n        /* \"contracts/kipu_bank.sol\":4468:4628  function transferOwnership(address newOwner) external onlyOwner {... */\n    tag_76:\n        /* \"contracts/kipu_bank.sol\":2345:2350  owner */\n      0x00\n      0x00\n      swap1\n      sload\n      swap1\n      0x0100\n      exp\n      swap1\n      div\n      0xffffffffffffffffffffffffffffffffffffffff\n      and\n        /* \"contracts/kipu_bank.sol\":2331:2350  msg.sender != owner */\n      0xffffffffffffffffffffffffffffffffffffffff\n      and\n        /* \"contracts/kipu_bank.sol\":2331:2341  msg.sender */\n      caller\n        /* \"contracts/kipu_bank.sol\":2331:2350  msg.sender != owner */\n      0xffffffffffffffffffffffffffffffffffffffff\n      and\n      eq\n        /* \"contracts/kipu_bank.sol\":2327:2379  if (msg.sender != owner) revert NotOwner(msg.sender) */\n      tag_143\n      jumpi\n        /* \"contracts/kipu_bank.sol\":2368:2378  msg.sender */\n      caller\n        /* \"contracts/kipu_bank.sol\":2359:2379  NotOwner(msg.sender) */\n      mload(0x40)\n      0x245aecd300000000000000000000000000000000000000000000000000000000\n      dup2\n      mstore\n      0x04\n      add\n      tag_144\n      swap2\n      swap1\n      tag_42\n      jump\t// in\n    tag_144:\n      mload(0x40)\n      dup1\n      swap2\n      sub\n      swap1\n      revert\n        /* \"contracts/kipu_bank.sol\":2327:2379  if (msg.sender != owner) revert NotOwner(msg.sender) */\n    tag_143:\n        /* \"contracts/kipu_bank.sol\":4566:4567  0 */\n      0x00\n        /* \"contracts/kipu_bank.sol\":4546:4568  newOwner == address(0) */\n      0xffffffffffffffffffffffffffffffffffffffff\n      and\n        /* \"contracts/kipu_bank.sol\":4546:4554  newOwner */\n      dup2\n        /* \"contracts/kipu_bank.sol\":4546:4568  newOwner == address(0) */\n      0xffffffffffffffffffffffffffffffffffffffff\n      and\n      sub\n        /* \"contracts/kipu_bank.sol\":4542:4595  if (newOwner == address(0)) revert NotOwner(newOwner) */\n      tag_146\n      jumpi\n        /* \"contracts/kipu_bank.sol\":4586:4594  newOwner */\n      dup1\n        /* \"contracts/kipu_bank.sol\":4577:4595  NotOwner(newOwner) */\n      mload(0x40)\n      0x245aecd300000000000000000000000000000000000000000000000000000000\n      dup2\n      mstore\n      0x04\n      add\n      tag_147\n      swap2\n      swap1\n      tag_42\n      jump\t// in\n    tag_147:\n      mload(0x40)\n      dup1\n      swap2\n      sub\n      swap1\n      revert\n        /* \"contracts/kipu_bank.sol\":4542:4595  if (newOwner == address(0)) revert NotOwner(newOwner) */\n    tag_146:\n        /* \"contracts/kipu_bank.sol\":4613:4621  newOwner */\n      dup1\n        /* \"contracts/kipu_bank.sol\":4605:4610  owner */\n      0x00\n      0x00\n        /* \"contracts/kipu_bank.sol\":4605:4621  owner = newOwner */\n      0x0100\n      exp\n      dup2\n      sload\n      dup2\n      0xffffffffffffffffffffffffffffffffffffffff\n      mul\n      not\n      and\n      swap1\n      dup4\n      0xffffffffffffffffffffffffffffffffffffffff\n      and\n      mul\n      or\n      swap1\n      sstore\n      pop\n        /* \"contracts/kipu_bank.sol\":4468:4628  function transferOwnership(address newOwner) external onlyOwner {... */\n      pop\n      jump\t// out\n        /* \"contracts/kipu_bank.sol\":4699:4803  function getBalance(address user) external view returns (uint256) {... */\n    tag_80:\n        /* \"contracts/kipu_bank.sol\":4756:4763  uint256 */\n      0x00\n        /* \"contracts/kipu_bank.sol\":4782:4790  balances */\n      0x04\n        /* \"contracts/kipu_bank.sol\":4782:4796  balances[user] */\n      0x00\n        /* \"contracts/kipu_bank.sol\":4791:4795  user */\n      dup4\n        /* \"contracts/kipu_bank.sol\":4782:4796  balances[user] */\n      0xffffffffffffffffffffffffffffffffffffffff\n      and\n      0xffffffffffffffffffffffffffffffffffffffff\n      and\n      dup2\n      mstore\n      0x20\n      add\n      swap1\n      dup2\n      mstore\n      0x20\n      add\n      0x00\n      keccak256\n      sload\n        /* \"contracts/kipu_bank.sol\":4775:4796  return balances[user] */\n      swap1\n      pop\n        /* \"contracts/kipu_bank.sol\":4699:4803  function getBalance(address user) external view returns (uint256) {... */\n      swap2\n      swap1\n      pop\n      jump\t// out\n        /* \"contracts/kipu_bank.sol\":830:876  string public constant VERSION = \"KipuBank v1\" */\n    tag_84:\n      mload(0x40)\n      dup1\n      0x40\n      add\n      0x40\n      mstore\n      dup1\n      0x0b\n      dup2\n      mstore\n      0x20\n      add\n      0x4b69707542616e6b207631000000000000000000000000000000000000000000\n      dup2\n      mstore\n      pop\n      dup2\n      jump\t// out\n        /* \"#utility.yul\":7:84   */\n    tag_149:\n        /* \"#utility.yul\":44:51   */\n      0x00\n        /* \"#utility.yul\":73:78   */\n      dup2\n        /* \"#utility.yul\":62:78   */\n      swap1\n      pop\n        /* \"#utility.yul\":7:84   */\n      swap2\n      swap1\n      pop\n      jump\t// out\n        /* \"#utility.yul\":90:208   */\n    tag_150:\n        /* \"#utility.yul\":177:201   */\n      tag_173\n        /* \"#utility.yul\":195:200   */\n      dup2\n        /* \"#utility.yul\":177:201   */\n      tag_149\n      jump\t// in\n    tag_173:\n        /* \"#utility.yul\":172:175   */\n      dup3\n        /* \"#utility.yul\":165:202   */\n      mstore\n        /* \"#utility.yul\":90:208   */\n      pop\n      pop\n      jump\t// out\n        /* \"#utility.yul\":214:436   */\n    tag_24:\n        /* \"#utility.yul\":307:311   */\n      0x00\n        /* \"#utility.yul\":345:347   */\n      0x20\n        /* \"#utility.yul\":334:343   */\n      dup3\n        /* \"#utility.yul\":330:348   */\n      add\n        /* \"#utility.yul\":322:348   */\n      swap1\n      pop\n        /* \"#utility.yul\":358:429   */\n      tag_175\n        /* \"#utility.yul\":426:427   */\n      0x00\n        /* \"#utility.yul\":415:424   */\n      dup4\n        /* \"#utility.yul\":411:428   */\n      add\n        /* \"#utility.yul\":402:408   */\n      dup5\n        /* \"#utility.yul\":358:429   */\n      tag_150\n      jump\t// in\n    tag_175:\n        /* \"#utility.yul\":214:436   */\n      swap3\n      swap2\n      pop\n      pop\n      jump\t// out\n        /* \"#utility.yul\":523:640   */\n    tag_152:\n        /* \"#utility.yul\":632:633   */\n      0x00\n        /* \"#utility.yul\":629:630   */\n      0x00\n        /* \"#utility.yul\":622:634   */\n      revert\n        /* \"#utility.yul\":769:891   */\n    tag_154:\n        /* \"#utility.yul\":842:866   */\n      tag_180\n        /* \"#utility.yul\":860:865   */\n      dup2\n        /* \"#utility.yul\":842:866   */\n      tag_149\n      jump\t// in\n    tag_180:\n        /* \"#utility.yul\":835:840   */\n      dup2\n        /* \"#utility.yul\":832:867   */\n      eq\n        /* \"#utility.yul\":822:885   */\n      tag_181\n      jumpi\n        /* \"#utility.yul\":881:882   */\n      0x00\n        /* \"#utility.yul\":878:879   */\n      0x00\n        /* \"#utility.yul\":871:883   */\n      revert\n        /* \"#utility.yul\":822:885   */\n    tag_181:\n        /* \"#utility.yul\":769:891   */\n      pop\n      jump\t// out\n        /* \"#utility.yul\":897:1036   */\n    tag_155:\n        /* \"#utility.yul\":943:948   */\n      0x00\n        /* \"#utility.yul\":981:987   */\n      dup2\n        /* \"#utility.yul\":968:988   */\n      calldataload\n        /* \"#utility.yul\":959:988   */\n      swap1\n      pop\n        /* \"#utility.yul\":997:1030   */\n      tag_183\n        /* \"#utility.yul\":1024:1029   */\n      dup2\n        /* \"#utility.yul\":997:1030   */\n      tag_154\n      jump\t// in\n    tag_183:\n        /* \"#utility.yul\":897:1036   */\n      swap3\n      swap2\n      pop\n      pop\n      jump\t// out\n        /* \"#utility.yul\":1042:1371   */\n    tag_32:\n        /* \"#utility.yul\":1101:1107   */\n      0x00\n        /* \"#utility.yul\":1150:1152   */\n      0x20\n        /* \"#utility.yul\":1138:1147   */\n      dup3\n        /* \"#utility.yul\":1129:1136   */\n      dup5\n        /* \"#utility.yul\":1125:1148   */\n      sub\n        /* \"#utility.yul\":1121:1153   */\n      slt\n        /* \"#utility.yul\":1118:1237   */\n      iszero\n      tag_185\n      jumpi\n        /* \"#utility.yul\":1156:1235   */\n      tag_186\n      tag_152\n      jump\t// in\n    tag_186:\n        /* \"#utility.yul\":1118:1237   */\n    tag_185:\n        /* \"#utility.yul\":1276:1277   */\n      0x00\n        /* \"#utility.yul\":1301:1354   */\n      tag_187\n        /* \"#utility.yul\":1346:1353   */\n      dup5\n        /* \"#utility.yul\":1337:1343   */\n      dup3\n        /* \"#utility.yul\":1326:1335   */\n      dup6\n        /* \"#utility.yul\":1322:1344   */\n      add\n        /* \"#utility.yul\":1301:1354   */\n      tag_155\n      jump\t// in\n    tag_187:\n        /* \"#utility.yul\":1291:1354   */\n      swap2\n      pop\n        /* \"#utility.yul\":1247:1364   */\n      pop\n        /* \"#utility.yul\":1042:1371   */\n      swap3\n      swap2\n      pop\n      pop\n      jump\t// out\n        /* \"#utility.yul\":1377:1503   */\n    tag_156:\n        /* \"#utility.yul\":1414:1421   */\n      0x00\n        /* \"#utility.yul\":1454:1496   */\n      0xffffffffffffffffffffffffffffffffffffffff\n        /* \"#utility.yul\":1447:1452   */\n      dup3\n        /* \"#utility.yul\":1443:1497   */\n      and\n        /* \"#utility.yul\":1432:1497   */\n      swap1\n      pop\n        /* \"#utility.yul\":1377:1503   */\n      swap2\n      swap1\n      pop\n      jump\t// out\n        /* \"#utility.yul\":1509:1605   */\n    tag_157:\n        /* \"#utility.yul\":1546:1553   */\n      0x00\n        /* \"#utility.yul\":1575:1599   */\n      tag_190\n        /* \"#utility.yul\":1593:1598   */\n      dup3\n        /* \"#utility.yul\":1575:1599   */\n      tag_156\n      jump\t// in\n    tag_190:\n        /* \"#utility.yul\":1564:1599   */\n      swap1\n      pop\n        /* \"#utility.yul\":1509:1605   */\n      swap2\n      swap1\n      pop\n      jump\t// out\n        /* \"#utility.yul\":1611:1729   */\n    tag_158:\n        /* \"#utility.yul\":1698:1722   */\n      tag_192\n        /* \"#utility.yul\":1716:1721   */\n      dup2\n        /* \"#utility.yul\":1698:1722   */\n      tag_157\n      jump\t// in\n    tag_192:\n        /* \"#utility.yul\":1693:1696   */\n      dup3\n        /* \"#utility.yul\":1686:1723   */\n      mstore\n        /* \"#utility.yul\":1611:1729   */\n      pop\n      pop\n      jump\t// out\n        /* \"#utility.yul\":1735:1957   */\n    tag_42:\n        /* \"#utility.yul\":1828:1832   */\n      0x00\n        /* \"#utility.yul\":1866:1868   */\n      0x20\n        /* \"#utility.yul\":1855:1864   */\n      dup3\n        /* \"#utility.yul\":1851:1869   */\n      add\n        /* \"#utility.yul\":1843:1869   */\n      swap1\n      pop\n        /* \"#utility.yul\":1879:1950   */\n      tag_194\n        /* \"#utility.yul\":1947:1948   */\n      0x00\n        /* \"#utility.yul\":1936:1945   */\n      dup4\n        /* \"#utility.yul\":1932:1949   */\n      add\n        /* \"#utility.yul\":1923:1929   */\n      dup5\n        /* \"#utility.yul\":1879:1950   */\n      tag_158\n      jump\t// in\n    tag_194:\n        /* \"#utility.yul\":1735:1957   */\n      swap3\n      swap2\n      pop\n      pop\n      jump\t// out\n        /* \"#utility.yul\":1963:2627   */\n    tag_47:\n        /* \"#utility.yul\":2168:2172   */\n      0x00\n        /* \"#utility.yul\":2206:2209   */\n      0xa0\n        /* \"#utility.yul\":2195:2204   */\n      dup3\n        /* \"#utility.yul\":2191:2210   */\n      add\n        /* \"#utility.yul\":2183:2210   */\n      swap1\n      pop\n        /* \"#utility.yul\":2220:2291   */\n      tag_196\n        /* \"#utility.yul\":2288:2289   */\n      0x00\n        /* \"#utility.yul\":2277:2286   */\n      dup4\n        /* \"#utility.yul\":2273:2290   */\n      add\n        /* \"#utility.yul\":2264:2270   */\n      dup9\n        /* \"#utility.yul\":2220:2291   */\n      tag_150\n      jump\t// in\n    tag_196:\n        /* \"#utility.yul\":2301:2373   */\n      tag_197\n        /* \"#utility.yul\":2369:2371   */\n      0x20\n        /* \"#utility.yul\":2358:2367   */\n      dup4\n        /* \"#utility.yul\":2354:2372   */\n      add\n        /* \"#utility.yul\":2345:2351   */\n      dup8\n        /* \"#utility.yul\":2301:2373   */\n      tag_150\n      jump\t// in\n    tag_197:\n        /* \"#utility.yul\":2383:2455   */\n      tag_198\n        /* \"#utility.yul\":2451:2453   */\n      0x40\n        /* \"#utility.yul\":2440:2449   */\n      dup4\n        /* \"#utility.yul\":2436:2454   */\n      add\n        /* \"#utility.yul\":2427:2433   */\n      dup7\n        /* \"#utility.yul\":2383:2455   */\n      tag_150\n      jump\t// in\n    tag_198:\n        /* \"#utility.yul\":2465:2537   */\n      tag_199\n        /* \"#utility.yul\":2533:2535   */\n      0x60\n        /* \"#utility.yul\":2522:2531   */\n      dup4\n        /* \"#utility.yul\":2518:2536   */\n      add\n        /* \"#utility.yul\":2509:2515   */\n      dup6\n        /* \"#utility.yul\":2465:2537   */\n      tag_150\n      jump\t// in\n    tag_199:\n        /* \"#utility.yul\":2547:2620   */\n      tag_200\n        /* \"#utility.yul\":2615:2618   */\n      0x80\n        /* \"#utility.yul\":2604:2613   */\n      dup4\n        /* \"#utility.yul\":2600:2619   */\n      add\n        /* \"#utility.yul\":2591:2597   */\n      dup5\n        /* \"#utility.yul\":2547:2620   */\n      tag_150\n      jump\t// in\n    tag_200:\n        /* \"#utility.yul\":1963:2627   */\n      swap7\n      swap6\n      pop\n      pop\n      pop\n      pop\n      pop\n      pop\n      jump\t// out\n        /* \"#utility.yul\":2633:2755   */\n    tag_159:\n        /* \"#utility.yul\":2706:2730   */\n      tag_202\n        /* \"#utility.yul\":2724:2729   */\n      dup2\n        /* \"#utility.yul\":2706:2730   */\n      tag_157\n      jump\t// in\n    tag_202:\n        /* \"#utility.yul\":2699:2704   */\n      dup2\n        /* \"#utility.yul\":2696:2731   */\n      eq\n        /* \"#utility.yul\":2686:2749   */\n      tag_203\n      jumpi\n        /* \"#utility.yul\":2745:2746   */\n      0x00\n        /* \"#utility.yul\":2742:2743   */\n      0x00\n        /* \"#utility.yul\":2735:2747   */\n      revert\n        /* \"#utility.yul\":2686:2749   */\n    tag_203:\n        /* \"#utility.yul\":2633:2755   */\n      pop\n      jump\t// out\n        /* \"#utility.yul\":2761:2900   */\n    tag_160:\n        /* \"#utility.yul\":2807:2812   */\n      0x00\n        /* \"#utility.yul\":2845:2851   */\n      dup2\n        /* \"#utility.yul\":2832:2852   */\n      calldataload\n        /* \"#utility.yul\":2823:2852   */\n      swap1\n      pop\n        /* \"#utility.yul\":2861:2894   */\n      tag_205\n        /* \"#utility.yul\":2888:2893   */\n      dup2\n        /* \"#utility.yul\":2861:2894   */\n      tag_159\n      jump\t// in\n    tag_205:\n        /* \"#utility.yul\":2761:2900   */\n      swap3\n      swap2\n      pop\n      pop\n      jump\t// out\n        /* \"#utility.yul\":2906:3235   */\n    tag_57:\n        /* \"#utility.yul\":2965:2971   */\n      0x00\n        /* \"#utility.yul\":3014:3016   */\n      0x20\n        /* \"#utility.yul\":3002:3011   */\n      dup3\n        /* \"#utility.yul\":2993:3000   */\n      dup5\n        /* \"#utility.yul\":2989:3012   */\n      sub\n        /* \"#utility.yul\":2985:3017   */\n      slt\n        /* \"#utility.yul\":2982:3101   */\n      iszero\n      tag_207\n      jumpi\n        /* \"#utility.yul\":3020:3099   */\n      tag_208\n      tag_152\n      jump\t// in\n    tag_208:\n        /* \"#utility.yul\":2982:3101   */\n    tag_207:\n        /* \"#utility.yul\":3140:3141   */\n      0x00\n        /* \"#utility.yul\":3165:3218   */\n      tag_209\n        /* \"#utility.yul\":3210:3217   */\n      dup5\n        /* \"#utility.yul\":3201:3207   */\n      dup3\n        /* \"#utility.yul\":3190:3199   */\n      dup6\n        /* \"#utility.yul\":3186:3208   */\n      add\n        /* \"#utility.yul\":3165:3218   */\n      tag_160\n      jump\t// in\n    tag_209:\n        /* \"#utility.yul\":3155:3218   */\n      swap2\n      pop\n        /* \"#utility.yul\":3111:3228   */\n      pop\n        /* \"#utility.yul\":2906:3235   */\n      swap3\n      swap2\n      pop\n      pop\n      jump\t// out\n        /* \"#utility.yul\":3241:3340   */\n    tag_161:\n        /* \"#utility.yul\":3293:3299   */\n      0x00\n        /* \"#utility.yul\":3327:3332   */\n      dup2\n        /* \"#utility.yul\":3321:3333   */\n      mload\n        /* \"#utility.yul\":3311:3333   */\n      swap1\n      pop\n        /* \"#utility.yul\":3241:3340   */\n      swap2\n      swap1\n      pop\n      jump\t// out\n        /* \"#utility.yul\":3346:3515   */\n    tag_162:\n        /* \"#utility.yul\":3430:3441   */\n      0x00\n        /* \"#utility.yul\":3464:3470   */\n      dup3\n        /* \"#utility.yul\":3459:3462   */\n      dup3\n        /* \"#utility.yul\":3452:3471   */\n      mstore\n        /* \"#utility.yul\":3504:3508   */\n      0x20\n        /* \"#utility.yul\":3499:3502   */\n      dup3\n        /* \"#utility.yul\":3495:3509   */\n      add\n        /* \"#utility.yul\":3480:3509   */\n      swap1\n      pop\n        /* \"#utility.yul\":3346:3515   */\n      swap3\n      swap2\n      pop\n      pop\n      jump\t// out\n        /* \"#utility.yul\":3521:3660   */\n    tag_163:\n        /* \"#utility.yul\":3610:3616   */\n      dup3\n        /* \"#utility.yul\":3605:3608   */\n      dup2\n        /* \"#utility.yul\":3600:3603   */\n      dup4\n        /* \"#utility.yul\":3594:3617   */\n      mcopy\n        /* \"#utility.yul\":3651:3652   */\n      0x00\n        /* \"#utility.yul\":3642:3648   */\n      dup4\n        /* \"#utility.yul\":3637:3640   */\n      dup4\n        /* \"#utility.yul\":3633:3649   */\n      add\n        /* \"#utility.yul\":3626:3653   */\n      mstore\n        /* \"#utility.yul\":3521:3660   */\n      pop\n      pop\n      pop\n      jump\t// out\n        /* \"#utility.yul\":3666:3768   */\n    tag_164:\n        /* \"#utility.yul\":3707:3713   */\n      0x00\n        /* \"#utility.yul\":3758:3760   */\n      0x1f\n        /* \"#utility.yul\":3754:3761   */\n      not\n        /* \"#utility.yul\":3749:3751   */\n      0x1f\n        /* \"#utility.yul\":3742:3747   */\n      dup4\n        /* \"#utility.yul\":3738:3752   */\n      add\n        /* \"#utility.yul\":3734:3762   */\n      and\n        /* \"#utility.yul\":3724:3762   */\n      swap1\n      pop\n        /* \"#utility.yul\":3666:3768   */\n      swap2\n      swap1\n      pop\n      jump\t// out\n        /* \"#utility.yul\":3774:4151   */\n    tag_165:\n        /* \"#utility.yul\":3862:3865   */\n      0x00\n        /* \"#utility.yul\":3890:3929   */\n      tag_215\n        /* \"#utility.yul\":3923:3928   */\n      dup3\n        /* \"#utility.yul\":3890:3929   */\n      tag_161\n      jump\t// in\n    tag_215:\n        /* \"#utility.yul\":3945:4016   */\n      tag_216\n        /* \"#utility.yul\":4009:4015   */\n      dup2\n        /* \"#utility.yul\":4004:4007   */\n      dup6\n        /* \"#utility.yul\":3945:4016   */\n      tag_162\n      jump\t// in\n    tag_216:\n        /* \"#utility.yul\":3938:4016   */\n      swap4\n      pop\n        /* \"#utility.yul\":4025:4090   */\n      tag_217\n        /* \"#utility.yul\":4083:4089   */\n      dup2\n        /* \"#utility.yul\":4078:4081   */\n      dup6\n        /* \"#utility.yul\":4071:4075   */\n      0x20\n        /* \"#utility.yul\":4064:4069   */\n      dup7\n        /* \"#utility.yul\":4060:4076   */\n      add\n        /* \"#utility.yul\":4025:4090   */\n      tag_163\n      jump\t// in\n    tag_217:\n        /* \"#utility.yul\":4115:4144   */\n      tag_218\n        /* \"#utility.yul\":4137:4143   */\n      dup2\n        /* \"#utility.yul\":4115:4144   */\n      tag_164\n      jump\t// in\n    tag_218:\n        /* \"#utility.yul\":4110:4113   */\n      dup5\n        /* \"#utility.yul\":4106:4145   */\n      add\n        /* \"#utility.yul\":4099:4145   */\n      swap2\n      pop\n        /* \"#utility.yul\":3866:4151   */\n      pop\n        /* \"#utility.yul\":3774:4151   */\n      swap3\n      swap2\n      pop\n      pop\n      jump\t// out\n        /* \"#utility.yul\":4157:4470   */\n    tag_86:\n        /* \"#utility.yul\":4270:4274   */\n      0x00\n        /* \"#utility.yul\":4308:4310   */\n      0x20\n        /* \"#utility.yul\":4297:4306   */\n      dup3\n        /* \"#utility.yul\":4293:4311   */\n      add\n        /* \"#utility.yul\":4285:4311   */\n      swap1\n      pop\n        /* \"#utility.yul\":4357:4366   */\n      dup2\n        /* \"#utility.yul\":4351:4355   */\n      dup2\n        /* \"#utility.yul\":4347:4367   */\n      sub\n        /* \"#utility.yul\":4343:4344   */\n      0x00\n        /* \"#utility.yul\":4332:4341   */\n      dup4\n        /* \"#utility.yul\":4328:4345   */\n      add\n        /* \"#utility.yul\":4321:4368   */\n      mstore\n        /* \"#utility.yul\":4385:4463   */\n      tag_220\n        /* \"#utility.yul\":4458:4462   */\n      dup2\n        /* \"#utility.yul\":4449:4455   */\n      dup5\n        /* \"#utility.yul\":4385:4463   */\n      tag_165\n      jump\t// in\n    tag_220:\n        /* \"#utility.yul\":4377:4463   */\n      swap1\n      pop\n        /* \"#utility.yul\":4157:4470   */\n      swap3\n      swap2\n      pop\n      pop\n      jump\t// out\n        /* \"#utility.yul\":4476:4808   */\n    tag_93:\n        /* \"#utility.yul\":4597:4601   */\n      0x00\n        /* \"#utility.yul\":4635:4637   */\n      0x40\n        /* \"#utility.yul\":4624:4633   */\n      dup3\n        /* \"#utility.yul\":4620:4638   */\n      add\n        /* \"#utility.yul\":4612:4638   */\n      swap1\n      pop\n        /* \"#utility.yul\":4648:4719   */\n      tag_222\n        /* \"#utility.yul\":4716:4717   */\n      0x00\n        /* \"#utility.yul\":4705:4714   */\n      dup4\n        /* \"#utility.yul\":4701:4718   */\n      add\n        /* \"#utility.yul\":4692:4698   */\n      dup6\n        /* \"#utility.yul\":4648:4719   */\n      tag_150\n      jump\t// in\n    tag_222:\n        /* \"#utility.yul\":4729:4801   */\n      tag_223\n        /* \"#utility.yul\":4797:4799   */\n      0x20\n        /* \"#utility.yul\":4786:4795   */\n      dup4\n        /* \"#utility.yul\":4782:4800   */\n      add\n        /* \"#utility.yul\":4773:4779   */\n      dup5\n        /* \"#utility.yul\":4729:4801   */\n      tag_150\n      jump\t// in\n    tag_223:\n        /* \"#utility.yul\":4476:4808   */\n      swap4\n      swap3\n      pop\n      pop\n      pop\n      jump\t// out\n        /* \"#utility.yul\":4814:4994   */\n    tag_166:\n        /* \"#utility.yul\":4862:4939   */\n      0x4e487b7100000000000000000000000000000000000000000000000000000000\n        /* \"#utility.yul\":4859:4860   */\n      0x00\n        /* \"#utility.yul\":4852:4940   */\n      mstore\n        /* \"#utility.yul\":4959:4963   */\n      0x11\n        /* \"#utility.yul\":4956:4957   */\n      0x04\n        /* \"#utility.yul\":4949:4964   */\n      mstore\n        /* \"#utility.yul\":4983:4987   */\n      0x24\n        /* \"#utility.yul\":4980:4981   */\n      0x00\n        /* \"#utility.yul\":4973:4988   */\n      revert\n        /* \"#utility.yul\":5000:5194   */\n    tag_97:\n        /* \"#utility.yul\":5040:5044   */\n      0x00\n        /* \"#utility.yul\":5060:5080   */\n      tag_226\n        /* \"#utility.yul\":5078:5079   */\n      dup3\n        /* \"#utility.yul\":5060:5080   */\n      tag_149\n      jump\t// in\n    tag_226:\n        /* \"#utility.yul\":5055:5080   */\n      swap2\n      pop\n        /* \"#utility.yul\":5094:5114   */\n      tag_227\n        /* \"#utility.yul\":5112:5113   */\n      dup4\n        /* \"#utility.yul\":5094:5114   */\n      tag_149\n      jump\t// in\n    tag_227:\n        /* \"#utility.yul\":5089:5114   */\n      swap3\n      pop\n        /* \"#utility.yul\":5138:5139   */\n      dup3\n        /* \"#utility.yul\":5135:5136   */\n      dup3\n        /* \"#utility.yul\":5131:5140   */\n      sub\n        /* \"#utility.yul\":5123:5140   */\n      swap1\n      pop\n        /* \"#utility.yul\":5162:5163   */\n      dup2\n        /* \"#utility.yul\":5156:5160   */\n      dup2\n        /* \"#utility.yul\":5153:5164   */\n      gt\n        /* \"#utility.yul\":5150:5187   */\n      iszero\n      tag_228\n      jumpi\n        /* \"#utility.yul\":5167:5185   */\n      tag_229\n      tag_166\n      jump\t// in\n    tag_229:\n        /* \"#utility.yul\":5150:5187   */\n    tag_228:\n        /* \"#utility.yul\":5000:5194   */\n      swap3\n      swap2\n      pop\n      pop\n      jump\t// out\n        /* \"#utility.yul\":5200:5433   */\n    tag_100:\n        /* \"#utility.yul\":5239:5242   */\n      0x00\n        /* \"#utility.yul\":5262:5286   */\n      tag_231\n        /* \"#utility.yul\":5280:5285   */\n      dup3\n        /* \"#utility.yul\":5262:5286   */\n      tag_149\n      jump\t// in\n    tag_231:\n        /* \"#utility.yul\":5253:5286   */\n      swap2\n      pop\n        /* \"#utility.yul\":5308:5374   */\n      0xffffffffffffffffffffffffffffffffffffffffffffffffffffffffffffffff\n        /* \"#utility.yul\":5301:5306   */\n      dup3\n        /* \"#utility.yul\":5298:5375   */\n      sub\n        /* \"#utility.yul\":5295:5398   */\n      tag_232\n      jumpi\n        /* \"#utility.yul\":5378:5396   */\n      tag_233\n      tag_166\n      jump\t// in\n    tag_233:\n        /* \"#utility.yul\":5295:5398   */\n    tag_232:\n        /* \"#utility.yul\":5425:5426   */\n      0x01\n        /* \"#utility.yul\":5418:5423   */\n      dup3\n        /* \"#utility.yul\":5414:5427   */\n      add\n        /* \"#utility.yul\":5407:5427   */\n      swap1\n      pop\n        /* \"#utility.yul\":5200:5433   */\n      swap2\n      swap1\n      pop\n      jump\t// out\n        /* \"#utility.yul\":5439:5586   */\n    tag_167:\n        /* \"#utility.yul\":5540:5551   */\n      0x00\n        /* \"#utility.yul\":5577:5580   */\n      dup2\n        /* \"#utility.yul\":5562:5580   */\n      swap1\n      pop\n        /* \"#utility.yul\":5439:5586   */\n      swap3\n      swap2\n      pop\n      pop\n      jump\t// out\n        /* \"#utility.yul\":5592:5706   */\n    tag_168:\n      pop\n      jump\t// out\n        /* \"#utility.yul\":5712:6110   */\n    tag_169:\n        /* \"#utility.yul\":5871:5874   */\n      0x00\n        /* \"#utility.yul\":5892:5975   */\n      tag_237\n        /* \"#utility.yul\":5973:5974   */\n      0x00\n        /* \"#utility.yul\":5968:5971   */\n      dup4\n        /* \"#utility.yul\":5892:5975   */\n      tag_167\n      jump\t// in\n    tag_237:\n        /* \"#utility.yul\":5885:5975   */\n      swap2\n      pop\n        /* \"#utility.yul\":5984:6077   */\n      tag_238\n        /* \"#utility.yul\":6073:6076   */\n      dup3\n        /* \"#utility.yul\":5984:6077   */\n      tag_168\n      jump\t// in\n    tag_238:\n        /* \"#utility.yul\":6102:6103   */\n      0x00\n        /* \"#utility.yul\":6097:6100   */\n      dup3\n        /* \"#utility.yul\":6093:6104   */\n      add\n        /* \"#utility.yul\":6086:6104   */\n      swap1\n      pop\n        /* \"#utility.yul\":5712:6110   */\n      swap2\n      swap1\n      pop\n      jump\t// out\n        /* \"#utility.yul\":6116:6495   */\n    tag_103:\n        /* \"#utility.yul\":6300:6303   */\n      0x00\n        /* \"#utility.yul\":6322:6469   */\n      tag_240\n        /* \"#utility.yul\":6465:6468   */\n      dup3\n        /* \"#utility.yul\":6322:6469   */\n      tag_169\n      jump\t// in\n    tag_240:\n        /* \"#utility.yul\":6315:6469   */\n      swap2\n      pop\n        /* \"#utility.yul\":6486:6489   */\n      dup2\n        /* \"#utility.yul\":6479:6489   */\n      swap1\n      pop\n        /* \"#utility.yul\":6116:6495   */\n      swap2\n      swap1\n      pop\n      jump\t// out\n        /* \"#utility.yul\":6501:6833   */\n    tag_109:\n        /* \"#utility.yul\":6622:6626   */\n      0x00\n        /* \"#utility.yul\":6660:6662   */\n      0x40\n        /* \"#utility.yul\":6649:6658   */\n      dup3\n        /* \"#utility.yul\":6645:6663   */\n      add\n        /* \"#utility.yul\":6637:6663   */\n      swap1\n      pop\n        /* \"#utility.yul\":6673:6744   */\n      tag_242\n        /* \"#utility.yul\":6741:6742   */\n      0x00\n        /* \"#utility.yul\":6730:6739   */\n      dup4\n        /* \"#utility.yul\":6726:6743   */\n      add\n        /* \"#utility.yul\":6717:6723   */\n      dup6\n        /* \"#utility.yul\":6673:6744   */\n      tag_158\n      jump\t// in\n    tag_242:\n        /* \"#utility.yul\":6754:6826   */\n      tag_243\n        /* \"#utility.yul\":6822:6824   */\n      0x20\n        /* \"#utility.yul\":6811:6820   */\n      dup4\n        /* \"#utility.yul\":6807:6825   */\n      add\n        /* \"#utility.yul\":6798:6804   */\n      dup5\n        /* \"#utility.yul\":6754:6826   */\n      tag_150\n      jump\t// in\n    tag_243:\n        /* \"#utility.yul\":6501:6833   */\n      swap4\n      swap3\n      pop\n      pop\n      pop\n      jump\t// out\n        /* \"#utility.yul\":6839:7281   */\n    tag_111:\n        /* \"#utility.yul\":6988:6992   */\n      0x00\n        /* \"#utility.yul\":7026:7028   */\n      0x60\n        /* \"#utility.yul\":7015:7024   */\n      dup3\n        /* \"#utility.yul\":7011:7029   */\n      add\n        /* \"#utility.yul\":7003:7029   */\n      swap1\n      pop\n        /* \"#utility.yul\":7039:7110   */\n      tag_245\n        /* \"#utility.yul\":7107:7108   */\n      0x00\n        /* \"#utility.yul\":7096:7105   */\n      dup4\n        /* \"#utility.yul\":7092:7109   */\n      add\n        /* \"#utility.yul\":7083:7089   */\n      dup7\n        /* \"#utility.yul\":7039:7110   */\n      tag_150\n      jump\t// in\n    tag_245:\n        /* \"#utility.yul\":7120:7192   */\n      tag_246\n        /* \"#utility.yul\":7188:7190   */\n      0x20\n        /* \"#utility.yul\":7177:7186   */\n      dup4\n        /* \"#utility.yul\":7173:7191   */\n      add\n        /* \"#utility.yul\":7164:7170   */\n      dup6\n        /* \"#utility.yul\":7120:7192   */\n      tag_150\n      jump\t// in\n    tag_246:\n        /* \"#utility.yul\":7202:7274   */\n      tag_247\n        /* \"#utility.yul\":7270:7272   */\n      0x40\n        /* \"#utility.yul\":7259:7268   */\n      dup4\n        /* \"#utility.yul\":7255:7273   */\n      add\n        /* \"#utility.yul\":7246:7252   */\n      dup5\n        /* \"#utility.yul\":7202:7274   */\n      tag_150\n      jump\t// in\n    tag_247:\n        /* \"#utility.yul\":6839:7281   */\n      swap5\n      swap4\n      pop\n      pop\n      pop\n      pop\n      jump\t// out\n        /* \"#utility.yul\":7287:7478   */\n    tag_118:\n        /* \"#utility.yul\":7327:7330   */\n      0x00\n        /* \"#utility.yul\":7346:7366   */\n      tag_249\n        /* \"#utility.yul\":7364:7365   */\n      dup3\n        /* \"#utility.yul\":7346:7366   */\n      tag_149\n      jump\t// in\n    tag_249:\n        /* \"#utility.yul\":7341:7366   */\n      swap2\n      pop\n        /* \"#utility.yul\":7380:7400   */\n      tag_250\n        /* \"#utility.yul\":7398:7399   */\n      dup4\n        /* \"#utility.yul\":7380:7400   */\n      tag_149\n      jump\t// in\n    tag_250:\n        /* \"#utility.yul\":7375:7400   */\n      swap3\n      pop\n        /* \"#utility.yul\":7423:7424   */\n      dup3\n        /* \"#utility.yul\":7420:7421   */\n      dup3\n        /* \"#utility.yul\":7416:7425   */\n      add\n        /* \"#utility.yul\":7409:7425   */\n      swap1\n      pop\n        /* \"#utility.yul\":7444:7447   */\n      dup1\n        /* \"#utility.yul\":7441:7442   */\n      dup3\n        /* \"#utility.yul\":7438:7448   */\n      gt\n        /* \"#utility.yul\":7435:7471   */\n      iszero\n      tag_251\n      jumpi\n        /* \"#utility.yul\":7451:7469   */\n      tag_252\n      tag_166\n      jump\t// in\n    tag_252:\n        /* \"#utility.yul\":7435:7471   */\n    tag_251:\n        /* \"#utility.yul\":7287:7478   */\n      swap3\n      swap2\n      pop\n      pop\n      jump\t// out\n\n    auxdata: 0xa2646970667358221220a8a36396d3200943cea4bf01fa1409bdeaee34459f8d435eb4659d6fea953fe564736f6c634300081e0033\n}\n",
				"bytecode": {
					"linkReferences": {},
					"object": "60c060405234801561000f575f5ffd5b506040516114cc3803806114cc833981810160405281019061003191906100d9565b335f5f6101000a81548173ffffffffffffffffffffffffffffffffffffffff021916908373ffffffffffffffffffffffffffffffffffffffff16021790555081608081815250508060a08181525050600160075f6101000a81548160ff021916908360ff1602179055505050610117565b5f5ffd5b5f819050919050565b6100b8816100a6565b81146100c2575f5ffd5b50565b5f815190506100d3816100af565b92915050565b5f5f604083850312156100ef576100ee6100a2565b5b5f6100fc858286016100c5565b925050602061010d858286016100c5565b9150509250929050565b60805160a05161136a6101625f395f81816104250152818161044e0152818161075f01526107d601525f81816107b5015281816108c5015281816108ee0152610d9b015261136a5ff3fe6080604052600436106100e7575f3560e01c8063d0e30db011610089578063ecbea24d11610058578063ecbea24d146102bd578063f2fde38b146102e7578063f8b2cb4f1461030f578063ffa1ad741461034b576100e7565b8063d0e30db014610213578063d369e33c1461021d578063d8e426a814610259578063e481382114610281576100e7565b80634dab4207116100c55780634dab4207146101675780638da5cb5b14610191578063b16a867c146101bb578063c847119d146101e9576100e7565b80630770e571146100eb5780631977e938146101155780632e1a7d4d1461013f575b5f5ffd5b3480156100f6575f5ffd5b506100ff610375565b60405161010c9190610f96565b60405180910390f35b348015610120575f5ffd5b5061012961037b565b6040516101369190610f96565b60405180910390f35b34801561014a575f5ffd5b5061016560048036038101906101609190610fdd565b610381565b005b348015610172575f5ffd5b5061017b61075d565b6040516101889190610f96565b60405180910390f35b34801561019c575f5ffd5b506101a5610781565b6040516101b29190611047565b60405180910390f35b3480156101c6575f5ffd5b506101cf6107a5565b6040516101e0959493929190611060565b60405180910390f35b3480156101f4575f5ffd5b506101fd610806565b60405161020a9190610f96565b60405180910390f35b61021b61080c565b005b348015610228575f5ffd5b50610243600480360381019061023e91906110db565b610abd565b6040516102509190610f96565b60405180910390f35b348015610264575f5ffd5b5061027f600480360381019061027a9190610fdd565b610ad2565b005b34801561028c575f5ffd5b506102a760048036038101906102a291906110db565b610d84565b6040516102b49190610f96565b60405180910390f35b3480156102c8575f5ffd5b506102d1610d99565b6040516102de9190610f96565b60405180910390f35b3480156102f2575f5ffd5b5061030d600480360381019061030891906110db565b610dbd565b005b34801561031a575f5ffd5b50610335600480360381019061033091906110db565b610eff565b6040516103429190610f96565b60405180910390f35b348015610356575f5ffd5b5061035f610f45565b60405161036c9190611176565b60405180910390f35b60035481565b60015481565b600260ff1660075f9054906101000a900460ff1660ff16036103cf576040517f37ed32e800000000000000000000000000000000000000000000000000000000815260040160405180910390fd5b600260075f6101000a81548160ff021916908360ff1602179055505f8103610423576040517f1f2a200500000000000000000000000000000000000000000000000000000000815260040160405180910390fd5b7f00000000000000000000000000000000000000000000000000000000000000008111156104aa57807f00000000000000000000000000000000000000000000000000000000000000006040517fde0313af0000000000000000000000000000000000000000000000000000000081526004016104a1929190611196565b60405180910390fd5b5f60045f3373ffffffffffffffffffffffffffffffffffffffff1673ffffffffffffffffffffffffffffffffffffffff1681526020019081526020015f20549050818110156105325780826040517fcf479181000000000000000000000000000000000000000000000000000000008152600401610529929190611196565b60405180910390fd5b818161053e91906111ea565b60045f3373ffffffffffffffffffffffffffffffffffffffff1673ffffffffffffffffffffffffffffffffffffffff1681526020019081526020015f20819055508160015f82825461059091906111ea565b9250508190555060035f8154809291906105a99061121d565b919050555060065f3373ffffffffffffffffffffffffffffffffffffffff1673ffffffffffffffffffffffffffffffffffffffff1681526020019081526020015f205f8154809291906105fb9061121d565b91905055505f3373ffffffffffffffffffffffffffffffffffffffff168360405161062590611291565b5f6040518083038185875af1925050503d805f811461065f576040519150601f19603f3d011682016040523d82523d5f602084013e610664565b606091505b50509050806106ac5733836040517f1c43b9760000000000000000000000000000000000000000000000000000000081526004016106a39291906112a5565b60405180910390fd5b3373ffffffffffffffffffffffffffffffffffffffff167f650fdf669e93aa6c8ff3defe2da9c12b64f1548e5e1e54e803f4c1beb6466c8e8460045f3373ffffffffffffffffffffffffffffffffffffffff1673ffffffffffffffffffffffffffffffffffffffff1681526020019081526020015f2054600354604051610735939291906112cc565b60405180910390a25050600160075f6101000a81548160ff021916908360ff16021790555050565b7f000000000000000000000000000000000000000000000000000000000000000081565b5f5f9054906101000a900473ffffffffffffffffffffffffffffffffffffffff1681565b5f5f5f5f5f6001546002546003547f00000000000000000000000000000000000000000000000000000000000000007f0000000000000000000000000000000000000000000000000000000000000000945094509450945094509091929394565b60025481565b600260ff1660075f9054906101000a900460ff1660ff160361085a576040517f37ed32e800000000000000000000000000000000000000000000000000000000815260040160405180910390fd5b600260075f6101000a81548160ff021916908360ff1602179055505f3490505f81036108b2576040517f1f2a200500000000000000000000000000000000000000000000000000000000815260040160405180910390fd5b5f816001546108c19190611301565b90507f000000000000000000000000000000000000000000000000000000000000000081111561094a57807f00000000000000000000000000000000000000000000000000000000000000006040517f4274ef77000000000000000000000000000000000000000000000000000000008152600401610941929190611196565b60405180910390fd5b8160045f3373ffffffffffffffffffffffffffffffffffffffff1673ffffffffffffffffffffffffffffffffffffffff1681526020019081526020015f205f8282546109969190611301565b925050819055508060018190555060025f8154809291906109b69061121d565b919050555060055f3373ffffffffffffffffffffffffffffffffffffffff1673ffffffffffffffffffffffffffffffffffffffff1681526020019081526020015f205f815480929190610a089061121d565b91905055503373ffffffffffffffffffffffffffffffffffffffff167f36af321ec8d3c75236829c5317affd40ddb308863a1236d2d277a4025cccee1e8360045f3373ffffffffffffffffffffffffffffffffffffffff1673ffffffffffffffffffffffffffffffffffffffff1681526020019081526020015f2054600254604051610a96939291906112cc565b60405180910390a25050600160075f6101000a81548160ff021916908360ff160217905550565b6005602052805f5260405f205f915090505481565b5f5f9054906101000a900473ffffffffffffffffffffffffffffffffffffffff1673ffffffffffffffffffffffffffffffffffffffff163373ffffffffffffffffffffffffffffffffffffffff1614610b6257336040517f245aecd3000000000000000000000000000000000000000000000000000000008152600401610b599190611047565b60405180910390fd5b600260ff1660075f9054906101000a900460ff1660ff1603610bb0576040517f37ed32e800000000000000000000000000000000000000000000000000000000815260040160405180910390fd5b600260075f6101000a81548160ff021916908360ff1602179055505f8103610c04576040517f1f2a200500000000000000000000000000000000000000000000000000000000815260040160405180910390fd5b600154811115610c4f57600154816040517fcf479181000000000000000000000000000000000000000000000000000000008152600401610c46929190611196565b60405180910390fd5b8060015f828254610c6091906111ea565b925050819055505f3373ffffffffffffffffffffffffffffffffffffffff1682604051610c8c90611291565b5f6040518083038185875af1925050503d805f8114610cc6576040519150601f19603f3d011682016040523d82523d5f602084013e610ccb565b606091505b5050905080610d135733826040517f1c43b976000000000000000000000000000000000000000000000000000000008152600401610d0a9291906112a5565b60405180910390fd5b3373ffffffffffffffffffffffffffffffffffffffff167f5e70f429cb11006093b2f75398f48bd6971871dca25171e8237120e666c1b16883600154604051610d5d929190611196565b60405180910390a250600160075f6101000a81548160ff021916908360ff16021790555050565b6006602052805f5260405f205f915090505481565b7f000000000000000000000000000000000000000000000000000000000000000081565b5f5f9054906101000a900473ffffffffffffffffffffffffffffffffffffffff1673ffffffffffffffffffffffffffffffffffffffff163373ffffffffffffffffffffffffffffffffffffffff1614610e4d57336040517f245aecd3000000000000000000000000000000000000000000000000000000008152600401610e449190611047565b60405180910390fd5b5f73ffffffffffffffffffffffffffffffffffffffff168173ffffffffffffffffffffffffffffffffffffffff1603610ebd57806040517f245aecd3000000000000000000000000000000000000000000000000000000008152600401610eb49190611047565b60405180910390fd5b805f5f6101000a81548173ffffffffffffffffffffffffffffffffffffffff021916908373ffffffffffffffffffffffffffffffffffffffff16021790555050565b5f60045f8373ffffffffffffffffffffffffffffffffffffffff1673ffffffffffffffffffffffffffffffffffffffff1681526020019081526020015f20549050919050565b6040518060400160405280600b81526020017f4b69707542616e6b20763100000000000000000000000000000000000000000081525081565b5f819050919050565b610f9081610f7e565b82525050565b5f602082019050610fa95f830184610f87565b92915050565b5f5ffd5b610fbc81610f7e565b8114610fc6575f5ffd5b50565b5f81359050610fd781610fb3565b92915050565b5f60208284031215610ff257610ff1610faf565b5b5f610fff84828501610fc9565b91505092915050565b5f73ffffffffffffffffffffffffffffffffffffffff82169050919050565b5f61103182611008565b9050919050565b61104181611027565b82525050565b5f60208201905061105a5f830184611038565b92915050565b5f60a0820190506110735f830188610f87565b6110806020830187610f87565b61108d6040830186610f87565b61109a6060830185610f87565b6110a76080830184610f87565b9695505050505050565b6110ba81611027565b81146110c4575f5ffd5b50565b5f813590506110d5816110b1565b92915050565b5f602082840312156110f0576110ef610faf565b5b5f6110fd848285016110c7565b91505092915050565b5f81519050919050565b5f82825260208201905092915050565b8281835e5f83830152505050565b5f601f19601f8301169050919050565b5f61114882611106565b6111528185611110565b9350611162818560208601611120565b61116b8161112e565b840191505092915050565b5f6020820190508181035f83015261118e818461113e565b905092915050565b5f6040820190506111a95f830185610f87565b6111b66020830184610f87565b9392505050565b7f4e487b71000000000000000000000000000000000000000000000000000000005f52601160045260245ffd5b5f6111f482610f7e565b91506111ff83610f7e565b9250828203905081811115611217576112166111bd565b5b92915050565b5f61122782610f7e565b91507fffffffffffffffffffffffffffffffffffffffffffffffffffffffffffffffff8203611259576112586111bd565b5b600182019050919050565b5f81905092915050565b50565b5f61127c5f83611264565b91506112878261126e565b5f82019050919050565b5f61129b82611271565b9150819050919050565b5f6040820190506112b85f830185611038565b6112c56020830184610f87565b9392505050565b5f6060820190506112df5f830186610f87565b6112ec6020830185610f87565b6112f96040830184610f87565b949350505050565b5f61130b82610f7e565b915061131683610f7e565b925082820190508082111561132e5761132d6111bd565b5b9291505056fea2646970667358221220a8a36396d3200943cea4bf01fa1409bdeaee34459f8d435eb4659d6fea953fe564736f6c634300081e0033",
					"opcodes": "PUSH1 0xC0 PUSH1 0x40 MSTORE CALLVALUE DUP1 ISZERO PUSH2 0xF JUMPI PUSH0 PUSH0 REVERT JUMPDEST POP PUSH1 0x40 MLOAD PUSH2 0x14CC CODESIZE SUB DUP1 PUSH2 0x14CC DUP4 CODECOPY DUP2 DUP2 ADD PUSH1 0x40 MSTORE DUP2 ADD SWAP1 PUSH2 0x31 SWAP2 SWAP1 PUSH2 0xD9 JUMP JUMPDEST CALLER PUSH0 PUSH0 PUSH2 0x100 EXP DUP2 SLOAD DUP2 PUSH20 0xFFFFFFFFFFFFFFFFFFFFFFFFFFFFFFFFFFFFFFFF MUL NOT AND SWAP1 DUP4 PUSH20 0xFFFFFFFFFFFFFFFFFFFFFFFFFFFFFFFFFFFFFFFF AND MUL OR SWAP1 SSTORE POP DUP2 PUSH1 0x80 DUP2 DUP2 MSTORE POP POP DUP1 PUSH1 0xA0 DUP2 DUP2 MSTORE POP POP PUSH1 0x1 PUSH1 0x7 PUSH0 PUSH2 0x100 EXP DUP2 SLOAD DUP2 PUSH1 0xFF MUL NOT AND SWAP1 DUP4 PUSH1 0xFF AND MUL OR SWAP1 SSTORE POP POP POP PUSH2 0x117 JUMP JUMPDEST PUSH0 PUSH0 REVERT JUMPDEST PUSH0 DUP2 SWAP1 POP SWAP2 SWAP1 POP JUMP JUMPDEST PUSH2 0xB8 DUP2 PUSH2 0xA6 JUMP JUMPDEST DUP2 EQ PUSH2 0xC2 JUMPI PUSH0 PUSH0 REVERT JUMPDEST POP JUMP JUMPDEST PUSH0 DUP2 MLOAD SWAP1 POP PUSH2 0xD3 DUP2 PUSH2 0xAF JUMP JUMPDEST SWAP3 SWAP2 POP POP JUMP JUMPDEST PUSH0 PUSH0 PUSH1 0x40 DUP4 DUP6 SUB SLT ISZERO PUSH2 0xEF JUMPI PUSH2 0xEE PUSH2 0xA2 JUMP JUMPDEST JUMPDEST PUSH0 PUSH2 0xFC DUP6 DUP3 DUP7 ADD PUSH2 0xC5 JUMP JUMPDEST SWAP3 POP POP PUSH1 0x20 PUSH2 0x10D DUP6 DUP3 DUP7 ADD PUSH2 0xC5 JUMP JUMPDEST SWAP2 POP POP SWAP3 POP SWAP3 SWAP1 POP JUMP JUMPDEST PUSH1 0x80 MLOAD PUSH1 0xA0 MLOAD PUSH2 0x136A PUSH2 0x162 PUSH0 CODECOPY PUSH0 DUP2 DUP2 PUSH2 0x425 ADD MSTORE DUP2 DUP2 PUSH2 0x44E ADD MSTORE DUP2 DUP2 PUSH2 0x75F ADD MSTORE PUSH2 0x7D6 ADD MSTORE PUSH0 DUP2 DUP2 PUSH2 0x7B5 ADD MSTORE DUP2 DUP2 PUSH2 0x8C5 ADD MSTORE DUP2 DUP2 PUSH2 0x8EE ADD MSTORE PUSH2 0xD9B ADD MSTORE PUSH2 0x136A PUSH0 RETURN INVALID PUSH1 0x80 PUSH1 0x40 MSTORE PUSH1 0x4 CALLDATASIZE LT PUSH2 0xE7 JUMPI PUSH0 CALLDATALOAD PUSH1 0xE0 SHR DUP1 PUSH4 0xD0E30DB0 GT PUSH2 0x89 JUMPI DUP1 PUSH4 0xECBEA24D GT PUSH2 0x58 JUMPI DUP1 PUSH4 0xECBEA24D EQ PUSH2 0x2BD JUMPI DUP1 PUSH4 0xF2FDE38B EQ PUSH2 0x2E7 JUMPI DUP1 PUSH4 0xF8B2CB4F EQ PUSH2 0x30F JUMPI DUP1 PUSH4 0xFFA1AD74 EQ PUSH2 0x34B JUMPI PUSH2 0xE7 JUMP JUMPDEST DUP1 PUSH4 0xD0E30DB0 EQ PUSH2 0x213 JUMPI DUP1 PUSH4 0xD369E33C EQ PUSH2 0x21D JUMPI DUP1 PUSH4 0xD8E426A8 EQ PUSH2 0x259 JUMPI DUP1 PUSH4 0xE4813821 EQ PUSH2 0x281 JUMPI PUSH2 0xE7 JUMP JUMPDEST DUP1 PUSH4 0x4DAB4207 GT PUSH2 0xC5 JUMPI DUP1 PUSH4 0x4DAB4207 EQ PUSH2 0x167 JUMPI DUP1 PUSH4 0x8DA5CB5B EQ PUSH2 0x191 JUMPI DUP1 PUSH4 0xB16A867C EQ PUSH2 0x1BB JUMPI DUP1 PUSH4 0xC847119D EQ PUSH2 0x1E9 JUMPI PUSH2 0xE7 JUMP JUMPDEST DUP1 PUSH4 0x770E571 EQ PUSH2 0xEB JUMPI DUP1 PUSH4 0x1977E938 EQ PUSH2 0x115 JUMPI DUP1 PUSH4 0x2E1A7D4D EQ PUSH2 0x13F JUMPI JUMPDEST PUSH0 PUSH0 REVERT JUMPDEST CALLVALUE DUP1 ISZERO PUSH2 0xF6 JUMPI PUSH0 PUSH0 REVERT JUMPDEST POP PUSH2 0xFF PUSH2 0x375 JUMP JUMPDEST PUSH1 0x40 MLOAD PUSH2 0x10C SWAP2 SWAP1 PUSH2 0xF96 JUMP JUMPDEST PUSH1 0x40 MLOAD DUP1 SWAP2 SUB SWAP1 RETURN JUMPDEST CALLVALUE DUP1 ISZERO PUSH2 0x120 JUMPI PUSH0 PUSH0 REVERT JUMPDEST POP PUSH2 0x129 PUSH2 0x37B JUMP JUMPDEST PUSH1 0x40 MLOAD PUSH2 0x136 SWAP2 SWAP1 PUSH2 0xF96 JUMP JUMPDEST PUSH1 0x40 MLOAD DUP1 SWAP2 SUB SWAP1 RETURN JUMPDEST CALLVALUE DUP1 ISZERO PUSH2 0x14A JUMPI PUSH0 PUSH0 REVERT JUMPDEST POP PUSH2 0x165 PUSH1 0x4 DUP1 CALLDATASIZE SUB DUP2 ADD SWAP1 PUSH2 0x160 SWAP2 SWAP1 PUSH2 0xFDD JUMP JUMPDEST PUSH2 0x381 JUMP JUMPDEST STOP JUMPDEST CALLVALUE DUP1 ISZERO PUSH2 0x172 JUMPI PUSH0 PUSH0 REVERT JUMPDEST POP PUSH2 0x17B PUSH2 0x75D JUMP JUMPDEST PUSH1 0x40 MLOAD PUSH2 0x188 SWAP2 SWAP1 PUSH2 0xF96 JUMP JUMPDEST PUSH1 0x40 MLOAD DUP1 SWAP2 SUB SWAP1 RETURN JUMPDEST CALLVALUE DUP1 ISZERO PUSH2 0x19C JUMPI PUSH0 PUSH0 REVERT JUMPDEST POP PUSH2 0x1A5 PUSH2 0x781 JUMP JUMPDEST PUSH1 0x40 MLOAD PUSH2 0x1B2 SWAP2 SWAP1 PUSH2 0x1047 JUMP JUMPDEST PUSH1 0x40 MLOAD DUP1 SWAP2 SUB SWAP1 RETURN JUMPDEST CALLVALUE DUP1 ISZERO PUSH2 0x1C6 JUMPI PUSH0 PUSH0 REVERT JUMPDEST POP PUSH2 0x1CF PUSH2 0x7A5 JUMP JUMPDEST PUSH1 0x40 MLOAD PUSH2 0x1E0 SWAP6 SWAP5 SWAP4 SWAP3 SWAP2 SWAP1 PUSH2 0x1060 JUMP JUMPDEST PUSH1 0x40 MLOAD DUP1 SWAP2 SUB SWAP1 RETURN JUMPDEST CALLVALUE DUP1 ISZERO PUSH2 0x1F4 JUMPI PUSH0 PUSH0 REVERT JUMPDEST POP PUSH2 0x1FD PUSH2 0x806 JUMP JUMPDEST PUSH1 0x40 MLOAD PUSH2 0x20A SWAP2 SWAP1 PUSH2 0xF96 JUMP JUMPDEST PUSH1 0x40 MLOAD DUP1 SWAP2 SUB SWAP1 RETURN JUMPDEST PUSH2 0x21B PUSH2 0x80C JUMP JUMPDEST STOP JUMPDEST CALLVALUE DUP1 ISZERO PUSH2 0x228 JUMPI PUSH0 PUSH0 REVERT JUMPDEST POP PUSH2 0x243 PUSH1 0x4 DUP1 CALLDATASIZE SUB DUP2 ADD SWAP1 PUSH2 0x23E SWAP2 SWAP1 PUSH2 0x10DB JUMP JUMPDEST PUSH2 0xABD JUMP JUMPDEST PUSH1 0x40 MLOAD PUSH2 0x250 SWAP2 SWAP1 PUSH2 0xF96 JUMP JUMPDEST PUSH1 0x40 MLOAD DUP1 SWAP2 SUB SWAP1 RETURN JUMPDEST CALLVALUE DUP1 ISZERO PUSH2 0x264 JUMPI PUSH0 PUSH0 REVERT JUMPDEST POP PUSH2 0x27F PUSH1 0x4 DUP1 CALLDATASIZE SUB DUP2 ADD SWAP1 PUSH2 0x27A SWAP2 SWAP1 PUSH2 0xFDD JUMP JUMPDEST PUSH2 0xAD2 JUMP JUMPDEST STOP JUMPDEST CALLVALUE DUP1 ISZERO PUSH2 0x28C JUMPI PUSH0 PUSH0 REVERT JUMPDEST POP PUSH2 0x2A7 PUSH1 0x4 DUP1 CALLDATASIZE SUB DUP2 ADD SWAP1 PUSH2 0x2A2 SWAP2 SWAP1 PUSH2 0x10DB JUMP JUMPDEST PUSH2 0xD84 JUMP JUMPDEST PUSH1 0x40 MLOAD PUSH2 0x2B4 SWAP2 SWAP1 PUSH2 0xF96 JUMP JUMPDEST PUSH1 0x40 MLOAD DUP1 SWAP2 SUB SWAP1 RETURN JUMPDEST CALLVALUE DUP1 ISZERO PUSH2 0x2C8 JUMPI PUSH0 PUSH0 REVERT JUMPDEST POP PUSH2 0x2D1 PUSH2 0xD99 JUMP JUMPDEST PUSH1 0x40 MLOAD PUSH2 0x2DE SWAP2 SWAP1 PUSH2 0xF96 JUMP JUMPDEST PUSH1 0x40 MLOAD DUP1 SWAP2 SUB SWAP1 RETURN JUMPDEST CALLVALUE DUP1 ISZERO PUSH2 0x2F2 JUMPI PUSH0 PUSH0 REVERT JUMPDEST POP PUSH2 0x30D PUSH1 0x4 DUP1 CALLDATASIZE SUB DUP2 ADD SWAP1 PUSH2 0x308 SWAP2 SWAP1 PUSH2 0x10DB JUMP JUMPDEST PUSH2 0xDBD JUMP JUMPDEST STOP JUMPDEST CALLVALUE DUP1 ISZERO PUSH2 0x31A JUMPI PUSH0 PUSH0 REVERT JUMPDEST POP PUSH2 0x335 PUSH1 0x4 DUP1 CALLDATASIZE SUB DUP2 ADD SWAP1 PUSH2 0x330 SWAP2 SWAP1 PUSH2 0x10DB JUMP JUMPDEST PUSH2 0xEFF JUMP JUMPDEST PUSH1 0x40 MLOAD PUSH2 0x342 SWAP2 SWAP1 PUSH2 0xF96 JUMP JUMPDEST PUSH1 0x40 MLOAD DUP1 SWAP2 SUB SWAP1 RETURN JUMPDEST CALLVALUE DUP1 ISZERO PUSH2 0x356 JUMPI PUSH0 PUSH0 REVERT JUMPDEST POP PUSH2 0x35F PUSH2 0xF45 JUMP JUMPDEST PUSH1 0x40 MLOAD PUSH2 0x36C SWAP2 SWAP1 PUSH2 0x1176 JUMP JUMPDEST PUSH1 0x40 MLOAD DUP1 SWAP2 SUB SWAP1 RETURN JUMPDEST PUSH1 0x3 SLOAD DUP2 JUMP JUMPDEST PUSH1 0x1 SLOAD DUP2 JUMP JUMPDEST PUSH1 0x2 PUSH1 0xFF AND PUSH1 0x7 PUSH0 SWAP1 SLOAD SWAP1 PUSH2 0x100 EXP SWAP1 DIV PUSH1 0xFF AND PUSH1 0xFF AND SUB PUSH2 0x3CF JUMPI PUSH1 0x40 MLOAD PUSH32 0x37ED32E800000000000000000000000000000000000000000000000000000000 DUP2 MSTORE PUSH1 0x4 ADD PUSH1 0x40 MLOAD DUP1 SWAP2 SUB SWAP1 REVERT JUMPDEST PUSH1 0x2 PUSH1 0x7 PUSH0 PUSH2 0x100 EXP DUP2 SLOAD DUP2 PUSH1 0xFF MUL NOT AND SWAP1 DUP4 PUSH1 0xFF AND MUL OR SWAP1 SSTORE POP PUSH0 DUP2 SUB PUSH2 0x423 JUMPI PUSH1 0x40 MLOAD PUSH32 0x1F2A200500000000000000000000000000000000000000000000000000000000 DUP2 MSTORE PUSH1 0x4 ADD PUSH1 0x40 MLOAD DUP1 SWAP2 SUB SWAP1 REVERT JUMPDEST PUSH32 0x0 DUP2 GT ISZERO PUSH2 0x4AA JUMPI DUP1 PUSH32 0x0 PUSH1 0x40 MLOAD PUSH32 0xDE0313AF00000000000000000000000000000000000000000000000000000000 DUP2 MSTORE PUSH1 0x4 ADD PUSH2 0x4A1 SWAP3 SWAP2 SWAP1 PUSH2 0x1196 JUMP JUMPDEST PUSH1 0x40 MLOAD DUP1 SWAP2 SUB SWAP1 REVERT JUMPDEST PUSH0 PUSH1 0x4 PUSH0 CALLER PUSH20 0xFFFFFFFFFFFFFFFFFFFFFFFFFFFFFFFFFFFFFFFF AND PUSH20 0xFFFFFFFFFFFFFFFFFFFFFFFFFFFFFFFFFFFFFFFF AND DUP2 MSTORE PUSH1 0x20 ADD SWAP1 DUP2 MSTORE PUSH1 0x20 ADD PUSH0 KECCAK256 SLOAD SWAP1 POP DUP2 DUP2 LT ISZERO PUSH2 0x532 JUMPI DUP1 DUP3 PUSH1 0x40 MLOAD PUSH32 0xCF47918100000000000000000000000000000000000000000000000000000000 DUP2 MSTORE PUSH1 0x4 ADD PUSH2 0x529 SWAP3 SWAP2 SWAP1 PUSH2 0x1196 JUMP JUMPDEST PUSH1 0x40 MLOAD DUP1 SWAP2 SUB SWAP1 REVERT JUMPDEST DUP2 DUP2 PUSH2 0x53E SWAP2 SWAP1 PUSH2 0x11EA JUMP JUMPDEST PUSH1 0x4 PUSH0 CALLER PUSH20 0xFFFFFFFFFFFFFFFFFFFFFFFFFFFFFFFFFFFFFFFF AND PUSH20 0xFFFFFFFFFFFFFFFFFFFFFFFFFFFFFFFFFFFFFFFF AND DUP2 MSTORE PUSH1 0x20 ADD SWAP1 DUP2 MSTORE PUSH1 0x20 ADD PUSH0 KECCAK256 DUP2 SWAP1 SSTORE POP DUP2 PUSH1 0x1 PUSH0 DUP3 DUP3 SLOAD PUSH2 0x590 SWAP2 SWAP1 PUSH2 0x11EA JUMP JUMPDEST SWAP3 POP POP DUP2 SWAP1 SSTORE POP PUSH1 0x3 PUSH0 DUP2 SLOAD DUP1 SWAP3 SWAP2 SWAP1 PUSH2 0x5A9 SWAP1 PUSH2 0x121D JUMP JUMPDEST SWAP2 SWAP1 POP SSTORE POP PUSH1 0x6 PUSH0 CALLER PUSH20 0xFFFFFFFFFFFFFFFFFFFFFFFFFFFFFFFFFFFFFFFF AND PUSH20 0xFFFFFFFFFFFFFFFFFFFFFFFFFFFFFFFFFFFFFFFF AND DUP2 MSTORE PUSH1 0x20 ADD SWAP1 DUP2 MSTORE PUSH1 0x20 ADD PUSH0 KECCAK256 PUSH0 DUP2 SLOAD DUP1 SWAP3 SWAP2 SWAP1 PUSH2 0x5FB SWAP1 PUSH2 0x121D JUMP JUMPDEST SWAP2 SWAP1 POP SSTORE POP PUSH0 CALLER PUSH20 0xFFFFFFFFFFFFFFFFFFFFFFFFFFFFFFFFFFFFFFFF AND DUP4 PUSH1 0x40 MLOAD PUSH2 0x625 SWAP1 PUSH2 0x1291 JUMP JUMPDEST PUSH0 PUSH1 0x40 MLOAD DUP1 DUP4 SUB DUP2 DUP6 DUP8 GAS CALL SWAP3 POP POP POP RETURNDATASIZE DUP1 PUSH0 DUP2 EQ PUSH2 0x65F JUMPI PUSH1 0x40 MLOAD SWAP2 POP PUSH1 0x1F NOT PUSH1 0x3F RETURNDATASIZE ADD AND DUP3 ADD PUSH1 0x40 MSTORE RETURNDATASIZE DUP3 MSTORE RETURNDATASIZE PUSH0 PUSH1 0x20 DUP5 ADD RETURNDATACOPY PUSH2 0x664 JUMP JUMPDEST PUSH1 0x60 SWAP2 POP JUMPDEST POP POP SWAP1 POP DUP1 PUSH2 0x6AC JUMPI CALLER DUP4 PUSH1 0x40 MLOAD PUSH32 0x1C43B97600000000000000000000000000000000000000000000000000000000 DUP2 MSTORE PUSH1 0x4 ADD PUSH2 0x6A3 SWAP3 SWAP2 SWAP1 PUSH2 0x12A5 JUMP JUMPDEST PUSH1 0x40 MLOAD DUP1 SWAP2 SUB SWAP1 REVERT JUMPDEST CALLER PUSH20 0xFFFFFFFFFFFFFFFFFFFFFFFFFFFFFFFFFFFFFFFF AND PUSH32 0x650FDF669E93AA6C8FF3DEFE2DA9C12B64F1548E5E1E54E803F4C1BEB6466C8E DUP5 PUSH1 0x4 PUSH0 CALLER PUSH20 0xFFFFFFFFFFFFFFFFFFFFFFFFFFFFFFFFFFFFFFFF AND PUSH20 0xFFFFFFFFFFFFFFFFFFFFFFFFFFFFFFFFFFFFFFFF AND DUP2 MSTORE PUSH1 0x20 ADD SWAP1 DUP2 MSTORE PUSH1 0x20 ADD PUSH0 KECCAK256 SLOAD PUSH1 0x3 SLOAD PUSH1 0x40 MLOAD PUSH2 0x735 SWAP4 SWAP3 SWAP2 SWAP1 PUSH2 0x12CC JUMP JUMPDEST PUSH1 0x40 MLOAD DUP1 SWAP2 SUB SWAP1 LOG2 POP POP PUSH1 0x1 PUSH1 0x7 PUSH0 PUSH2 0x100 EXP DUP2 SLOAD DUP2 PUSH1 0xFF MUL NOT AND SWAP1 DUP4 PUSH1 0xFF AND MUL OR SWAP1 SSTORE POP POP JUMP JUMPDEST PUSH32 0x0 DUP2 JUMP JUMPDEST PUSH0 PUSH0 SWAP1 SLOAD SWAP1 PUSH2 0x100 EXP SWAP1 DIV PUSH20 0xFFFFFFFFFFFFFFFFFFFFFFFFFFFFFFFFFFFFFFFF AND DUP2 JUMP JUMPDEST PUSH0 PUSH0 PUSH0 PUSH0 PUSH0 PUSH1 0x1 SLOAD PUSH1 0x2 SLOAD PUSH1 0x3 SLOAD PUSH32 0x0 PUSH32 0x0 SWAP5 POP SWAP5 POP SWAP5 POP SWAP5 POP SWAP5 POP SWAP1 SWAP2 SWAP3 SWAP4 SWAP5 JUMP JUMPDEST PUSH1 0x2 SLOAD DUP2 JUMP JUMPDEST PUSH1 0x2 PUSH1 0xFF AND PUSH1 0x7 PUSH0 SWAP1 SLOAD SWAP1 PUSH2 0x100 EXP SWAP1 DIV PUSH1 0xFF AND PUSH1 0xFF AND SUB PUSH2 0x85A JUMPI PUSH1 0x40 MLOAD PUSH32 0x37ED32E800000000000000000000000000000000000000000000000000000000 DUP2 MSTORE PUSH1 0x4 ADD PUSH1 0x40 MLOAD DUP1 SWAP2 SUB SWAP1 REVERT JUMPDEST PUSH1 0x2 PUSH1 0x7 PUSH0 PUSH2 0x100 EXP DUP2 SLOAD DUP2 PUSH1 0xFF MUL NOT AND SWAP1 DUP4 PUSH1 0xFF AND MUL OR SWAP1 SSTORE POP PUSH0 CALLVALUE SWAP1 POP PUSH0 DUP2 SUB PUSH2 0x8B2 JUMPI PUSH1 0x40 MLOAD PUSH32 0x1F2A200500000000000000000000000000000000000000000000000000000000 DUP2 MSTORE PUSH1 0x4 ADD PUSH1 0x40 MLOAD DUP1 SWAP2 SUB SWAP1 REVERT JUMPDEST PUSH0 DUP2 PUSH1 0x1 SLOAD PUSH2 0x8C1 SWAP2 SWAP1 PUSH2 0x1301 JUMP JUMPDEST SWAP1 POP PUSH32 0x0 DUP2 GT ISZERO PUSH2 0x94A JUMPI DUP1 PUSH32 0x0 PUSH1 0x40 MLOAD PUSH32 0x4274EF7700000000000000000000000000000000000000000000000000000000 DUP2 MSTORE PUSH1 0x4 ADD PUSH2 0x941 SWAP3 SWAP2 SWAP1 PUSH2 0x1196 JUMP JUMPDEST PUSH1 0x40 MLOAD DUP1 SWAP2 SUB SWAP1 REVERT JUMPDEST DUP2 PUSH1 0x4 PUSH0 CALLER PUSH20 0xFFFFFFFFFFFFFFFFFFFFFFFFFFFFFFFFFFFFFFFF AND PUSH20 0xFFFFFFFFFFFFFFFFFFFFFFFFFFFFFFFFFFFFFFFF AND DUP2 MSTORE PUSH1 0x20 ADD SWAP1 DUP2 MSTORE PUSH1 0x20 ADD PUSH0 KECCAK256 PUSH0 DUP3 DUP3 SLOAD PUSH2 0x996 SWAP2 SWAP1 PUSH2 0x1301 JUMP JUMPDEST SWAP3 POP POP DUP2 SWAP1 SSTORE POP DUP1 PUSH1 0x1 DUP2 SWAP1 SSTORE POP PUSH1 0x2 PUSH0 DUP2 SLOAD DUP1 SWAP3 SWAP2 SWAP1 PUSH2 0x9B6 SWAP1 PUSH2 0x121D JUMP JUMPDEST SWAP2 SWAP1 POP SSTORE POP PUSH1 0x5 PUSH0 CALLER PUSH20 0xFFFFFFFFFFFFFFFFFFFFFFFFFFFFFFFFFFFFFFFF AND PUSH20 0xFFFFFFFFFFFFFFFFFFFFFFFFFFFFFFFFFFFFFFFF AND DUP2 MSTORE PUSH1 0x20 ADD SWAP1 DUP2 MSTORE PUSH1 0x20 ADD PUSH0 KECCAK256 PUSH0 DUP2 SLOAD DUP1 SWAP3 SWAP2 SWAP1 PUSH2 0xA08 SWAP1 PUSH2 0x121D JUMP JUMPDEST SWAP2 SWAP1 POP SSTORE POP CALLER PUSH20 0xFFFFFFFFFFFFFFFFFFFFFFFFFFFFFFFFFFFFFFFF AND PUSH32 0x36AF321EC8D3C75236829C5317AFFD40DDB308863A1236D2D277A4025CCCEE1E DUP4 PUSH1 0x4 PUSH0 CALLER PUSH20 0xFFFFFFFFFFFFFFFFFFFFFFFFFFFFFFFFFFFFFFFF AND PUSH20 0xFFFFFFFFFFFFFFFFFFFFFFFFFFFFFFFFFFFFFFFF AND DUP2 MSTORE PUSH1 0x20 ADD SWAP1 DUP2 MSTORE PUSH1 0x20 ADD PUSH0 KECCAK256 SLOAD PUSH1 0x2 SLOAD PUSH1 0x40 MLOAD PUSH2 0xA96 SWAP4 SWAP3 SWAP2 SWAP1 PUSH2 0x12CC JUMP JUMPDEST PUSH1 0x40 MLOAD DUP1 SWAP2 SUB SWAP1 LOG2 POP POP PUSH1 0x1 PUSH1 0x7 PUSH0 PUSH2 0x100 EXP DUP2 SLOAD DUP2 PUSH1 0xFF MUL NOT AND SWAP1 DUP4 PUSH1 0xFF AND MUL OR SWAP1 SSTORE POP JUMP JUMPDEST PUSH1 0x5 PUSH1 0x20 MSTORE DUP1 PUSH0 MSTORE PUSH1 0x40 PUSH0 KECCAK256 PUSH0 SWAP2 POP SWAP1 POP SLOAD DUP2 JUMP JUMPDEST PUSH0 PUSH0 SWAP1 SLOAD SWAP1 PUSH2 0x100 EXP SWAP1 DIV PUSH20 0xFFFFFFFFFFFFFFFFFFFFFFFFFFFFFFFFFFFFFFFF AND PUSH20 0xFFFFFFFFFFFFFFFFFFFFFFFFFFFFFFFFFFFFFFFF AND CALLER PUSH20 0xFFFFFFFFFFFFFFFFFFFFFFFFFFFFFFFFFFFFFFFF AND EQ PUSH2 0xB62 JUMPI CALLER PUSH1 0x40 MLOAD PUSH32 0x245AECD300000000000000000000000000000000000000000000000000000000 DUP2 MSTORE PUSH1 0x4 ADD PUSH2 0xB59 SWAP2 SWAP1 PUSH2 0x1047 JUMP JUMPDEST PUSH1 0x40 MLOAD DUP1 SWAP2 SUB SWAP1 REVERT JUMPDEST PUSH1 0x2 PUSH1 0xFF AND PUSH1 0x7 PUSH0 SWAP1 SLOAD SWAP1 PUSH2 0x100 EXP SWAP1 DIV PUSH1 0xFF AND PUSH1 0xFF AND SUB PUSH2 0xBB0 JUMPI PUSH1 0x40 MLOAD PUSH32 0x37ED32E800000000000000000000000000000000000000000000000000000000 DUP2 MSTORE PUSH1 0x4 ADD PUSH1 0x40 MLOAD DUP1 SWAP2 SUB SWAP1 REVERT JUMPDEST PUSH1 0x2 PUSH1 0x7 PUSH0 PUSH2 0x100 EXP DUP2 SLOAD DUP2 PUSH1 0xFF MUL NOT AND SWAP1 DUP4 PUSH1 0xFF AND MUL OR SWAP1 SSTORE POP PUSH0 DUP2 SUB PUSH2 0xC04 JUMPI PUSH1 0x40 MLOAD PUSH32 0x1F2A200500000000000000000000000000000000000000000000000000000000 DUP2 MSTORE PUSH1 0x4 ADD PUSH1 0x40 MLOAD DUP1 SWAP2 SUB SWAP1 REVERT JUMPDEST PUSH1 0x1 SLOAD DUP2 GT ISZERO PUSH2 0xC4F JUMPI PUSH1 0x1 SLOAD DUP2 PUSH1 0x40 MLOAD PUSH32 0xCF47918100000000000000000000000000000000000000000000000000000000 DUP2 MSTORE PUSH1 0x4 ADD PUSH2 0xC46 SWAP3 SWAP2 SWAP1 PUSH2 0x1196 JUMP JUMPDEST PUSH1 0x40 MLOAD DUP1 SWAP2 SUB SWAP1 REVERT JUMPDEST DUP1 PUSH1 0x1 PUSH0 DUP3 DUP3 SLOAD PUSH2 0xC60 SWAP2 SWAP1 PUSH2 0x11EA JUMP JUMPDEST SWAP3 POP POP DUP2 SWAP1 SSTORE POP PUSH0 CALLER PUSH20 0xFFFFFFFFFFFFFFFFFFFFFFFFFFFFFFFFFFFFFFFF AND DUP3 PUSH1 0x40 MLOAD PUSH2 0xC8C SWAP1 PUSH2 0x1291 JUMP JUMPDEST PUSH0 PUSH1 0x40 MLOAD DUP1 DUP4 SUB DUP2 DUP6 DUP8 GAS CALL SWAP3 POP POP POP RETURNDATASIZE DUP1 PUSH0 DUP2 EQ PUSH2 0xCC6 JUMPI PUSH1 0x40 MLOAD SWAP2 POP PUSH1 0x1F NOT PUSH1 0x3F RETURNDATASIZE ADD AND DUP3 ADD PUSH1 0x40 MSTORE RETURNDATASIZE DUP3 MSTORE RETURNDATASIZE PUSH0 PUSH1 0x20 DUP5 ADD RETURNDATACOPY PUSH2 0xCCB JUMP JUMPDEST PUSH1 0x60 SWAP2 POP JUMPDEST POP POP SWAP1 POP DUP1 PUSH2 0xD13 JUMPI CALLER DUP3 PUSH1 0x40 MLOAD PUSH32 0x1C43B97600000000000000000000000000000000000000000000000000000000 DUP2 MSTORE PUSH1 0x4 ADD PUSH2 0xD0A SWAP3 SWAP2 SWAP1 PUSH2 0x12A5 JUMP JUMPDEST PUSH1 0x40 MLOAD DUP1 SWAP2 SUB SWAP1 REVERT JUMPDEST CALLER PUSH20 0xFFFFFFFFFFFFFFFFFFFFFFFFFFFFFFFFFFFFFFFF AND PUSH32 0x5E70F429CB11006093B2F75398F48BD6971871DCA25171E8237120E666C1B168 DUP4 PUSH1 0x1 SLOAD PUSH1 0x40 MLOAD PUSH2 0xD5D SWAP3 SWAP2 SWAP1 PUSH2 0x1196 JUMP JUMPDEST PUSH1 0x40 MLOAD DUP1 SWAP2 SUB SWAP1 LOG2 POP PUSH1 0x1 PUSH1 0x7 PUSH0 PUSH2 0x100 EXP DUP2 SLOAD DUP2 PUSH1 0xFF MUL NOT AND SWAP1 DUP4 PUSH1 0xFF AND MUL OR SWAP1 SSTORE POP POP JUMP JUMPDEST PUSH1 0x6 PUSH1 0x20 MSTORE DUP1 PUSH0 MSTORE PUSH1 0x40 PUSH0 KECCAK256 PUSH0 SWAP2 POP SWAP1 POP SLOAD DUP2 JUMP JUMPDEST PUSH32 0x0 DUP2 JUMP JUMPDEST PUSH0 PUSH0 SWAP1 SLOAD SWAP1 PUSH2 0x100 EXP SWAP1 DIV PUSH20 0xFFFFFFFFFFFFFFFFFFFFFFFFFFFFFFFFFFFFFFFF AND PUSH20 0xFFFFFFFFFFFFFFFFFFFFFFFFFFFFFFFFFFFFFFFF AND CALLER PUSH20 0xFFFFFFFFFFFFFFFFFFFFFFFFFFFFFFFFFFFFFFFF AND EQ PUSH2 0xE4D JUMPI CALLER PUSH1 0x40 MLOAD PUSH32 0x245AECD300000000000000000000000000000000000000000000000000000000 DUP2 MSTORE PUSH1 0x4 ADD PUSH2 0xE44 SWAP2 SWAP1 PUSH2 0x1047 JUMP JUMPDEST PUSH1 0x40 MLOAD DUP1 SWAP2 SUB SWAP1 REVERT JUMPDEST PUSH0 PUSH20 0xFFFFFFFFFFFFFFFFFFFFFFFFFFFFFFFFFFFFFFFF AND DUP2 PUSH20 0xFFFFFFFFFFFFFFFFFFFFFFFFFFFFFFFFFFFFFFFF AND SUB PUSH2 0xEBD JUMPI DUP1 PUSH1 0x40 MLOAD PUSH32 0x245AECD300000000000000000000000000000000000000000000000000000000 DUP2 MSTORE PUSH1 0x4 ADD PUSH2 0xEB4 SWAP2 SWAP1 PUSH2 0x1047 JUMP JUMPDEST PUSH1 0x40 MLOAD DUP1 SWAP2 SUB SWAP1 REVERT JUMPDEST DUP1 PUSH0 PUSH0 PUSH2 0x100 EXP DUP2 SLOAD DUP2 PUSH20 0xFFFFFFFFFFFFFFFFFFFFFFFFFFFFFFFFFFFFFFFF MUL NOT AND SWAP1 DUP4 PUSH20 0xFFFFFFFFFFFFFFFFFFFFFFFFFFFFFFFFFFFFFFFF AND MUL OR SWAP1 SSTORE POP POP JUMP JUMPDEST PUSH0 PUSH1 0x4 PUSH0 DUP4 PUSH20 0xFFFFFFFFFFFFFFFFFFFFFFFFFFFFFFFFFFFFFFFF AND PUSH20 0xFFFFFFFFFFFFFFFFFFFFFFFFFFFFFFFFFFFFFFFF AND DUP2 MSTORE PUSH1 0x20 ADD SWAP1 DUP2 MSTORE PUSH1 0x20 ADD PUSH0 KECCAK256 SLOAD SWAP1 POP SWAP2 SWAP1 POP JUMP JUMPDEST PUSH1 0x40 MLOAD DUP1 PUSH1 0x40 ADD PUSH1 0x40 MSTORE DUP1 PUSH1 0xB DUP2 MSTORE PUSH1 0x20 ADD PUSH32 0x4B69707542616E6B207631000000000000000000000000000000000000000000 DUP2 MSTORE POP DUP2 JUMP JUMPDEST PUSH0 DUP2 SWAP1 POP SWAP2 SWAP1 POP JUMP JUMPDEST PUSH2 0xF90 DUP2 PUSH2 0xF7E JUMP JUMPDEST DUP3 MSTORE POP POP JUMP JUMPDEST PUSH0 PUSH1 0x20 DUP3 ADD SWAP1 POP PUSH2 0xFA9 PUSH0 DUP4 ADD DUP5 PUSH2 0xF87 JUMP JUMPDEST SWAP3 SWAP2 POP POP JUMP JUMPDEST PUSH0 PUSH0 REVERT JUMPDEST PUSH2 0xFBC DUP2 PUSH2 0xF7E JUMP JUMPDEST DUP2 EQ PUSH2 0xFC6 JUMPI PUSH0 PUSH0 REVERT JUMPDEST POP JUMP JUMPDEST PUSH0 DUP2 CALLDATALOAD SWAP1 POP PUSH2 0xFD7 DUP2 PUSH2 0xFB3 JUMP JUMPDEST SWAP3 SWAP2 POP POP JUMP JUMPDEST PUSH0 PUSH1 0x20 DUP3 DUP5 SUB SLT ISZERO PUSH2 0xFF2 JUMPI PUSH2 0xFF1 PUSH2 0xFAF JUMP JUMPDEST JUMPDEST PUSH0 PUSH2 0xFFF DUP5 DUP3 DUP6 ADD PUSH2 0xFC9 JUMP JUMPDEST SWAP2 POP POP SWAP3 SWAP2 POP POP JUMP JUMPDEST PUSH0 PUSH20 0xFFFFFFFFFFFFFFFFFFFFFFFFFFFFFFFFFFFFFFFF DUP3 AND SWAP1 POP SWAP2 SWAP1 POP JUMP JUMPDEST PUSH0 PUSH2 0x1031 DUP3 PUSH2 0x1008 JUMP JUMPDEST SWAP1 POP SWAP2 SWAP1 POP JUMP JUMPDEST PUSH2 0x1041 DUP2 PUSH2 0x1027 JUMP JUMPDEST DUP3 MSTORE POP POP JUMP JUMPDEST PUSH0 PUSH1 0x20 DUP3 ADD SWAP1 POP PUSH2 0x105A PUSH0 DUP4 ADD DUP5 PUSH2 0x1038 JUMP JUMPDEST SWAP3 SWAP2 POP POP JUMP JUMPDEST PUSH0 PUSH1 0xA0 DUP3 ADD SWAP1 POP PUSH2 0x1073 PUSH0 DUP4 ADD DUP9 PUSH2 0xF87 JUMP JUMPDEST PUSH2 0x1080 PUSH1 0x20 DUP4 ADD DUP8 PUSH2 0xF87 JUMP JUMPDEST PUSH2 0x108D PUSH1 0x40 DUP4 ADD DUP7 PUSH2 0xF87 JUMP JUMPDEST PUSH2 0x109A PUSH1 0x60 DUP4 ADD DUP6 PUSH2 0xF87 JUMP JUMPDEST PUSH2 0x10A7 PUSH1 0x80 DUP4 ADD DUP5 PUSH2 0xF87 JUMP JUMPDEST SWAP7 SWAP6 POP POP POP POP POP POP JUMP JUMPDEST PUSH2 0x10BA DUP2 PUSH2 0x1027 JUMP JUMPDEST DUP2 EQ PUSH2 0x10C4 JUMPI PUSH0 PUSH0 REVERT JUMPDEST POP JUMP JUMPDEST PUSH0 DUP2 CALLDATALOAD SWAP1 POP PUSH2 0x10D5 DUP2 PUSH2 0x10B1 JUMP JUMPDEST SWAP3 SWAP2 POP POP JUMP JUMPDEST PUSH0 PUSH1 0x20 DUP3 DUP5 SUB SLT ISZERO PUSH2 0x10F0 JUMPI PUSH2 0x10EF PUSH2 0xFAF JUMP JUMPDEST JUMPDEST PUSH0 PUSH2 0x10FD DUP5 DUP3 DUP6 ADD PUSH2 0x10C7 JUMP JUMPDEST SWAP2 POP POP SWAP3 SWAP2 POP POP JUMP JUMPDEST PUSH0 DUP2 MLOAD SWAP1 POP SWAP2 SWAP1 POP JUMP JUMPDEST PUSH0 DUP3 DUP3 MSTORE PUSH1 0x20 DUP3 ADD SWAP1 POP SWAP3 SWAP2 POP POP JUMP JUMPDEST DUP3 DUP2 DUP4 MCOPY PUSH0 DUP4 DUP4 ADD MSTORE POP POP POP JUMP JUMPDEST PUSH0 PUSH1 0x1F NOT PUSH1 0x1F DUP4 ADD AND SWAP1 POP SWAP2 SWAP1 POP JUMP JUMPDEST PUSH0 PUSH2 0x1148 DUP3 PUSH2 0x1106 JUMP JUMPDEST PUSH2 0x1152 DUP2 DUP6 PUSH2 0x1110 JUMP JUMPDEST SWAP4 POP PUSH2 0x1162 DUP2 DUP6 PUSH1 0x20 DUP7 ADD PUSH2 0x1120 JUMP JUMPDEST PUSH2 0x116B DUP2 PUSH2 0x112E JUMP JUMPDEST DUP5 ADD SWAP2 POP POP SWAP3 SWAP2 POP POP JUMP JUMPDEST PUSH0 PUSH1 0x20 DUP3 ADD SWAP1 POP DUP2 DUP2 SUB PUSH0 DUP4 ADD MSTORE PUSH2 0x118E DUP2 DUP5 PUSH2 0x113E JUMP JUMPDEST SWAP1 POP SWAP3 SWAP2 POP POP JUMP JUMPDEST PUSH0 PUSH1 0x40 DUP3 ADD SWAP1 POP PUSH2 0x11A9 PUSH0 DUP4 ADD DUP6 PUSH2 0xF87 JUMP JUMPDEST PUSH2 0x11B6 PUSH1 0x20 DUP4 ADD DUP5 PUSH2 0xF87 JUMP JUMPDEST SWAP4 SWAP3 POP POP POP JUMP JUMPDEST PUSH32 0x4E487B7100000000000000000000000000000000000000000000000000000000 PUSH0 MSTORE PUSH1 0x11 PUSH1 0x4 MSTORE PUSH1 0x24 PUSH0 REVERT JUMPDEST PUSH0 PUSH2 0x11F4 DUP3 PUSH2 0xF7E JUMP JUMPDEST SWAP2 POP PUSH2 0x11FF DUP4 PUSH2 0xF7E JUMP JUMPDEST SWAP3 POP DUP3 DUP3 SUB SWAP1 POP DUP2 DUP2 GT ISZERO PUSH2 0x1217 JUMPI PUSH2 0x1216 PUSH2 0x11BD JUMP JUMPDEST JUMPDEST SWAP3 SWAP2 POP POP JUMP JUMPDEST PUSH0 PUSH2 0x1227 DUP3 PUSH2 0xF7E JUMP JUMPDEST SWAP2 POP PUSH32 0xFFFFFFFFFFFFFFFFFFFFFFFFFFFFFFFFFFFFFFFFFFFFFFFFFFFFFFFFFFFFFFFF DUP3 SUB PUSH2 0x1259 JUMPI PUSH2 0x1258 PUSH2 0x11BD JUMP JUMPDEST JUMPDEST PUSH1 0x1 DUP3 ADD SWAP1 POP SWAP2 SWAP1 POP JUMP JUMPDEST PUSH0 DUP2 SWAP1 POP SWAP3 SWAP2 POP POP JUMP JUMPDEST POP JUMP JUMPDEST PUSH0 PUSH2 0x127C PUSH0 DUP4 PUSH2 0x1264 JUMP JUMPDEST SWAP2 POP PUSH2 0x1287 DUP3 PUSH2 0x126E JUMP JUMPDEST PUSH0 DUP3 ADD SWAP1 POP SWAP2 SWAP1 POP JUMP JUMPDEST PUSH0 PUSH2 0x129B DUP3 PUSH2 0x1271 JUMP JUMPDEST SWAP2 POP DUP2 SWAP1 POP SWAP2 SWAP1 POP JUMP JUMPDEST PUSH0 PUSH1 0x40 DUP3 ADD SWAP1 POP PUSH2 0x12B8 PUSH0 DUP4 ADD DUP6 PUSH2 0x1038 JUMP JUMPDEST PUSH2 0x12C5 PUSH1 0x20 DUP4 ADD DUP5 PUSH2 0xF87 JUMP JUMPDEST SWAP4 SWAP3 POP POP POP JUMP JUMPDEST PUSH0 PUSH1 0x60 DUP3 ADD SWAP1 POP PUSH2 0x12DF PUSH0 DUP4 ADD DUP7 PUSH2 0xF87 JUMP JUMPDEST PUSH2 0x12EC PUSH1 0x20 DUP4 ADD DUP6 PUSH2 0xF87 JUMP JUMPDEST PUSH2 0x12F9 PUSH1 0x40 DUP4 ADD DUP5 PUSH2 0xF87 JUMP JUMPDEST SWAP5 SWAP4 POP POP POP POP JUMP JUMPDEST PUSH0 PUSH2 0x130B DUP3 PUSH2 0xF7E JUMP JUMPDEST SWAP2 POP PUSH2 0x1316 DUP4 PUSH2 0xF7E JUMP JUMPDEST SWAP3 POP DUP3 DUP3 ADD SWAP1 POP DUP1 DUP3 GT ISZERO PUSH2 0x132E JUMPI PUSH2 0x132D PUSH2 0x11BD JUMP JUMPDEST JUMPDEST SWAP3 SWAP2 POP POP JUMP INVALID LOG2 PUSH5 0x6970667358 0x22 SLT KECCAK256 0xA8 LOG3 PUSH4 0x96D32009 NUMBER 0xCE LOG4 0xBF ADD STATICCALL EQ MULMOD 0xBD 0xEA RETURNCONTRACT 0x34 GASLIMIT SWAP16 DUP14 NUMBER MCOPY 0xB4 PUSH6 0x9D6FEA953FE5 PUSH5 0x736F6C6343 STOP ADDMOD 0x1E STOP CALLER "
				},
				"gasEstimates": {
					"creation": {
						"codeDepositCost": "994000",
						"executionCost": "infinite",
						"totalCost": "infinite"
					},
					"external": {
						"VERSION()": "infinite",
						"bankCap()": "infinite",
						"deposit()": "infinite",
						"getBalance(address)": "2895",
						"maxWithdrawalPerTx()": "infinite",
						"owner()": "2552",
						"ownerWithdrawFromBank(uint256)": "infinite",
						"summary()": "infinite",
						"totalBankBalance()": "2471",
						"totalDepositsCount()": "2514",
						"totalWithdrawalsCount()": "2449",
						"transferOwnership(address)": "infinite",
						"userDepositsCount(address)": "2847",
						"userWithdrawalsCount(address)": "2891",
						"withdraw(uint256)": "infinite"
					}
				},
				"methodIdentifiers": {
					"VERSION()": "ffa1ad74",
					"bankCap()": "ecbea24d",
					"deposit()": "d0e30db0",
					"getBalance(address)": "f8b2cb4f",
					"maxWithdrawalPerTx()": "4dab4207",
					"owner()": "8da5cb5b",
					"ownerWithdrawFromBank(uint256)": "d8e426a8",
					"summary()": "b16a867c",
					"totalBankBalance()": "1977e938",
					"totalDepositsCount()": "c847119d",
					"totalWithdrawalsCount()": "0770e571",
					"transferOwnership(address)": "f2fde38b",
					"userDepositsCount(address)": "d369e33c",
					"userWithdrawalsCount(address)": "e4813821",
					"withdraw(uint256)": "2e1a7d4d"
				}
			},
			"storageLayout": {
				"storage": [
					{
						"astId": 42,
						"contract": "contracts/kipu_bank.sol:KipuBank",
						"label": "owner",
						"offset": 0,
						"slot": "0",
						"type": "t_address"
					},
					{
						"astId": 44,
						"contract": "contracts/kipu_bank.sol:KipuBank",
						"label": "totalBankBalance",
						"offset": 0,
						"slot": "1",
						"type": "t_uint256"
					},
					{
						"astId": 46,
						"contract": "contracts/kipu_bank.sol:KipuBank",
						"label": "totalDepositsCount",
						"offset": 0,
						"slot": "2",
						"type": "t_uint256"
					},
					{
						"astId": 48,
						"contract": "contracts/kipu_bank.sol:KipuBank",
						"label": "totalWithdrawalsCount",
						"offset": 0,
						"slot": "3",
						"type": "t_uint256"
					},
					{
						"astId": 52,
						"contract": "contracts/kipu_bank.sol:KipuBank",
						"label": "balances",
						"offset": 0,
						"slot": "4",
						"type": "t_mapping(t_address,t_uint256)"
					},
					{
						"astId": 56,
						"contract": "contracts/kipu_bank.sol:KipuBank",
						"label": "userDepositsCount",
						"offset": 0,
						"slot": "5",
						"type": "t_mapping(t_address,t_uint256)"
					},
					{
						"astId": 60,
						"contract": "contracts/kipu_bank.sol:KipuBank",
						"label": "userWithdrawalsCount",
						"offset": 0,
						"slot": "6",
						"type": "t_mapping(t_address,t_uint256)"
					},
					{
						"astId": 90,
						"contract": "contracts/kipu_bank.sol:KipuBank",
						"label": "_status",
						"offset": 0,
						"slot": "7",
						"type": "t_uint8"
					}
				],
				"types": {
					"t_address": {
						"encoding": "inplace",
						"label": "address",
						"numberOfBytes": "20"
					},
					"t_mapping(t_address,t_uint256)": {
						"encoding": "mapping",
						"key": "t_address",
						"label": "mapping(address => uint256)",
						"numberOfBytes": "32",
						"value": "t_uint256"
					},
					"t_uint256": {
						"encoding": "inplace",
						"label": "uint256",
						"numberOfBytes": "32"
					},
					"t_uint8": {
						"encoding": "inplace",
						"label": "uint8",
						"numberOfBytes": "1"
					}
				}
			},
			"userdoc": {
				"kind": "user",
				"methods": {},
				"version": 1
			}
		}
	}
}