{
	"data": {
		"bytecode": {
			"linkReferences": {},
			"object": "60c060405234801561000f575f5ffd5b5060405161197c38038061197c83398181016040528101906100319190610282565b805f73ffffffffffffffffffffffffffffffffffffffff168173ffffffffffffffffffffffffffffffffffffffff16036100a2575f6040517f1e4fbdf700000000000000000000000000000000000000000000000000000000815260040161009991906102f5565b60405180910390fd5b6100b18161016360201b60201c565b508360015f6101000a81548173ffffffffffffffffffffffffffffffffffffffff021916908373ffffffffffffffffffffffffffffffffffffffff1602179055508273ffffffffffffffffffffffffffffffffffffffff1660808173ffffffffffffffffffffffffffffffffffffffff16815250508173ffffffffffffffffffffffffffffffffffffffff1660a08173ffffffffffffffffffffffffffffffffffffffff16815250505050505061030e565b5f5f5f9054906101000a900473ffffffffffffffffffffffffffffffffffffffff169050815f5f6101000a81548173ffffffffffffffffffffffffffffffffffffffff021916908373ffffffffffffffffffffffffffffffffffffffff1602179055508173ffffffffffffffffffffffffffffffffffffffff168173ffffffffffffffffffffffffffffffffffffffff167f8be0079c531659141344cd1fd0a4f28419497f9722a3daafe3b4186f6b6457e060405160405180910390a35050565b5f5ffd5b5f73ffffffffffffffffffffffffffffffffffffffff82169050919050565b5f61025182610228565b9050919050565b61026181610247565b811461026b575f5ffd5b50565b5f8151905061027c81610258565b92915050565b5f5f5f5f6080858703121561029a57610299610224565b5b5f6102a78782880161026e565b94505060206102b88782880161026e565b93505060406102c98782880161026e565b92505060606102da8782880161026e565b91505092959194509250565b6102ef81610247565b82525050565b5f6020820190506103085f8301846102e6565b92915050565b60805160a05161162a6103525f395f81816106780152610b7a01525f818161020001528181610371015281816103be01528181610731015261085c015261162a5ff3fe608060405260043610610090575f3560e01c80638e014298116100585780638e0142981461014f578063bea79e8214610159578063c77e551b1461016f578063c82f6b1a14610199578063f2fde38b146101d557610090565b806328aa32e1146100945780635e0ea211146100bc578063715018a6146100e75780637dc532c5146100fd5780638da5cb5b14610125575b5f5ffd5b34801561009f575f5ffd5b506100ba60048036038101906100b59190610f31565b6101fd565b005b3480156100c7575f5ffd5b506100d06103ba565b6040516100de929190610f6b565b60405180910390f35b3480156100f2575f5ffd5b506100fb61049a565b005b348015610108575f5ffd5b50610123600480360381019061011e9190610fec565b6104ad565b005b348015610130575f5ffd5b5061013961052f565b6040516101469190611026565b60405180910390f35b610157610556565b005b348015610164575f5ffd5b5061016d610722565b005b34801561017a575f5ffd5b506101836108a5565b604051610190919061109a565b60405180910390f35b3480156101a4575f5ffd5b506101bf60048036038101906101ba9190610fec565b6108ca565b6040516101cc91906110b3565b60405180910390f35b3480156101e0575f5ffd5b506101fb60048036038101906101f69190610fec565b6108df565b005b5f7f000000000000000000000000000000000000000000000000000000000000000073ffffffffffffffffffffffffffffffffffffffff1663dd62ed3e33306040518363ffffffff1660e01b81526004016102599291906110cc565b602060405180830381865afa158015610274573d5f5f3e3d5ffd5b505050506040513d601f19601f820116820180604052508101906102989190611107565b9050818110156102dd576040517f08c379a00000000000000000000000000000000000000000000000000000000081526004016102d4906111b2565b60405180910390fd5b8160025f3373ffffffffffffffffffffffffffffffffffffffff1673ffffffffffffffffffffffffffffffffffffffff1681526020019081526020015f205f82825461032991906111fd565b925050819055507f514aa679e3eafc0acc5a1d32f4f8d180cc8768e0d66f8a9ab968613d762b9f4d3383604051610361929190611230565b60405180910390a16103b63330847f000000000000000000000000000000000000000000000000000000000000000073ffffffffffffffffffffffffffffffffffffffff16610963909392919063ffffffff16565b5050565b5f5f7f000000000000000000000000000000000000000000000000000000000000000073ffffffffffffffffffffffffffffffffffffffff166370a08231336040518263ffffffff1660e01b81526004016104159190611026565b602060405180830381865afa158015610430573d5f5f3e3d5ffd5b505050506040513d601f19601f820116820180604052508101906104549190611107565b915060025f3373ffffffffffffffffffffffffffffffffffffffff1673ffffffffffffffffffffffffffffffffffffffff1681526020019081526020015f205490509091565b6104a26109e5565b6104ab5f610a6c565b565b6104b56109e5565b8060015f6101000a81548173ffffffffffffffffffffffffffffffffffffffff021916908373ffffffffffffffffffffffffffffffffffffffff1602179055507f0d981eae15785e8be59f516ab5a307801df02eee57c2bf2f1389116a2e00ed21816040516105249190611026565b60405180910390a150565b5f5f5f9054906101000a900473ffffffffffffffffffffffffffffffffffffffff16905090565b5f61056034610b2d565b90508060025f3373ffffffffffffffffffffffffffffffffffffffff1673ffffffffffffffffffffffffffffffffffffffff1681526020019081526020015f20546105ab91906111fd565b60025f3373ffffffffffffffffffffffffffffffffffffffff1673ffffffffffffffffffffffffffffffffffffffff1681526020019081526020015f20819055507f514aa679e3eafc0acc5a1d32f4f8d180cc8768e0d66f8a9ab968613d762b9f4d338260405161061d929190611230565b60405180910390a16298968063ffffffff1660025f3373ffffffffffffffffffffffffffffffffffffffff1673ffffffffffffffffffffffffffffffffffffffff1681526020019081526020015f205411801561071057505f7f000000000000000000000000000000000000000000000000000000000000000073ffffffffffffffffffffffffffffffffffffffff166370a08231336040518263ffffffff1660e01b81526004016106cf9190611026565b602060405180830381865afa1580156106ea573d5f5f3e3d5ffd5b505050506040513d601f19601f8201168201806040525081019061070e9190611107565b145b1561071f5761071e33610b5c565b5b50565b61072a6109e5565b5f4790505f7f000000000000000000000000000000000000000000000000000000000000000073ffffffffffffffffffffffffffffffffffffffff166370a08231306040518263ffffffff1660e01b81526004016107889190611026565b602060405180830381865afa1580156107a3573d5f5f3e3d5ffd5b505050506040513d601f19601f820116820180604052508101906107c79190611107565b90505f821115610814577f4000336a8c5d61c595e3667430fc7c8f82d9dd9b3e543dbba3223a3a8d554e203383604051610802929190611230565b60405180910390a161081382610c04565b5b5f8111156108a1577f4000336a8c5d61c595e3667430fc7c8f82d9dd9b3e543dbba3223a3a8d554e20338260405161084d929190611230565b60405180910390a16108a033827f000000000000000000000000000000000000000000000000000000000000000073ffffffffffffffffffffffffffffffffffffffff16610cb59092919063ffffffff16565b5b5050565b60015f9054906101000a900473ffffffffffffffffffffffffffffffffffffffff1681565b6002602052805f5260405f205f915090505481565b6108e76109e5565b5f73ffffffffffffffffffffffffffffffffffffffff168173ffffffffffffffffffffffffffffffffffffffff1603610957575f6040517f1e4fbdf700000000000000000000000000000000000000000000000000000000815260040161094e9190611026565b60405180910390fd5b61096081610a6c565b50565b6109df848573ffffffffffffffffffffffffffffffffffffffff166323b872dd86868660405160240161099893929190611257565b604051602081830303815290604052915060e01b6020820180517bffffffffffffffffffffffffffffffffffffffffffffffffffffffff8381831617835250505050610d34565b50505050565b6109ed610dcf565b73ffffffffffffffffffffffffffffffffffffffff16610a0b61052f565b73ffffffffffffffffffffffffffffffffffffffff1614610a6a57610a2e610dcf565b6040517f118cdaa7000000000000000000000000000000000000000000000000000000008152600401610a619190611026565b60405180910390fd5b565b5f5f5f9054906101000a900473ffffffffffffffffffffffffffffffffffffffff169050815f5f6101000a81548173ffffffffffffffffffffffffffffffffffffffff021916908373ffffffffffffffffffffffffffffffffffffffff1602179055508173ffffffffffffffffffffffffffffffffffffffff168173ffffffffffffffffffffffffffffffffffffffff167f8be0079c531659141344cd1fd0a4f28419497f9722a3daafe3b4186f6b6457e060405160405180910390a35050565b5f68056bc75e2d63100000610b40610dd6565b83610b4b919061128c565b610b5591906112fa565b9050919050565b5f6040518060a00160405280606d8152602001611588606d913990507f000000000000000000000000000000000000000000000000000000000000000073ffffffffffffffffffffffffffffffffffffffff1663d204c45e83836040518363ffffffff1660e01b8152600401610bd392919061138a565b5f604051808303815f87803b158015610bea575f5ffd5b505af1158015610bfc573d5f5f3e3d5ffd5b505050505050565b5f5f3373ffffffffffffffffffffffffffffffffffffffff1683604051610c2a906113e5565b5f6040518083038185875af1925050503d805f8114610c64576040519150601f19603f3d011682016040523d82523d5f602084013e610c69565b606091505b509150915081610cb057806040517fdf4c71da000000000000000000000000000000000000000000000000000000008152600401610ca7919061144b565b60405180910390fd5b505050565b610d2f838473ffffffffffffffffffffffffffffffffffffffff1663a9059cbb8585604051602401610ce8929190611230565b604051602081830303815290604052915060e01b6020820180517bffffffffffffffffffffffffffffffffffffffffffffffffffffffff8381831617835250505050610d34565b505050565b5f5f60205f8451602086015f885af180610d53576040513d5f823e3d81fd5b3d92505f519150505f8214610d6c576001811415610d87565b5f8473ffffffffffffffffffffffffffffffffffffffff163b145b15610dc957836040517f5274afe7000000000000000000000000000000000000000000000000000000008152600401610dc09190611026565b60405180910390fd5b50505050565b5f33905090565b5f5f5f60015f9054906101000a900473ffffffffffffffffffffffffffffffffffffffff1673ffffffffffffffffffffffffffffffffffffffff1663feaf968c6040518163ffffffff1660e01b815260040160a060405180830381865afa158015610e43573d5f5f3e3d5ffd5b505050506040513d601f19601f82011682018060405250810190610e6791906114dd565b509350509250505f8203610ea7576040517f155a843000000000000000000000000000000000000000000000000000000000815260040160405180910390fd5b610e1061ffff168142610eba9190611554565b1115610ef2576040517f65d4644700000000000000000000000000000000000000000000000000000000815260040160405180910390fd5b819250505090565b5f5ffd5b5f819050919050565b610f1081610efe565b8114610f1a575f5ffd5b50565b5f81359050610f2b81610f07565b92915050565b5f60208284031215610f4657610f45610efa565b5b5f610f5384828501610f1d565b91505092915050565b610f6581610efe565b82525050565b5f604082019050610f7e5f830185610f5c565b610f8b6020830184610f5c565b9392505050565b5f73ffffffffffffffffffffffffffffffffffffffff82169050919050565b5f610fbb82610f92565b9050919050565b610fcb81610fb1565b8114610fd5575f5ffd5b50565b5f81359050610fe681610fc2565b92915050565b5f6020828403121561100157611000610efa565b5b5f61100e84828501610fd8565b91505092915050565b61102081610fb1565b82525050565b5f6020820190506110395f830184611017565b92915050565b5f819050919050565b5f61106261105d61105884610f92565b61103f565b610f92565b9050919050565b5f61107382611048565b9050919050565b5f61108482611069565b9050919050565b6110948161107a565b82525050565b5f6020820190506110ad5f83018461108b565b92915050565b5f6020820190506110c65f830184610f5c565b92915050565b5f6040820190506110df5f830185611017565b6110ec6020830184611017565b9392505050565b5f8151905061110181610f07565b92915050565b5f6020828403121561111c5761111b610efa565b5b5f611129848285016110f3565b91505092915050565b5f82825260208201905092915050565b7f446f6e6174696f6e7356323a20616c6c6f77616e636520696e737566666963695f8201527f656e740000000000000000000000000000000000000000000000000000000000602082015250565b5f61119c602383611132565b91506111a782611142565b604082019050919050565b5f6020820190508181035f8301526111c981611190565b9050919050565b7f4e487b71000000000000000000000000000000000000000000000000000000005f52601160045260245ffd5b5f61120782610efe565b915061121283610efe565b925082820190508082111561122a576112296111d0565b5b92915050565b5f6040820190506112435f830185611017565b6112506020830184610f5c565b9392505050565b5f60608201905061126a5f830186611017565b6112776020830185611017565b6112846040830184610f5c565b949350505050565b5f61129682610efe565b91506112a183610efe565b92508282026112af81610efe565b915082820484148315176112c6576112c56111d0565b5b5092915050565b7f4e487b71000000000000000000000000000000000000000000000000000000005f52601260045260245ffd5b5f61130482610efe565b915061130f83610efe565b92508261131f5761131e6112cd565b5b828204905092915050565b5f81519050919050565b8281835e5f83830152505050565b5f601f19601f8301169050919050565b5f61135c8261132a565b6113668185611132565b9350611376818560208601611334565b61137f81611342565b840191505092915050565b5f60408201905061139d5f830185611017565b81810360208301526113af8184611352565b90509392505050565b5f81905092915050565b50565b5f6113d05f836113b8565b91506113db826113c2565b5f82019050919050565b5f6113ef826113c5565b9150819050919050565b5f81519050919050565b5f82825260208201905092915050565b5f61141d826113f9565b6114278185611403565b9350611437818560208601611334565b61144081611342565b840191505092915050565b5f6020820190508181035f8301526114638184611413565b905092915050565b5f69ffffffffffffffffffff82169050919050565b6114898161146b565b8114611493575f5ffd5b50565b5f815190506114a481611480565b92915050565b5f819050919050565b6114bc816114aa565b81146114c6575f5ffd5b50565b5f815190506114d7816114b3565b92915050565b5f5f5f5f5f60a086880312156114f6576114f5610efa565b5b5f61150388828901611496565b9550506020611514888289016114c9565b9450506040611525888289016110f3565b9350506060611536888289016110f3565b925050608061154788828901611496565b9150509295509295909350565b5f61155e82610efe565b915061156983610efe565b9250828203905081811115611581576115806111d0565b5b9291505056fe68747470733a2f2f74757271756f6973652d6a756e696f722d7175656c65612d3638342e6d7970696e6174612e636c6f75642f697066732f516d524e71575a334c774d5957486b316869796d377758727a345753477465785232594e527a76466e31686568562f302e6a736f6ea26469706673582212201308f6f5e91b54dd9399c021a8b47a15f24fd6e4f7ca5ae232fce5f9eb37664f64736f6c634300081e0033",
			"opcodes": "PUSH1 0xC0 PUSH1 0x40 MSTORE CALLVALUE DUP1 ISZERO PUSH2 0xF JUMPI PUSH0 PUSH0 REVERT JUMPDEST POP PUSH1 0x40 MLOAD PUSH2 0x197C CODESIZE SUB DUP1 PUSH2 0x197C DUP4 CODECOPY DUP2 DUP2 ADD PUSH1 0x40 MSTORE DUP2 ADD SWAP1 PUSH2 0x31 SWAP2 SWAP1 PUSH2 0x282 JUMP JUMPDEST DUP1 PUSH0 PUSH20 0xFFFFFFFFFFFFFFFFFFFFFFFFFFFFFFFFFFFFFFFF AND DUP2 PUSH20 0xFFFFFFFFFFFFFFFFFFFFFFFFFFFFFFFFFFFFFFFF AND SUB PUSH2 0xA2 JUMPI PUSH0 PUSH1 0x40 MLOAD PUSH32 0x1E4FBDF700000000000000000000000000000000000000000000000000000000 DUP2 MSTORE PUSH1 0x4 ADD PUSH2 0x99 SWAP2 SWAP1 PUSH2 0x2F5 JUMP JUMPDEST PUSH1 0x40 MLOAD DUP1 SWAP2 SUB SWAP1 REVERT JUMPDEST PUSH2 0xB1 DUP2 PUSH2 0x163 PUSH1 0x20 SHL PUSH1 0x20 SHR JUMP JUMPDEST POP DUP4 PUSH1 0x1 PUSH0 PUSH2 0x100 EXP DUP2 SLOAD DUP2 PUSH20 0xFFFFFFFFFFFFFFFFFFFFFFFFFFFFFFFFFFFFFFFF MUL NOT AND SWAP1 DUP4 PUSH20 0xFFFFFFFFFFFFFFFFFFFFFFFFFFFFFFFFFFFFFFFF AND MUL OR SWAP1 SSTORE POP DUP3 PUSH20 0xFFFFFFFFFFFFFFFFFFFFFFFFFFFFFFFFFFFFFFFF AND PUSH1 0x80 DUP2 PUSH20 0xFFFFFFFFFFFFFFFFFFFFFFFFFFFFFFFFFFFFFFFF AND DUP2 MSTORE POP POP DUP2 PUSH20 0xFFFFFFFFFFFFFFFFFFFFFFFFFFFFFFFFFFFFFFFF AND PUSH1 0xA0 DUP2 PUSH20 0xFFFFFFFFFFFFFFFFFFFFFFFFFFFFFFFFFFFFFFFF AND DUP2 MSTORE POP POP POP POP POP POP PUSH2 0x30E JUMP JUMPDEST PUSH0 PUSH0 PUSH0 SWAP1 SLOAD SWAP1 PUSH2 0x100 EXP SWAP1 DIV PUSH20 0xFFFFFFFFFFFFFFFFFFFFFFFFFFFFFFFFFFFFFFFF AND SWAP1 POP DUP2 PUSH0 PUSH0 PUSH2 0x100 EXP DUP2 SLOAD DUP2 PUSH20 0xFFFFFFFFFFFFFFFFFFFFFFFFFFFFFFFFFFFFFFFF MUL NOT AND SWAP1 DUP4 PUSH20 0xFFFFFFFFFFFFFFFFFFFFFFFFFFFFFFFFFFFFFFFF AND MUL OR SWAP1 SSTORE POP DUP2 PUSH20 0xFFFFFFFFFFFFFFFFFFFFFFFFFFFFFFFFFFFFFFFF AND DUP2 PUSH20 0xFFFFFFFFFFFFFFFFFFFFFFFFFFFFFFFFFFFFFFFF AND PUSH32 0x8BE0079C531659141344CD1FD0A4F28419497F9722A3DAAFE3B4186F6B6457E0 PUSH1 0x40 MLOAD PUSH1 0x40 MLOAD DUP1 SWAP2 SUB SWAP1 LOG3 POP POP JUMP JUMPDEST PUSH0 PUSH0 REVERT JUMPDEST PUSH0 PUSH20 0xFFFFFFFFFFFFFFFFFFFFFFFFFFFFFFFFFFFFFFFF DUP3 AND SWAP1 POP SWAP2 SWAP1 POP JUMP JUMPDEST PUSH0 PUSH2 0x251 DUP3 PUSH2 0x228 JUMP JUMPDEST SWAP1 POP SWAP2 SWAP1 POP JUMP JUMPDEST PUSH2 0x261 DUP2 PUSH2 0x247 JUMP JUMPDEST DUP2 EQ PUSH2 0x26B JUMPI PUSH0 PUSH0 REVERT JUMPDEST POP JUMP JUMPDEST PUSH0 DUP2 MLOAD SWAP1 POP PUSH2 0x27C DUP2 PUSH2 0x258 JUMP JUMPDEST SWAP3 SWAP2 POP POP JUMP JUMPDEST PUSH0 PUSH0 PUSH0 PUSH0 PUSH1 0x80 DUP6 DUP8 SUB SLT ISZERO PUSH2 0x29A JUMPI PUSH2 0x299 PUSH2 0x224 JUMP JUMPDEST JUMPDEST PUSH0 PUSH2 0x2A7 DUP8 DUP3 DUP9 ADD PUSH2 0x26E JUMP JUMPDEST SWAP5 POP POP PUSH1 0x20 PUSH2 0x2B8 DUP8 DUP3 DUP9 ADD PUSH2 0x26E JUMP JUMPDEST SWAP4 POP POP PUSH1 0x40 PUSH2 0x2C9 DUP8 DUP3 DUP9 ADD PUSH2 0x26E JUMP JUMPDEST SWAP3 POP POP PUSH1 0x60 PUSH2 0x2DA DUP8 DUP3 DUP9 ADD PUSH2 0x26E JUMP JUMPDEST SWAP2 POP POP SWAP3 SWAP6 SWAP2 SWAP5 POP SWAP3 POP JUMP JUMPDEST PUSH2 0x2EF DUP2 PUSH2 0x247 JUMP JUMPDEST DUP3 MSTORE POP POP JUMP JUMPDEST PUSH0 PUSH1 0x20 DUP3 ADD SWAP1 POP PUSH2 0x308 PUSH0 DUP4 ADD DUP5 PUSH2 0x2E6 JUMP JUMPDEST SWAP3 SWAP2 POP POP JUMP JUMPDEST PUSH1 0x80 MLOAD PUSH1 0xA0 MLOAD PUSH2 0x162A PUSH2 0x352 PUSH0 CODECOPY PUSH0 DUP2 DUP2 PUSH2 0x678 ADD MSTORE PUSH2 0xB7A ADD MSTORE PUSH0 DUP2 DUP2 PUSH2 0x200 ADD MSTORE DUP2 DUP2 PUSH2 0x371 ADD MSTORE DUP2 DUP2 PUSH2 0x3BE ADD MSTORE DUP2 DUP2 PUSH2 0x731 ADD MSTORE PUSH2 0x85C ADD MSTORE PUSH2 0x162A PUSH0 RETURN INVALID PUSH1 0x80 PUSH1 0x40 MSTORE PUSH1 0x4 CALLDATASIZE LT PUSH2 0x90 JUMPI PUSH0 CALLDATALOAD PUSH1 0xE0 SHR DUP1 PUSH4 0x8E014298 GT PUSH2 0x58 JUMPI DUP1 PUSH4 0x8E014298 EQ PUSH2 0x14F JUMPI DUP1 PUSH4 0xBEA79E82 EQ PUSH2 0x159 JUMPI DUP1 PUSH4 0xC77E551B EQ PUSH2 0x16F JUMPI DUP1 PUSH4 0xC82F6B1A EQ PUSH2 0x199 JUMPI DUP1 PUSH4 0xF2FDE38B EQ PUSH2 0x1D5 JUMPI PUSH2 0x90 JUMP JUMPDEST DUP1 PUSH4 0x28AA32E1 EQ PUSH2 0x94 JUMPI DUP1 PUSH4 0x5E0EA211 EQ PUSH2 0xBC JUMPI DUP1 PUSH4 0x715018A6 EQ PUSH2 0xE7 JUMPI DUP1 PUSH4 0x7DC532C5 EQ PUSH2 0xFD JUMPI DUP1 PUSH4 0x8DA5CB5B EQ PUSH2 0x125 JUMPI JUMPDEST PUSH0 PUSH0 REVERT JUMPDEST CALLVALUE DUP1 ISZERO PUSH2 0x9F JUMPI PUSH0 PUSH0 REVERT JUMPDEST POP PUSH2 0xBA PUSH1 0x4 DUP1 CALLDATASIZE SUB DUP2 ADD SWAP1 PUSH2 0xB5 SWAP2 SWAP1 PUSH2 0xF31 JUMP JUMPDEST PUSH2 0x1FD JUMP JUMPDEST STOP JUMPDEST CALLVALUE DUP1 ISZERO PUSH2 0xC7 JUMPI PUSH0 PUSH0 REVERT JUMPDEST POP PUSH2 0xD0 PUSH2 0x3BA JUMP JUMPDEST PUSH1 0x40 MLOAD PUSH2 0xDE SWAP3 SWAP2 SWAP1 PUSH2 0xF6B JUMP JUMPDEST PUSH1 0x40 MLOAD DUP1 SWAP2 SUB SWAP1 RETURN JUMPDEST CALLVALUE DUP1 ISZERO PUSH2 0xF2 JUMPI PUSH0 PUSH0 REVERT JUMPDEST POP PUSH2 0xFB PUSH2 0x49A JUMP JUMPDEST STOP JUMPDEST CALLVALUE DUP1 ISZERO PUSH2 0x108 JUMPI PUSH0 PUSH0 REVERT JUMPDEST POP PUSH2 0x123 PUSH1 0x4 DUP1 CALLDATASIZE SUB DUP2 ADD SWAP1 PUSH2 0x11E SWAP2 SWAP1 PUSH2 0xFEC JUMP JUMPDEST PUSH2 0x4AD JUMP JUMPDEST STOP JUMPDEST CALLVALUE DUP1 ISZERO PUSH2 0x130 JUMPI PUSH0 PUSH0 REVERT JUMPDEST POP PUSH2 0x139 PUSH2 0x52F JUMP JUMPDEST PUSH1 0x40 MLOAD PUSH2 0x146 SWAP2 SWAP1 PUSH2 0x1026 JUMP JUMPDEST PUSH1 0x40 MLOAD DUP1 SWAP2 SUB SWAP1 RETURN JUMPDEST PUSH2 0x157 PUSH2 0x556 JUMP JUMPDEST STOP JUMPDEST CALLVALUE DUP1 ISZERO PUSH2 0x164 JUMPI PUSH0 PUSH0 REVERT JUMPDEST POP PUSH2 0x16D PUSH2 0x722 JUMP JUMPDEST STOP JUMPDEST CALLVALUE DUP1 ISZERO PUSH2 0x17A JUMPI PUSH0 PUSH0 REVERT JUMPDEST POP PUSH2 0x183 PUSH2 0x8A5 JUMP JUMPDEST PUSH1 0x40 MLOAD PUSH2 0x190 SWAP2 SWAP1 PUSH2 0x109A JUMP JUMPDEST PUSH1 0x40 MLOAD DUP1 SWAP2 SUB SWAP1 RETURN JUMPDEST CALLVALUE DUP1 ISZERO PUSH2 0x1A4 JUMPI PUSH0 PUSH0 REVERT JUMPDEST POP PUSH2 0x1BF PUSH1 0x4 DUP1 CALLDATASIZE SUB DUP2 ADD SWAP1 PUSH2 0x1BA SWAP2 SWAP1 PUSH2 0xFEC JUMP JUMPDEST PUSH2 0x8CA JUMP JUMPDEST PUSH1 0x40 MLOAD PUSH2 0x1CC SWAP2 SWAP1 PUSH2 0x10B3 JUMP JUMPDEST PUSH1 0x40 MLOAD DUP1 SWAP2 SUB SWAP1 RETURN JUMPDEST CALLVALUE DUP1 ISZERO PUSH2 0x1E0 JUMPI PUSH0 PUSH0 REVERT JUMPDEST POP PUSH2 0x1FB PUSH1 0x4 DUP1 CALLDATASIZE SUB DUP2 ADD SWAP1 PUSH2 0x1F6 SWAP2 SWAP1 PUSH2 0xFEC JUMP JUMPDEST PUSH2 0x8DF JUMP JUMPDEST STOP JUMPDEST PUSH0 PUSH32 0x0 PUSH20 0xFFFFFFFFFFFFFFFFFFFFFFFFFFFFFFFFFFFFFFFF AND PUSH4 0xDD62ED3E CALLER ADDRESS PUSH1 0x40 MLOAD DUP4 PUSH4 0xFFFFFFFF AND PUSH1 0xE0 SHL DUP2 MSTORE PUSH1 0x4 ADD PUSH2 0x259 SWAP3 SWAP2 SWAP1 PUSH2 0x10CC JUMP JUMPDEST PUSH1 0x20 PUSH1 0x40 MLOAD DUP1 DUP4 SUB DUP2 DUP7 GAS STATICCALL ISZERO DUP1 ISZERO PUSH2 0x274 JUMPI RETURNDATASIZE PUSH0 PUSH0 RETURNDATACOPY RETURNDATASIZE PUSH0 REVERT JUMPDEST POP POP POP POP PUSH1 0x40 MLOAD RETURNDATASIZE PUSH1 0x1F NOT PUSH1 0x1F DUP3 ADD AND DUP3 ADD DUP1 PUSH1 0x40 MSTORE POP DUP2 ADD SWAP1 PUSH2 0x298 SWAP2 SWAP1 PUSH2 0x1107 JUMP JUMPDEST SWAP1 POP DUP2 DUP2 LT ISZERO PUSH2 0x2DD JUMPI PUSH1 0x40 MLOAD PUSH32 0x8C379A000000000000000000000000000000000000000000000000000000000 DUP2 MSTORE PUSH1 0x4 ADD PUSH2 0x2D4 SWAP1 PUSH2 0x11B2 JUMP JUMPDEST PUSH1 0x40 MLOAD DUP1 SWAP2 SUB SWAP1 REVERT JUMPDEST DUP2 PUSH1 0x2 PUSH0 CALLER PUSH20 0xFFFFFFFFFFFFFFFFFFFFFFFFFFFFFFFFFFFFFFFF AND PUSH20 0xFFFFFFFFFFFFFFFFFFFFFFFFFFFFFFFFFFFFFFFF AND DUP2 MSTORE PUSH1 0x20 ADD SWAP1 DUP2 MSTORE PUSH1 0x20 ADD PUSH0 KECCAK256 PUSH0 DUP3 DUP3 SLOAD PUSH2 0x329 SWAP2 SWAP1 PUSH2 0x11FD JUMP JUMPDEST SWAP3 POP POP DUP2 SWAP1 SSTORE POP PUSH32 0x514AA679E3EAFC0ACC5A1D32F4F8D180CC8768E0D66F8A9AB968613D762B9F4D CALLER DUP4 PUSH1 0x40 MLOAD PUSH2 0x361 SWAP3 SWAP2 SWAP1 PUSH2 0x1230 JUMP JUMPDEST PUSH1 0x40 MLOAD DUP1 SWAP2 SUB SWAP1 LOG1 PUSH2 0x3B6 CALLER ADDRESS DUP5 PUSH32 0x0 PUSH20 0xFFFFFFFFFFFFFFFFFFFFFFFFFFFFFFFFFFFFFFFF AND PUSH2 0x963 SWAP1 SWAP4 SWAP3 SWAP2 SWAP1 PUSH4 0xFFFFFFFF AND JUMP JUMPDEST POP POP JUMP JUMPDEST PUSH0 PUSH0 PUSH32 0x0 PUSH20 0xFFFFFFFFFFFFFFFFFFFFFFFFFFFFFFFFFFFFFFFF AND PUSH4 0x70A08231 CALLER PUSH1 0x40 MLOAD DUP3 PUSH4 0xFFFFFFFF AND PUSH1 0xE0 SHL DUP2 MSTORE PUSH1 0x4 ADD PUSH2 0x415 SWAP2 SWAP1 PUSH2 0x1026 JUMP JUMPDEST PUSH1 0x20 PUSH1 0x40 MLOAD DUP1 DUP4 SUB DUP2 DUP7 GAS STATICCALL ISZERO DUP1 ISZERO PUSH2 0x430 JUMPI RETURNDATASIZE PUSH0 PUSH0 RETURNDATACOPY RETURNDATASIZE PUSH0 REVERT JUMPDEST POP POP POP POP PUSH1 0x40 MLOAD RETURNDATASIZE PUSH1 0x1F NOT PUSH1 0x1F DUP3 ADD AND DUP3 ADD DUP1 PUSH1 0x40 MSTORE POP DUP2 ADD SWAP1 PUSH2 0x454 SWAP2 SWAP1 PUSH2 0x1107 JUMP JUMPDEST SWAP2 POP PUSH1 0x2 PUSH0 CALLER PUSH20 0xFFFFFFFFFFFFFFFFFFFFFFFFFFFFFFFFFFFFFFFF AND PUSH20 0xFFFFFFFFFFFFFFFFFFFFFFFFFFFFFFFFFFFFFFFF AND DUP2 MSTORE PUSH1 0x20 ADD SWAP1 DUP2 MSTORE PUSH1 0x20 ADD PUSH0 KECCAK256 SLOAD SWAP1 POP SWAP1 SWAP2 JUMP JUMPDEST PUSH2 0x4A2 PUSH2 0x9E5 JUMP JUMPDEST PUSH2 0x4AB PUSH0 PUSH2 0xA6C JUMP JUMPDEST JUMP JUMPDEST PUSH2 0x4B5 PUSH2 0x9E5 JUMP JUMPDEST DUP1 PUSH1 0x1 PUSH0 PUSH2 0x100 EXP DUP2 SLOAD DUP2 PUSH20 0xFFFFFFFFFFFFFFFFFFFFFFFFFFFFFFFFFFFFFFFF MUL NOT AND SWAP1 DUP4 PUSH20 0xFFFFFFFFFFFFFFFFFFFFFFFFFFFFFFFFFFFFFFFF AND MUL OR SWAP1 SSTORE POP PUSH32 0xD981EAE15785E8BE59F516AB5A307801DF02EEE57C2BF2F1389116A2E00ED21 DUP2 PUSH1 0x40 MLOAD PUSH2 0x524 SWAP2 SWAP1 PUSH2 0x1026 JUMP JUMPDEST PUSH1 0x40 MLOAD DUP1 SWAP2 SUB SWAP1 LOG1 POP JUMP JUMPDEST PUSH0 PUSH0 PUSH0 SWAP1 SLOAD SWAP1 PUSH2 0x100 EXP SWAP1 DIV PUSH20 0xFFFFFFFFFFFFFFFFFFFFFFFFFFFFFFFFFFFFFFFF AND SWAP1 POP SWAP1 JUMP JUMPDEST PUSH0 PUSH2 0x560 CALLVALUE PUSH2 0xB2D JUMP JUMPDEST SWAP1 POP DUP1 PUSH1 0x2 PUSH0 CALLER PUSH20 0xFFFFFFFFFFFFFFFFFFFFFFFFFFFFFFFFFFFFFFFF AND PUSH20 0xFFFFFFFFFFFFFFFFFFFFFFFFFFFFFFFFFFFFFFFF AND DUP2 MSTORE PUSH1 0x20 ADD SWAP1 DUP2 MSTORE PUSH1 0x20 ADD PUSH0 KECCAK256 SLOAD PUSH2 0x5AB SWAP2 SWAP1 PUSH2 0x11FD JUMP JUMPDEST PUSH1 0x2 PUSH0 CALLER PUSH20 0xFFFFFFFFFFFFFFFFFFFFFFFFFFFFFFFFFFFFFFFF AND PUSH20 0xFFFFFFFFFFFFFFFFFFFFFFFFFFFFFFFFFFFFFFFF AND DUP2 MSTORE PUSH1 0x20 ADD SWAP1 DUP2 MSTORE PUSH1 0x20 ADD PUSH0 KECCAK256 DUP2 SWAP1 SSTORE POP PUSH32 0x514AA679E3EAFC0ACC5A1D32F4F8D180CC8768E0D66F8A9AB968613D762B9F4D CALLER DUP3 PUSH1 0x40 MLOAD PUSH2 0x61D SWAP3 SWAP2 SWAP1 PUSH2 0x1230 JUMP JUMPDEST PUSH1 0x40 MLOAD DUP1 SWAP2 SUB SWAP1 LOG1 PUSH3 0x989680 PUSH4 0xFFFFFFFF AND PUSH1 0x2 PUSH0 CALLER PUSH20 0xFFFFFFFFFFFFFFFFFFFFFFFFFFFFFFFFFFFFFFFF AND PUSH20 0xFFFFFFFFFFFFFFFFFFFFFFFFFFFFFFFFFFFFFFFF AND DUP2 MSTORE PUSH1 0x20 ADD SWAP1 DUP2 MSTORE PUSH1 0x20 ADD PUSH0 KECCAK256 SLOAD GT DUP1 ISZERO PUSH2 0x710 JUMPI POP PUSH0 PUSH32 0x0 PUSH20 0xFFFFFFFFFFFFFFFFFFFFFFFFFFFFFFFFFFFFFFFF AND PUSH4 0x70A08231 CALLER PUSH1 0x40 MLOAD DUP3 PUSH4 0xFFFFFFFF AND PUSH1 0xE0 SHL DUP2 MSTORE PUSH1 0x4 ADD PUSH2 0x6CF SWAP2 SWAP1 PUSH2 0x1026 JUMP JUMPDEST PUSH1 0x20 PUSH1 0x40 MLOAD DUP1 DUP4 SUB DUP2 DUP7 GAS STATICCALL ISZERO DUP1 ISZERO PUSH2 0x6EA JUMPI RETURNDATASIZE PUSH0 PUSH0 RETURNDATACOPY RETURNDATASIZE PUSH0 REVERT JUMPDEST POP POP POP POP PUSH1 0x40 MLOAD RETURNDATASIZE PUSH1 0x1F NOT PUSH1 0x1F DUP3 ADD AND DUP3 ADD DUP1 PUSH1 0x40 MSTORE POP DUP2 ADD SWAP1 PUSH2 0x70E SWAP2 SWAP1 PUSH2 0x1107 JUMP JUMPDEST EQ JUMPDEST ISZERO PUSH2 0x71F JUMPI PUSH2 0x71E CALLER PUSH2 0xB5C JUMP JUMPDEST JUMPDEST POP JUMP JUMPDEST PUSH2 0x72A PUSH2 0x9E5 JUMP JUMPDEST PUSH0 SELFBALANCE SWAP1 POP PUSH0 PUSH32 0x0 PUSH20 0xFFFFFFFFFFFFFFFFFFFFFFFFFFFFFFFFFFFFFFFF AND PUSH4 0x70A08231 ADDRESS PUSH1 0x40 MLOAD DUP3 PUSH4 0xFFFFFFFF AND PUSH1 0xE0 SHL DUP2 MSTORE PUSH1 0x4 ADD PUSH2 0x788 SWAP2 SWAP1 PUSH2 0x1026 JUMP JUMPDEST PUSH1 0x20 PUSH1 0x40 MLOAD DUP1 DUP4 SUB DUP2 DUP7 GAS STATICCALL ISZERO DUP1 ISZERO PUSH2 0x7A3 JUMPI RETURNDATASIZE PUSH0 PUSH0 RETURNDATACOPY RETURNDATASIZE PUSH0 REVERT JUMPDEST POP POP POP POP PUSH1 0x40 MLOAD RETURNDATASIZE PUSH1 0x1F NOT PUSH1 0x1F DUP3 ADD AND DUP3 ADD DUP1 PUSH1 0x40 MSTORE POP DUP2 ADD SWAP1 PUSH2 0x7C7 SWAP2 SWAP1 PUSH2 0x1107 JUMP JUMPDEST SWAP1 POP PUSH0 DUP3 GT ISZERO PUSH2 0x814 JUMPI PUSH32 0x4000336A8C5D61C595E3667430FC7C8F82D9DD9B3E543DBBA3223A3A8D554E20 CALLER DUP4 PUSH1 0x40 MLOAD PUSH2 0x802 SWAP3 SWAP2 SWAP1 PUSH2 0x1230 JUMP JUMPDEST PUSH1 0x40 MLOAD DUP1 SWAP2 SUB SWAP1 LOG1 PUSH2 0x813 DUP3 PUSH2 0xC04 JUMP JUMPDEST JUMPDEST PUSH0 DUP2 GT ISZERO PUSH2 0x8A1 JUMPI PUSH32 0x4000336A8C5D61C595E3667430FC7C8F82D9DD9B3E543DBBA3223A3A8D554E20 CALLER DUP3 PUSH1 0x40 MLOAD PUSH2 0x84D SWAP3 SWAP2 SWAP1 PUSH2 0x1230 JUMP JUMPDEST PUSH1 0x40 MLOAD DUP1 SWAP2 SUB SWAP1 LOG1 PUSH2 0x8A0 CALLER DUP3 PUSH32 0x0 PUSH20 0xFFFFFFFFFFFFFFFFFFFFFFFFFFFFFFFFFFFFFFFF AND PUSH2 0xCB5 SWAP1 SWAP3 SWAP2 SWAP1 PUSH4 0xFFFFFFFF AND JUMP JUMPDEST JUMPDEST POP POP JUMP JUMPDEST PUSH1 0x1 PUSH0 SWAP1 SLOAD SWAP1 PUSH2 0x100 EXP SWAP1 DIV PUSH20 0xFFFFFFFFFFFFFFFFFFFFFFFFFFFFFFFFFFFFFFFF AND DUP2 JUMP JUMPDEST PUSH1 0x2 PUSH1 0x20 MSTORE DUP1 PUSH0 MSTORE PUSH1 0x40 PUSH0 KECCAK256 PUSH0 SWAP2 POP SWAP1 POP SLOAD DUP2 JUMP JUMPDEST PUSH2 0x8E7 PUSH2 0x9E5 JUMP JUMPDEST PUSH0 PUSH20 0xFFFFFFFFFFFFFFFFFFFFFFFFFFFFFFFFFFFFFFFF AND DUP2 PUSH20 0xFFFFFFFFFFFFFFFFFFFFFFFFFFFFFFFFFFFFFFFF AND SUB PUSH2 0x957 JUMPI PUSH0 PUSH1 0x40 MLOAD PUSH32 0x1E4FBDF700000000000000000000000000000000000000000000000000000000 DUP2 MSTORE PUSH1 0x4 ADD PUSH2 0x94E SWAP2 SWAP1 PUSH2 0x1026 JUMP JUMPDEST PUSH1 0x40 MLOAD DUP1 SWAP2 SUB SWAP1 REVERT JUMPDEST PUSH2 0x960 DUP2 PUSH2 0xA6C JUMP JUMPDEST POP JUMP JUMPDEST PUSH2 0x9DF DUP5 DUP6 PUSH20 0xFFFFFFFFFFFFFFFFFFFFFFFFFFFFFFFFFFFFFFFF AND PUSH4 0x23B872DD DUP7 DUP7 DUP7 PUSH1 0x40 MLOAD PUSH1 0x24 ADD PUSH2 0x998 SWAP4 SWAP3 SWAP2 SWAP1 PUSH2 0x1257 JUMP JUMPDEST PUSH1 0x40 MLOAD PUSH1 0x20 DUP2 DUP4 SUB SUB DUP2 MSTORE SWAP1 PUSH1 0x40 MSTORE SWAP2 POP PUSH1 0xE0 SHL PUSH1 0x20 DUP3 ADD DUP1 MLOAD PUSH28 0xFFFFFFFFFFFFFFFFFFFFFFFFFFFFFFFFFFFFFFFFFFFFFFFFFFFFFFFF DUP4 DUP2 DUP4 AND OR DUP4 MSTORE POP POP POP POP PUSH2 0xD34 JUMP JUMPDEST POP POP POP POP JUMP JUMPDEST PUSH2 0x9ED PUSH2 0xDCF JUMP JUMPDEST PUSH20 0xFFFFFFFFFFFFFFFFFFFFFFFFFFFFFFFFFFFFFFFF AND PUSH2 0xA0B PUSH2 0x52F JUMP JUMPDEST PUSH20 0xFFFFFFFFFFFFFFFFFFFFFFFFFFFFFFFFFFFFFFFF AND EQ PUSH2 0xA6A JUMPI PUSH2 0xA2E PUSH2 0xDCF JUMP JUMPDEST PUSH1 0x40 MLOAD PUSH32 0x118CDAA700000000000000000000000000000000000000000000000000000000 DUP2 MSTORE PUSH1 0x4 ADD PUSH2 0xA61 SWAP2 SWAP1 PUSH2 0x1026 JUMP JUMPDEST PUSH1 0x40 MLOAD DUP1 SWAP2 SUB SWAP1 REVERT JUMPDEST JUMP JUMPDEST PUSH0 PUSH0 PUSH0 SWAP1 SLOAD SWAP1 PUSH2 0x100 EXP SWAP1 DIV PUSH20 0xFFFFFFFFFFFFFFFFFFFFFFFFFFFFFFFFFFFFFFFF AND SWAP1 POP DUP2 PUSH0 PUSH0 PUSH2 0x100 EXP DUP2 SLOAD DUP2 PUSH20 0xFFFFFFFFFFFFFFFFFFFFFFFFFFFFFFFFFFFFFFFF MUL NOT AND SWAP1 DUP4 PUSH20 0xFFFFFFFFFFFFFFFFFFFFFFFFFFFFFFFFFFFFFFFF AND MUL OR SWAP1 SSTORE POP DUP2 PUSH20 0xFFFFFFFFFFFFFFFFFFFFFFFFFFFFFFFFFFFFFFFF AND DUP2 PUSH20 0xFFFFFFFFFFFFFFFFFFFFFFFFFFFFFFFFFFFFFFFF AND PUSH32 0x8BE0079C531659141344CD1FD0A4F28419497F9722A3DAAFE3B4186F6B6457E0 PUSH1 0x40 MLOAD PUSH1 0x40 MLOAD DUP1 SWAP2 SUB SWAP1 LOG3 POP POP JUMP JUMPDEST PUSH0 PUSH9 0x56BC75E2D63100000 PUSH2 0xB40 PUSH2 0xDD6 JUMP JUMPDEST DUP4 PUSH2 0xB4B SWAP2 SWAP1 PUSH2 0x128C JUMP JUMPDEST PUSH2 0xB55 SWAP2 SWAP1 PUSH2 0x12FA JUMP JUMPDEST SWAP1 POP SWAP2 SWAP1 POP JUMP JUMPDEST PUSH0 PUSH1 0x40 MLOAD DUP1 PUSH1 0xA0 ADD PUSH1 0x40 MSTORE DUP1 PUSH1 0x6D DUP2 MSTORE PUSH1 0x20 ADD PUSH2 0x1588 PUSH1 0x6D SWAP2 CODECOPY SWAP1 POP PUSH32 0x0 PUSH20 0xFFFFFFFFFFFFFFFFFFFFFFFFFFFFFFFFFFFFFFFF AND PUSH4 0xD204C45E DUP4 DUP4 PUSH1 0x40 MLOAD DUP4 PUSH4 0xFFFFFFFF AND PUSH1 0xE0 SHL DUP2 MSTORE PUSH1 0x4 ADD PUSH2 0xBD3 SWAP3 SWAP2 SWAP1 PUSH2 0x138A JUMP JUMPDEST PUSH0 PUSH1 0x40 MLOAD DUP1 DUP4 SUB DUP2 PUSH0 DUP8 DUP1 EXTCODESIZE ISZERO DUP1 ISZERO PUSH2 0xBEA JUMPI PUSH0 PUSH0 REVERT JUMPDEST POP GAS CALL ISZERO DUP1 ISZERO PUSH2 0xBFC JUMPI RETURNDATASIZE PUSH0 PUSH0 RETURNDATACOPY RETURNDATASIZE PUSH0 REVERT JUMPDEST POP POP POP POP POP POP JUMP JUMPDEST PUSH0 PUSH0 CALLER PUSH20 0xFFFFFFFFFFFFFFFFFFFFFFFFFFFFFFFFFFFFFFFF AND DUP4 PUSH1 0x40 MLOAD PUSH2 0xC2A SWAP1 PUSH2 0x13E5 JUMP JUMPDEST PUSH0 PUSH1 0x40 MLOAD DUP1 DUP4 SUB DUP2 DUP6 DUP8 GAS CALL SWAP3 POP POP POP RETURNDATASIZE DUP1 PUSH0 DUP2 EQ PUSH2 0xC64 JUMPI PUSH1 0x40 MLOAD SWAP2 POP PUSH1 0x1F NOT PUSH1 0x3F RETURNDATASIZE ADD AND DUP3 ADD PUSH1 0x40 MSTORE RETURNDATASIZE DUP3 MSTORE RETURNDATASIZE PUSH0 PUSH1 0x20 DUP5 ADD RETURNDATACOPY PUSH2 0xC69 JUMP JUMPDEST PUSH1 0x60 SWAP2 POP JUMPDEST POP SWAP2 POP SWAP2 POP DUP2 PUSH2 0xCB0 JUMPI DUP1 PUSH1 0x40 MLOAD PUSH32 0xDF4C71DA00000000000000000000000000000000000000000000000000000000 DUP2 MSTORE PUSH1 0x4 ADD PUSH2 0xCA7 SWAP2 SWAP1 PUSH2 0x144B JUMP JUMPDEST PUSH1 0x40 MLOAD DUP1 SWAP2 SUB SWAP1 REVERT JUMPDEST POP POP POP JUMP JUMPDEST PUSH2 0xD2F DUP4 DUP5 PUSH20 0xFFFFFFFFFFFFFFFFFFFFFFFFFFFFFFFFFFFFFFFF AND PUSH4 0xA9059CBB DUP6 DUP6 PUSH1 0x40 MLOAD PUSH1 0x24 ADD PUSH2 0xCE8 SWAP3 SWAP2 SWAP1 PUSH2 0x1230 JUMP JUMPDEST PUSH1 0x40 MLOAD PUSH1 0x20 DUP2 DUP4 SUB SUB DUP2 MSTORE SWAP1 PUSH1 0x40 MSTORE SWAP2 POP PUSH1 0xE0 SHL PUSH1 0x20 DUP3 ADD DUP1 MLOAD PUSH28 0xFFFFFFFFFFFFFFFFFFFFFFFFFFFFFFFFFFFFFFFFFFFFFFFFFFFFFFFF DUP4 DUP2 DUP4 AND OR DUP4 MSTORE POP POP POP POP PUSH2 0xD34 JUMP JUMPDEST POP POP POP JUMP JUMPDEST PUSH0 PUSH0 PUSH1 0x20 PUSH0 DUP5 MLOAD PUSH1 0x20 DUP7 ADD PUSH0 DUP9 GAS CALL DUP1 PUSH2 0xD53 JUMPI PUSH1 0x40 MLOAD RETURNDATASIZE PUSH0 DUP3 RETURNDATACOPY RETURNDATASIZE DUP2 REVERT JUMPDEST RETURNDATASIZE SWAP3 POP PUSH0 MLOAD SWAP2 POP POP PUSH0 DUP3 EQ PUSH2 0xD6C JUMPI PUSH1 0x1 DUP2 EQ ISZERO PUSH2 0xD87 JUMP JUMPDEST PUSH0 DUP5 PUSH20 0xFFFFFFFFFFFFFFFFFFFFFFFFFFFFFFFFFFFFFFFF AND EXTCODESIZE EQ JUMPDEST ISZERO PUSH2 0xDC9 JUMPI DUP4 PUSH1 0x40 MLOAD PUSH32 0x5274AFE700000000000000000000000000000000000000000000000000000000 DUP2 MSTORE PUSH1 0x4 ADD PUSH2 0xDC0 SWAP2 SWAP1 PUSH2 0x1026 JUMP JUMPDEST PUSH1 0x40 MLOAD DUP1 SWAP2 SUB SWAP1 REVERT JUMPDEST POP POP POP POP JUMP JUMPDEST PUSH0 CALLER SWAP1 POP SWAP1 JUMP JUMPDEST PUSH0 PUSH0 PUSH0 PUSH1 0x1 PUSH0 SWAP1 SLOAD SWAP1 PUSH2 0x100 EXP SWAP1 DIV PUSH20 0xFFFFFFFFFFFFFFFFFFFFFFFFFFFFFFFFFFFFFFFF AND PUSH20 0xFFFFFFFFFFFFFFFFFFFFFFFFFFFFFFFFFFFFFFFF AND PUSH4 0xFEAF968C PUSH1 0x40 MLOAD DUP2 PUSH4 0xFFFFFFFF AND PUSH1 0xE0 SHL DUP2 MSTORE PUSH1 0x4 ADD PUSH1 0xA0 PUSH1 0x40 MLOAD DUP1 DUP4 SUB DUP2 DUP7 GAS STATICCALL ISZERO DUP1 ISZERO PUSH2 0xE43 JUMPI RETURNDATASIZE PUSH0 PUSH0 RETURNDATACOPY RETURNDATASIZE PUSH0 REVERT JUMPDEST POP POP POP POP PUSH1 0x40 MLOAD RETURNDATASIZE PUSH1 0x1F NOT PUSH1 0x1F DUP3 ADD AND DUP3 ADD DUP1 PUSH1 0x40 MSTORE POP DUP2 ADD SWAP1 PUSH2 0xE67 SWAP2 SWAP1 PUSH2 0x14DD JUMP JUMPDEST POP SWAP4 POP POP SWAP3 POP POP PUSH0 DUP3 SUB PUSH2 0xEA7 JUMPI PUSH1 0x40 MLOAD PUSH32 0x155A843000000000000000000000000000000000000000000000000000000000 DUP2 MSTORE PUSH1 0x4 ADD PUSH1 0x40 MLOAD DUP1 SWAP2 SUB SWAP1 REVERT JUMPDEST PUSH2 0xE10 PUSH2 0xFFFF AND DUP2 TIMESTAMP PUSH2 0xEBA SWAP2 SWAP1 PUSH2 0x1554 JUMP JUMPDEST GT ISZERO PUSH2 0xEF2 JUMPI PUSH1 0x40 MLOAD PUSH32 0x65D4644700000000000000000000000000000000000000000000000000000000 DUP2 MSTORE PUSH1 0x4 ADD PUSH1 0x40 MLOAD DUP1 SWAP2 SUB SWAP1 REVERT JUMPDEST DUP2 SWAP3 POP POP POP SWAP1 JUMP JUMPDEST PUSH0 PUSH0 REVERT JUMPDEST PUSH0 DUP2 SWAP1 POP SWAP2 SWAP1 POP JUMP JUMPDEST PUSH2 0xF10 DUP2 PUSH2 0xEFE JUMP JUMPDEST DUP2 EQ PUSH2 0xF1A JUMPI PUSH0 PUSH0 REVERT JUMPDEST POP JUMP JUMPDEST PUSH0 DUP2 CALLDATALOAD SWAP1 POP PUSH2 0xF2B DUP2 PUSH2 0xF07 JUMP JUMPDEST SWAP3 SWAP2 POP POP JUMP JUMPDEST PUSH0 PUSH1 0x20 DUP3 DUP5 SUB SLT ISZERO PUSH2 0xF46 JUMPI PUSH2 0xF45 PUSH2 0xEFA JUMP JUMPDEST JUMPDEST PUSH0 PUSH2 0xF53 DUP5 DUP3 DUP6 ADD PUSH2 0xF1D JUMP JUMPDEST SWAP2 POP POP SWAP3 SWAP2 POP POP JUMP JUMPDEST PUSH2 0xF65 DUP2 PUSH2 0xEFE JUMP JUMPDEST DUP3 MSTORE POP POP JUMP JUMPDEST PUSH0 PUSH1 0x40 DUP3 ADD SWAP1 POP PUSH2 0xF7E PUSH0 DUP4 ADD DUP6 PUSH2 0xF5C JUMP JUMPDEST PUSH2 0xF8B PUSH1 0x20 DUP4 ADD DUP5 PUSH2 0xF5C JUMP JUMPDEST SWAP4 SWAP3 POP POP POP JUMP JUMPDEST PUSH0 PUSH20 0xFFFFFFFFFFFFFFFFFFFFFFFFFFFFFFFFFFFFFFFF DUP3 AND SWAP1 POP SWAP2 SWAP1 POP JUMP JUMPDEST PUSH0 PUSH2 0xFBB DUP3 PUSH2 0xF92 JUMP JUMPDEST SWAP1 POP SWAP2 SWAP1 POP JUMP JUMPDEST PUSH2 0xFCB DUP2 PUSH2 0xFB1 JUMP JUMPDEST DUP2 EQ PUSH2 0xFD5 JUMPI PUSH0 PUSH0 REVERT JUMPDEST POP JUMP JUMPDEST PUSH0 DUP2 CALLDATALOAD SWAP1 POP PUSH2 0xFE6 DUP2 PUSH2 0xFC2 JUMP JUMPDEST SWAP3 SWAP2 POP POP JUMP JUMPDEST PUSH0 PUSH1 0x20 DUP3 DUP5 SUB SLT ISZERO PUSH2 0x1001 JUMPI PUSH2 0x1000 PUSH2 0xEFA JUMP JUMPDEST JUMPDEST PUSH0 PUSH2 0x100E DUP5 DUP3 DUP6 ADD PUSH2 0xFD8 JUMP JUMPDEST SWAP2 POP POP SWAP3 SWAP2 POP POP JUMP JUMPDEST PUSH2 0x1020 DUP2 PUSH2 0xFB1 JUMP JUMPDEST DUP3 MSTORE POP POP JUMP JUMPDEST PUSH0 PUSH1 0x20 DUP3 ADD SWAP1 POP PUSH2 0x1039 PUSH0 DUP4 ADD DUP5 PUSH2 0x1017 JUMP JUMPDEST SWAP3 SWAP2 POP POP JUMP JUMPDEST PUSH0 DUP2 SWAP1 POP SWAP2 SWAP1 POP JUMP JUMPDEST PUSH0 PUSH2 0x1062 PUSH2 0x105D PUSH2 0x1058 DUP5 PUSH2 0xF92 JUMP JUMPDEST PUSH2 0x103F JUMP JUMPDEST PUSH2 0xF92 JUMP JUMPDEST SWAP1 POP SWAP2 SWAP1 POP JUMP JUMPDEST PUSH0 PUSH2 0x1073 DUP3 PUSH2 0x1048 JUMP JUMPDEST SWAP1 POP SWAP2 SWAP1 POP JUMP JUMPDEST PUSH0 PUSH2 0x1084 DUP3 PUSH2 0x1069 JUMP JUMPDEST SWAP1 POP SWAP2 SWAP1 POP JUMP JUMPDEST PUSH2 0x1094 DUP2 PUSH2 0x107A JUMP JUMPDEST DUP3 MSTORE POP POP JUMP JUMPDEST PUSH0 PUSH1 0x20 DUP3 ADD SWAP1 POP PUSH2 0x10AD PUSH0 DUP4 ADD DUP5 PUSH2 0x108B JUMP JUMPDEST SWAP3 SWAP2 POP POP JUMP JUMPDEST PUSH0 PUSH1 0x20 DUP3 ADD SWAP1 POP PUSH2 0x10C6 PUSH0 DUP4 ADD DUP5 PUSH2 0xF5C JUMP JUMPDEST SWAP3 SWAP2 POP POP JUMP JUMPDEST PUSH0 PUSH1 0x40 DUP3 ADD SWAP1 POP PUSH2 0x10DF PUSH0 DUP4 ADD DUP6 PUSH2 0x1017 JUMP JUMPDEST PUSH2 0x10EC PUSH1 0x20 DUP4 ADD DUP5 PUSH2 0x1017 JUMP JUMPDEST SWAP4 SWAP3 POP POP POP JUMP JUMPDEST PUSH0 DUP2 MLOAD SWAP1 POP PUSH2 0x1101 DUP2 PUSH2 0xF07 JUMP JUMPDEST SWAP3 SWAP2 POP POP JUMP JUMPDEST PUSH0 PUSH1 0x20 DUP3 DUP5 SUB SLT ISZERO PUSH2 0x111C JUMPI PUSH2 0x111B PUSH2 0xEFA JUMP JUMPDEST JUMPDEST PUSH0 PUSH2 0x1129 DUP5 DUP3 DUP6 ADD PUSH2 0x10F3 JUMP JUMPDEST SWAP2 POP POP SWAP3 SWAP2 POP POP JUMP JUMPDEST PUSH0 DUP3 DUP3 MSTORE PUSH1 0x20 DUP3 ADD SWAP1 POP SWAP3 SWAP2 POP POP JUMP JUMPDEST PUSH32 0x446F6E6174696F6E7356323A20616C6C6F77616E636520696E73756666696369 PUSH0 DUP3 ADD MSTORE PUSH32 0x656E740000000000000000000000000000000000000000000000000000000000 PUSH1 0x20 DUP3 ADD MSTORE POP JUMP JUMPDEST PUSH0 PUSH2 0x119C PUSH1 0x23 DUP4 PUSH2 0x1132 JUMP JUMPDEST SWAP2 POP PUSH2 0x11A7 DUP3 PUSH2 0x1142 JUMP JUMPDEST PUSH1 0x40 DUP3 ADD SWAP1 POP SWAP2 SWAP1 POP JUMP JUMPDEST PUSH0 PUSH1 0x20 DUP3 ADD SWAP1 POP DUP2 DUP2 SUB PUSH0 DUP4 ADD MSTORE PUSH2 0x11C9 DUP2 PUSH2 0x1190 JUMP JUMPDEST SWAP1 POP SWAP2 SWAP1 POP JUMP JUMPDEST PUSH32 0x4E487B7100000000000000000000000000000000000000000000000000000000 PUSH0 MSTORE PUSH1 0x11 PUSH1 0x4 MSTORE PUSH1 0x24 PUSH0 REVERT JUMPDEST PUSH0 PUSH2 0x1207 DUP3 PUSH2 0xEFE JUMP JUMPDEST SWAP2 POP PUSH2 0x1212 DUP4 PUSH2 0xEFE JUMP JUMPDEST SWAP3 POP DUP3 DUP3 ADD SWAP1 POP DUP1 DUP3 GT ISZERO PUSH2 0x122A JUMPI PUSH2 0x1229 PUSH2 0x11D0 JUMP JUMPDEST JUMPDEST SWAP3 SWAP2 POP POP JUMP JUMPDEST PUSH0 PUSH1 0x40 DUP3 ADD SWAP1 POP PUSH2 0x1243 PUSH0 DUP4 ADD DUP6 PUSH2 0x1017 JUMP JUMPDEST PUSH2 0x1250 PUSH1 0x20 DUP4 ADD DUP5 PUSH2 0xF5C JUMP JUMPDEST SWAP4 SWAP3 POP POP POP JUMP JUMPDEST PUSH0 PUSH1 0x60 DUP3 ADD SWAP1 POP PUSH2 0x126A PUSH0 DUP4 ADD DUP7 PUSH2 0x1017 JUMP JUMPDEST PUSH2 0x1277 PUSH1 0x20 DUP4 ADD DUP6 PUSH2 0x1017 JUMP JUMPDEST PUSH2 0x1284 PUSH1 0x40 DUP4 ADD DUP5 PUSH2 0xF5C JUMP JUMPDEST SWAP5 SWAP4 POP POP POP POP JUMP JUMPDEST PUSH0 PUSH2 0x1296 DUP3 PUSH2 0xEFE JUMP JUMPDEST SWAP2 POP PUSH2 0x12A1 DUP4 PUSH2 0xEFE JUMP JUMPDEST SWAP3 POP DUP3 DUP3 MUL PUSH2 0x12AF DUP2 PUSH2 0xEFE JUMP JUMPDEST SWAP2 POP DUP3 DUP3 DIV DUP5 EQ DUP4 ISZERO OR PUSH2 0x12C6 JUMPI PUSH2 0x12C5 PUSH2 0x11D0 JUMP JUMPDEST JUMPDEST POP SWAP3 SWAP2 POP POP JUMP JUMPDEST PUSH32 0x4E487B7100000000000000000000000000000000000000000000000000000000 PUSH0 MSTORE PUSH1 0x12 PUSH1 0x4 MSTORE PUSH1 0x24 PUSH0 REVERT JUMPDEST PUSH0 PUSH2 0x1304 DUP3 PUSH2 0xEFE JUMP JUMPDEST SWAP2 POP PUSH2 0x130F DUP4 PUSH2 0xEFE JUMP JUMPDEST SWAP3 POP DUP3 PUSH2 0x131F JUMPI PUSH2 0x131E PUSH2 0x12CD JUMP JUMPDEST JUMPDEST DUP3 DUP3 DIV SWAP1 POP SWAP3 SWAP2 POP POP JUMP JUMPDEST PUSH0 DUP2 MLOAD SWAP1 POP SWAP2 SWAP1 POP JUMP JUMPDEST DUP3 DUP2 DUP4 MCOPY PUSH0 DUP4 DUP4 ADD MSTORE POP POP POP JUMP JUMPDEST PUSH0 PUSH1 0x1F NOT PUSH1 0x1F DUP4 ADD AND SWAP1 POP SWAP2 SWAP1 POP JUMP JUMPDEST PUSH0 PUSH2 0x135C DUP3 PUSH2 0x132A JUMP JUMPDEST PUSH2 0x1366 DUP2 DUP6 PUSH2 0x1132 JUMP JUMPDEST SWAP4 POP PUSH2 0x1376 DUP2 DUP6 PUSH1 0x20 DUP7 ADD PUSH2 0x1334 JUMP JUMPDEST PUSH2 0x137F DUP2 PUSH2 0x1342 JUMP JUMPDEST DUP5 ADD SWAP2 POP POP SWAP3 SWAP2 POP POP JUMP JUMPDEST PUSH0 PUSH1 0x40 DUP3 ADD SWAP1 POP PUSH2 0x139D PUSH0 DUP4 ADD DUP6 PUSH2 0x1017 JUMP JUMPDEST DUP2 DUP2 SUB PUSH1 0x20 DUP4 ADD MSTORE PUSH2 0x13AF DUP2 DUP5 PUSH2 0x1352 JUMP JUMPDEST SWAP1 POP SWAP4 SWAP3 POP POP POP JUMP JUMPDEST PUSH0 DUP2 SWAP1 POP SWAP3 SWAP2 POP POP JUMP JUMPDEST POP JUMP JUMPDEST PUSH0 PUSH2 0x13D0 PUSH0 DUP4 PUSH2 0x13B8 JUMP JUMPDEST SWAP2 POP PUSH2 0x13DB DUP3 PUSH2 0x13C2 JUMP JUMPDEST PUSH0 DUP3 ADD SWAP1 POP SWAP2 SWAP1 POP JUMP JUMPDEST PUSH0 PUSH2 0x13EF DUP3 PUSH2 0x13C5 JUMP JUMPDEST SWAP2 POP DUP2 SWAP1 POP SWAP2 SWAP1 POP JUMP JUMPDEST PUSH0 DUP2 MLOAD SWAP1 POP SWAP2 SWAP1 POP JUMP JUMPDEST PUSH0 DUP3 DUP3 MSTORE PUSH1 0x20 DUP3 ADD SWAP1 POP SWAP3 SWAP2 POP POP JUMP JUMPDEST PUSH0 PUSH2 0x141D DUP3 PUSH2 0x13F9 JUMP JUMPDEST PUSH2 0x1427 DUP2 DUP6 PUSH2 0x1403 JUMP JUMPDEST SWAP4 POP PUSH2 0x1437 DUP2 DUP6 PUSH1 0x20 DUP7 ADD PUSH2 0x1334 JUMP JUMPDEST PUSH2 0x1440 DUP2 PUSH2 0x1342 JUMP JUMPDEST DUP5 ADD SWAP2 POP POP SWAP3 SWAP2 POP POP JUMP JUMPDEST PUSH0 PUSH1 0x20 DUP3 ADD SWAP1 POP DUP2 DUP2 SUB PUSH0 DUP4 ADD MSTORE PUSH2 0x1463 DUP2 DUP5 PUSH2 0x1413 JUMP JUMPDEST SWAP1 POP SWAP3 SWAP2 POP POP JUMP JUMPDEST PUSH0 PUSH10 0xFFFFFFFFFFFFFFFFFFFF DUP3 AND SWAP1 POP SWAP2 SWAP1 POP JUMP JUMPDEST PUSH2 0x1489 DUP2 PUSH2 0x146B JUMP JUMPDEST DUP2 EQ PUSH2 0x1493 JUMPI PUSH0 PUSH0 REVERT JUMPDEST POP JUMP JUMPDEST PUSH0 DUP2 MLOAD SWAP1 POP PUSH2 0x14A4 DUP2 PUSH2 0x1480 JUMP JUMPDEST SWAP3 SWAP2 POP POP JUMP JUMPDEST PUSH0 DUP2 SWAP1 POP SWAP2 SWAP1 POP JUMP JUMPDEST PUSH2 0x14BC DUP2 PUSH2 0x14AA JUMP JUMPDEST DUP2 EQ PUSH2 0x14C6 JUMPI PUSH0 PUSH0 REVERT JUMPDEST POP JUMP JUMPDEST PUSH0 DUP2 MLOAD SWAP1 POP PUSH2 0x14D7 DUP2 PUSH2 0x14B3 JUMP JUMPDEST SWAP3 SWAP2 POP POP JUMP JUMPDEST PUSH0 PUSH0 PUSH0 PUSH0 PUSH0 PUSH1 0xA0 DUP7 DUP9 SUB SLT ISZERO PUSH2 0x14F6 JUMPI PUSH2 0x14F5 PUSH2 0xEFA JUMP JUMPDEST JUMPDEST PUSH0 PUSH2 0x1503 DUP9 DUP3 DUP10 ADD PUSH2 0x1496 JUMP JUMPDEST SWAP6 POP POP PUSH1 0x20 PUSH2 0x1514 DUP9 DUP3 DUP10 ADD PUSH2 0x14C9 JUMP JUMPDEST SWAP5 POP POP PUSH1 0x40 PUSH2 0x1525 DUP9 DUP3 DUP10 ADD PUSH2 0x10F3 JUMP JUMPDEST SWAP4 POP POP PUSH1 0x60 PUSH2 0x1536 DUP9 DUP3 DUP10 ADD PUSH2 0x10F3 JUMP JUMPDEST SWAP3 POP POP PUSH1 0x80 PUSH2 0x1547 DUP9 DUP3 DUP10 ADD PUSH2 0x1496 JUMP JUMPDEST SWAP2 POP POP SWAP3 SWAP6 POP SWAP3 SWAP6 SWAP1 SWAP4 POP JUMP JUMPDEST PUSH0 PUSH2 0x155E DUP3 PUSH2 0xEFE JUMP JUMPDEST SWAP2 POP PUSH2 0x1569 DUP4 PUSH2 0xEFE JUMP JUMPDEST SWAP3 POP DUP3 DUP3 SUB SWAP1 POP DUP2 DUP2 GT ISZERO PUSH2 0x1581 JUMPI PUSH2 0x1580 PUSH2 0x11D0 JUMP JUMPDEST JUMPDEST SWAP3 SWAP2 POP POP JUMP INVALID PUSH9 0x747470733A2F2F7475 PUSH19 0x71756F6973652D6A756E696F722D7175656C65 PUSH2 0x2D36 CODESIZE CALLVALUE 0x2E PUSH14 0x7970696E6174612E636C6F75642F PUSH10 0x7066732F516D524E7157 GAS CALLER 0x4C PUSH24 0x4D5957486B316869796D377758727A345753477465785232 MSIZE 0x4E MSTORE PUSH27 0x76466E31686568562F302E6A736F6EA26469706673582212201308 0xF6 CREATE2 0xE9 SHL SLOAD 0xDD SWAP4 SWAP10 0xC0 0x21 0xA8 0xB4 PUSH27 0x15F24FD6E4F7CA5AE232FCE5F9EB37664F64736F6C634300081E00 CALLER "
		},
		"gasEstimates": {
			"creation": {
				"codeDepositCost": "1134800",
				"executionCost": "infinite",
				"totalCost": "infinite"
			},
			"external": {
				"doeETH()": "infinite",
				"doeUSDC(uint256)": "infinite",
				"getMyUSDCBalance()": "infinite",
				"owner()": "2603",
				"renounceOwnership()": "infinite",
				"s_doacoes(address)": "2868",
				"s_feeds()": "infinite",
				"saque()": "infinite",
				"setFeeds(address)": "infinite",
				"transferOwnership(address)": "infinite"
			},
			"internal": {
				"_mintRewardNFT(address)": "infinite",
				"_transferirEth(uint256)": "infinite",
				"chainlinkFeed()": "infinite",
				"convertEthInUSD(uint256)": "infinite"
			}
		},
		"methodIdentifiers": {
			"doeETH()": "8e014298",
			"doeUSDC(uint256)": "28aa32e1",
			"getMyUSDCBalance()": "5e0ea211",
			"owner()": "8da5cb5b",
			"renounceOwnership()": "715018a6",
			"s_doacoes(address)": "c82f6b1a",
			"s_feeds()": "c77e551b",
			"saque()": "bea79e82",
			"setFeeds(address)": "7dc532c5",
			"transferOwnership(address)": "f2fde38b"
		}
	},
	"abi": [
		{
			"inputs": [
				{
					"internalType": "address",
					"name": "_feed",
					"type": "address"
				},
				{
					"internalType": "address",
					"name": "_usdc",
					"type": "address"
				},
				{
					"internalType": "address",
					"name": "_edp",
					"type": "address"
				},
				{
					"internalType": "address",
					"name": "_owner",
					"type": "address"
				}
			],
			"stateMutability": "nonpayable",
			"type": "constructor"
		},
		{
			"inputs": [
				{
					"internalType": "bytes",
					"name": "error",
					"type": "bytes"
				}
			],
			"name": "DonationsV2_TrasacaoFalhou",
			"type": "error"
		},
		{
			"inputs": [],
			"name": "KipuBank_OracleCompromised",
			"type": "error"
		},
		{
			"inputs": [],
			"name": "KipuBank_StalePrice",
			"type": "error"
		},
		{
			"inputs": [
				{
					"internalType": "address",
					"name": "owner",
					"type": "address"
				}
			],
			"name": "OwnableInvalidOwner",
			"type": "error"
		},
		{
			"inputs": [
				{
					"internalType": "address",
					"name": "account",
					"type": "address"
				}
			],
			"name": "OwnableUnauthorizedAccount",
			"type": "error"
		},
		{
			"inputs": [
				{
					"internalType": "address",
					"name": "token",
					"type": "address"
				}
			],
			"name": "SafeERC20FailedOperation",
			"type": "error"
		},
		{
			"anonymous": false,
			"inputs": [
				{
					"indexed": false,
					"internalType": "address",
					"name": "feed",
					"type": "address"
				}
			],
			"name": "DonationsV2_ChainlinkFeedUpdated",
			"type": "event"
		},
		{
			"anonymous": false,
			"inputs": [
				{
					"indexed": false,
					"internalType": "address",
					"name": "donante",
					"type": "address"
				},
				{
					"indexed": false,
					"internalType": "uint256",
					"name": "valor",
					"type": "uint256"
				}
			],
			"name": "DonationsV2_DoacaoRecebida",
			"type": "event"
		},
		{
			"anonymous": false,
			"inputs": [
				{
					"indexed": false,
					"internalType": "address",
					"name": "receptor",
					"type": "address"
				},
				{
					"indexed": false,
					"internalType": "uint256",
					"name": "valor",
					"type": "uint256"
				}
			],
			"name": "DonationsV2_SaqueRealizado",
			"type": "event"
		},
		{
			"anonymous": false,
			"inputs": [
				{
					"indexed": true,
					"internalType": "address",
					"name": "previousOwner",
					"type": "address"
				},
				{
					"indexed": true,
					"internalType": "address",
					"name": "newOwner",
					"type": "address"
				}
			],
			"name": "OwnershipTransferred",
			"type": "event"
		},
		{
			"inputs": [],
			"name": "doeETH",
			"outputs": [],
			"stateMutability": "payable",
			"type": "function"
		},
		{
			"inputs": [
				{
					"internalType": "uint256",
					"name": "_usdcAmount",
					"type": "uint256"
				}
			],
			"name": "doeUSDC",
			"outputs": [],
			"stateMutability": "nonpayable",
			"type": "function"
		},
		{
			"inputs": [],
			"name": "getMyUSDCBalance",
			"outputs": [
				{
					"internalType": "uint256",
					"name": "walletBalance",
					"type": "uint256"
				},
				{
					"internalType": "uint256",
					"name": "contractBalance",
					"type": "uint256"
				}
			],
			"stateMutability": "view",
			"type": "function"
		},
		{
			"inputs": [],
			"name": "owner",
			"outputs": [
				{
					"internalType": "address",
					"name": "",
					"type": "address"
				}
			],
			"stateMutability": "view",
			"type": "function"
		},
		{
			"inputs": [],
			"name": "renounceOwnership",
			"outputs": [],
			"stateMutability": "nonpayable",
			"type": "function"
		},
		{
			"inputs": [
				{
					"internalType": "address",
					"name": "usuario",
					"type": "address"
				}
			],
			"name": "s_doacoes",
			"outputs": [
				{
					"internalType": "uint256",
					"name": "valor",
					"type": "uint256"
				}
			],
			"stateMutability": "view",
			"type": "function"
		},
		{
			"inputs": [],
			"name": "s_feeds",
			"outputs": [
				{
					"internalType": "contract AggregatorV3Interface",
					"name": "",
					"type": "address"
				}
			],
			"stateMutability": "view",
			"type": "function"
		},
		{
			"inputs": [],
			"name": "saque",
			"outputs": [],
			"stateMutability": "nonpayable",
			"type": "function"
		},
		{
			"inputs": [
				{
					"internalType": "address",
					"name": "_feed",
					"type": "address"
				}
			],
			"name": "setFeeds",
			"outputs": [],
			"stateMutability": "nonpayable",
			"type": "function"
		},
		{
			"inputs": [
				{
					"internalType": "address",
					"name": "newOwner",
					"type": "address"
				}
			],
			"name": "transferOwnership",
			"outputs": [],
			"stateMutability": "nonpayable",
			"type": "function"
		}
	]
}